:020000040800F2
:1000000000040020B9010008BB010008BB01000882
:10001000BB010008BB010008BB010008BB010008D0
:10002000BB010008BB010008BB010008C56D00084A
:10003000BB010008BB010008BB010008C972000831
:10004000BB010008BB010008BB010008BB010008A0
:10005000BB010008BB0100082971000851710008AC
:1000600079710008A1710008C9710008BB0100087E
:10007000BB010008BB01000875730008BB01000844
:10008000F1710008BB010008BB010008BB010008BA
:10009000BB010008BB010008BB010008BB01000850
:1000A000BB010008BB0100084D7300086173000824
:1000B000BB010008BB010008BB010008BB01000830
:1000C000BB01000855720008BB010008BB01000815
:1000D000BB010008BB010008BB010008BB01000810
:1000E00072B6264880F30888254880F30988254899
:1000F00025490860022080F31488BFF36F8F02F057
:100100008DFC02F0BDFC4FF0553020491B4A914256
:100110003CBF41F8040BFAE71D49194A91423CBF24
:1001200041F8040BFAE71B491B4A1C4B9A423EBF9D
:1001300051F8040B42F8040BF8E700201849194A5B
:1001400091423CBF41F8040BFAE702F037FD02F0A0
:1001500033FD154C154DAC4203DA54F8041B8847A7
:10016000F9E705F09FFA124C124DAC4203DA54F84D
:10017000041B8847F9E702F020BD000000040020BE
:10018000000C00200000000808ED00E00000002046
:100190000004002074830008000C0020E8100020F8
:1001A000E81000204C230020E0000008E0000008D8
:1001B000E0000008E000000892E700F000F8FEE729
:1001C0002DE9F04FC1F80CD0C3689D46BDE8F08F13
:1001D000002383F311882846A047002004F074F818
:1001E000FEE702F011FD00DFFEE7000053B94AB957
:1001F000002908BF00281CBF4FF0FF314FF0FF302F
:1002000000F062B9ADF1080C6DE904CE00F006F81B
:10021000DDF804E0DDE9022304B070472DE9F04782
:100220008C46154604461E46089F002B40F0CB80A6
:100230008A4248D9B2FA82F149B1C1F120030CFADD
:1002400001FC20FA03F38D4043EA0C0C8C404FEA8A
:10025000154EBCFBFEF8A8B20EFB18CC08FB00F94B
:10026000230C43EA0C43994529D9EB1808F1FF32D6
:1002700004D2994502D9A8F102022B44A3EB090349
:10028000B3FBFEFC0EFB1C330CFB00F0A4B244EAF3
:100290000344A04215D92C190CF1FF3304D2A0421B
:1002A00002D9ACF102032C44241A43EA02401FB1E4
:1002B0000023CC403C607B603146BDE8F08742467D
:1002C000DCE76346F0E7002A73D0B2FA82F3DBB3CF
:1002D0001E4602FA06F5C6F1200321FA03F24FEAA0
:1002E000154EB14020FA03F30B43B2FBFEF100FAC6
:1002F00006F40EFB112CA8B201FB00F81A0C42EA1E
:100300000C42904557D9AA1801F1FF3C04D2904500
:1003100002D9A1F1020C2A44A2EB0802B2FBFEF1C1
:100320000EFB112248439BB243EA0243984244D950
:10033000EB1801F1FF3203D2984201D98A1E2B44F7
:100340001B1A42EA0C4201E08B1A01224FEA154EB9
:10035000B3FBFEFCA8B20EFB1C330CFB00F8210C17
:1003600041EA034398452AD9EB180CF1FF3104D236
:10037000984502D9ACF102012B44A3EB0803B3FB6F
:10038000FEFC0EFB1C330CFB00F0A4B244EA034459
:10039000A04216D92C190CF1FF3304D2A04202D985
:1003A000ACF102032C44241A43EA014031461646BC
:1003B0007DE71F268DE78C46AEE70A46C0E761461B
:1003C000DBE76346EFE78B4206D917B900263046D4
:1003D00072E7C7E90001F9E7B3FA83F686B98B4201
:1003E00001D3824207D8841A61EB030301209C46A3
:1003F0001FB9002660E73046FAE7C7E9004CF8E786
:10040000C6F1200CB34022FA0CF41C434FEA144905
:1004100021FA0CF3B3FBF9F820FA0CF5B1402943AB
:100420001FFA84FE00FA06F509FB183008FB0EFAE5
:100430000B0C43EA00439A4502FA06F240D9E3184E
:1004400008F1FF3004D29A4502D9A8F102002344F2
:10045000A3EB0A03B3FBF9F809FB183308FB0EFE04
:1004600089B241EA03418E452CD9611808F1FF3366
:1004700004D28E4502D9A8F10203214443EA004088
:10048000A0FB0298A1EB0E014145CE46434602D3A4
:1004900006D14D4504D2B9EB020E68EB04030138D6
:1004A000002FA6D0B5EB0E0261EB030101FA0CFCA4
:1004B00022FA06F34CEA0303F140C7E9003198E75A
:1004C0004046C5E74346D9E7704700BF0D4B0E4A8B
:1004D00018780E4B00F003001B78117840EA830077
:1004E000537849085B089B0243EAC1039178D278AC
:1004F000490843EA4143520843EA0263C0B2184341
:10050000704700BFFD220020F8220020FC220020BE
:10051000074B1B784BB9074B1B7833B9064B1B783D
:10052000FF2B02D0054B187870470220704700BFA0
:10053000FC220020EE220020ED220020FD220020DF
:10054000054B064ADB781278534358434FF6016354
:10055000B0FBF3F0C0B27047F0220020E51000209D
:10056000032807B513D10023ADF804308DF8063009
:1005700000209DF8043063F307009DF8053063F315
:100580000F209DF8063063F3174003B000BD044907
:1005900000EB40000144032201A807F059F9E7E706
:1005A0005E820008FF22064B1A700023054A137072
:1005B000054A1370054A1370054A1370704700BF4F
:1005C000E5100020E0220020D9220020D8220020BF
:1005D000D722002010F0020F0CBF10224FF480121F
:1005E000014B9A61704700BF000800400123034A95
:1005F000834011780B431370704700BF30210020F7
:100600000123034A8340107820EA030010707047EA
:100610003021002001F00703C90801EB410130B58A
:1006200001250A4400219D40013A12F8014F20FAA9
:1006300001F343F3000363402B4001315C40032985
:100640001470F2D130BD002210B500F00704C008CC
:1006500000EB4000014410468B5CE34003F00103D3
:10066000934001321843032AC0B2F5D110BD0000F7
:100670000246C0F30723052B084682B0D1B209D841
:100680000E290DD8C3EB03131944064A89B202B0F0
:10069000FFF7C0BF0433DBB2012B01D8024AF6E7F3
:1006A00002B07047FF200020FC200020C0F3072389
:1006B000052B82B0C0B209D80E280DD8C3EB0313A6
:1006C0001844074980B202B0FFF7BDBF0433DBB264
:1006D000012B01D80349F6E7002002B0704700BFA4
:1006E000FF200020FC20002030B50124074D04FA33
:1006F00001F12B7804FA00F00843C1B2184094408D
:1007000081420CBF2343A3432B7030BD3021002016
:10071000F0B50D4B0D4C1B7826780D4CB34201D132
:100720000020F0BD04EBC3056F788F4206D114F8AA
:100730003370874202D16D79954203D1013303F0C2
:100740000703EBE70120ECE73421002033210020F0
:1007500036210020054B064A1B7812789A4200D1B8
:100760007047013303F00703F8E700BF342100208E
:100770003321002010B509490B7823EA000010F05E
:100780000704087009D1984207D0054B5B785B07D6
:1007900003D5C008FFF734FF0C7010BD31210020D5
:1007A000E222002070B5144B144D1878144B1B78BE
:1007B00018432B78C0B293B11843124B9B78012B8E
:1007C00004D1114B93F90030002B09DB06220F4BAB
:1007D00000211A449A4206D109B100232B7070BD42
:1007E0001E220B4BF4E74C1C13F8016BE4B2002EF5
:1007F00018BF2146EEE700BF2C2100202D2100204C
:1008000032210020A0100020E2220020F613002058
:10081000FE130020024A137823EA00031370704786
:100820002C210020E7284FD8DF2807D8312864D0B2
:100830000ED8292857D02A2866D07047A0F1E003A7
:10084000072B41D8DFE803F01540232831403C4115
:10085000392804D0822802D035283FD07047324B47
:100860001A7892071FD15B7813F0080F18BF292060
:1008700070472D4A1378D9074DD4527812F0010FE2
:1008800022D013F0100F14BF0020E3207047264B36
:100890001B7813F0040FF3E7234A137859073CD46D
:1008A0005278D207EDD5E02070471F4B5A78910758
:1008B0000AD51B7813F0100F14BF0020E7207047F3
:1008C000194B1B781A07F5D47047174A1378190784
:1008D00025D452789107EDD5E4207047124B1B7850
:1008E00013F0200FC2E7104B1A78920619D45B78E8
:1008F00013F0080F18BF392070470B4B1B7813F00B
:10090000400F18BF2A207047074B1B7813F0400F89
:1009100018BF3120704739207047E2207047E62029
:1009200070473520D0E700BFE222002030B5304DBF
:100930002B785A0711D500F0140100F018020C1F93
:100940006142A2F1080C6141DCF1000242EB0C02B1
:1009500080F00C04914218BF2046190713D500F00F
:10096000140400F01801A4F1140CA1F11802DCF138
:10097000000444EB0C045142514180F00C02D2B20D
:100980008C4218BF10466D78E90713D500F01104AA
:1009900000F0180104F1FF3CA1F10802DCF10004B1
:1009A00044EB0C045142514180F00902D2B28C4216
:1009B00018BF1046AA0711D500F0110400F0180165
:1009C000A4F111025442A1F118055441694280F08A
:1009D00009026941D2B28C4218BF1046DB0605D528
:1009E00000F0E70310F0080F18BF184630BD00BF35
:1009F000E222002038B5FFF715FFB0F5A44F0446FA
:100A00003FD2B0F5A04F80F0A680DF2816D8CC28C2
:100A100000F28680A7280AD8A42874D8012804D018
:100A2000031F9BB2A12B28BF0024204638BDA0F194
:100A3000A8039BB21A2B6BD90024F6E7B0F5804FC0
:100A400016D2B0F5005F80F09980E728EDD9A0F5C7
:100A500080739BB2B3F5F85FEED2C0F30720FFF7C7
:100A600065FF0546E0B2FFF7DDFE40EA0524DCE75E
:100A7000C0B2FFF7D7FE04F47064204340F4204472
:100A8000D3E7B0F5A54F21D245F25F23984251D864
:100A900045F23F2398420ED845F21F23984242D890
:100AA000012300F00304A340C0F3850243EA42138C
:100AB00043F40D44B9E7012300F00304A340C0F35D
:100AC000820243EA421343F40C44AEE745F2BF23EB
:100AD00098420AD845F29F23984200F01F0034D86C
:100AE0004AF2F40343EA00249FE7A0F5A543403B04
:100AF0009BB21F2BA0D8040204F4F85444F4204401
:100B000044F0F00491E7A0F1240444F480448CE71D
:100B1000204B5834E4B233F8144044F4884484E75A
:100B200040F4A04481E74AF2F10300F01F0443EAD5
:100B300004247AE7012300F00304A340C0F38202F7
:100B400043EA421343F40A446FE7FFF7EFFE04025F
:100B500044F4005469E700F01F00FFF7E7FE03B21A
:100B60001A0102F0F00210F0100F18BF1346C4F380
:100B7000431443EA042343F4104456E7C0F304202B
:100B8000FFF7D4FE0546E0B2FFF74CFE40EA05242D
:100B9000DEE700BF88810008002070470020704712
:100BA00030BFFDE7044B93F804281AB9012083F8FD
:100BB000040870470220704798160020054B93F8F0
:100BC000042822B10022012083F804287047022063
:100BD000704700BF98160020024B1A781043187017
:100BE000704700BFAC1E002000F0C4B92DE9F341EE
:100BF0000446D0B2C2F307250E46C2F30741FFF701
:100C00009FFC07462846FFF79BFC05460846FFF772
:100C100097FC8046E3B29E4202D802B0BDE8F08164
:100C2000204643462A463946FFF7DEFF0134F1E706
:100C30002DE9F0478046894614469DF820609DF8CE
:100C400024709DF828A0D51814F8010B404506D350
:100C5000484504D253463A463146FFF7C5FFAC42F9
:100C6000F2D1BDE8F08700F091B90000044A137892
:100C700083F0010313700022024B1A70FFF7ACBF20
:100C8000F0220020010E0020064A137813F003031F
:100C900004BF05490B700121137861F30103137040
:100CA000704700BFF0220020010E0020054B1A788B
:100CB00092071EBF0021044A11701A7822F0030225
:100CC0001A707047F0220020010E0020074A1378A6
:100CD000980709D0012060F3870313700022044BAA
:100CE00008461A70FFF778BF704700BFF022002057
:100CF000010E002007B50322019001A9094806F062
:100D0000A7FDFFF7C1FF084B1B78C3F38503012B39
:100D100006D00021012003B05DF804EBFFF7D6BF39
:100D200003B000BDE2100020F0220020012108469F
:100D3000FFF7CCBF0121054B1878C0F385000138BF
:100D4000C0B2884238BF0846FFF7C0BFF02200207B
:100D500030B4064C2578AD0706D06070A170E27003
:100D6000184630BCFFF738BF30BC7047F022002077
:100D700010B4044C0246A1786078002310BCFFF741
:100D8000E7BF00BFF0220020034901234878CA785A
:100D900008308978FFF7DCBFF022002004490123E6
:100DA0004878CA780838897880B2FFF7D1BF00BF89
:100DB000F0220020054801238178C2781031FF29F4
:100DC00028BFFF214078C9B2FFF7C2BFF022002040
:100DD000054801238178C278103921EAE171407811
:100DE000C9B2FFF7B5BF00BFF022002005480123BC
:100DF000C27881781032FF2A28BFFF224078D2B211
:100E0000FFF7A6BFF022002005480123C2788178B1
:100E1000103A22EAE2724078D2B2FFF799BF00BFDF
:100E2000F0220020044A012013791033FF2B28BF41
:100E3000FF231371FFF7D0BEF0220020044A0120E7
:100E40001379103B23EAE3731371FFF7C5BE00BFAC
:100E5000F0220020054A01205379A3F1FF014B4203
:100E60004B410349CB5C5371FFF7B6BEF022002023
:100E70007C7E0008054A01205379A3F1FF014B4213
:100E80004B410349CB5C5371FFF7A6BEF022002013
:100E90007C7E000830B5094B9C78DD78621C02F03E
:100EA0000302954209D09A701A7800F07F001C4422
:100EB00040EAC110013220711A7030BD871F002036
:100EC000054BC1F18041186901F2074101F00F01A2
:100ED000C84000F0010070470004004070B50723CF
:100EE00001264FF400444FF00045184A06FA03F17A
:100EF0000142946115D0062100BF00BF00BF00BFB2
:100F000000BF00BF0139F7D10321956100BF00BFC9
:100F100000BF00BF00BF00BF0139F7D1013BE5D2E0
:100F200070BD032100BF00BF00BF00BF00BF00BFF6
:100F30000139F7D10621956100BF00BF00BF00BF96
:100F400000BF00BF0139F7D1E8E700BF000400404F
:100F50006FF40042064B1A634FF055321A600022BC
:100F60005A609A60DA60DA621A625A62704700BFA9
:100F70000004004030B5044D00EB40002C186170B7
:100F80002A54A37030BD00BFDA14002070B5134698
:100F900005460E4600242046324629460134FFF716
:100FA000E9FF502CF7D170BD38B5302383F3118899
:100FB00000250E4C2078FFF791FF6078FFF78EFF39
:100FC0000135A078FFF78AFF502D04F10304F1D119
:100FD0004FF4E06300BF00BF00BF00BF00BF00BF11
:100FE000013BF7D183F3118838BD00BFDA1400202C
:100FF000012870B529D80022154B9D1D03EBC204B2
:101000006679360705D515F83260864201D120464B
:1010100070BD0132032AF1D1B9B159790C070FD54E
:101020005A7B11070FD55A7D12070ED4022103EB0C
:10103000C1014B79887143F0080308464B71E7E71B
:10104000C1F3C001F3E70121F1E70020E0E700BFB1
:10105000C014002002B1104770470000034B1B680A
:1010600013B11B6803B1184718467047F0200020E1
:101070000B4B07B51A8882420FD01880094B1B68AA
:101080005BB11B694BB103228DF80500000A8DF896
:1010900006008DF8042001A8984703B000BD00BFEA
:1010A000BE140020F02000200B4B07B51A888242A6
:1010B00010D01880094B1B6863B11B6953B104221F
:1010C0008DF80500000A8DF806008DF804200DEB60
:1010D0000200984703B000BDBC140020F02000209F
:1010E00010B5154B9B78012B15D000224FF0FF3324
:1010F000124911F8014FA0421DD0B3F1FF3F01D1B9
:1011000004B953B20132062AF3D15A1C13D00C4A47
:10111000134498700FE00B4A92F90020002AE4DA99
:10112000EF2808D8084A02EBD002917800F00700B7
:1011300083400B43937010BDA0100020F5130020D6
:10114000F4130020E2220020FC13002010B5114B04
:101150009A78012A0CD0062300210F4A12F8014F79
:10116000013B844208BF117013F0FF03F6D110E079
:101170000A4B93F90030002BEDDAEF2809D8084B21
:1011800003EBD003997800F00700824021EA0202C5
:101190009A7010BDA0100020F5130020E22200205C
:1011A000FC130020014B5878704700BFA0100020AE
:1011B000BFF34F8F0549064BCA6802F4E062134340
:1011C000CB60BFF34F8F00BFFDE700BF00ED00E035
:1011D0000400FA0530B590F8472090F8463085B005
:1011E00043EA02231A0A032A1BD00DD8012A5FD032
:1011F000022A13D15B23314A314842600360002A3E
:1012000008BF104605B030BD90F8483090F849103E
:10121000212A43EA01233CD0222A41D000231A4646
:10122000EAE7DBB2032BF9D8DFE803F04502050853
:101230000623244AE0E72223234ADDE7234B244DFB
:101240001C781CBB012221461A706846102206F049
:10125000F7FA21461F4804AB03EB610313F8102C87
:1012600005EB41031409045D02F00F029C70002499
:10127000825CDC704B1C023105EB430320299A7021
:10128000DC70E8D142232B7003236B702B78104A5B
:10129000B2E7022BC2D8104A52F823200923ABE749
:1012A000022BBBD80D4A0E4952F82320CB5CA3E792
:1012B00012230C4AA0E704230B4A9DE75C7A00083E
:1012C000B4140020507A00082C7A00086E14002014
:1012D0006F1400201B7A0008D87A0008CC7A000826
:1012E000C97A0008B77A0008587A000810B5064A8B
:1012F000064C117824784B1C03F00F039C421EBF50
:10130000034C1370605410BDE71E0020E61E002041
:10131000D61E002090F84A2090F84B00084942EA77
:101320000022022A0B7807D1012B01D0062B05D110
:101330004A78044B5A707047024A5370704700BF96
:101340006C140020A010002070B590F844100446E2
:1013500001F07F03212B40F09D8011F0800F90F869
:10136000453053D0022B35D0032B25D0012B4DD146
:1013700090F84830022B01D9002070BD90F846103B
:101380000829F9D8594AD25C022AF5D8A820584B26
:1013900000FB0233D3F8A430002BEDD0554D5E682E
:1013A00018682A46B04705F10803A363AB6C002216
:1013B000E36322640120E0E790F8482090F8493088
:1013C00052EA032266D14C494C4B897883631970E9
:1013D0000123EDE790F84830022BCDD890F8461065
:1013E0000829C9D8414AD25C022AC5D8A820404B56
:1013F00000FB0233D3F8A430002BBDD05A69186823
:1014000090473F4B1870A3630123D0E70A2B23D0EA
:101410000B2B10D0092B3DD194F8483094F849207B
:1014200043EA022323F00203002B33D1354B364A23
:10143000A3630223BCE794F8483094F8492053EAA8
:10144000022306D194F846302B4A003B18BF0123F3
:1014500093700023A363AAE7274B94F847201A70E0
:1014600094F84830022B87D894F84610082983D87E
:101470001E48C05C02283FF67FAFA8251C4B05FB29
:101480000033D3F8A430002B3FF476AF1D69186801
:10149000A847DEE701F09F01812918D194F8453073
:1014A000062B14D194F84920616894F848304D68AF
:1014B00043EA0223204694F8472094F84610A847B0
:1014C00000283FF459AF4368A36303686FE703251F
:1014D000074ED6F89C3023B9013D06F1A806F8D195
:1014E0004AE7204698470028F6D063E7187A0008B4
:1014F000200E00201C140020A010002069140020E1
:10150000681400206C140020151300087047302365
:1015100083F31188026943699A4210D1C36883B189
:101520000123D0F8882090F88C1012898B40134248
:101530000CBF01200020002383F311887047002096
:10154000F9E71846F7E70000036843B19100196016
:1015500003490B78002A18BF43F001030B70704752
:10156000E01F0020006810B10068C0F387007047DA
:1015700038B503680BB9002038BD302383F31188D8
:10158000036800211C685B6881F31188002CF2D08D
:101590004FF47A7C074A084DD069084AC01AE0FB2C
:1015A0000C5100232846FEF721FE84428CBF002008
:1015B0000120E1E7E81F00209F860100A0860100CE
:1015C0004B1E072B0BD850F8213043B19100196006
:1015D00003490B78002A18BF43F001030B707047D2
:1015E000E01F0020082906D850F8210020B100682B
:1015F000C0F387007047002070470000082938B505
:1016000001D9002038BD50F82130002BF9D030230B
:1016100083F3118850F8213000211C685B6881F346
:101620001188002CEDD04FF47A7C084A084DD0691F
:10163000084AC01AE0FB0C5100232846FEF7D6FDED
:1016400084428CBF00200120DCE700BFE81F00209F
:101650009F860100A0860100034610B51B689842D2
:1016600003D09C688A689442F8D25A680B604A603A
:101670001160596010BD0000302383F311880D4BB9
:101680005B6813F4006312D0EFF309834FF08072AC
:10169000203BDA6183F30988074A1168D2688968B8
:1016A000926891428CBF054A054A9A61704783F35C
:1016B0001188704700ED00E0E81F0020E3010008FA
:1016C000E601000803691960C268013AC260C26994
:1016D000134482690361934224BF436A0361002378
:1016E0008362036B03B118477047000070B5012493
:1016F000468904FA01F53543458100EB8100C56850
:1017000001F00F01A8698260002203604260C2609C
:1017100023B16C8A013B2344B3FBF4F4054B0482F0
:10172000997321B11A7D02F0FE021A7570BD402234
:101730005A74FBE70040014010B40346006F027882
:10174000042A12D1012293F8741044898A4022425B
:101750000BD11A695C69A24201D1DC682CB910BCBA
:10176000DB690432043BFFF7C1BF10BC7047406B1C
:10177000FFF7E2BFF0B50124002605898C402C4319
:10178000048100EB810411F00F0108BF4027E468D9
:1017900065696E60EE6008BF114E2B60AA6008BFDD
:1017A000B173248A08BF7774A34228BF23460D4C27
:1017B0002B6104EB8104D518954205D1084A917339
:1017C00031B101235374F0BD12F8016B2670F3E7B9
:1017D000517CC168098A8B4234BF0A230223F1E796
:1017E000004001402040014010B4436BD3F8880012
:1017F0000278042A11D1012293F88C1004898A40BE
:1018000022420AD15A691C69944201D1DB6823B98A
:1018100010BC52F8043BFFF7ADBF10BC704700008E
:1018200005480178052906D190F8503003704368C7
:101830001B6803B118477047EC1E0020002160228E
:10184000074B10B599735A7499735A7443680446D8
:101850001B680BB106219847062384F8343010BD6D
:101860000040014090F8343010B5152B04460CD8D8
:10187000012208499A400A4208D1152B05D1036C70
:1018800003B19847002384F8343010BDBDE8104000
:10189000FFF7D4BF410E100090F8343010B5152B6F
:1018A00004460CD8012208499A400A4208D1092B63
:1018B00005D1036C03B19847002384F8343010BD80
:1018C000BDE81040FFF7BABF410C300010B51C4B0B
:1018D0009B78012B1ED11B4B93F90030002B19DA9A
:1018E000FEF760FF184C202260701849204605F072
:1018F000BDFF20B320222146144805F0A9FF144B58
:101900001B68E3B19B68D3B1062222702046BDE874
:1019100010401847FEF746FF0E4C082220700E4973
:10192000204605F0A3FF50B1082221460A4805F0E1
:101930008FFF074B1B6813B15B68002BE6D110BD0E
:10194000A0100020E2220020FC130020D020002064
:10195000F0200020F4130020F420002010B51478AB
:101960005378844201D0834216D14C79834214BF0C
:101970001146511CCC701549097869B1917859B15B
:10198000181A18BF01201318DB782BB1022905D0D3
:1019900014D9CB1E012B0CD9012010BD105C2CB921
:1019A000FFF79EFBFFF792FF0020F6E7FFF7CEFB65
:1019B000F8E7033918BF01218842F5D0105C14B94B
:1019C000FFF78EFBE8E7FFF7C1FBE5E7C422002045
:1019D00010B5044600284FD0031FDBB2A02B27D838
:1019E000264B9B78012B0FD00023254A12F8011FAC
:1019F000A14217D00133062BF8D12046FFF770FB28
:101A0000BDE81040FFF762BF1E4A92F90020002A8D
:101A1000EADA1D4A00F0070102EBD00292788B400F
:101A20001A42EAD02046FFF791FBFFF74FFFE4E7A9
:101A300000F12003DBB2072B08D80123134A00F082
:101A400007041178A3400B431370D9E700F15B033F
:101A5000DBB2022B05D8BDE81040243880B2FFF776
:101A600007BB5834E4B21A2C06D8094B33F81400DB
:101A7000BDE81040FFF718BB10BD00BFA01000204C
:101A8000F5130020E2220020FC1300202C2100206E
:101A90008881000808B5034648B3021FD2B2A02AC5
:101AA00005D8FFF753FBBDE80840FFF70FBF00F173
:101AB0002002D2B2072A07D800F00703012098407D
:101AC000C0B2FEF7A7FEEEE700F15B02D2B2022A37
:101AD00004D8BDE808400020FFF7CABA5833DBB28B
:101AE0001A2B04D8BDE808400020FFF7DDBA08BD76
:101AF00028B1034B1A7810431870FFF7E7BE704700
:101B00002C21002008B528B1FEF784FEBDE808406E
:101B1000FFF7DCBE08BD00008318B3F5006F10B4FA
:101B20000C4605D803490144204610BC05F090BE80
:101B300010BC704798160020002307B501220DF154
:101B400007018DF80730FFF7E7FF9DF8070003B0A6
:101B500000BD042838B517D8052915D80E2A13D882
:101B60001E23520003FB0122B42303FB002404F1D3
:101B70002900FFF7E1FF054604F12A00FFF7DCFF2B
:101B800040EA052080B238BD0020FCE7F8B51446D5
:101B900040F23E4700F2C1355618B44200D1F8BDBC
:101BA0006FF47073EB18BB4206D82846FFF7C4FFEA
:101BB00004F8010B0135F0E70020F9E713B50446FE
:101BC000012100680DF10702FFF7E0FF23689DF88F
:101BD00007000133236002B010BD800070B500F231
:101BE000AD3481F001000D4604EB4000FFF7A4FF87
:101BF000002D06460CBF032001202044FFF79CFF68
:101C000040EA062080B270BDCAB2C1F3072105299F
:101C100082B006D80E2A14D8042812D802B0FFF7D2
:101C200098BFFD2906D162B904280AD8012102B063
:101C3000FFF7D3BFFC2904D11AB9042801D81146F3
:101C4000F5E7002002B070477FB50424104BADF8D3
:101C500004001D780F4B1B781D43EDB245FA04F3C9
:101C6000DB0705D4013CF9D20026304604B070BD34
:101C7000BDF80430E6B2ADF80C3003993046FFF7FA
:101C8000C3FFFEF7B7FE80B20128EBD0EDE700BF3F
:101C9000302100202F21002013B502884379ADF8B0
:101CA0000420019873B169B1FFF7CEFF04460146E5
:101CB0000198FEF7DDFC2046019902B0BDE8104016
:101CC000FFF7A2BFFEF7F2FC0446F4E71FB5ADF83C
:101CD00004000198FFF7B8FFBDF80430ADF80C30F0
:101CE0000399FFF791FF05B05DF804EBFEF782BEA4
:101CF00008B503792BB30088FFF7E8FFC3B2C0F340
:101D00000330062812D094BF0E30063000F00F00CA
:101D1000012812D8F02B12D004D8E72B8CBF00205A
:101D2000012008BDF43B58425841FAE7F12B18BF97
:101D3000E72B94BF01200020F3E70020F1E701200A
:101D4000EFE71846EDE738B52520FFF7F5FE054625
:101D50002620FFF7F1FE04462720FFF7EDFE262D93
:101D600006D1082C04D1A0F120035842584138BDB7
:101D70000020FCE708B52820FFF7DEFE08BD0023A1
:101D800007B502220DF10601ADF80630FFF7C4FEDB
:101D9000BDF8060003B000BD006810B440B1054CAA
:101DA0008264E469083040F8044C10BC05F050BD72
:101DB00010BC7047E81F00200168134631B18A6CDF
:101DC00003F108009A64083105F042BD7047000035
:101DD0000B7810B4082B0BD850F8230040B110BC7E
:101DE000044B8264DB69083040F8043C05F030BDE8
:101DF00010BC7047E81F00200829134609D850F886
:101E0000211031B18A6C03F108009A64083105F0A1
:101E10001FBD704700238268037503691B689968BA
:101E20009142FBD25A68036042601060586070476C
:101E300008B5302383F311880A7D0023052A06D8CC
:101E4000DFE802F00C050503130F8A6913604FF0F9
:101E5000FF3308468B61FFF7DDFF002383F3118812
:101E600008BD8A699368013393604A680B68136000
:101E70005A60ECE703682BB10022026018469961B2
:101E8000FFF7C8BF704700002DE9F04190F83430EB
:101E900004463BB1836823F0011383600023C363CE
:101EA00080F83430A94904F1440304F14C0691F858
:101EB000202003F8012BB342F9D163689B68DBB99A
:101EC00094F8443013F060053ED0002160229F4B0F
:101ED00099735A7499735A7463681B6813B1062115
:101EE00020469847A36823F00113A3600023E3630F
:101EF000062384F8343025E0204698470028DFD0B8
:101F000094F84B3094F84A2042EA0322E36B934260
:101F100084BF1346E26394F94420002A80F248818A
:101F2000002B00F05381092384F83430302383F3ED
:101F3000118800212046E36BA26BFFF71BFC0023F6
:101F400083F31188BDE8F08194F8452003F07F0306
:101F500043EA022340F20232934200F015811FD877
:101F6000B3F5807F4BD00BD8012B42D0022B00F071
:101F7000CA80002BA9D10222A663E2632364BFE7D3
:101F8000B3F5817F00F0EA80B3F5407F9DD194F8EE
:101F90004630012B99D1B4F84C3043F0020337E0BE
:101FA000B3F5006F51D01CD8B3F5A06F36D0A3F5B0
:101FB000C063012B89D894F84920616894F84830AF
:101FC0004E6843EA0223204694F8462094F84710CE
:101FD000B04700283FF479AF4368A3630368E36325
:101FE0001AE0B3F5106F35D040F6024293427FF409
:101FF0006CAF574BA3630223E3630023BEE794F85F
:102000004630012B7FF461AFB4F84C3023F002036B
:10201000A4F84C30A563E563256471E7B4F8443057
:10202000B3F5A06F0DD194F84630484A84F84E308D
:10203000137063681B6813B101212046984703237E
:1020400023700023A363E36398E704F14F03A363C2
:102050000123C4E72378042B45D1302383F311886F
:10206000A36804F10C0603F00113A36004F118083F
:1020700056F8047F6FB1786920B16FF001010C3020
:10208000FFF7F8FEB86920B16FF001010C30FFF7DF
:10209000F1FE46453560EBD100212C4B4FF0400C52
:1020A000DA79082602F00102DA7180275D720122D6
:1020B0000D4610209A730132D2B2042A9D7483F81F
:1020C00011C05E745E745D751F7518751875F1D159
:1020D00081F3118884F84F100321636821701B6815
:1020E0000BB12046984794F84630002BA9D084F8CD
:1020F0004F300423237063681B68002BA1D002219A
:10210000204698479DE794F8483003F00F0213F0FB
:10211000800F0E4B9A7311D042B95A7C50070BD4E2
:10212000DB79DB077FF5D1AE0A4B63E7597CCD063F
:1021300002D4DB791341F4E7074B5BE7002AECD0CC
:10214000197D8906F8D45B7AF4E700BF00400140AE
:1021500095790008917900089379000894F8463041
:10216000002B7FF4B2AE94F8483013F00F023FF426
:1021700068AF13F0800F184B9A7302D040225A7444
:102180005FE780221A755CE794F84630002B7FF4F5
:102190009CAE94F8483013F00F023FF452AF13F0A6
:1021A000800F0D4B9A7301D01022E8E72022E9E757
:1021B00063B1152384F83430302383F31188002170
:1021C0002046E36BA26BFFF791FAB8E64821024A7A
:1021D000937351748DE600BF0040014070B5044612
:1021E000C5692E6BC26A6B6A9A4234BFC36A6B6A56
:1021F000002B2FD1E26A002A39D1EB62022323702F
:1022000063681B680BB120469847302383F311881D
:10221000002104F10800FFF72DFE002383F311884D
:10222000F30716D5286A228E666AE36A616AD31AB2
:102230003344121A934228BF134699424FF6FF7156
:1022400038BF636AE3B9636A1BB9EB6A23F0010321
:10225000EB6270BD296EE26A013B013AE262A26A5A
:10226000002AC5D01170A26A0132A262C0E7E26AF8
:10227000EB699A429EBFE36A03F1FF33EB61CFE75C
:10228000626A013B013A6262226A0AB92966D9E7A9
:1022900012F8010B28662262D4E70000F8B5204C42
:1022A000861C04EB86035D6801466A69D2E9000377
:1022B000834218D3012223898A4023EA020323811F
:1022C000AB680BB120469847302383F3118804EBA9
:1022D00086046368002158690C30FFF7CBFD0023AA
:1022E00083F3118817E00F4FB97317693B445360AC
:1022F000C31ADFD0288A984228BF18469368106115
:102300003B449360084A184402EB8102984203D18F
:102310000122044B5A74F8BD13F8011B1170F5E744
:10232000EC1E00200040014020400140F8B5294C3F
:10233000851C04EB85035E68274AB36990730146E8
:10234000107DC00739D59868917392F817C0927DB7
:10235000224F42EA0C2207EB810700EB020C844576
:102360002CD19868104498605868104458601868D8
:10237000801A1860188A013880B21882738A9342D2
:1023800000D800BB012263898A4023EA02036381EB
:1023900004EB85035B68DB680BB10E48984730237C
:1023A00083F3118804EB85046368986941680C30F5
:1023B000FFF760FD002383F31188F8BD97F800E074
:1023C00000F801EBCBE7044A137D03F0FE0313751D
:1023D000F3E700BFEC1E0020004001402040014018
:1023E0000368984207D01A680260506000221846BD
:1023F0009A61FFF70FBD7047F8B500EB81039C6948
:1024000005460E46002C4ED0302383F3118800235E
:102410002269616984F8A0308A4201D1E36803BB74
:1024200005EB8603DB685B691B68D3B1D4F8A43085
:1024300043B18A4201D1E2684ABB51F8042B9F683C
:102440001868B847E368E2690133E36063692046CE
:102450001344A2696361934224BF636A6361FFF717
:10246000BFFF62692369934214D1E36893B105EB1E
:102470008603DB681A68022A12D15A6912687AB197
:102480001B8A013B13400BD105F1440204E00022FA
:102490001146D4E752F8043B31462846FFF76AF963
:1024A000002383F31188F8BD01F1090310B550F83A
:1024B000234034B3302383F3118800EB8100C368D9
:1024C0009B695B68BBB194F87420236F204603EBD3
:1024D0008203DB689B695A6823691A60E2680132EB
:1024E000E260E2691344A2692361934224BF636AF4
:1024F0002361FFF775FF2046FFF71EF9002383F3E2
:10250000118810BD38B504466FF00105206884427B
:1025100000D138BD036823605C608561FFF77AFCF9
:10252000F4E7026AC260426A42610261002282628A
:10253000C262FFF7E7BF00004FF4006208B5002158
:10254000044805F07DF940F60803024AC2F8003855
:1025500008BD00BF9816002010B50C4682680169BE
:102560002046FEF777FD094AE1781378207923EABF
:1025700001031370FEF74EF9FFF7A8F92046BDE8F6
:1025800010400822002105F05BB900BF3221002075
:1025900038B54B7905469A070C4613D4104A43F0D8
:1025A00002034B71CB7811780B4313700D4A2379DA
:1025B00011780B431370FFF789F920466A6829697F
:1025C000FEF748FD0022084B1A806379DB0705D42B
:1025D00021462846BDE83840FFF7BEBF38BD00BFE2
:1025E000322100202C2100207E210020084B9B78E6
:1025F000012B09D1074B93F90030002B04DA1E227E
:102600000021054805F01CB9062200210348F9E71E
:10261000A0100020E2220020FE130020F61300206C
:1026200010B50024074B1C70FFF7E0FF2046FEF7B3
:102630001FFD2046FEF738FD034B1C70BDE810401F
:10264000FFF744B92C2100203221002010B5164B91
:102650001B78032B20D1154B1B78EBB9144B1B783F
:1026600083F00103134A03F001011078884212D06D
:102670001170114C114A8BB12378C3F3001143F050
:1026800010032370DB09117005D1FFF7C9FF237810
:1026900043F08003237010BD0023E3E72378127812
:1026A00062F30413F6E700BFFD220020E6220020BB
:1026B000E5220020E4220020E2220020E122002086
:1026C00008B58378022B06D9FFF7AAFF024B034A0D
:1026D0001A60FEF76DFD08BDFC6F0020EFBEADDE99
:1026E0002DE9F843052900F2D680DFE811F0A700B4
:1026F000D4000600A700A700D600302383F311887A
:1027000000273E466D4D6E4CD5F8883095F88C907C
:1027100003EB890805F13803C8F80C30E86C18B1F0
:102720001422002105F08CF8286D18B11422002124
:1027300005F086F8D8F80C2009F00F01A173136892
:1027400003F00303002972D0022B4AD0032B48D098
:10275000012B22D153690BB99369F3B1E020584B97
:102760004FF0010C9874108A0CFA01F1C00818742B
:1027700040205874082058745874D8790843D87188
:10278000C0205875528AD208DA7480221A75102235
:102790001A751A755A7A1143597228460137FFF78C
:1027A000C0FE032F2E7205F1A805ADD1454C636A1A
:1027B000204663612361E660A662E662FFF7A2FE3F
:1027C00020462672FEF7B8FF86F311883E4B1B7831
:1027D00013B10520FEF78AFD0220BDE8F843FEF79D
:1027E00085BD536973B10023A374138A0120DB08EC
:1027F000237440236374082363746374E37988400B
:102800000343E3719369002BC7D000202C4B58750C
:10281000528A0120D208DA7480221A7510221A75A1
:102820001A755A7A00FA01F10A435A72B5E7002B79
:10283000B3D1E37943F00103E371AEE70846FEF755
:1028400055FD302383F31188002501261B4C2046BB
:102850002672FFF757FE2046FFF763FED4F8A43038
:1028600013B1DA68186890470135032D04F1A80404
:10287000EDD101230025134C20462372FFF742FEC1
:10288000636A2046E56063612361A562E562FFF744
:1028900039FE85F31188BDE8F883302383F311886E
:1028A0000023064A137282F8B03082F85831054A84
:1028B000137283F3118805208FE700BF200E0020DC
:1028C0000040014018100020E81E002010B504460A
:1028D000006840B1826C0021083004F0B1FF002292
:1028E00023681A605A6010BD70B50026051F00F1FC
:1028F000200455F8040F38B1826C0021083004F030
:102900009FFF2B681E605E60A542F2D170BD000083
:10291000002208231146014804F036BF0C0800408D
:10292000F7B51F464BBA090C064615468DF804004C
:10293000ADF806308DF80510FFF7EAFFE8B1042185
:102940000DEB010004F052FF044648B945B1022ED8
:102950000BD0032E0ED12846B9B204F051FF044625
:1029600004F058FF204603B0F0BD2846B9B204F089
:102970003DFFF4E74FF0FF34F2E74FF0FF34F1E7AB
:10298000054BD96808751868026853601A600122FF
:102990000275D860FDF714BCE81F002070B5184C14
:1029A0004B1CE56886B028D0164B04950393002392
:1029B000059323699A6891421CD85E68029101963A
:1029C0000093C6F800D04FF0FF369A68C3F804D0E1
:1029D000521A9A60A661FFF7D3FF009B3BB19A6839
:1029E00002990A449A60019A13605A60A661A86924
:1029F00006B070BD1B68891ADCE7FFF7C1FFF6E778
:102A0000E81F0020311E0008034BDB68036098615B
:102A10000320FFF7B5BF00BFE81F00207047C94380
:102A20004FF05533016302F003015943016042F353
:102A300080014160C2F3C10159438160C2F3411179
:102A40005943C160C2F3C1214B43C3624FF01133FC
:102A5000C2F3C3125A4302624262704708B5302380
:102A600083F31188012100F00F039940202220F008
:102A70000F00FFF7D4FF002383F3118808BD000087
:102A8000464A13B5464B52F8041C99420CD1002318
:102A900042F8043C83F31488424B1A6882F3088896
:102AA00062B65B689847FEE70C20032440F2BE71D3
:102AB0003D4B3E4A9C62D862C2F894100021996254
:102AC000D9629C62D8628020C3F81C0CD3F81C0C1D
:102AD000C3F81C0C009101914FF40141C3F8481C4C
:102AE0004FF6FC71A3F5744319630F21196002239B
:102AF000136501234BF68031D364936D03F001031A
:102B00000193009B01330093019B13B9009B8B42FF
:102B1000F3D1019B03B9FEE7254B26498024C3F876
:102B200000140021A3F5884399611C62196A0120F1
:102B300019622021586019601968196019680143E9
:102B4000196054679067D16F0329FCD102229A6003
:102B500001220021DA60144A9162D1629A6C42F437
:102B600000429A649A6CDA6C42F40062DA64DA6CBD
:102B70009A6C42F020029A649A6C9A6C42F040027D
:102B80009A649A6C9A6C42F080029A649A6C9A6C7D
:102B900042F480729A649B6C02B010BD00700020F9
:102BA000EFBEADDE00E0FF1F000001400004014069
:102BB00000500140130000037047FEE7F0B5082005
:102BC0000026104A516813680D469468043BAC42D5
:102BD00010D8E31C5B1ACD1E23F00303AC4238BFB0
:102BE00000230B44D168994209D8013802F1100240
:102BF000E8D1F0BD53F8047F45F8047BE7E743F8DC
:102C0000046BF0E7987900080C4B10B41868D96889
:102C1000026853601A600122D860002302758A6836
:102C20000B750B691B689C689442FBD810BC5A68F2
:102C30000B604A6011605960FDF7C2BAE81F0020BE
:102C4000044B1A68DB6892689B689A4201D9FFF7C7
:102C5000DBBF7047E81F002070B5EFF3118525B981
:102C6000EFF30583302282F31188174B174E184972
:102C7000DC6933680A68E41AA242164A0AD9A3F545
:102C80008333E03B10683360134B04F58334C3187F
:102C9000E034136016680C6035B9EFF30583C3F3B5
:102CA00008036BB185F311884FF47A7500210B4846
:102CB0000023E4FB05010A4AFDF798FA304470BD91
:102CC000FFF7BEFFEEE700BFE81F0020A81E0020B0
:102CD000A41E0020A01E002088598F029F8601009C
:102CE000A0860100012208B5034B1A70FFF7B4FF5C
:102CF000024B186008BD00BFEC220020E822002033
:102D000070B51F4B1F4E1B78044683420D46327828
:102D100001D10AB970BD1AB11B4A1278A242F9D08A
:102D20001A4A1370184B1C70FFF796FF184B186067
:102D300001233370FCB9174B1B78F3B185F0010305
:102D4000154A03F0010313700022144B1D70144B3D
:102D50001A70002CDED0FDF797FF124A13785178D5
:102D6000907843EA012343EA0040FDF7C3FFBDE842
:102D70007040FFF76BBC0023E2E72346E0E700BFAB
:102D8000E5100020E0220020E1100020E0100020EB
:102D9000DC220020DA220020D9220020D8220020C4
:102DA000D7220020E210002070B51F4B1F4E1B7869
:102DB000054683420C46327805D12AB914B1012266
:102DC0001B4B1A7070BD1AB11A4A1278AA42F5D07C
:102DD000194A1370174B1D70FFF73EFF174B186011
:102DE00001233370ECB9FF2D01D1154B1C78104B2A
:102DF00004F001041C70FDF7D5FBFDF745FFFF2D26
:102E000003D1104B9878FDF7B3FFBDE870400E4A30
:102E100013785178907843EA012343EA0040FDF7A4
:102E200069BF1C46E3E700BFED220020D622002048
:102E3000EE220020D5220020D4220020D022002023
:102E4000DA220020F8220020E2100020F8B5044623
:102E5000FDF75EFB294B2A4EDB782A4D2A492B547D
:102E600037782A48FDF79EFB032204F0F1FC032C7F
:102E700018BF274B347018BF1C70FFF733FF204674
:102E8000FDF76EFB234BC0F307221870032FC0F32E
:102E900007405A7098702DD0032C40F6B83308BF05
:102EA0004FF4FA731C4A138001221C4B1A70002342
:102EB0001B4A13701B4A1370FFF7CEFE1A4B1860A3
:102EC0001A4B1B7843B91A4B1B782BB9194B1B783B
:102ED00013B9285DFDF74CFF0C4A137851789078B0
:102EE00043EA012343EA0040FDF704FFBDE8F84050
:102EF000FFF7ACBB4FF4FA73D4E700BFF022002019
:102F0000FD220020F8220020E2100020DD10002029
:102F1000CC220020DA100020D8100020E52200206A
:102F2000E6220020D7220020C8220020FC22002018
:102F3000ED220020D62200202DE9F74F1E468146C3
:102F4000884617460023DFF898A01A011AF80210E5
:102F50000AEB0314A9B9012384F801900AF802309E
:102F6000FFF77AFE4FF606731E4AA381137860605E
:102F70000133C4F80880A773E673137003B0BDE88B
:102F8000F08F0133142BE0D100252C462B46DFF8BF
:102F900050B0DBF8042001930092FFF75DFE009A29
:102FA000019B801A834298BFECB205F1010598BFDE
:102FB0000346142D0BF1100BEBD1012223010AEB78
:102FC00004140AF8032084F80190FFF745FE4FF639
:102FD00006736060C4F80880A381A773E673CDE729
:102FE00084210020802100202DE9F04F00240126BB
:102FF0004FF0300889B0DFF89092A44F0594069402
:10300000079459F8041B4B1C40F0CD800134E4B206
:1030100076000F2CB6B2F4D10C229D4805A904F01D
:1030200025FC054620B10C22994805A904F010FCA6
:103030000027DFF86082984E98F800403770002C27
:1030400000F01D81FFF708FE944A13681060C01A53
:1030500059D07F2828BF7F203A46BB46BA46019008
:103060009DF8043096F800C003938D4B88F80070EB
:103070008C4EDFF81CE2DFF830821F7002970021CF
:1030800002EB010918F809305F0821D00198874246
:1030900000F3DE8023F0FE0308F8093013F001038B
:1030A00040F0DE8001233788BEF800908B4003EAB1
:1030B000090927EA030349EA03035F40BFB257EA5D
:1030C0000C0714BF4FF0010C4FF0000CA3463380E7
:1030D00001310F29D4D10F325A2A06F102060EF11E
:1030E000020ECCD1029B13B101226D4B1A70BBF1C1
:1030F000000F02D0684B83F800C0BAF1000F02D075
:103100000122644B1A7045B9654B1B78002B47D0E0
:103110001CB9FFF7A1FD614B18600022604B92467D
:103120001A704FF001091346DFF864E15D4D5E4E01
:1031300000203EF8028B35F8027B88EA070702EB95
:10314000000C16F80C1009FA00F427424FEA510B54
:1031500000F08880BBF1000F12D118EA040F14BFF1
:1031600001235B4643F00A0306F80C3013F0010319
:1031700000F083809A4635F8021C4C4025F8024C3A
:1031800001300F28DBD10F325A2AD1D1BAF1000F0A
:1031900002D00121404A117013B101223D4B1A7037
:1031A00009B0BDE8F08F88F31188012221F00F00EB
:1031B00001F00F0102FA01F529462D04FFF72FFC5B
:1031C0008561002383F3118800BF00BF00BF00BFEB
:1031D00000BF00BF00BF00BF00BF00BF00BF00BFF7
:1031E00000BF00BF00BF00BF00BF00BF00BF00BFE7
:1031F00000BF00BF00BF00BF6FEA060C2B4D05A843
:1032000055F8041B30F8022BB1F1FF3F1DD021F01F
:103210000F0EDEF810E001F00F012EFA01F1C907E0
:1032200013D432430133DBB2062B20F8022CE7D152
:1032300059F8040C431C01D0FFF710FC7A687B6836
:103240009B1AB3F5346FFAD3E0E602EA0C02E9E721
:103250000398A2463F1A67F3470308F8093037E797
:10326000029335E7BBF1000F8AD011F0010487D13A
:1032700064F3470106F80C1082E7012380E7002D74
:103280003FF442AF45E700BF34810008001000E082
:10329000C2200020B4200020B5200020B020002053
:1032A000AD200020B62000205320002070810008AF
:1032B00038B5FFF7D1FC00F57A75FFF7CDFC8542F4
:1032C00014D9FFF725FBA0B1052004F06DFA04F036
:1032D0007DFA044604F09EFA002C04DB14F001048D
:1032E000EBD1204638BD231DE7D0FAE76FF001048B
:1032F000F7E74FF0FF34F4E710B5FFF7D9FF0446C6
:1033000008B1002010BDFFF703FB28B94FF0FF30D4
:10331000B0FA80F04009F5E7062004F045FA04F021
:1033200079FA234622462146D820FFF7F9FA0028E9
:10333000E7D1FFF7BDFFEBE710B5FDF733FC04461F
:10334000FFF7DAFFFFF7F8F8012C03D1BDE81040D2
:10335000FDF734BC10BD2DE9F04180460C46D60087
:10336000FFF7A6FF054648B132460021204604F08B
:1033700067FAB5FA85F04009BDE8F0813346224688
:1033800041460320FFF7CCFA05460028ECD1214640
:103390002644D1E90023D243DB4341F8082BB14254
:1033A00041F8043CF5D1E4E72DE9F04F0646144618
:1033B0004FF00009C3B00091202C254628BF2025DE
:1033C000009B4FEAC50A524603EBC90102A804F06C
:1033D0003FFA002202ABD3E90001C043C9430132E6
:1033E00043F8080B954243F8041CF4D15746B04605
:1033F0000DF1080BFFF75CFF78BBFFF789FA60B3AC
:103400005FFA88F3C3F580730620BB4294BF019333
:10341000019704F0C9F904F0FDF95A46414602202B
:10342000019BFFF77DFAC0B9019BFF1A9B449844AA
:10343000E0D1FFF73DFF80B9FFF76AFA074660B1B8
:10344000042004F0B1F904F0E5F9641B5644A944E2
:10345000B2D1384643B0BDE8F08F0027F9E700004D
:103460002DE9F347FFF748FF002859D0FDF79AFBF5
:103470002C4905464FF480720020FFF795FF294C38
:10348000002843D10146012D01D1FDF797FB40F6FD
:103490000803C4F80038084602B0BDE8F08717F802
:1034A000013B4FEA4E195A40A2FB003800FB0E8840
:1034B0004FEA421A49EAD26913EB0A0348EB0908BA
:1034C0004FEAC21A9B184FEACE194FEA02264EEB7A
:1034D000080849EA526913EB0A034FEA0E2E48EB3B
:1034E00009084EEA126E9B1948EB0E0EB64413EB18
:1034F0000C020139D3D16946CDE9002E4FF40060AA
:103500000122FFF751FF4000C1B2BCE740F60101C4
:1035100027464FF0000C1220034ADFF810E0E8E7DE
:103520000146B8E79816002025232284E49CF2CBBC
:10353000044BD3F80038B3F5805F01D3FFF790BF99
:1035400001207047981600202DE9F04F8318B3F53D
:10355000006F04460E46154685B050D8DFF8A4A08B
:1035600000EB0A073946304604F080F9002846D0BF
:103570002A463146384604F06BF9FDF713FB4FF04D
:10358000000883464FF000094DB9FFF7D1FFBBF1AA
:10359000010F34D105B0BDE8F04FFDF70FBB052D8D
:1035A0002F4628BF0527C4F3024343EAC703CDE9EA
:1035B00000893A4631468DF800300DF10300230AA8
:1035C0008DF801308DF8024004F042F9DDE9002366
:1035D000DAF80008CDE9022302A90122FFF7E4FE90
:1035E0000028D4D0DAF800380833CAF80038FFF7DA
:1035F0009FFF0128CBD1ED1B3C443E44C4E705B0FE
:10360000BDE8F08F98160020F8B50D460646144622
:10361000D31D23F0070300AFADEB030D6946284629
:10362000FEF77AFA22466946304604F01FF920B1C7
:10363000224631462846FFF787FFBD46F8BD000009
:10364000082208B517210348FFF7DEFF0022024BCE
:103650001A7008BDF0220020AC1E002010B5084CE6
:1036600005232046032200F8013B064904F0F0F848
:103670004FF67F73A380BDE81040FFF7E1BF00BFA6
:10368000F02200208C780008F0B585B010220021CF
:10369000684604F0D5F8442440F23F4540F2C13773
:1036A000102D2E4628BF1026394632466846FFF7B1
:1036B000ABFF013C3744A5EB0605F1D105B0F0BDE9
:1036C00037B50C460546FEF737FAA04207D001226F
:1036D00028460DF107018DF80740FFF735FF03B0CD
:1036E00030BD042838B51D4616D8052914D80E2A31
:1036F00012D81E23520003FB0122B42303FB002433
:10370000290A04F12900FFF7DBFFE9B204F12A00DE
:10371000BDE83840FFF7D4BF38BD042870B5164661
:103720001D4614D899B9800000F2AD3482F0010032
:1037300004EB4000190AFFF7C3FF002E0CBF032063
:103740000120E9B22044BDE87040FFF7B9BF70BD69
:103750002DE9F74F0024194EDFF864A0D14600256B
:103760005FFA84F80FE0FAB240463BF8023B0137BB
:103770000191FFF7B6FF0F2F0199F4D10135062D06
:1037800009F11E0903D0CB460027E9B2EBE73388E5
:10379000012200214046FFF7C0FF00227388114636
:1037A00040460134FFF7B9FF052C06F104060AF183
:1037B000B40AD3D103B0BDE8F08F00BF687E000823
:1037C000E47A000808B5FF212520FFF779FFFF21E3
:1037D0002620FFF775FFFF212720FFF771FF00214B
:1037E0002820FFF76DFFFFF7B3FFFFF74DFF2621FE
:1037F0002520FFF765FF08212620FFF761FFBDE8C0
:10380000084020212720FFF75BBF37B50C4605464F
:10381000FEF7B5FAA04207D0022228460DF10601B4
:10382000ADF80640FFF790FE03B030BD094A08B579
:103830005378C3F3800181420BD060F3820353704D
:1038400004201188FFF7E1FFBDE808400220FCF7E3
:1038500091BF08BDE222002037B5042200230C46A8
:103860000DEB020101930546FEF756F9019B9C42C0
:1038700006D0042228460DEB02010194FFF764FEF6
:1038800003B030BD08B5FCF721FE01461320FFF759
:10389000E3FF0022014B1A7008BD00BFEC2200209C
:1038A00008B5084B1B780BB1FFF7ECFF002211465F
:1038B0001046FDF7D8F9FDF777FBBDE80840FDF7A6
:1038C000F5B900BFEC22002008B5FFF735FD4FF633
:1038D000E3610020FFF799FF00210220FFF7F0FECF
:1038E0000121134B03201970FFF7EAFE4FF4A0519A
:1038F0000420FFF78AFFFFF7B1FEFFF763FF002107
:103900000F20FFF7A9FF00230A4A13700A4A137019
:1039100080220A4B1A705A709A70DA70FCF7D6FD42
:1039200001461320FFF798FFBDE80840FFF788BE67
:103930002F210020FD220020FC220020F822002060
:1039400008B58378022B05D9FFF7BEFFFEF768FEA6
:10395000FDF72EFC08BD00002DE9F04F864C8FB01E
:10396000D4F80080FFF778F98146A0EB0805FFF74F
:1039700073F900212060814C0F4694F800C008F5CF
:103980007F436646FF33A3EB090ECBB29C4510D8AC
:1039900007B126707A4D7B4E95F800803478B8F1E7
:1039A000030F00F28B81DFE818F019002D0093035C
:1039B0009E0301F10C0204EB4202537892F802805C
:1039C000013143EA08239E4523BF5B1953701B0A4C
:1039D000012734BF06F1FF369370D6E700226A4B09
:1039E00066491A70694B29221860694803F030FF54
:1039F000684B1B7813F0030218BF9A08012332703A
:103A00002B705BE1644BDFF88CA11B78A34227D1BC
:103A1000624A9AF80030127803F003039B1A18BF29
:103A20000123594E99467278B3709AF805309A423C
:103A300005D00022114610467370FDF714F9012CD1
:103A400037780FD0FF2C00F0AF803CB9B9F1000FF0
:103A500004D0224621462046FDF705F9002655E010
:103A60000123DEE73801C0B200F11006F6B29AF881
:103A700003304B499AF80220502EB346C95C28BF48
:103A80004FF0500B002A61D04FF0060EFF239AF83A
:103A900001C06FF0540A0EFB0CFEBEFBF3FE0AFBE6
:103AA0000EFA0AEB4C0A0AEB4A0A5FFA8AFA0AFB98
:103AB00002FCCAF1FF0A9B1A02FB0AF24FEA2C2C05
:103AC0001212CCF1FF0CC2F1FF024B4301FB0CFCC4
:103AD0004A43C3F30723CCF3072CC2F30722BEF1FA
:103AE000060F2FD8DFE80EF004062225292E040049
:103AF0008C4611460A466146DFF8A8A05FFA80FCB2
:103B0000E34526D84F2E8CBF002601261E4B0137D9
:103B10001F70002E40F0D08002232B70B9F1000FEF
:103B200040F0CA80002C51D1032369E79C4613461C
:103B3000E0E762469C460B46DBE78C461946634647
:103B40009446D7E762468C461946F0E70B460A468C
:103B5000D2E7DFF834C01AF800E09CF801C01EEA92
:103B60000C0F07D00793069205910490FDF73CF8DF
:103B700004A80FC80130C1E7CC150020401F002069
:103B8000010E0020D4150020FC0D0020D0150020CF
:103B9000AD1E0020F0220020000E0020FF0D0020AE
:103BA0007E7E0008D2800008984B1B68C3F38123F7
:103BB000022B7AD0032B7CD0012B4FF0000271D066
:103BC00011461420FDF74FF802232B70904BDFF8BD
:103BD00044A21C789AF80030013C2401E4B204F1BC
:103BE0001007FFB2502F3E4628BF5026002B68D149
:103BF000894B1B78002B00F0AC80DFF820A29AF8EC
:103C00000030002B00F0E081990740F1DD810D22AA
:103C100083490AA803F01CFE00250DF1280919F8B4
:103C2000010B844206D8864204D9802300211A461B
:103C3000FCF7DAFF0135EDB20D2DF0D140F23F3344
:103C40000225ADF820300DF1200919F8010B84424E
:103C500006D8864204D9FF231A461946FCF7C4FF4A
:103C6000012D40F0A981372C00F2A881372F40F2B6
:103C7000C1810023FF211A463720FCF7B5FF402FF2
:103C800040F2A2810023FF211A464020FCF7ACFF3E
:103C90004F2F40F2AF81FF2300227A214F20FCF703
:103CA000A3FF91E1142110468CE70021142208465D
:103CB00088E714221146F6E7002C87D10FB0BDE843
:103CC000F08F4FF00009CB46564D2B78A3B16B68AF
:103CD0000493FEF7C1FF049BC01AAB68834218D857
:103CE000FEF7BAFF2B7B686073B99AF8003085F84D
:103CF00000B0C5F804B0D3B909F10109B9F1140F46
:103D000005F11005E1D173E7013BDBB22B73002B0A
:103D1000EBD02B7B6878DB070DD58442ECD886424C
:103D2000EAD9EB7BAA7B697BFCF75EFFE4E7013B0A
:103D30008AF80030E0E78442DED88642DCD9EB7BAB
:103D4000AA7B697B83F0FF0382F0FF0281F0FF0111
:103D5000EAE7354B1B78002B7FF44FAF334B1D78D0
:103D6000334B1B78002D3CD0ABBB324B1B7893BB45
:103D7000314B1878FCF7F4FBC0F307238DF82800CB
:103D8000C0F307408DF829308DF82A00FF219DF8F7
:103D900028C09DF82900CCF100036B4393FBF1F39D
:103DA0009C44C0F10E036B4393FBF1F39DF82A2072
:103DB0001844C2F101036B4393FBF1F31A448DF8ED
:103DC00024C08DF825008DF82620099A314620461A
:103DD000FCF70CFF11E7032218490AA803F038FD8D
:103DE000D4E73BB1144B16491B7803EB4303CA18C5
:103DF000CB5C04E00F4B1B7823B3104A1378517847
:103E0000927843EA012343EA0242DFE7D01500201B
:103E1000FC0D002080210020D7220020302100202E
:103E20008F7800088421002023210020ED2200202B
:103E3000E5220020E6220020FD220020E2100020E2
:103E40005E820008AF4B1B78032B40F0B380254601
:103E5000EBB29E4200F292805620FCF771FB0146C5
:103E60006620FCF76DFB05460020FCF769FB0C2380
:103E7000A54ACDE90015029031462046FCF7D8FE50
:103E80004420FCF75DFB01460020FCF759FB05468A
:103E90006620FCF755FB06239C4ACDE900150290ED
:103EA00031462046FCF7C4FE0020FCF749FB0146E2
:103EB0003C20FCF745FB0423954A029001900091B9
:103EC00020463146FCF7B4FE0020FCF739FB0146E2
:103ED0003620FCF735FB05464C20FCF731FBCDE9DD
:103EE000001502900423314620468A4AFCF7A0FEC2
:103EF0004FF00009DFF820A29AF800305FFA89F24B
:103F000093427FF67AAE02F10C010AEB41014B7845
:103F1000897843EA0123952B2DD85244557C002201
:103F200079490878A84231D00132D2B20C2A01F185
:103F30000101F6D1002275490878A84226D0013245
:103F4000D2B2062A01F10101F6D1002270490878A7
:103F5000A8421BD00132D2B2042A01F10101F6D1EC
:103F600000226C490878A84210D00132D2B2042A4B
:103F700001F10101F6D109F10109BDE7002328464D
:103F80001A461946FCF730FE013561E7AC42F2D81B
:103F9000AE42F0D9C3EB03209623B0FBF3F0C0434D
:103FA000C0B2FCF7CDFA0146034602462846FCF7AC
:103FB0001BFEE0E7594918E7454646E6402C7FF6E8
:103FC0005EAE4F2C7FF664AE9AF80030DBB35A0732
:103FD00039D5452C2DD8452F15D90023FF211A4658
:103FE0004520FCF701FE4A2F25D80023FF211A4661
:103FF000412018E0A31FDBB20F2BE5D8002340229D
:10400000FF2115204BE62C2C10D82C2F1BD9002378
:10401000A522FF212C20FCF7E7FD302F13D9FF222A
:10402000002311463020FCF7DFFD0CE0302CF6D9E0
:10403000DBE74A2C07D8FF2300227A214A20FCF72D
:10404000D3FD412CD1D99AF8003053B3DB0628D5E3
:10405000A4F10D030F2B05D80023FF211A461C20C5
:10406000FCF7C2FD10222E490AA803F0F1FB00253F
:104070000AAF17F8010B844206D8864204D9002300
:10408000FF221946FCF7B0FD0135EDB2102DF0D13D
:10409000631F0F2B05D8FF2300227A211420FCF781
:1040A000A3FD204B1B78002B3FF408AE072C3FF6F6
:1040B00005AE5020FCF744FA01461820FCF740FA00
:1040C0000023024607200FB0BDE8F04FFCF78CBD7F
:1040D000154B164A1C70164B1B78C3F30103137063
:1040E000FCF762FF20E5134B1B780BB1FFF7A8FA32
:1040F000114B1C68FEF7B0FD001B0F287FF6DEADEC
:1041000000237DE4FD2200208C7F0008867F0008CC
:10411000827F00087E7F0008AD1E00205E820008BE
:104120009D780008C4220020000E0020FF0D002012
:10413000F0220020AC1E0020D01500202DE9F74F02
:10414000302307469146009183F31188A824504DEF
:1041500004FB0054D4F888301B78042B4FF0000384
:1041600004D083F3118803B0BDE8F08F94F8A02049
:1041700042F21078002A18BF4FF0000883F311882C
:10418000302383F311884FF0000A009EDFF804B15A
:10419000A26A3AB9E26852B32269111DA162E169CB
:1041A0000A44E262A06AE26AA9EB0A01121A8A4290
:1041B00028BF0A46402A44D93146402203F048FB32
:1041C000A16A403640310AF1400AE26AA1628A429D
:1041D00004D8E16920460439FDF774FA002282F31D
:1041E0001188D1451CD9302282F31188D0E7227A78
:1041F00082B9B8F1000F0DD0DBF80C2061681460B3
:10420000516004200A6042F210716260FEF7C6FB42
:104210000028BFDA4FF0000B8BF31188D1451AD874
:10422000302383F31188A82303FB0755A96A31B112
:104230002B690439C91A02D02046FDF743FA00233E
:104240008FE73146019203F003FB019AA16A1644FD
:1042500011449244B9E7302282F31188A82606FB64
:10426000075696F8A0202046BAF1000F08BF42F08A
:10427000010286F8A020FEF745F92046FEF751F925
:1042800086F808B0FEF7DCFC8BF3118878E700BFF6
:10429000200E0020E81F0020014608220120FFF721
:1042A0004DBF014620220020FFF748BF01460322F0
:1042B0000020FFF743BF20290A4603D10146022010
:1042C000FFF73CBF70470000302383F31188034B96
:1042D000DB6898610F20FEF753BB00BFE81F00208A
:1042E00008B50146302383F311880820FEF756FBFA
:1042F000002383F3118808BD38B5392814BF0A2577
:1043000050250446FDF764FB40F2E7300021DFF85A
:1043100020C00023E5FB0C014FF47A72FBF766FF27
:10432000FFF7DEFF2046BDE83840FDF7B3BB00BF16
:10433000A08601002DE9F0411F460C461646244B8D
:1043400068B11970FEF788FC224B04F0070418804E
:104350000120A040C0B2BDE8F041FDF7C9BB1D7807
:104360008D422DD11B4BB3F80080FEF775FCA0EBFE
:10437000080080B2C72823D806F12004B542E4B271
:1043800010D005F00700012505FA00F0C0B2FDF7D6
:10439000B9FB072C06D806F0070305FA03F0C0B2F4
:1043A000FDF7A6FB3846FFF7A7FF072C0DD8012025
:1043B00006F00706B040C0B2BDE8F041FDF7A2BB71
:1043C000012004F00704A040F5E7BDE8F08100BF3C
:1043D0002A210020D81400202DE9F04F0379064649
:1043E00087B0002B00F05E870121FDF755FC737943
:1043F0000446002B00F07786944B1888002800F0C4
:104400003586844200F0328610F0FE0FC0B204BF41
:1044100045428F4B4FF000010ABF05F014050025FF
:10442000ED18FCF7E5FD0146002800F01F864379F2
:10443000048043F0040343712846FEF7A9F80022E4
:10444000844B012130461A70FDF726FC47F6436382
:104450009842044640F00F86737963B17E4B1B7817
:10446000032B12BF03207D4B1878FEF7EFFCFEF7FD
:10447000F3FB7B4B18607B4B1B785F0700F01287C8
:104480007379002B00F00E87774B5B785D0740F166
:104490000987022007B0BDE8F04FFCF76BB9734BFA
:1044A00000F016BE47F645618C420DD0002B00F09F
:1044B0005686990740F153867378022B40F04F8659
:1044C00033780D2B40F03B86002AD4D0684C2378FB
:1044D00083F001032370FEF705FCFEF7BDFB604B84
:1044E0001860237823B10021FF20FEF75DFCC2E7AE
:1044F000604B1B78002BBED15F4B19780029BAD1D5
:104500000846F2E747F642639C4240F08B86737997
:10451000002BB0D0594A137883F001031370AAE737
:104520007379002BA7D0FEF77BF84F490B7883F007
:104530008002D20962F3C7130B709AB10C22504962
:104540000DEB020003F084F9002403ADFF230134D6
:104550001A46C82115F8010BE4B2FEF7EDFC0C2C4D
:10456000F4D188E70425474B03AC0393002396213D
:104570001A4614F8010B013DFEF7DEFC15F0FF05AD
:10458000F4D178E77379002B3FF475AF01223B4BF0
:104590001A7070E77379002B3FF46DAF0022374B30
:1045A000F6E7BD423FF467AF0121284603AAFDF7B5
:1045B000EDFA9DF80C300BB10135F2E7013CE4B2A5
:1045C000013500F04ABE03A8FDF7F8FAFFF794FEA4
:1045D0004FF47A70FFF784FE002C40F046864AE7DD
:1045E00003A8FDF7EBFAFDF7F3F9F1E703A8FDF7F0
:1045F000E5FAFDF74FFAEBE703A8FDF7DFFA4FF016
:10460000000904464FF00A0BDFF87CA01AF80410EA
:1046100011F0040110D1B9F1000F15D040F2E730CC
:10462000DFF868C04FF47A720023C9FB0C01FBF776
:10463000DDFDFFF755FECBE703A8FDF7BFFA303CE1
:104640000BFB09490446E1E70120F2E77E21002047
:10465000B010002032210020FD220020CC220020BA
:104660002421002031210020E2220020E51000203A
:10467000FC220020DA220020EE220020C4220020AA
:10468000AE780008464438396B820008A0860100E5
:10469000C0F3C702B649BB5C2C5C18F8029000F06E
:1046A000070011F802A0034149FA00F94AFA00FA9A
:1046B00013F0010B09F001090AF0010A0AD0AD4A12
:1046C000137843F002031370FDF700F94FF47A708A
:1046D000FFF706FEB9F1000F0AD0A64A137843F09F
:1046E00040031370FDF7F2F84FF47A70FFF7F8FD0E
:1046F0002046FDF76DF94FF47A70FFF7F1FD204683
:10470000FDF7C8F94FF47A70FFF7EAFDB9F1000F31
:1047100008D04020FCF77EF8FDF7D8F84FF47A7007
:10472000FFF7DEFDBBF1000F08D00220FCF772F8A6
:10473000FDF7CCF84FF47A70FFF7D2FDBAF1000F15
:1047400000F093852C20FFF7D7FD4FF47A70FFF728
:10475000C7FD00F08ABDA4F5AE43FF2B00F29080A8
:1047600014F0FE0B7FF487AE2946E0B2FCF740FC64
:10477000804600283FF47FAE4379DFF8FCA165F363
:1047800000035FFA84F94371002D60D0FEF764FAEC
:104790007A4B784A188098F802301278013388F8FA
:1047A0000230774B40461B78134388F80330754B33
:1047B0001B7888F80430142303FB09F30AEB030188
:1047C0005AF803200969FCF745FC98F8053013F006
:1047D000020F08BFA3466C4BA3F800B07279002A01
:1047E00000F087840021694BA4F5E0451970ABB255
:1047F000222B00F28C840420FDF7C1FA644C013DA9
:104800002080212D65D8DFE815F0A2002001AA0044
:1048100074007800AE007C00C500D100880018014B
:104820008C00D5009000D900FF009400DD00070146
:104830009A00E300EB008000C9008400CD009E00D8
:10484000E700F600110116016F00A60028011423ED
:1048500003FB09A3DA681969FCF7FCFB98F805303B
:104860009B07BBD5C9F1000000F01400414650443D
:10487000FDF772FE444B1A88A242AFD11D80ADE70E
:10488000A4F5F843183B062BA8D8DFE803F00E1276
:10489000040B161A1E002623E12211462846FFF7B4
:1048A00049FDE8E52723E522F7E72623E122E02179
:1048B000F4E72723E522E421F0E72623E122E221A1
:1048C000ECE72723E522E621E8E728230122E5217A
:1048D000E4E7237843F00103237004202188FEF7E6
:1048E00094FFFDF79DFEC6E5637843F0080363700F
:1048F000F3E7237843F00203EEE7237843F0040361
:10490000EAE7237843F00803E6E7637843F001031E
:10491000EDE7637843F00203E9E7237843F01003FF
:10492000DAE7237843F02003D6E7237843F0400307
:10493000D2E7FDF775FE237843F08003CCE72378B8
:1049400043F00C03C8E7637843F00303CFE7237811
:1049500023F00103C0E7637823F00803C7E7237857
:1049600023F00203B8E7237823F00403B4E700BF81
:10497000BE8100082C210020B0100020282100203A
:10498000322100202D2100207E2100202A2100201C
:10499000E2220020237823F008039DE7637823F0C8
:1049A0000103A4E7637823F00203A0E7237823F050
:1049B000100391E7237823F020038DE7237823F079
:1049C000400389E7FDF72CFE237823F0800383E77B
:1049D000237823F00C037FE7637823F0030386E753
:1049E0002378C3F3800282F00102D2B262F3820321
:1049F00062F3C30370E76378DA4302F0010262F303
:104A0000000362F3410372E72378C3F3801282F05C
:104A1000010262F386135FE7FDF702FE2378C3F31A
:104A2000C01282F0010262F3C71355E701210E2084
:104A3000FEF746FE51E70021F9E72378C3F30012A1
:104A400082F0010262F3041346E72378C3F3000205
:104A500082F0010262F300033EE76378C3F3C00211
:104A600082F0010262F3C30341E747F677439C42B9
:104A700040F085800120FBF7C3FDA4E01B78A4F57E
:104A8000F041A1F1200003F022030A2824D8DFE836
:104A900000F0060A500F55145A195F1E64000120D9
:104AA000FCF7E4F8E7E4002B45D0FCF743F9E2E437
:104AB000002B45D0FCF772F9DDE4002B45D0FCF764
:104AC00087F9D8E4002B45D0FCF79EF9D3E4002BFE
:104AD00045D0FCF7B3F9CEE440390E294BD801A0FC
:104AE00050F821F0214B00082D4B00089F4A000888
:104AF000A74A0008334B0008B14A00083D4B0008A4
:104B0000BB4A0008474B0008C54A0008514B000843
:104B1000CF4A00085B4B0008654B00086D4B00084E
:104B2000FCF7B2F80120FCF757F8A4E4FCF7BEF854
:104B3000F8E7002BB9D0FCF7F9F89CE4002BB9D0CA
:104B4000FCF722F997E4002BB9D0FCF733F992E493
:104B5000002BB9D0FCF74AF98DE4002BB9D0FCF753
:104B600061F988E423B1FCF785F984E4002BFAD0DD
:104B7000FCF770F97FE447F677439C4215D047F67F
:104B800078439C4219D0A4F5A543603B9BB21F2BF0
:104B90001DD86ABB04F01F0301249C400320E1B22E
:104BA000FEF78EFDA74B1C7065E40120FBF71EFD90
:104BB00003220221FBF798FD5DE40220002A3FF466
:104BC0005AAFFBF713FD032202210120F2E7A2B343
:104BD00047F65B439C4224D047F65C439C4215D089
:104BE00047F65A439C421AD047F601439C4221D0D3
:104BF00047F603439C4216D0B4F5F84F1DD1FDF79C
:104C00000FFD914B914A1A60FCF7D2FA904B5878FD
:104C100080F00400C0F38000FEF708FE2BE40120C2
:104C2000FAE70020F8E7FEF787FB4FF6FF71002058
:104C3000FEF7EBFDFDF7F4FCE6E73388ADF808304E
:104C40000298002A58D0FCF7FFFF0446014602985C
:104C5000FBF70EFDBDF808302046ADF80C30039987
:104C6000FCF7D2FFFBF7C6FEDFF8E8A196F8069046
:104C70009AF80080044618F007087579C9F30319FB
:104C800028D0A84635B3C4F3072303F0F002402A26
:104C90000ED0C1B201F12002D2B2072A30D903F0FE
:104CA000E003202B04D101292AD9B9F1000F2AD021
:104CB000674B93F8018018F004080BD00220FBF733
:104CC00059FD9AF8003013F0070F0CBF4FF00108A0
:104CD0004FF00008C4F303330B2B6AD8DFE813F05E
:104CE0001500150049004900D300690069006900FA
:104CF000EA004F0161016101FBF7D8FC0446A9E716
:104D00004FF00008E6E7C846E4E7C4F30327C4F31E
:104D100007223B010F2A88BF1F46E4B295B15FB15D
:104D200004F12003DBB2072B00D94CB94A4A1378AF
:104D30003B431370FCF7CAFD2046FCF749FE38E000
:104D4000464AF4E72046FCF7A5FE002F31D004F1D7
:104D50002003DBB2072B00D91CB93846FBF75AFDFC
:104D600004E03E4A137823EA07031370FCF7AEFD14
:104D70001FE0C4F30320C4F3072303F0F003020190
:104D8000E4B2202B18BF10463CB1012C4ED0002DB0
:104D90006AD0B9F1000F27D0CEE72D4B5B785C07C6
:104DA0001ED425B128B12C4A13780343DDE700282F
:104DB000D4D1B8F1000F00F0A6809AF8000010F0EE
:104DC000010340F0A0807371C008FBF70FFC304670
:104DD000FFF702FB9AF80000C008FBF711FC92E015
:104DE00085B1B9F1000F02D1FCF782FEE1E7B9F11C
:104DF000010FDED11A4A137830EA0301D9D00343F8
:104E00001370D6E7B9F1000FD3D10190FCF77AFE09
:104E1000134A0198137818421CBF83431370114A38
:104E200013781842C5D023EA0003E9E71DB1B9F1B0
:104E3000050FBED8D8E7B9F1040FBAD8FCF762FE67
:104E4000B7E700BF2F210020FC6F0020EFBEADDED2
:104E5000E2220020312100202C21002032210020DC
:104E60002D2100202E210020B9F1000FE6D0392C91
:104E70000CBF4FF4FA504FF47A70FFF731FA204626
:104E8000FCF708FE95E714F4406FC4F3812307D0C4
:104E9000012B8ED165B1C4F30900FCF705F988E751
:104EA00025B1C4F30900FCF7E3F882E72846FAE7E6
:104EB0002846F2E714F4407F32D105BB0F21C4F33A
:104EC00042129200D2B29140C94304F00F03C9B21A
:104ED000934014F01002C4F3812418BF0A46022C38
:104EE000A14917D0032C19D0012C04D013430A7800
:104EF00013400B7003E0087803431A430A70FCF771
:104F0000ADF8FBF767FB0021304607B0BDE8F04F76
:104F1000FCF7C2BE13430A785340EAE71343E8E7BD
:104F2000C4F30122EDB1D107E9D50F21C4F3421238
:104F30009200D2B29140C94304F00F039340C9B22A
:104F400014F01002C4F3812418BF0A46022C10D0BA
:104F5000032C12D0012C07D013433A7813403B7036
:104F6000CDE7012AE1D8CAE739780B431A433A70F2
:104F7000C5E713433A785340F1E71343EFE7E7B24D
:104F8000C4F3032435B12046FBF730FB3846FCF769
:104F9000AFFDB4E73846FCF7B5FD2046FBF730FB24
:104FA000ADE75FFA84F8A8F1F003042B40D8DFE8FE
:104FB00003F003240F1620003DB1B9F1040F9ED871
:104FC0000123C4F30424A340D4E7B9F1050FF6E7A5
:104FD000C4F30420002DE1D1FBF708FB8FE735B1C6
:104FE0000123C4F3042403FA04F43C7087E73D7002
:104FF00085E75E4B5B785A0704D4C4F30420002D88
:10500000CCD0E9E74DB15B07C4F30420E4D5C3007D
:1050100043F003038AF80030DEE70120FBF7AAFB28
:10502000B9F1010F7FF66BAF0220FBF7A3FB66E738
:105030004DB1B9F1000F03D04046FCF7C9FC5EE763
:10504000C4F30420C8E7B9F1000F0CD0B8F1390F50
:105050000CBF4FF4FA504FF47A70FFF741F9404615
:10506000FCF718FD4BE7C4F3042097E747F64363CA
:105070009C423FF4F3A93E4F3B7843B1980706D5D5
:105080007278032A03D13278052A3FF4E5A9A82CC7
:1050900072797FF407AA3749097861B936490978E6
:1050A00049B93649097831B93549097819B93549C5
:1050B0000978002974D0002A3FF4DDA9FDF7CCFD62
:1050C000314B1860314B1B78002B3FF4E8A9304B73
:1050D00018780121B0FA80F040094042C0B2FDF7D3
:1050E0000FFEFFF7C8B947F6436398423FF4C3A9E0
:1050F000C1E747F616439C427FF4B7AC254B1B78BB
:10510000002B0CBF29203520FCF720F813E047F6D0
:1051100016439C42204B7FF4B1AC1B7803F0AA03EA
:10512000002B14BF012200221A4B0CBF292035206E
:105130001A70FBF7D5FFFCF7C9FBFFF79CB947F6E0
:1051400044618C4201D00C2B2DD1002A3FF493A94D
:10515000124B1878013000F00300FFF786B947F6CC
:1051600044639C42F0E700BF2F210020E222002090
:1051700030210020FC220020EE220020ED22002021
:10518000D6220020D822002024210020E022002066
:10519000E11000202B2100202C210020FD220020E6
:1051A000002B7FF486A9E2B1FDF756FD3F4B186056
:1051B0003F4B1A780AB100221A703E4B1B7863B934
:1051C0003D4B1B786BB93D4B1B78FF2B05D13C4BFE
:1051D0001B7833B13B4B1B781BB90021FF20FDF737
:1051E0008FFD31462046384AFCF7B8FB00283FF4D3
:1051F00042A931462046354AFCF7B0FB00283FF46F
:105200003AA947F641639C423FF4C4A93FF67AA904
:1052100047F213039C423FF483A947F640639C4244
:105220003FF4B0A97579002D3FF495AAA4F5EE439B
:105230009BB27F2B3FF68FAAE4B20F2C3FF61BA93F
:10524000012140F23E4003AAFCF7A0FC9DF80C505F
:10525000002D7FF410A940F23F47002C7FF4A1A954
:1052600003951B4F1B4DDFF8708003A8FCF7A6FCCD
:1052700000283FF400A901287FF40AAA03A8FCF73C
:105280009DFC431E0446032B3FF6A2A901A252F83F
:1052900023F000BFC7450008E1450008ED450008C0
:1052A000F945000807B0BDE8F08F00BF24210020B9
:1052B00023210020D7220020D8220020E510002042
:1052C000E0220020E1100020A9100020A4100020FE
:1052D000CE810008DE810008BE8100081C49F8B5B7
:1052E0008B790F2B0AD84B7943B11A4B1A4A1B788A
:1052F00015784E780F78194CAB4200D1F8BD04EB0D
:10530000C300027902B34278B2421DD114F83320AF
:10531000BA4219D14279BAB94288B1F802C0A2EBB7
:105320000C0292B2C72A0FD801228B7962F30713BD
:105330008B71837962F3071383710548FFF74CF88B
:10534000BDE8F840FBF706BA013303F00703D3E7E3
:105350007621002034210020332100203621002036
:105360002DE9F04F054685B08A4C01460622684675
:1053700002F06EFA94F804A06F7995F80490BAF1EF
:10538000000F1AD1B9F1000F15D0002F00F0FE80E8
:105390002846FCF7ADFC002800F0F88008222946DA
:1053A000204602F055FAB9F1010F02D12088FCF72E
:1053B0008DFCFFF793FF012444E0B5F802B0638849
:1053C0006679ABEB030395F800809BB2002E00F0EA
:1053D000AE80C72B00F28880B9F1000FEBD0A37923
:1053E00062780F2B697850D891420FD122784245CC
:1053F0000CD1002F44D10122204662F30713A37180
:10540000FEF7EAFFA379AB7100241BE0002F37D130
:105410003A464046FBF77CF94046FBF779F90446EB
:105420000028F1D10098FCF751FCC0F30332032AA5
:10543000C3B20BD8012A13D910F4706F15D0AA7912
:105440000F2A12D8204605B0BDE8F08F063202F0D0
:105450000F02012A0ED92846FEF7BEFF3446F1E7B7
:1054600010F4706F01D0002BECD02033DBB2072B8F
:10547000E8D9F0E7EF2BE5D90F33DBB2022BF7E7E2
:10548000A37943F00103A371BEE791420DD12278C5
:1054900042450AD14FB92846AB71FEF79DFF08225D
:1054A0002946204602F0D4F985E72846FCF720FC7F
:1054B00000286BD0002F69D0A3791F2B0ED922882A
:1054C00002A8ADF808200022ADF80AB08DF80CA0B3
:1054D0008DF80D208DF80E30FEF77EFF082229464C
:1054E0002C4802F0B5F964E7A3790F2B08D82046C1
:1054F000FEF772FF08220021204602F0A1F983E79F
:10550000B9F1000F3FF457AF61786A789142CCD17E
:1055100022784245C9D1002FC7D12846AB71FEF78A
:105520005BFF08223946204602F08AF943E7C72B81
:10553000E0D8B9F1000F3FF43EAF3FB362786B782B
:105540009A421AD12378434517D1A379DA0710D4A8
:105550000F2B0ED9AB7103F0F003F02B06D0AB7913
:10556000C3F30312013262F30713AB712846FEF74F
:1055700033FF08222946074894E72846FCF7B8FB82
:105580000028ABD1A37943F00103A3712846FEF7AD
:1055900023FF10E776210020F0B589B0CDE90001A6
:1055A0009DF8055000220DB12C490A709DF8046049
:1055B000DDE90001ADF80E2002905EB1012102A8E4
:1055C0008DF80C608DF80D50FCF766FB012102A8E8
:1055D000FCF762FB8DF80C608DF80D50DDE90201DF
:1055E000CDE9040104A8FFF7BBFE1D4E07461D4C84
:1055F000B8B9DDE90401CDE906019DF8141033784E
:10560000227871B15D1C05F00705954210D016484F
:10561000082206A900EBC30002F01AF93570FBF767
:1056200099F8114D2078337883420BD109B0F0BD41
:10563000FCF7F6FF082239460C483770277002F055
:10564000FFF8EEE705EBC000FFF78AFE0028EDD07B
:105650002378013303F007032370E3E732210020AE
:105660003321002034210020362100207621002023
:1056700073B5FDF7F1FA0A4D84B22B88A3420DD021
:105680000026ADF80060FDF7E7FAADF80460ADF86C
:105690000200DDE90001FFF77FFF2C8002B070BD42
:1056A000CE20002000232DE9804895B001935C4B6B
:1056B0009A68022A01BF1A685A4A526F5A689B694F
:1056C00000231E46584A0133102B1660566002F123
:1056D0000802F8D10127554B554D03F10C021A6110
:1056E000DA60544A5E61DA611F705E609E60524B00
:1056F0002F7003F10C021A61DA60504A5E61DA61C0
:105700001F7040F2BF325E609E604FF0E023EE619A
:10571000AE622E62EE626E622E636E60AE605A61A1
:1057200007229E611A6180224549464883F8232D4D
:1057300008604548454C4860454903F550634FF0C3
:10574000300CA66221638CF3118862B6D868414997
:1057500020F4E0600004000C0143D960D3F8FC1091
:105760003D4841F08071C3F8FC1001684FF000091A
:10577000394301602021D97783F822C004F1100356
:10578000C4E904334FF0FF33E661A361E3693348B2
:10579000984604F13403E36000F1C403C0F8F43028
:1057A0002F4BC0F8C860C0F8C4302E4BC0F8F07062
:1057B000C0F8E4300223C4E90889A0F8FC30E263B1
:1057C000A265C4E90044C4E91466A660E662E66521
:1057D0006464A4F84870C0F8F840C0E94267C0F8B3
:1057E0000461E830FCF716FB86F311881E4B1F4A54
:1057F000DF701F4BDFF87CA01A60FCF79DFE01F004
:1058000045FF4FF4807248461A49FDF7A4FD002871
:1058100040F0B882FCF790FEFCF78EFE84E000BFFB
:10582000000C014000040140D8150020182300207E
:10583000EC1E002000300040581600200090004070
:105840008C1600205023002000700020E81F00204C
:10585000987F00080003FA05001000E0E81000201F
:10586000A10B0008D1010008A0100020990B00082E
:10587000040E0020981600201EF8013B7340A3FB85
:105880000C9B0CFB07BB7E015A0119EB020246EA96
:10589000D3664BEB060B4FEAC719D2184FEAC31673
:1058A00047EB0B0B4FEA0328961949EA53694FEA75
:1058B00007274BEB090947EA136716EB080649EB84
:1058C000070908EB090786190139D5D101224FF4E0
:1058D00000600CA9FDF73FFDDDE90C23BB4208BFCA
:1058E000B24201D0FCF728FE40F6080601223046FD
:1058F0000AA9FDF730FD002800F06882DDE90A32D0
:1059000053EA020100F0618213F0C00FCDE90C32BE
:1059100006F10806D9B200F03E82CAF80068FDF729
:105920009FFD00283FF478AF4FF080436FF02002D6
:1059300000261A6320214FF055321A605E609E6087
:10594000DE60DE621E625E6299616FF40071C3F810
:1059500030144FF40071C3F80024C3F80464C3F892
:105960000864C3F80C64C3F82C64C3F82064C3F85B
:105970002464C3F818146FF48071C3F83014C3F8AA
:1059800000244FF48072C3F804643146C3F80864FD
:10599000B748C3F80C64C3F82C64C3F82064C3F898
:1059A0002464C3F81824102203F580634FF0A8087C
:1059B00001F046FF302731464FF0010C3246AD4B27
:1059C000DFF8B4E21E70AD4B1E70AD4B03F15C000E
:1059D000D86493F8840010B103F170001865DFF803
:1059E000A0A2D3F8946008FB01AAD3F89800D3F8DA
:1059F000909004361B605B6083F808C0CAF80C9076
:105A000006FB090A58611861C3F818A0DE61C3F8E3
:105A1000209058629A62DA62C3F830E05B6387F3E1
:105A20001188D3F8880093F88C6000EB86008361BE
:105A300083F8A02082F311880131032903F1A80320
:105A4000C4D1904901F15C030B65CB6FD1F88000A4
:105A50008E6F043381F808C006FB030CCB618A4BC0
:105A600009604960CA6048610861C1F818C00E62E7
:105A700048628A62CA620B63496387F3118891F8AE
:105A800074000B6F093043F8201081F8842082F3F2
:105A900011887E496FF4C0508B6C43F4004343F08F
:105AA00020038B644FF0804318636FF480501A60BA
:105AB0009A60DA6018634FF0807018604FF480507D
:105AC00058604FF080505A62986187F311882B78A4
:105AD000012B17D04FF480406D4BC3F88000C3F802
