:020000040800F2
:1000000000040020B9010008BB010008BB01000882
:10001000BB010008BB010008BB010008BB010008D0
:10002000BB010008BB010008BB010008F96600081D
:10003000BB010008BB010008BB010008FD6B000804
:10004000BB010008BB010008BB010008BB010008A0
:10005000BB010008BB0100085D6A0008856A000852
:10006000AD6A0008D56A0008FD6A0008BB010008F7
:10007000BB010008BB010008A96C0008BB01000817
:10008000256B0008BB010008BB010008BB0100088C
:10009000BB010008BB010008BB010008BB01000850
:1000A000BB010008BB010008816C0008956C0008CA
:1000B000BB010008BB010008BB010008BB01000830
:1000C000BB010008896B0008BB010008BB010008E8
:1000D000BB010008BB010008BB010008BB01000810
:1000E00072B6264880F30888254880F30988254899
:1000F00025490860022080F31488BFF36F8F02F057
:10010000A9FC02F0D9FC4FF0553020491B4A91421E
:100110003CBF41F8040BFAE71D49194A91423CBF24
:1001200041F8040BFAE71B491B4A1C4B9A423EBF9D
:1001300051F8040B42F8040BF8E700201849194A5B
:1001400091423CBF41F8040BFAE702F053FD02F084
:100150004FFD154C154DAC4203DA54F8041B88478B
:10016000F9E705F07DF8124C124DAC4203DA54F871
:10017000041B8847F9E702F03CBD000000040020A2
:10018000000C00200000000808ED00E00000002046
:1001900000040020A87C0008000C002000110020B2
:1001A0000011002044230020E0000008E0000008C7
:1001B000E0000008E000000892E700F000F8FEE729
:1001C0002DE9F04FC1F80CD0C3689D46BDE8F08F13
:1001D000002383F311882846A047002003F0ECFE9B
:1001E000FEE702F02DFD00DFFEE7000053B94AB93B
:1001F000002908BF00281CBF4FF0FF314FF0FF302F
:1002000000F062B9ADF1080C6DE904CE00F006F81B
:10021000DDF804E0DDE9022304B070472DE9F04782
:100220008C46154604461E46089F002B40F0CB80A6
:100230008A4248D9B2FA82F149B1C1F120030CFADD
:1002400001FC20FA03F38D4043EA0C0C8C404FEA8A
:10025000154EBCFBFEF8A8B20EFB18CC08FB00F94B
:10026000230C43EA0C43994529D9EB1808F1FF32D6
:1002700004D2994502D9A8F102022B44A3EB090349
:10028000B3FBFEFC0EFB1C330CFB00F0A4B244EAF3
:100290000344A04215D92C190CF1FF3304D2A0421B
:1002A00002D9ACF102032C44241A43EA02401FB1E4
:1002B0000023CC403C607B603146BDE8F08742467D
:1002C000DCE76346F0E7002A73D0B2FA82F3DBB3CF
:1002D0001E4602FA06F5C6F1200321FA03F24FEAA0
:1002E000154EB14020FA03F30B43B2FBFEF100FAC6
:1002F00006F40EFB112CA8B201FB00F81A0C42EA1E
:100300000C42904557D9AA1801F1FF3C04D2904500
:1003100002D9A1F1020C2A44A2EB0802B2FBFEF1C1
:100320000EFB112248439BB243EA0243984244D950
:10033000EB1801F1FF3203D2984201D98A1E2B44F7
:100340001B1A42EA0C4201E08B1A01224FEA154EB9
:10035000B3FBFEFCA8B20EFB1C330CFB00F8210C17
:1003600041EA034398452AD9EB180CF1FF3104D236
:10037000984502D9ACF102012B44A3EB0803B3FB6F
:10038000FEFC0EFB1C330CFB00F0A4B244EA034459
:10039000A04216D92C190CF1FF3304D2A04202D985
:1003A000ACF102032C44241A43EA014031461646BC
:1003B0007DE71F268DE78C46AEE70A46C0E761461B
:1003C000DBE76346EFE78B4206D917B900263046D4
:1003D00072E7C7E90001F9E7B3FA83F686B98B4201
:1003E00001D3824207D8841A61EB030301209C46A3
:1003F0001FB9002660E73046FAE7C7E9004CF8E786
:10040000C6F1200CB34022FA0CF41C434FEA144905
:1004100021FA0CF3B3FBF9F820FA0CF5B1402943AB
:100420001FFA84FE00FA06F509FB183008FB0EFAE5
:100430000B0C43EA00439A4502FA06F240D9E3184E
:1004400008F1FF3004D29A4502D9A8F102002344F2
:10045000A3EB0A03B3FBF9F809FB183308FB0EFE04
:1004600089B241EA03418E452CD9611808F1FF3366
:1004700004D28E4502D9A8F10203214443EA004088
:10048000A0FB0298A1EB0E014145CE46434602D3A4
:1004900006D14D4504D2B9EB020E68EB04030138D6
:1004A000002FA6D0B5EB0E0261EB030101FA0CFCA4
:1004B00022FA06F34CEA0303F140C7E9003198E75A
:1004C0004046C5E74346D9E7704700BF032807B554
:1004D00013D10023ADF804308DF8063000209DF8CC
:1004E000043063F307009DF8053063F30F209DF897
:1004F000063063F3174003B000BD044900EB400031
:100500000144032201A806F03DFEE7E7927B0008C4
:10051000A0F58073B3F5F85F30B42ED210F4805F8D
:1005200000F40075C0F3002300F4806400F4006060
:1005300014D01B0143F02002002D18BF134643F0D6
:100540004002D2B2002C18BF134663F07F02D2B231
:10055000002818BF134630BC1846084743F0020273
:10056000D2B2002D18BF134643F00402D2B2002CC1
:1005700018BF134643F00802E9E70023EBE7000049
:1005800010F0020F0CBF10224FF48012014B9A6141
:10059000704700BF000800400123034A83401178E0
:1005A0000B431370704700BF442100200123034A0E
:1005B0008340107820EA0300107070474421002027
:1005C0000123034A834011784B401370704700BFEA
:1005D0004421002001F00703C90801EB410130B5B7
:1005E00001250A4400219D40013A12F8014F20FAEA
:1005F00001F343F3000363402B4001315C400329C6
:100600001470F2D130BD002210B500F00704C0080C
:1006100000EB4000014410468B5CE34003F0010313
:10062000934001321843032AC0B2F5D110BD000037
:100630000246C0F30723052B084682B0D1B209D881
:100640000E290DD8C3EB03131944064A89B202B030
:10065000FFF7C0BF0433DBB2012B01D8024AF6E733
:1006600002B070471321002010210020C0F307239F
:10067000052B82B0C0B209D80E280DD8C3EB0313E6
:100680001844074980B202B0FFF7BDBF0433DBB2A4
:10069000012B01D80349F6E7002002B0704700BFE4
:1006A000132100201021002030B50124074D04FA49
:1006B00001F12B7804FA00F00843C1B218409440CD
:1006C00081420CBF2343A3432B7030BD4421002043
:1006D000F0B50D4B0D4C1B7826780D4CB34201D173
:1006E0000020F0BD04EBC3056F788F4206D114F8EB
:1006F0003370874202D16D79954203D1013303F003
:100700000703EBE70120ECE7482100204721002008
:100710004A210020054B064A1B7812789A4200D1E4
:100720007047013303F00703F8E700BF48210020BA
:100730004721002010B509490B7823EA000010F08A
:100740000704087009D1984207D0054B5B785B0716
:1007500003D5C008FFF72AFF0C7010BD452100200B
:100760009C21002070B5144B144D1878144B1B7845
:1007700018432B78C0B293B11843124B9B78012BCE
:1007800004D1114B93F90030002B09DB06220F4BEB
:1007900000211A449A4206D109B100232B7070BD82
:1007A0001E220B4BF4E74C1C13F8016BE4B2002E35
:1007B00018BF2146EEE700BF402100204121002064
:1007C00046210020A81000209C2100200E140020AB
:1007D00016140020024A137823EA000313707047AE
:1007E00040210020E7284FD8DF2807D8312864D0DF
:1007F0000ED8292857D02A2866D07047A0F1E003E8
:10080000072B41D8DFE803F01540232831403C4155
:10081000392804D0822802D035283FD07047324B87
:100820001A7892071FD15B7813F0080F18BF2920A0
:1008300070472D4A1378D9074DD4527812F0010F22
:1008400022D013F0100F14BF0020E3207047264B76
:100850001B7813F0040FF3E7234A137859073CD4AD
:100860005278D207EDD5E02070471F4B5A78910798
:100870000AD51B7813F0100F14BF0020E720704733
:10088000194B1B781A07F5D47047174A13781907C4
:1008900025D452789107EDD5E4207047124B1B7890
:1008A00013F0200FC2E7104B1A78920619D45B7828
:1008B00013F0080F18BF392070470B4B1B7813F04B
:1008C000400F18BF2A207047074B1B7813F0400FCA
:1008D00018BF3120704739207047E2207047E6206A
:1008E00070473520D0E700BF9C21002030B5304D47
:1008F0002B785A0711D500F0140100F018020C1FD4
:100900006142A2F1080C6141DCF1000242EB0C02F1
:1009100080F00C04914218BF2046190713D500F04F
:10092000140400F01801A4F1140CA1F11802DCF178
:10093000000444EB0C045142514180F00C02D2B24D
:100940008C4218BF10466D78E90713D500F01104EA
:1009500000F0180104F1FF3CA1F10802DCF10004F1
:1009600044EB0C045142514180F00902D2B28C4256
:1009700018BF1046AA0711D500F0110400F01801A5
:10098000A4F111025442A1F118055441694280F0CA
:1009900009026941D2B28C4218BF1046DB0605D568
:1009A00000F0E70310F0080F18BF184630BD00BF75
:1009B0009C21002038B5FFF715FFB0F5A44F044681
:1009C0003FD2B0F5A04F80F0A680DF2816D8CC2803
:1009D00000F28680A7280AD8A42874D8012804D059
:1009E000031F9BB2A12B28BF0024204638BDA0F1D5
:1009F000A8039BB21A2B6BD90024F6E7B0F5804F01
:100A000016D2B0F5005F80F09980E728EDD9A0F507
:100A100080739BB2B3F5F85FEED2C0F30720FFF707
:100A200065FF0546E0B2FFF7DDFE40EA0524DCE79E
:100A3000C0B2FFF7D7FE04F47064204340F42044B2
:100A4000D3E7B0F5A54F21D245F25F23984251D8A4
:100A500045F23F2398420ED845F21F23984242D8D0
:100A6000012300F00304A340C0F3850243EA4213CC
:100A700043F40D44B9E7012300F00304A340C0F39D
:100A8000820243EA421343F40C44AEE745F2BF232B
:100A900098420AD845F29F23984200F01F0034D8AC
:100AA0004AF2F40343EA00249FE7A0F5A543403B44
:100AB0009BB21F2BA0D8040204F4F85444F4204441
:100AC00044F0F00491E7A0F1240444F480448CE75E
:100AD000204B5834E4B233F8144044F4884484E79B
:100AE00040F4A04481E74AF2F10300F01F0443EA16
:100AF00004247AE7012300F00304A340C0F3820238
:100B000043EA421343F40A446FE7FFF7EFFE04029F
:100B100044F4005469E700F01F00FFF7E7FE03B25A
:100B20001A0102F0F00210F0100F18BF1346C4F3C0
:100B3000431443EA042343F4104456E7C0F304206B
:100B4000FFF7D4FE0546E0B2FFF74CFE40EA05246D
:100B5000DEE700BFBC7A0008002070470020704725
:100B600030BFFDE7044B93F804281AB9012083F83D
:100B70000408704702207047B0160020054B93F818
:100B8000042822B10022012083F8042870470220A3
:100B9000704700BFB0160020024B1A78104318703F
:100BA000704700BFC41E002000F0C0B92DE9F04717
:100BB0008046894614469DF820609DF824709DF873
:100BC00028A0D51814F8010B404506D3484504D297
:100BD00053463A463146FFF7E7FFAC42F2D1BDE853
:100BE000F08700002DE9F3410F46FF21D5B2C2F393
:100BF0000726C2F307440F4A8046D278554356432E
:100C00005443B5FBF1F5B6FBF1F6B4FBF1F4EDB2EC
:100C1000F6B2E4B25FFA88F39F4202D802B0BDE8B0
:100C2000F0814046234632462946FFF7BDFF08F1D2
:100C30000108EFE7A821002000F084B9044A1378E6
:100C400083F0010313700022024B1A70FFF7A4BF58
:100C5000A8210020090E0020064A137813F0030390
:100C600004BF05490B700121137861F30103137070
:100C7000704700BFA8210020090E0020054B1A78FC
:100C800092071EBF0021044A11701A7822F0030255
:100C90001A707047A8210020090E0020074A137817
:100CA000980709D0012060F3870313700022044BDA
:100CB00008461A70FFF770BF704700BFA8210020D8
:100CC000090E002007B50322019001A9094806F08A
:100CD00059FAFFF7C1FF084B1B7813F0FC0F06D041
:100CE0000021084603B05DF804EBFFF7D7BF03B05F
:100CF00000BD00BFBE100020A82100200121084631
:100D0000FFF7CCBF0121054B1878C0F385000138EF
:100D1000C0B2884238BF0846FFF7C0BFA8210020F4
:100D200030B4064C2578AD0706D06070A170E27033
:100D3000184630BCFFF730BF30BC7047A8210020F8
:100D4000034901234878CA7808308978FFF7E8BF5B
:100D5000A8210020044901234878CA7808388978F6
:100D600080B2FFF7DDBF00BFA821002005480123A6
:100D70008178C2781031FF2928BFFF214078C9B29D
:100D8000FFF7CEBFA8210020054801238178C27853
:100D9000103921EAE1714078C9B2FFF7C1BF00BF45
:100DA000A821002005480123C27881781032FF2A4B
:100DB00028BFFF224078D2B2FFF7B2BFA82100209F
:100DC00005480123C2788178103A22EAE27240781D
:100DD000D2B2FFF7A5BF00BFA8210020044A01201E
:100DE00013791033FF2B28BFFF231371FFF7D4BEF5
:100DF000A8210020044A01201379103B23EAE37361
:100E00001371FFF7C9BE00BFA8210020054A0120C9
:100E10005379A3F1FF014B424B410349CB5C537122
:100E2000FFF7BABEA8210020B0770008054A0120CC
:100E30005379A3F1FF014B424B410349CB5C537102
:100E4000FFF7AABEA8210020B077000830B5094BF3
:100E50009C78DD78621C02F00302954209D09A70FA
:100E60001A7800F07F001C4440EAC1100132207162
:100E70001A7030BD9F1F0020054BC1F180411869D9
:100E800001F2074101F00F01C84000F00100704776
:100E90000004004070B5072301264FF400444FF0D2
:100EA0000045184A06FA03F10142946115D0062163
:100EB00000BF00BF00BF00BF00BF00BF0139F7D1B6
:100EC0000321956100BF00BF00BF00BF00BF00BF8E
:100ED0000139F7D1013BE5D270BD032100BF00BF4E
:100EE00000BF00BF00BF00BF0139F7D106219561E7
:100EF00000BF00BF00BF00BF00BF00BF0139F7D176
:100F0000E8E700BF000400406FF40042064B1A639C
:100F10004FF055321A6000225A609A60DA60DA6245
:100F20001A625A62704700BF0004004030B5044D99
:100F300000EB40002C1861702A54A37030BD00BF34
:100F4000F214002070B5134605460E4600242046D4
:100F5000324629460134FFF7E9FF502CF7D170BD26
:100F600038B5302383F3118800250E4C2078FFF725
:100F700091FF6078FFF78EFF0135A078FFF78AFFB9
:100F8000502D04F10304F1D14FF4E06300BF00BF22
:100F900000BF00BF00BF00BF013BF7D183F3118842
:100FA00038BD00BFF2140020022870B529D80022F5
:100FB000154B9D1D03EBC2046679360705D515F860
:100FC0003260864201D1204670BD0132032AF1D140
:100FD000B9B159790C070FD55A7B11070FD55A7D36
:100FE00012070ED4022103EBC1014B79887143F043
:100FF000080308464B71E7E7C1F3C001F3E701219D
:10100000F1E70020E0E700BFD814002002B110474C
:1010100070470000034B1B6813B11B6803B11847EE
:1010200018467047042100200B4B07B51A888242EE
:101030000FD01880094B1B685BB11B694BB10322B1
:101040008DF80500000A8DF806008DF8042001A82F
:10105000984703B000BD00BFD61400200421002033
:101060000B4B07B51A88824210D01880094B1B68B9
:1010700063B11B6953B104228DF80500000A8DF895
:1010800006008DF804200DEB0200984703B000BD68
:10109000D41400200421002010B5154B9B78012B9F
:1010A00015D000224FF0FF33124911F8014FA04232
:1010B0001DD0B3F1FF3F01D104B953B20132062A6A
:1010C000F3D15A1C13D00C4A134498700FE00B4A0A
:1010D00092F90020002AE4DAEF2808D8084A02EB47
:1010E000D002917800F0070083400B43937010BD4D
:1010F000A81000200D1400200C1400209C210020BA
:101100001414002010B5114B9A78012A0CD0062334
:1011100000210F4A12F8014F013B844208BF1170B1
:1011200013F0FF03F6D110E00A4B93F90030002BC7
:10113000EDDAEF2809D8084B03EBD003997800F0DB
:101140000700824021EA02029A7010BDA810002018
:101150000D1400209C21002014140020014B58780D
:10116000704700BFA8100020BFF34F8F0549064B02
:10117000CA6802F4E0621343CB60BFF34F8F00BF35
:10118000FDE700BF00ED00E00400FA0530B590F87F
:10119000472090F8463085B043EA02231A0A032A12
:1011A0001BD00DD8012A5FD0022A13D15B23314A0C
:1011B000314842600360002A08BF104605B030BDC8
:1011C00090F8483090F84910212A43EA01233CD096
:1011D000222A41D000231A46EAE7DBB2032BF9D8D2
:1011E000DFE803F0450205080623244AE0E722234E
:1011F000234ADDE7234B244D1C781CBB01222146EA
:101200001A706846102205F0B5FF21461F4804AB4E
:1012100003EB610313F8102C05EB41031409045D83
:1012200002F00F029C700024825CDC704B1C0231C7
:1012300005EB430320299A70DC70E8D142232B7020
:1012400003236B702B78104AB2E7022BC2D8104AE6
:1012500052F823200923ABE7022BBBD80D4A0E49D5
:1012600052F82320CB5CA3E712230C4AA0E7042307
:101270000B4A9DE790730008CC140020847300088B
:101280006073000886140020871400204F73000844
:101290000C74000800740008FD730008EB7300086C
:1012A0008C73000810B5064A064C117824784B1C44
:1012B00003F00F039C421EBF034C1370605410BD1B
:1012C000FF1E0020FE1E0020EE1E002090F84A2087
:1012D00090F84B00084942EA0022022A0B7807D115
:1012E000012B01D0062B05D14A78044B5A70704768
:1012F000024A5370704700BF84140020A8100020D9
:1013000070B590F84410044601F07F03212B40F0A3
:101310009D8011F0800F90F8453053D0022B35D0CE
:10132000032B25D0012B4DD190F84830022B01D949
:10133000002070BD90F846100829F9D8594AD25CAF
:10134000022AF5D8A820584B00FB0233D3F8A4306A
:10135000002BEDD0554D5E6818682A46B04705F160
:101360000803A363AB6C0022E36322640120E0E77F
:1013700090F8482090F8493052EA032266D14C494F
:101380004C4B8978836319700123EDE790F848305E
:10139000022BCDD890F846100829C9D8414AD25C12
:1013A000022AC5D8A820404B00FB0233D3F8A43052
:1013B000002BBDD05A69186890473F4B1870A36343
:1013C0000123D0E70A2B23D00B2B10D0092B3DD1C2
:1013D00094F8483094F8492043EA022323F00203AA
:1013E000002B33D1354B364AA3630223BCE794F874
:1013F000483094F8492053EA022306D194F8463045
:101400002B4A003B18BF012393700023A363AAE774
:10141000274B94F847201A7094F84830022B87D84D
:1014200094F84610082983D81E48C05C02283FF66D
:101430007FAFA8251C4B05FB0033D3F8A430002B4D
:101440003FF476AF1D691868A847DEE701F09F01F9
:10145000812918D194F84530062B14D194F84920ED
:10146000616894F848304D6843EA0223204694F8B6
:10147000472094F84610A84700283FF459AF436826
:10148000A36303686FE70325074ED6F89C3023B9A2
:10149000013D06F1A806F8D14AE720469847002802
:1014A000F6D063E74C730008280E002034140020A7
:1014B000A810002081140020801400208414002033
:1014C000CD1200087047302383F311880269436905
:1014D0009A4210D1C36883B10123D0F8882090F8D4
:1014E0008C1012898B4013420CBF01200020002376
:1014F00083F3118870470020F9E71846F7E70000EA
:10150000036843B19100196003490B78002A18BFA2
:1015100043F001030B707047F81F0020006810B102
:101520000068C0F38700704738B503680BB9002026
:1015300038BD302383F31188036800211C685B6881
:1015400081F31188002CF2D04FF47A7C074A084DC1
:10155000D069084AC01AE0FB0C5100232846FEF768
:1015600045FE84428CBF00200120E1E700200020DE
:101570009F860100A08601004B1E072B0BD850F858
:10158000213043B19100196003490B78002A18BF3C
:1015900043F001030B707047F81F0020082906D89C
:1015A00050F8210020B10068C0F387007047002088
:1015B00070470000082938B501D9002038BD50F81F
:1015C0002130002BF9D0302383F3118850F82130DB
:1015D00000211C685B6881F31188002CEDD04FF46A
:1015E0007A7C084A084DD069084AC01AE0FB0C51C1
:1015F00000232846FEF7FAFD84428CBF002001201C
:10160000DCE700BF002000209F860100A0860100CB
:10161000034610B51B68984203D09C688A689442C0
:10162000F8D25A680B604A601160596010BD000022
:10163000302383F311880D4B5B6813F4006312D0E1
:10164000EFF309834FF08072203BDA6183F309885E
:10165000074A1168D2688968926891428CBF054A2E
:10166000054A9A61704783F31188704700ED00E0E6
:1016700000200020E3010008E6010008036919606A
:10168000C268013AC260C26913448269036193422D
:1016900024BF436A036100238362036B03B11847CD
:1016A0007047000070B50124468904FA01F53543FE
:1016B000458100EB8100C56801F00F01A8698260D7
:1016C000002203604260C26023B16C8A013B234464
:1016D000B3FBF4F4054B0482997321B11A7D02F037
:1016E000FE021A7570BD40225A74FBE700400140AB
:1016F00010B40346006F0278042A12D1012293F835
:10170000741044898A4022420BD11A695C69A24252
:1017100001D1DC682CB910BCDB690432043BFFF753
:10172000C1BF10BC7047406BFFF7E2BFF0B50124AA
:10173000002605898C402C43048100EB810411F0C4
:101740000F0108BF4027E46865696E60EE6008BF5E
:10175000114E2B60AA6008BFB173248A08BF77744A
:10176000A34228BF23460D4C2B6104EB8104D518FE
:10177000954205D1084A917331B101235374F0BDEC
:1017800012F8016B2670F3E7517CC168098A8B421D
:1017900034BF0A230223F1E700400140204001400A
:1017A00010B4436BD3F888000278042A11D10122C7
:1017B00093F88C1004898A4022420AD15A691C6924
:1017C000944201D1DB6823B910BC52F8043BFFF707
:1017D000ADBF10BC7047000005480178052906D14F
:1017E00090F85030037043681B6803B11847704786
:1017F000041F002000216022074B10B599735A7412
:1018000099735A74436804461B680BB106219847C4
:10181000062384F8343010BD0040014090F8343085
:1018200010B5152B04460CD8012208499A400A42EB
:1018300008D1152B05D1036C03B19847002384F818
:10184000343010BDBDE81040FFF7D4BF410E10008A
:1018500090F8343010B5152B04460CD801220849F5
:101860009A400A4208D1092B05D1036C03B198476D
:10187000002384F8343010BDBDE81040FFF7BABF34
:10188000410C300010B51C4B9B78012B1ED11B4B1B
:1018900093F90030002B19DAFEF764FF184C202270
:1018A00060701849204605F07BFC20B320222146B9
:1018B000144805F067FC144B1B68E3B19B68D3B177
:1018C000062222702046BDE810401847FEF74AFF66
:1018D0000E4C082220700E49204605F061FC50B1E4
:1018E000082221460A4805F04DFC074B1B6813B13E
:1018F0005B68002BE6D110BDA81000209C210020C1
:1019000014140020E4200020042100200C140020E6
:101910000821002038B51C4B1B78D3B19378C3B194
:1019200014785578844201D0854212D185424C7991
:101930000CBF012100211144CC7014BF01210021F2
:101940005018C07828B1022B05D014D9D81E012810
:101950000CD9012038BD505C2CB9FFF79DFBFFF777
:1019600091FF0020F6E7FFF7CDFBF8E7033B18BF38
:1019700001239942F5D0505C14B9FFF78DFBE8E7DD
:10198000FFF7C0FBE5E700BFB021002010B504461B
:1019900000284FD0031FDBB2A02B27D8264B9B7803
:1019A000012B0FD00023254A12F8011FA14217D0A6
:1019B0000133062BF8D12046FFF76EFBBDE810403F
:1019C000FFF760BF1E4A92F90020002AEADA1D4A9A
:1019D00000F0070102EBD00292788B401A42EAD065
:1019E0002046FFF78FFBFFF74DFFE4E700F12003F0
:1019F000DBB2072B08D80123134A00F00704117843
:101A0000A3400B431370D9E700F15B03DBB2022B59
:101A100005D8BDE81040243880B2FFF705BB583424
:101A2000E4B21A2C06D8094B33F81400BDE8104074
:101A3000FFF716BB10BD00BFA81000200D1400203A
:101A40009C2100201414002040210020BC7A0008B2
:101A500010B58378012B10D10C88A4F1E003072B7B
:101A600000D944B909492046FEF752FDE0B2BDE86D
:101A70001040FFF78BBF0649F5E7022B04D1BDE804
:101A800010404B688878184710BD00BFF11A000855
:101A9000191B000808B5034648B3021FD2B2A02A9A
:101AA00005D8FFF72FFBBDE80840FFF7EBBE00F1BC
:101AB0002002D2B2072A07D800F00703012098407D
:101AC000C0B2FEF787FEEEE700F15B02D2B2022A57
:101AD00004D8BDE808400020FFF7A6BA5833DBB2AF
:101AE0001A2B04D8BDE808400020FFF7B9BA08BD9A
:101AF00028B1034B1A7810431870FFF7C3BE704724
:101B00004021002008B528B1FEF764FEBDE808407A
:101B1000FFF7B8BE08BD000028B1034B1A78104388
:101B20001870FFF7AFBE70474621002030B1044A5D
:101B3000137823EA00031370FFF7A4BE704700BFB9
:101B4000462100208318B3F5006F10B40C4605D869
:101B500003490144204610BC05F014BB10BC70477B
:101B6000B0160020002307B501220DF107018DF802
:101B70000730FFF7E7FF9DF8070003B000BD04281A
:101B800038B517D8052915D80E2A13D81E235200A8
:101B900003FB0122B42303FB002404F12900FFF717
:101BA000E1FF054604F12A00FFF7DCFF40EA0520CB
:101BB00080B238BD0020FCE7F8B5144640F23E473D
:101BC00000F2C1355618B44200D1F8BD6FF47073FD
:101BD000EB18BB4206D82846FFF7C4FF04F8010BF8
:101BE0000135F0E70020F9E713B50446012100684C
:101BF0000DF10702FFF7E0FF23689DF807000133AE
:101C0000236002B010BD800070B500F2AD3481F0E9
:101C100001000D4604EB4000FFF7A4FF002D06462F
:101C20000CBF032001202044FFF79CFF40EA062060
:101C300080B270BDCAB2C1F30721052982B006D8AF
:101C40000E2A14D8042812D802B0FFF798BFFD2935
:101C500006D162B904280AD8012102B0FFF7D3BF28
:101C6000FC2904D11AB9042801D81146F5E700204F
:101C700002B070477FB50424104BADF804001D7806
:101C80000F4B1B781D43EDB245FA04F3DB0705D477
:101C9000013CF9D20026304604B070BDBDF80430D6
:101CA000E6B2ADF80C3003993046FFF7C3FFFEF7FC
:101CB00081FE80B20128EBD0EDE700BF4421002077
:101CC0004321002013B502884379ADF80420019820
:101CD00073B169B1FFF7CEFF044601460198FEF7E4
:101CE000A7FC2046019902B0BDE81040FFF7A2BF53
:101CF000FEF7BCFC0446F4E71FB5ADF804000198FC
:101D0000FFF7B8FFBDF80430ADF80C300399FFF7CA
:101D100091FF05B05DF804EBFEF74CBE08B5037902
:101D20002BB30088FFF7E8FFC3B2C0F303300628E7
:101D300012D094BF0E30063000F00F00012812D8E8
:101D4000F02B12D004D8E72B8CBF0020012008BD57
:101D5000F43B58425841FAE7F12B18BFE72B94BFE8
:101D600001200020F3E70020F1E70120EFE718460B
:101D7000EDE738B52520FFF7F5FE05462620FFF7ED
:101D8000F1FE04462720FFF7EDFE262D06D1082C94
:101D900004D1A0F120035842584138BD0020FCE78F
:101DA00008B52820FFF7DEFE08BD002307B5022294
:101DB0000DF10601ADF80630FFF7C4FEBDF80600D0
:101DC00003B000BD006810B440B1054C8264E46902
:101DD000083040F8044C10BC05F0D4B910BC704772
:101DE000002000200168134631B18A6C03F108001D
:101DF0009A64083105F0C6B9704700000B7810B43A
:101E0000082B0BD850F8230040B110BC044B82645F
:101E1000DB69083040F8043C05F0B4B910BC7047E9
:101E2000002000200829134609D850F8211031B1AC
:101E30008A6C03F108009A64083105F0A3B9704771
:101E400000238268037503691B6899689142FBD27D
:101E50005A680360426010605860704708B53023CC
:101E600083F311880A7D0023052A06D8DFE802F0F3
:101E70000C050503130F8A6913604FF0FF33084602
:101E80008B61FFF7DDFF002383F3118808BD8A69AA
:101E90009368013393604A680B6813605A60ECE7FB
:101EA00003682BB10022026018469961FFF7C8BF92
:101EB000704700002DE9F04190F8343004463BB102
:101EC000836823F0011383600023C36380F83430F8
:101ED000A94904F1440304F14C0691F8202003F8C9
:101EE000012BB342F9D163689B68DBB994F84430A5
:101EF00013F060053ED0002160229F4B99735A7405
:101F000099735A7463681B6813B106212046984779
:101F1000A36823F00113A3600023E363062384F87E
:101F2000343025E0204698470028DFD094F84B3025
:101F300094F84A2042EA0322E36B934284BF13469B
:101F4000E26394F94420002A80F24881002B00F0DB
:101F50005381092384F83430302383F3118800211E
:101F60002046E36BA26BFFF7E1FB002383F31188AC
:101F7000BDE8F08194F8452003F07F0343EA022393
:101F800040F20232934200F015811FD8B3F5807FF2
:101F90004BD00BD8012B42D0022B00F0CA80002B73
:101FA000A9D10222A663E2632364BFE7B3F5817F70
:101FB00000F0EA80B3F5407F9DD194F84630012BC4
:101FC00099D1B4F84C3043F0020337E0B3F5006F19
:101FD00051D01CD8B3F5A06F36D0A3F5C063012B48
:101FE00089D894F84920616894F848304E6843EAEB
:101FF0000223204694F8462094F84710B047002862
:102000003FF479AF4368A3630368E3631AE0B3F571
:10201000106F35D040F6024293427FF46CAF574BBD
:10202000A3630223E3630023BEE794F84630012B49
:102030007FF461AFB4F84C3023F00203A4F84C30C5
:10204000A563E563256471E7B4F84430B3F5A06F88
:102050000DD194F84630484A84F84E3013706368C6
:102060001B6813B1012120469847032323700023E6
:10207000A363E36398E704F14F03A3630123C4E779
:102080002378042B45D1302383F31188A36804F10E
:102090000C0603F00113A36004F1180856F8047F3E
:1020A0006FB1786920B16FF001010C30FFF7F8FED5
:1020B000B86920B16FF001010C30FFF7F1FE464521
:1020C0003560EBD100212C4B4FF0400CDA7908261B
:1020D00002F00102DA7180275D7201220D461020A4
:1020E0009A730132D2B2042A9D7483F811C05E74CF
:1020F0005E745D751F7518751875F1D181F31188BF
:1021000084F84F100321636821701B680BB12046CF
:10211000984794F84630002BA9D084F84F30042318
:10212000237063681B68002BA1D0022120469847CA
:102130009DE794F8483003F00F0213F0800F0E4B28
:102140009A7311D042B95A7C50070BD4DB79DB0764
:102150007FF5D1AE0A4B63E7597CCD0602D4DB791B
:102160001341F4E7074B5BE7002AECD0197D8906A1
:10217000F8D45B7AF4E700BF00400140C972000860
:10218000C5720008C772000894F84630002B7FF42F
:10219000B2AE94F8483013F00F023FF468AF13F07A
:1021A000800F184B9A7302D040225A745FE7802246
:1021B0001A755CE794F84630002B7FF49CAE94F8D7
:1021C000483013F00F023FF452AF13F0800F0D4B65
:1021D0009A7301D01022E8E72022E9E763B11523C2
:1021E00084F83430302383F3118800212046E36BD8
:1021F000A26BFFF757FAB8E64821024A937351746D
:102200008DE600BF0040014070B50446C5692E6BE5
:10221000C26A6B6A9A4234BFC36A6B6A002B2FD1C1
:10222000E26A002A39D1EB620223237063681B68DB
:102230000BB120469847302383F31188002104F125
:102240000800FFF72DFE002383F31188F30716D54E
:10225000286A228E666AE36A616AD31A3344121AC4
:10226000934228BF134699424FF6FF7138BF636A05
:10227000E3B9636A1BB9EB6A23F00103EB6270BD3B
:10228000296EE26A013B013AE262A26A002AC5D0E5
:102290001170A26A0132A262C0E7E26AEB699A4257
:1022A0009EBFE36A03F1FF33EB61CFE7626A013B54
:1022B000013A6262226A0AB92966D9E712F8010B6B
:1022C00028662262D4E70000F8B5204C861C04EB97
:1022D00086035D6801466A69D2E90003834218D328
:1022E000012223898A4023EA02032381AB680BB1D0
:1022F00020469847302383F3118804EB86046368F3
:10230000002158690C30FFF7CBFD002383F31188BF
:1023100017E00F4FB97317693B445360C31ADFD0FE
:10232000288A984228BF1846936810613B449360FE
:10233000084A184402EB8102984203D10122044B5F
:102340005A74F8BD13F8011B1170F5E7041F002043
:102350000040014020400140F8B5294C851C04EBA9
:1023600085035E68274AB36990730146107DC007F4
:1023700039D59868917392F817C0927D224F42EA3E
:102380000C2207EB810700EB020C84452CD19868E6
:10239000104498605868104458601868801A186093
:1023A000188A013880B21882738A934200D800BB21
:1023B000012263898A4023EA0203638104EB8503D7
:1023C0005B68DB680BB10E489847302383F31188B4
:1023D00004EB85046368986941680C30FFF760FD81
:1023E000002383F31188F8BD97F800E000F801EBB3
:1023F000CBE7044A137D03F0FE031375F3E700BF38
:10240000041F002000400140204001400368984222
:1024100007D01A6802605060002218469A61FFF7E0
:102420000FBD7047F8B500EB81039C6905460E4669
:10243000002C4ED0302383F3118800232269616978
:1024400084F8A0308A4201D1E36803BB05EB860320
:10245000DB685B691B68D3B1D4F8A43043B18A420E
:1024600001D1E2684ABB51F8042B9F681868B8474D
:10247000E368E2690133E360636920461344A269BB
:102480006361934224BF636A6361FFF7BFFF6269C0
:102490002369934214D1E36893B105EB8603DB68AB
:1024A0001A68022A12D15A6912687AB11B8A013B52
:1024B00013400BD105F1440204E000221146D4E799
:1024C00052F8043B31462846FFF730F9002383F3E6
:1024D0001188F8BD01F1090310B550F8234034B359
:1024E000302383F3118800EB8100C3689B695B682C
:1024F000BBB194F87420236F204603EB8203DB68A2
:102500009B695A6823691A60E2680132E260E269F5
:102510001344A2692361934224BF636A2361FFF7D6
:1025200075FF2046FFF7E4F8002383F3118810BD00
:1025300038B504466FF001052068844200D138BDEB
:10254000036823605C608561FFF77AFCF4E7026A48
:10255000C260426A4261026100228262C262FFF787
:10256000E7BF00004FF4006208B50021044804F002
:1025700001FE40F60803024AC2F8003808BD00BF59
:10258000B016002010B50C46826801692046FEF79F
:102590003DFD094AE1781378207923EA010313709D
:1025A000FEF718F9FFF76EF92046BDE81040082243
:1025B000002104F0DFBD00BF4621002038B54B7973
:1025C00005469A070C4613D4104A43F002034B7198
:1025D000CB7811780B4313700D4A237911780B4394
:1025E0001370FFF74FF920466A682969FEF70EFD60
:1025F0000022084B1A806379DB0705D42146284660
:10260000BDE83840FFF7BEBF38BD00BF46210020FF
:1026100040210020B2210020084B9B78012B09D1DA
:10262000074B93F90030002B04DA1E2200210548E5
:1026300004F0A0BD062200210348F9E7A8100020FD
:102640009C210020161400200E14002010B5002438
:10265000074B1C70FFF7E0FF2046FEF7E5FC204625
:10266000FEF7FEFC034B1C70BDE81040FFF70AB9F3
:10267000402100204621002008B58378022B06D98E
:10268000FFF7E4FF024B034A1A60FEF76DFD08BD39
:10269000FC6F0020EFBEADDE10B5184B1B78032B8E
:1026A00023D1174B1B7803BB164B1B7883F0010318
:1026B000154A03F001011078884215D01170134CAF
:1026C0001349144A9BB101230B702378C3F3001103
:1026D00043F010032370DB09117005D1FFF7B6FF3B
:1026E000237843F08003237010BD0023E0E71278C5
:1026F0000B70237862F30413F5E700BFA1210020DB
:10270000A02100209F2100209E2100209C2100204C
:10271000B02100209A2100202DE9F843052900F27C
:10272000D680DFE811F0A700D4000600A700A700BC
:10273000D600302383F3118800273E466D4D6E4C42
:10274000D5F8883095F88C9003EB890805F13803AB
:10275000C8F80C30E86C18B11422002104F00AFD0E
:10276000286D18B11422002104F004FDD8F80C20C3
:1027700009F00F01A173136803F00303002972D05D
:10278000022B4AD0032B48D0012B22D153690BB91D
:102790009369F3B1E020584B4FF0010C9874108A04
:1027A0000CFA01F1C00818744020587408205874BD
:1027B0005874D8790843D871C0205875528AD20805
:1027C000DA7480221A7510221A751A755A7A114312
:1027D000597228460137FFF7BAFE032F2E7205F112
:1027E000A805ADD1454C636A204663612361E6606C
:1027F000A662E662FFF79CFE20462672FEF778FF8F
:1028000086F311883E4B1B7813B10520FEF74AFD75
:102810000220BDE8F843FEF745BD536973B10023BC
:10282000A374138A0120DB082374402363740823F4
:1028300063746374E37988400343E3719369002B05
:10284000C7D000202C4B5875528A0120D208DA7468
:1028500080221A7510221A751A755A7A00FA01F137
:102860000A435A72B5E7002BB3D1E37943F0010371
:10287000E371AEE70846FEF715FD302383F31188B8
:10288000002501261B4C20462672FFF751FE2046EC
:10289000FFF75DFED4F8A43013B1DA6818689047EA
:1028A0000135032D04F1A804EDD101230025134CBB
:1028B00020462372FFF73CFE636A2046E5606361B1
:1028C0002361A562E562FFF733FE85F31188BDE859
:1028D000F883302383F311880023064A137282F8A9
:1028E000B03082F85831054A137283F311880520FD
:1028F0008FE700BF280E002000400140201000207C
:10290000001F002010B50446006840B1826C002111
:10291000083004F02FFC002223681A605A6010BDB2
:1029200070B50026051F00F1200455F8040F38B1DA
:10293000826C0021083004F01DFC2B681E605E6074
:10294000A542F2D170BD00000022082311460148C3
:1029500004F0B4BB0C080040F7B51F464BBA090C95
:10296000064615468DF80400ADF806308DF80510C2
:10297000FFF7EAFFE8B104210DEB010004F0D0FB02
:10298000044648B945B1022E0BD0032E0ED128467D
:10299000B9B204F0CFFB044604F0D6FB204603B0E6
:1029A000F0BD2846B9B204F0BBFBF4E74FF0FF34AA
:1029B000F2E74FF0FF34F1E7054BD9680875186866
:1029C000026853601A6001220275D860FDF7F8BBF7
:1029D0000020002070B5184C4B1CE56886B028D04C
:1029E000164B049503930023059323699A6891423B
:1029F0001CD85E68029101960093C6F800D04FF093
:102A0000FF369A68C3F804D0521A9A60A661FFF79D
:102A1000D3FF009B3BB19A6802990A449A60019ADD
:102A200013605A60A661A86906B070BD1B68891A58
:102A3000DCE7FFF7C1FFF6E7002000205D1E00087D
:102A4000034BDB68036098610320FFF7B5BF00BF4D
:102A5000002000207047C9434FF05533016302F056
:102A600003015943016042F380014160C2F3C10197
:102A700059438160C2F341115943C160C2F3C1217E
:102A80004B43C3624FF01133C2F3C3125A43026285
:102A90004262704708B5302383F31188012100F0AA
:102AA0000F039940202220F00F00FFF7D4FF0023EE
:102AB00083F3118808BD0000464A13B5464B52F80F
:102AC000041C99420CD1002342F8043C83F314887F
:102AD000424B1A6882F3088862B65B689847FEE743
:102AE0000C20032440F2BE713D4B3E4A9C62D862EA
:102AF000C2F8941000219962D9629C62D862802049
:102B0000C3F81C0CD3F81C0CC3F81C0C00910191E9
:102B10004FF40141C3F8481C4FF6FC71A3F5744310
:102B200019630F2119600223136501234BF68031CD
:102B3000D364936D03F001030193009B0133009371
:102B4000019B13B9009B8B42F3D1019B03B9FEE7B4
:102B5000254B26498024C3F800140021A3F588439F
:102B600099611C62196A012019622021586019605C
:102B70001968196019680143196054679067D16F2B
:102B80000329FCD102229A6001220021DA60144A52
:102B90009162D1629A6C42F400429A649A6CDA6C47
:102BA00042F40062DA64DA6C9A6C42F020029A64B1
:102BB0009A6C9A6C42F040029A649A6C9A6C42F059
:102BC00080029A649A6C9A6C42F480729A649B6C4C
:102BD00002B010BD00700020EFBEADDE00E0FF1FB0
:102BE00000000140000401400050014013000003B8
:102BF0007047FEE7F0B508200026104A51681368B8
:102C00000D469468043BAC4210D8E31C5B1ACD1E01
:102C100023F00303AC4238BF00230B44D168994230
:102C200009D8013802F11002E8D1F0BD53F8047F51
:102C300045F8047BE7E743F8046BF0E7CC72000843
:102C40000C4B10B41868D968026853601A600122EE
:102C5000D860002302758A680B750B691B689C6835
:102C60009442FBD810BC5A680B604A6011605960EE
:102C7000FDF7A6BA00200020044B1A68DB689268B2
:102C80009B689A4201D9FFF7DBBF70470020002004
:102C900070B5EFF3118525B9EFF30583302282F388
:102CA0001188174B174E1849DC6933680A68E41A13
:102CB000A242164A0AD9A3F58333E03B1068336079
:102CC000134B04F58334C318E034136016680C60AA
:102CD00035B9EFF30583C3F308036BB185F31188AE
:102CE0004FF47A7500210B480023E4FB05010A4AE2
:102CF000FDF77CFA304470BDFFF7BEFFEEE700BF82
:102D000000200020C01E0020BC1E0020B81E002095
:102D100088598F029F860100A08601002DE9F047A7
:102D2000884691469A4600250D4E2F01F35D06EB2D
:102D3000051483B901236070F355FFF7A9FF4FF61F
:102D400006736060C4F80880A38184F80E9084F84C
:102D50000FA0BDE8F0870135142DE6D1F9E700BFDB
:102D6000B42100202DE9F04F002401264FF0300857
:102D700089B0DFF89092A44F05940694079459F80F
:102D8000041B4B1C40F0CD800134E4B276000F2CC4
:102D9000B6B2F4D10C229D4805A904F001FA05460B
:102DA00020B10C22994805A904F0ECF90027DFF8BE
:102DB0006082984E98F800403770002C00F01D811A
:102DC000FFF766FF944A13681060C01A59D07F2835
:102DD00028BF7F203A46BB46BA4601909DF8043092
:102DE00096F800C003938D4B88F800708C4EDFF886
:102DF0001CE2DFF830821F700297002102EB01090C
:102E000018F809305F0821D00198874200F3DE806E
:102E100023F0FE0308F8093013F0010340F0DE80D0
:102E200001233788BEF800908B4003EA090927EA9E
:102E3000030349EA03035F40BFB257EA0C0714BF1C
:102E40004FF0010C4FF0000CA346338001310F29E5
:102E5000D4D10F325A2A06F102060EF1020ECCD15D
:102E6000029B13B101226D4B1A70BBF1000F02D00F
:102E7000684B83F800C0BAF1000F02D00122644B06
:102E80001A7045B9654B1B78002B47D01CB9FFF76A
:102E9000FFFE614B18600022604B92461A704FF0A3
:102EA00001091346DFF864E15D4D5E4E00203EF8F7
:102EB000028B35F8027B88EA070702EB000C16F854
:102EC0000C1009FA00F427424FEA510B00F08880F9
:102ED000BBF1000F12D118EA040F14BF01235B46A7
:102EE00043F00A0306F80C3013F0010300F083806E
:102EF0009A4635F8021C4C4025F8024C01300F2848
:102F0000DBD10F325A2AD1D1BAF1000F02D0012100
:102F1000404A117013B101223D4B1A7009B0BDE84F
:102F2000F08F88F31188012221F00F0001F00F01CA
:102F300002FA01F529462D04FFF78DFD8561002376
:102F400083F3118800BF00BF00BF00BF00BF00BFF8
:102F500000BF00BF00BF00BF00BF00BF00BF00BF79
:102F600000BF00BF00BF00BF00BF00BF00BF00BF69
:102F700000BF00BF6FEA060C2B4D05A855F8041BD7
:102F800030F8022BB1F1FF3F1DD021F00F0EDEF81B
:102F900010E001F00F012EFA01F1C90713D43243FA
:102FA0000133DBB2062B20F8022CE7D159F8040CD0
:102FB000431C01D0FFF76EFD7A687B689B1AB3F55E
:102FC000346FFAD3E0E602EA0C02E9E70398A2467E
:102FD0003F1A67F3470308F8093037E7029335E7EC
:102FE000BBF1000F8AD011F0010487D164F34701CF
:102FF00006F80C1082E7012380E7002D3FF442AF72
:1030000045E700BF687A0008001000E0D6200020E5
:10301000C8200020C9200020C4200020C12000209A
:10302000CA20002067200020A47A000838B5FFF7E6
:103030002FFE00F57A75FFF72BFE854214D9FFF7B6
:1030400083FCA0B1052004F049F804F059F80446C7
:1030500004F07AF8002C04DB14F00104EBD12046D4
:1030600038BD231DE7D0FAE76FF00104F7E74FF012
:10307000FF34F4E710B5FFF7D9FF044608B100208C
:1030800010BDFFF761FC28B94FF0FF30B0FA80F0B7
:103090004009F5E7062004F021F804F055F823462E
:1030A00022462146D820FFF757FC0028E7D1FFF73A
:1030B000BDFFEBE710B5FDF755FD0446FFF7DAFF5E
:1030C000FFF750FA012C03D1BDE81040FDF756BDC3
:1030D00010BD2DE9F04180460C46D600FFF7A6FF53
:1030E000054648B132460021204604F043F8B5FABF
:1030F00085F04009BDE8F081334622464146032071
:10310000FFF72AFC05460028ECD121462644D1E9E8
:103110000023D243DB4341F8082BB14241F8043C81
:10312000F5D1E4E72DE9F04F064614464FF00009CB
:10313000C3B00091202C254628BF2025009B4FEAD4
:10314000C50A524603EBC90102A804F01BF800228D
:1031500002ABD3E90001C043C943013243F8080B75
:10316000954243F8041CF4D15746B0460DF1080BC4
:10317000FFF75CFF78BBFFF7E7FB60B35FFA88F30C
:10318000C3F580730620BB4294BF0193019703F0FF
:10319000A5FF03F0D9FF5A4641460220019BFFF7E5
:1031A000DBFBC0B9019BFF1A9B449844E0D1FFF7B9
:1031B0003DFF80B9FFF7C8FB074660B1042003F06C
:1031C0008DFF03F0C1FF641B5644A944B2D13846B9
:1031D00043B0BDE8F08F0027F9E700002DE9F34781
:1031E000FFF748FF002859D0FDF7BCFC2C490546E5
:1031F0004FF480720020FFF795FF294C002843D13F
:103200000146012D01D1FDF7B9FC40F60803C4F8D1
:103210000038084602B0BDE8F08717F8013B4FEAD6
:103220004E195A40A2FB003800FB0E884FEA421AA2
:1032300049EAD26913EB0A0348EB09084FEAC21ABC
:103240009B184FEACE194FEA02264EEB080849EACE
:10325000526913EB0A034FEA0E2E48EB09084EEAB7
:10326000126E9B1948EB0E0EB64413EB0C0201399B
:10327000D3D16946CDE9002E4FF400600122FFF75B
:1032800051FF4000C1B2BCE740F6010127464FF0B4
:10329000000C1220034ADFF810E0E8E70146B8E727
:1032A000B016002025232284E49CF2CB044BD3F8F3
:1032B0000038B3F5805F01D3FFF790BF012070475E
:1032C000B01600202DE9F04F8318B3F5006F0446C7
:1032D0000E46154685B050D8DFF8A4A000EB0A07CB
:1032E0003946304603F05CFF002846D02A46314676
:1032F000384603F047FFFDF735FC4FF000088346E2
:103300004FF000094DB9FFF7D1FFBBF1010F34D1E8
:1033100005B0BDE8F04FFDF731BC052D2F4628BFA5
:103320000527C4F3024343EAC703CDE900893A46BF
:1033300031468DF800300DF10300230A8DF801307D
:103340008DF8024003F01EFFDDE90023DAF80008E3
:10335000CDE9022302A90122FFF7E4FE0028D4D020
:10336000DAF800380833CAF80038FFF79FFF012861
:10337000CBD1ED1B3C443E44C4E705B0BDE8F08F23
:10338000B0160020F8B50D4606461446D31D23F0AE
:10339000070300AFADEB030D69462846FEF7D2FBED
:1033A00022466946304603F0FBFE20B122463146F4
:1033B0002846FFF787FFBD46F8BD0000082208B584
:1033C00017210348FFF7DEFF0022024B1A7008BDE9
:1033D000A8210020C41E002010B5084C012320465F
:1033E000032200F8013B064903F0CCFE4FF67F7341
:1033F000A380BDE81040FFF7E1BF00BFA821002077
:10340000C0710008F0B585B010220021684603F0B5
:10341000B1FE442440F23F4540F2C137102D2E4604
:1034200028BF1026394632466846FFF7ABFF013CFD
:103430003744A5EB0605F1D105B0F0BD37B50C4614
:103440000546FEF78FFBA04207D0012228460DF16A
:1034500007018DF80740FFF735FF03B030BD0428A2
:1034600038B51D4616D8052914D80E2A12D81E23A1
:10347000520003FB0122B42303FB0024290A04F1B8
:103480002900FFF7DBFFE9B204F12A00BDE838406C
:10349000FFF7D4BF38BD042870B516461D4614D8B2
:1034A00099B9800000F2AD3482F0010004EB4000D5
:1034B000190AFFF7C3FF002E0CBF03200120E9B259
:1034C0002044BDE87040FFF7B9BF70BD2DE9F74F4C
:1034D0000024194EDFF864A0D14600255FFA84F875
:1034E0000FE0FAB240463BF8023B01370191FFF78B
:1034F000B6FF0F2F0199F4D10135062D09F11E09F0
:1035000003D0CB460027E9B2EBE733880122002144
:103510004046FFF7C0FF0022738811464046013441
:10352000FFF7B9FF052C06F104060AF1B40AD3D15E
:1035300003B0BDE8F08F00BF9C7700081874000846
:1035400008B5FF212520FFF779FFFF212620FFF78F
:1035500075FFFF212720FFF771FF00212820FFF7CB
:103560006DFFFFF7B3FFFFF74DFF26212520FFF783
:1035700065FF08212620FFF761FFBDE808402021F4
:103580002720FFF75BBF37B50C460546FEF70DFC5D
:10359000A04207D0022228460DF10601ADF80640F0
:1035A000FFF790FE03B030BD094A08B55378C3F366
:1035B000800181420BD060F3820353700420118894
:1035C000FFF7E1FFBDE808400220FDF7B3B808BDF2
:1035D0009C21002037B5042200230C460DEB02018C
:1035E00001930546FEF7AEFA019B9C4206D00422E9
:1035F00028460DEB02010194FFF764FE03B030BDD5
:1036000070B50446214D0322214922482E7803F04B
:10361000B9FD032C18BF204B21464FF0130018BFF3
:103620001C702C70FFF7D6FF2046FCF74FFF1B4B9A
:10363000C0F307221870032EC0F307405A70987029
:1036400021D0032C40F6B83308BF4FF4FA73144A64
:1036500013800122134B1A700023134A1370134A6C
:103660001370FFF715FB0B4A114B51781860137854
:10367000907843EA012343EA0040FDF723FBBDE8CD
:103680007040FFF709B84FF4FA73E0E7A12100207A
:10369000BE100020BB10002099210020B81000208F
:1036A000B61000209F210020A0210020982100209A
:1036B0009421002008B5FFF7FDFC4FF6E3610020E0
:1036C000FFF761FF00210220FFF7B8FE01210D4B3B
:1036D00003201970FFF7B2FE4FF4A0510420FFF74A
:1036E00052FFFFF779FEFFF72BFF00210F20FFF7B6
:1036F00071FF00211320FFF76DFFBDE80840FFF7C1
:103700005DBE00BF4321002008B58378022B05D998
:10371000FFF7D0FFFEF79AFFFDF726FD08BD00007A
:103720002DE9F04FAD4C8FB0D4F80080FFF7B0FA20
:103730008146A0EB0805FFF7ABFA00212060A84CFA
:103740000F4694F800C008F57F436646FF33A3EBAD
:10375000090ECBB29C4512D807B12670DFF88492CF
:10376000A14C99F8003026781A460493032A00F2F7
:103770003281DFE812F019002E0034033F0301F11B
:103780000C0204EB4202537892F80280013143EAC2
:1037900008239E4523BF5B1953701B0A012734BFC2
:1037A00006F1FF369370D4E70022904B8C491A70D3
:1037B0008F4B292218608F4803F0E4FC8E4B1B7856
:1037C00013F0030218BF9A080123227089F8003011
:1037D00001E18A4BDFF820821B78B34228D1884A66
:1037E00098F80030127803F003039B1A18BF0123E6
:1037F0007E4C9A466278A37098F805309A4205D0BC
:103800000022114610466370FDF716FA012E94F857
:1038100000B00FD0FF2E00F08A803EB9BAF1000F41
:1038200004D0324631463046FDF706FA00234DE01B
:103830000123DDE74FEA0B17FFB207F11003DBB2FC
:10384000502B059328BF50236E4A069398F8020028
:1038500098F80330D45C002857D00622FF2398F84C
:1038600001101D1A4A43B2FBF3F26FF054035343A5
:1038700003EB410303EB4303DBB203FB00F1C3F1B2
:10388000FF03434309121B12C1F1FF01C3F1FF0300
:10389000654361436343C5F30725C1F30721C3F3C0
:1038A0000723062A2DD8DFE802F004062023272C60
:1038B000040021461C4622460C460699FBB299425A
:1038C00026D8059B4F2B8CBF0023012347490BF1C2
:1038D00001020A70002B7CD1022389F80030BAF172
:1038E000000F76D1B6BB032370E729461D46E2E7F9
:1038F0000B4629462546DDE7224619462C46154645
:10390000D9E70B4621462C46F0E725462246D4E768
:10391000364B3D495B78C95D194206D02B4621469E
:1039200038460792FDF740F9079A0137C5E7304B53
:103930001B68C3F38123022B44D0032B46D0012BF9
:103940004FF000023BD011461420FDF775F9022319
:1039500089F800304FF00009244BCA461C782B4FE1
:10396000013C2401E4B204F11006F6B2502E3546B3
:1039700028BF50253B78002B5CD0D7F804B0FFF768
:1039800087F9BB68A0EB0B00834246D8FFF780F9AC
:103990003B7B7860002B3BD187F800A0C7F804A0E0
:1039A0007878844246D8854244D9FB7BBA7B797BC0
:1039B00083F0FF0382F0FF0281F0FF0138E0142161
:1039C0001046C2E7002114220846BEE71422114621
:1039D000F6E7002EBED10FB0BDE8F08FE415002051
:1039E000581F0020090E0020EC150020040E0020B6
:1039F000E8150020C51E0020A8210020080E002088
:103A0000070E0020B2770008067A0008B4210020D3
:103A1000013BDBB23B73002BBED03B7BD807BFD54D
:103A20007878844206D8854204D9FB7BBA7B797BBF
:103A3000FDF7BAF809F10109B9F1140F07F1100700
:103A400098D1AE4B1B78002B7FD1AD4B1B783BB18F
:103A5000AC4BAD491B7803EB4303CA18CB5C04E0C5
:103A6000AA4B1B7863B1AA4A13785178927843EA3B
:103A700001232046294643EA0242FDF7B3F864E0F9
:103A8000A04B1B78032B40F011812746FBB2AB42C1
:103A9000C0F0AF804FF0660A4FF0FF0998F803308E
:103AA00000270AFB03F2B2FBF9F2D2B201925622CE
:103AB0005343B3FBF9F3DBB229462046954A009302
:103AC00002970C23FDF772F898F8033029460AFB99
:103AD00003F2B2FBF9F2D2B2029244225343B3FB97
:103AE000F9F3DBB220468C4A009301970623FDF7D9
:103AF0005DF83C2298F8033029465343B3FBF9F3B1
:103B0000DBB22046854A0293019300970423FDF718
:103B10004DF84C2298F8033029465A43B2FBF9F28B
:103B2000D2B2029236225343B3FBF9F3DBB20193D4
:103B3000204604237A4A0097FDF738F8DFF8E4813D
:103B400098F80030FAB293425BD8DFF8DC8198F83D
:103B50000030002B00F0B280990740F1AF800D22B9
:103B600072490AA803F00EFB00270DF1280919F885
:103B7000010B844206D8854204D9802300211A46CD
:103B8000FDF712F80137FFB20D2FF0D140F23F33AD
:103B90000027ADF824300DF1240919F8010B8442F7
:103BA00006D8854204D9FF231A461946FCF7FCFFC4
:103BB0000137FFB2022F7BD1372C7BD8372E40F252
:103BC00094800023FF211A463720FCF7EDFF402E9A
:103BD00074D90023FF211A464020FCF7E5FF4F2E41
:103BE00040F28380FF2300227A214F20FCF7DCFF84
:103BF00064E0002338461A461946FCF7D5FF013722
:103C000044E702F10C0108EB41014B78897843EA63
:103C10000123952B31D84244507C00223D4991F834
:103C200000C084452BD00132D2B20C2A01F101012F
:103C3000F5D10022384991F800C084451FD00132E7
:103C4000D2B2062A01F10101F5D10022334991F8DF
:103C500000C0844513D00132D2B2042A01F101011F
:103C6000F5D100222E4991F800C0844507D00132D9
:103C7000D2B2042A01F10101F5D1013760E7844293
:103C8000FBD88542F9D99622C3EB0323B3FBF2F3A9
:103C9000DB43274ADBB2D2785343FF22B3FBF2F374
:103CA000DBB21A461946FCF77FFFE6E71649D2E673
:103CB000049F72E7402C8AD94F2C90D998F8003095
:103CC000002B57D05A0755D5452C49D8452E31D908
:103CD0000023FF211A464520FCF766FF4A2E41D8F3
:103CE0000023FF211A46412034E0A31FDBB20F2B33
:103CF000E4D800234022FF21152077E798210020F7
:103D00009F210020A1210020927B0008A0210020FB
:103D1000BE100020C0780008BA780008B678000805
:103D2000B2780008C51E002044210020C37100089D
:103D3000A82100202C2C10D82C2E1BD90023A52222
:103D4000FF212C20FCF730FF302E13D9FF22002357
:103D500011463020FCF728FF0CE0302CF6D9BFE7E5
:103D60004A2C07D8FF2300227A214A20FCF71CFFA7
:103D7000412CB5D998F80030002B3FF42CAEDB066F
:103D80007FF529AEA4F10D030F2B05D80023FF21E9
:103D90001A461C20FCF708FF10221E490AA803F04F
:103DA000F1F900260AAF17F8010B844206D88542C4
:103DB00004D90023FF221946FCF7F6FE0136F6B2BD
:103DC000102EF0D1053C0F2C3FF605AEFF2300224C
:103DD0007A2114200FB0BDE8F04FFCF7E5BE0E4B82
:103DE0000E4A1E700E4B1B78C3F301031370FDF7D0
:103DF000B7F878E50B4B1B780BB1FFF7DFFA0A4BEE
:103E00001C68FEF745FF001B0F287FF6E4AD00237A
:103E1000DCE400BFD1710008080E0020070E00206E
:103E2000A8210020C41E0020E81500202DE9F74F2E
:103E3000302307469146009183F31188A824504D02
:103E400004FB0054D4F888301B78042B4FF0000397
:103E500004D083F3118803B0BDE8F08F94F8A0205C
:103E600042F21078002A18BF4FF0000883F311883F
:103E7000302383F311884FF0000A009EDFF804B16D
:103E8000A26A3AB9E26852B32269111DA162E169DE
:103E90000A44E262A06AE26AA9EB0A01121A8A42A3
:103EA00028BF0A46402A44D93146402203F06AF925
:103EB000A16A403640310AF1400AE26AA1628A42B0
:103EC00004D8E16920460439FDF7D8FB002282F3CB
:103ED0001188D1451CD9302282F31188D0E7227A8B
:103EE00082B9B8F1000F0DD0DBF80C2061681460C6
:103EF000516004200A6042F210716260FEF76AFDB0
:103F00000028BFDA4FF0000B8BF31188D1451AD887
:103F1000302383F31188A82303FB0755A96A31B125
:103F20002B690439C91A02D02046FDF7A7FB0023EC
:103F30008FE73146019203F025F9019AA16A1644F0
:103F400011449244B9E7302282F31188A82606FB77
:103F5000075696F8A0202046BAF1000F08BF42F09D
:103F6000010286F8A020FEF7E3FA2046FEF7EFFAFA
:103F700086F808B0FEF780FE8BF3118878E700BF63
:103F8000280E002000200020014608220120FFF713
:103F90004DBF014620220020FFF748BF0146032203
:103FA0000020FFF743BF20290A4603D10146022023
:103FB000FFF73CBF70470000302383F31188034BA9
:103FC000DB6898610F20FEF7F7BC00BF00200020DF
:103FD00008B50146302383F311880820FEF7FAFC68
:103FE000002383F3118808BD38B5392814BF0A258A
:103FF00050250446FDF7CAFC40F2E7300021DFF807
:1040000020C00023E5FB0C014FF47A72FCF7EEF8B8
:10401000FFF7DEFF2046BDE83840FDF73BBD00BF9F
:10402000A08601002DE9F0411F460C461646244BA0
:1040300068B11970FEF72CFE224B04F007041880BB
:104040000120A040C0B2BDE8F041FDF751BD1D7890
:104050008D422DD11B4BB3F80080FEF719FEA0EB6B
:10406000080080B2C72823D806F12004B542E4B284
:1040700010D005F00700012505FA00F0C0B2FDF7E9
:1040800041FD072C06D806F0070305FA03F0C0B27D
:10409000FDF72EFD3846FFF7A7FF072C0DD80120AE
:1040A00006F00706B040C0B2BDE8F041FDF72ABDFA
:1040B000012004F00704A040F5E7BDE8F08100BF4F
:1040C0003E210020F01400202DE9F04F0379064630
:1040D00087B0002B00F0D2860121FDF7F3FD737944
:1040E0000546A3B1A54B1C888CB1A04210D0E0B20C
:1040F00002289CBF1422A24B4FF000018CBF002469
:1041000002FB0034FCF750FF014600285DD12C462D
:1041100073790BB3FEF7BCFD9A4B18609A4B1A7873
:10412000D2B100221A70FCF797FD984B1878FCF773
:10413000CDF99749C0F30722C0F3074308704A70CE
:10414000C0B2D2B28B7040EA0220DBB240EA034038
:10415000FCF7B8FDFEF7A0FA47F643639C4211D086
:104160008C4F3B78002B00F0858699074FEA63025D
:1041700040F166867378032B40F062863378052B16
:1041800040F05E86737963B1804B1B78032B12BFBE
:104190000320814B1878FFF733FAFEF779FD794B4E
:1041A00018607E4B1B785F0700F068867379002BE0
:1041B00000F064867A4B5B785D0740F15F860220F1
:1041C00007B0BDE8F04FFCF7B5BA4379058043F07E
:1041D000040343712046FEF7F1F90022714B0121DF
:1041E00030461A70FDF76EFD044691E731462046D1
:1041F0006D4AFDF78FFB0028D3D0314620466B4A2D
:10420000FDF788FB0028CCD047F641639C4200F0C4
:1042100084803AD847F213039C4243D047F6406368
:104220009C4272D07579002D00F05A81A4F5EE43BE
:104230009BB27F2B00F25481E4B20F2CB1D8012144
:1042400040F23E4003AAFDF7B7FC9DF80C50002D4C
:10425000A7D140F23F47002C66D10395544F554DEE
:10426000DFF8548103A8FDF7BFFC002899D001288E
:1042700040F0D48003A8FDF7B7FC431E0446032B8F
:1042800068D8DFE803F0626E74A147F642639C428F
:10429000C8D17379002B84D0484A137883F0010386
:1042A00013707EE77379002B3FF47BAFFEF7CEF9F6
:1042B0003B490B7883F08002D20962F3C7130B707D
:1042C0009AB10C223E490DEB020002F05BFF002484
:1042D00003ADFF2301341A46C82115F8010BE4B2DF
:1042E000FEF71CFD0C2CF4D15BE70425354B03AC29
:1042F0000393002396211A4614F8010B013DFEF7A3
:104300000DFD15F0FF05F4D14BE77379002B3FF459
:1043100048AF0122294B1A7043E77379002B3FF411
:1043200040AF0022254BF6E7BD423FF43AAF0121F2
:10433000284603AAFDF740FC9DF80C300BB101356F
:10434000F2E7013CE4B2013585E703A8FDF74CFC38
:10435000FFF74AFE4FF47A70FFF73AFE002C81D146
:104360001FE703A8FDF740FCFDF710FBF2E703A8E9
:10437000FDF73AFCFDF78EFBECE700BFB221002011
:10438000C41000203821002098210020A121002005
:10439000BE1000204421002099210020452100204A
:1043A0009C21002046210020B1100020AC100020EC
:1043B000027B0008127B0008F27A0008B02100207E
:1043C000E27100084644383903A8FDF70DFC4FF0B0
:1043D000000904464FF00A0BDFF8D8A21AF80410BF
:1043E00011F0040110D1B9F1000F15D040F2E730FF
:1043F000DFF8C4C24FF47A720023C9FB0C01FBF74B
:10440000F5FEFFF7E5FDA5E703A8FDF7EDFB303C62
:104410000BFB09490446E1E70120F2E7C0F3C702BC
:10442000A649BB5C2C5C18F8029000F0070011F85C
:1044300002A0034149FA00F94AFA00FA13F0010B0D
:1044400009F001090AF0010A0AD09D4A137843F0E5
:1044500002031370FDF716FA4FF47A70FFF7B8FDF8
:10446000B9F1000F0AD0964A137843F04003137055
:10447000FDF708FA4FF47A70FFF7AAFD2046FDF722
:1044800085FA4FF47A70FFF7A3FD2046FDF702FB93
:104490004FF47A70FFF79CFDB9F1000F08D040206F
:1044A000FCF798F9FDF7EEF94FF47A70FFF790FDFD
:1044B000BBF1000F08D00220FCF78CF9FDF7E2F900
:1044C0004FF47A70FFF784FDBAF1000F3FF4CAAEE3
:1044D0002C20FFF789FD4FF47A70FFF779FDC1E6D4
:1044E000A4F5AE43FF2B00F28C80E0B20228824696
:1044F0003FF657AE2946FCF757FD804600283FF4AB
:1045000050AE4379DFF8BC9165F300034371002D91
:1045100060D0FEF7BDFB6C4B694A188098F80230FA
:104520001278013388F80230684B40461B781343F9
:1045300088F80330664B1B7888F80430142303FB9B
:104540000AF309EB030159F803200969FCF75EFD42
:1045500098F8053013F0020F0CBF224600225D4B85
:104560001A807279002A00F0458400215A4BA4F584
:10457000E0451970ABB2222B00F24A840420FDF70B
:1045800014FC564C013D2080212D63D8DFE815F046
:10459000B6002101BE0072007600C2007A00C6009B
:1045A000D200860019018A00D6008E00DA000001D0
:1045B000A800DE000801AE00E400EC007E00CA00A6
:1045C0008200CE00B200E800F700120117016D0072
:1045D000BA002901142303FB0A99D9F80C20D9F851
:1045E0001010FCF713FD98F805309B07B9D541462C
:1045F0004846FDF7C7FF374B1A88A242B1D11D804C
:10460000AFE7A4F5F843183B062BAAD8DFE803F080
:104610000F13040B171B1F00E12226231146284607
:10462000FFF700FDBDE52723E522E521F7E7262377
:10463000E122E021F3E72723E522E421EFE7262327
:10464000E122E221EBE72723E522E621E7E7282321
:104650000122EAE7237843F0010323700420218834
:10466000FEF791FFFDF7F2FF9BE5637843F0080347
:104670006370F3E7237843F00203EEE7237843F017
:104680000403EAE7237843F00803E6E7637843F09E
:104690000103EDE7637843F00203E9E7237843F091
:1046A0001003DAE7237843F02003D6E7237843F0BA
:1046B0004003D2E79F7B0008A0860100F27A000841
:1046C00040210020C41000203C2100204621002071
:1046D00041210020B22100203E2100209C21002009
:1046E000FDF7B4FF237843F08003B6E7237843F067
:1046F0000C03B2E7637843F00303B9E7237823F0B0
:104700000103AAE7637823F00803B1E7237823F0D5
:104710000203A2E7237823F004039EE7237823F023
:1047200008039AE7637823F00103A1E7637823F095
:1047300002039DE7237823F010038EE7237823F00C
:1047400020038AE7237823F0400386E7FDF77EFF06
:10475000237823F0800380E7237823F00C037CE7A1
:10476000637823F0030383E72378C3F3800282F0A6
:104770000102D2B262F3820362F3C3036DE763788E
:10478000DA4302F0010262F3000362F341036FE7D0
:104790002378C3F3801282F0010262F386135CE790
:1047A000FDF754FF2378C3F3C01282F0010262F3D5
:1047B000C71352E701210E20FEF740FE4EE700210D
:1047C000F9E72378C3F3001282F0010262F30413C5
:1047D00043E72378C3F3000282F0010262F300038F
:1047E0003BE76378C3F3C00282F0010262F3C303C4
:1047F0003EE747F677439C4240F085800120FBF777
:10480000D5FEA4E01B78A4F5F041A1F1200003F04F
:1048100022030A2824D8DFE800F0060A500F5514B6
:104820005A195F1E64000120FCF708FAB9E4002B56
:1048300045D0FCF767FAB4E4002B45D0FCF78AFAC0
:10484000AFE4002B45D0FCF79FFAAAE4002B45D03B
:10485000FCF7B6FAA5E4002B45D0FCF7CBFAA0E4B0
:1048600040390E294BD801A050F821F0A948000882
:10487000B5480008274800082F480008BB48000832
:1048800039480008C548000843480008CF480008D8
:104890004D480008D948000857480008E348000878
:1048A000ED480008F5480008FCF7D6F90120FCF7B0
:1048B00073F976E4FCF7E2F9F8E7002BB9D0FCF7DE
:1048C0001DFA6EE4002BB9D0FCF73AFA69E4002B2C
:1048D000B9D0FCF74BFA64E4002BB9D0FCF762FACC
:1048E0005FE4002BB9D0FCF779FA5AE423B1FCF766
:1048F0009DFA56E4002BFAD0FCF788FA51E447F60B
:1049000077439C4215D047F678439C4219D0A4F5D2
:10491000A543603B9BB21F2B1DD86ABB04F01F034D
:1049200001249C400320E1B2FEF788FDA74B1C70D8
:1049300037E40120FBF730FE03220221FBF7B4FE2F
:104940002FE40220002A3FF45AAFFBF725FE032292
:1049500002210120F2E7AAB347F65B439C4225D02F
:1049600047F65C439C4215D047F65A439C421BD005
:1049700047F601439C4222D047F603439C4217D09E
:10498000B4F5F84F1ED1FDF761FE914B914A1A60C4
:10499000FCF7EAFB904B587880F00400C0F38000ED
:1049A000FEF702FEFFF7FDBB0120F9E70020F7E765
:1049B000FEF780FB4FF6FF710020FEF7E4FDFDF7E8
:1049C00045FEE5E73388ADF808300298002A58D054
:1049D000FDF750F9044601460298FBF729FEBDF8A1
:1049E00008302046ADF80C300399FDF723F9FBF7AA
:1049F000E1FFDFF8E8A196F806909AF800800446F7
:104A000018F007087579C9F3031928D0A84635B3FB
:104A1000C4F3072303F0F002402A0ED0C1B201F123
:104A20002002D2B2072A30D903F0E003202B04D1B0
:104A300001292AD9B9F1000F2AD0674B93F80180D8
:104A400018F004080BD00220FBF774FE9AF800302F
:104A500013F0070F0CBF4FF001084FF00008C4F32C
:104A600003330B2B6AD8DFE813F01500150049005B
:104A70004900D200690069006900E9004E01600147
:104A80006001FBF7F3FD0446A9E74FF00008E6E7F5
:104A9000C846E4E7C4F30327C4F307223B010F2A07
:104AA00088BF1F46E4B295B15FB104F12003DBB2C9
:104AB000072B00D94CB94A4A13783B431370FCF7D3
:104AC000E1FE2046FCF762FF38E0464AF4E7204664
:104AD000FCF7E0FF002F31D004F12003DBB2072BFD
:104AE00000D91CB93846FBF775FE04E03D4A13783F
:104AF00023EA07031370FCF7C5FE1FE0C4F303208D
:104B0000C4F3072303F0F0030201E4B2202B18BF23
:104B100010463CB1012C4ED0002D69D0B9F1000FE8
:104B200027D0CEE72C4B5B785C071ED425B128B18B
:104B30002B4A13780343DDE70028D4D1B8F1000FE6
:104B400000F0A5809AF8000010F0010340F09F806B
:104B50007371C008FBF720FD3046FFF7B5FA9AF8ED
:104B60000000C008FBF722FD91E085B1B9F1000F0C
:104B700002D1FCF7BDFFE1E7B9F1010FDED11A4A1E
:104B8000137830EA0301D9D003431370D6E7B9F1A3
:104B9000000FD3D10190FCF7B5FF134A01981378A9
:104BA00018421CBF83431370104A13781842C5D0B3
:104BB00023EA0003E9E71DB1B9F1050FBED8D8E734
:104BC000B9F1040FBAD8FCF79DFFB7E743210020E5
:104BD000FC6F0020EFBEADDE9C21002045210020AF
:104BE00040210020462100204121002042210020B8
:104BF000B9F1000FE7D0392C0CBF4FF4FA504FF445
:104C00007A70FFF7E5F92046FCF744FF96E714F4C5
:104C1000406FC4F3812307D0012B8FD165B1C4F35A
:104C20000900FCF71DFA89E725B1C4F30900FCF778
:104C3000FBF983E72846FAE72846F2E714F4407FB9
:104C400032D105BB0F21C4F342129200D2B291407F
:104C5000C94304F00F03C9B2934014F01002C4F327
:104C6000812418BF0A46022C864917D0032C19D07C
:104C7000012C04D013430A7813400B7003E008782A
:104C800003431A430A70FCF7C5F9FBF779FC0021CE
:104C9000304607B0BDE8F04FFDF714B813430A786B
:104CA0005340EAE71343E8E7C4F30122EDB1D1072B
:104CB000E9D50F21C4F342129200D2B29140C94308
:104CC00004F00F039340C9B214F01002C4F381241E
:104CD00018BF0A46022C10D0032C12D0012C07D08A
:104CE00013433A7813403B70CDE7012AE1D8CAE775
:104CF00039780B431A433A70C5E713433A78534067
:104D0000F1E71343EFE7E7B2C4F3032435B12046DC
:104D1000FBF742FC3846FCF7EBFEB4E73846FCF7FD
:104D2000F1FE2046FBF742FCADE75FFA84F8A8F1FC
:104D3000F003042B40D8DFE803F003240F16200013
:104D40003DB1B9F1040F9ED8C4F30420FBF738FC41
:104D500099E7B9F1050FF6E7C4F30420002DE1D17E
:104D6000FBF71AFC8FE735B10123C4F3042403FADF
:104D700004F43C7087E73D7085E7434B5B785A0746
:104D800004D4C4F30420002DCCD0E9E74DB15B0777
:104D9000C4F30420E4D5C30043F003038AF80030D1
:104DA000DEE70120FBF7C6FCB9F1010F7FF66BAF20
:104DB0000220FBF7BFFC66E74DB1B9F1000F03D04D
:104DC0004046FCF7E3FD5EE7C4F30420C8E7B9F111
:104DD000000F0CD0B8F1390F0CBF4FF4FA504FF45C
:104DE0007A70FFF7F5F84046FCF754FE4BE7C4F342
:104DF000042097E747F616439C427FF4FAAC234B16
:104E00001B78002B0CBF29203520FCF77BF913E021
:104E100047F616439C421E4B7FF4F4AC1B7803F01C
:104E2000AA03002B14BF01220022184B0CBF29201B
:104E300035201A70FCF730F9FCF724FDFFF7B1B903
:104E400047F644639C420AD0D2077FF5CFA9737816
:104E5000022B7FF4CBA933780D2B7FF4C7A973798C
:104E6000002B3FF49EA90B4B1878013000F0030093
:104E7000FFF791B947F644639C42EEE707B0BDE8FF
:104E8000F08F00BF432100209C2100203F21002003
:104E900040210020A12100201C49F8B58B790F2B5F
:104EA0000AD84B7943B11A4B1A4A1B7815784E78B9
:104EB0000F78194CAB4200D1F8BD04EBC300027966
:104EC00002B34278B2421DD114F83320BA4219D14C
:104ED0004279BAB94288B1F802C0A2EB0C0292B290
:104EE000C72A0FD801228B7962F307138B7183795C
:104EF00062F3071383710548FFF7E6F8BDE8F84051
:104F0000FBF708BC013303F00703D3E78A21002035
:104F100048210020472100204A2100202DE9F04FA0
:104F2000054685B08A4C01460622684602F02AF9F9
:104F300094F804A06F7995F80490BAF1000F1AD193
:104F4000B9F1000F15D0002F00F0FE802846FCF7C5
:104F5000E5FE002800F0F88008222946204602F0ED
:104F600011F9B9F1010F02D12088FCF7C5FEFFF756
:104F700093FF012444E0B5F802B063886679ABEB97
:104F8000030395F800809BB2002E00F0AE80C72B83
:104F900000F28880B9F1000FEBD0A37962780F2B73
:104FA000697850D891420FD1227842450CD1002F18
:104FB00044D10122204662F30713A371FFF784F85E
:104FC000A379AB7100241BE0002F37D13A4640464D
:104FD000FBF77EFB4046FBF77BFB04460028F1D144
:104FE0000098FCF789FEC0F30332032AC3B20BD842
:104FF000012A13D910F4706F15D0AA790F2A12D88C
:10500000204605B0BDE8F08F063202F00F02012AFB
:105010000ED92846FFF758F83446F1E710F4706FC0
:1050200001D0002BECD02033DBB2072BE8D9F0E71E
:10503000EF2BE5D90F33DBB2022BF7E7A37943F06F
:105040000103A371BEE791420DD1227842450AD1F6
:105050004FB92846AB71FFF737F80822294620469A
:1050600002F090F885E72846FCF758FE00286BD040
:10507000002F69D0A3791F2B0ED9228802A8ADF882
:1050800008200022ADF80AB08DF80CA08DF80D2094
:105090008DF80E30FFF718F8082229462C4802F048
:1050A00071F864E7A3790F2B08D82046FFF70CF8B6
:1050B00008220021204602F05DF883E7B9F1000FD5
:1050C0003FF457AF61786A789142CCD1227842455B
:1050D000C9D1002FC7D12846AB71FEF7F5FF0822D2
:1050E0003946204602F046F843E7C72BE0D8B9F12D
:1050F000000F3FF43EAF3FB362786B789A421AD10B
:105100002378434517D1A379DA0710D40F2B0ED992
:10511000AB7103F0F003F02B06D0AB79C3F30312AD
:10512000013262F30713AB712846FEF7CDFF082268
:105130002946074894E72846FCF7F0FD0028ABD144
:10514000A37943F00103A3712846FEF7BDFF10E7E2
:105150008A210020F0B589B0CDE900019DF8055005
:1051600000220DB12C490A709DF80460DDE90001B0
:10517000ADF80E2002905EB1012102A88DF80C60FE
:105180008DF80D50FCF79EFD012102A8FCF79AFD59
:105190008DF80C608DF80D50DDE90201CDE90401B8
:1051A00004A8FFF7BBFE1D4E07461D4CB8B9DDE94C
:1051B0000401CDE906019DF814103378227871B10D
:1051C0005D1C05F00705954210D01648082206A977
:1051D00000EBC30001F0D6FF3570FBF79BFA114DD1
:1051E0002078337883420BD109B0F0BDFDF72EFA59
:1051F000082239460C483770277001F0BBFFEEE7F4
:1052000005EBC000FFF78AFE0028EDD023780133BC
:1052100003F007032370E3E7462100204721002025
:10522000482100204A2100208A21002073B5FDF783
:105230002FFD0A4D84B22B88A3420DD00026ADF875
:105240000060FDF725FDADF80460ADF80200DDE972
:105250000001FFF77FFF2C8002B070BDE22000202C
:1052600000232DE9804895B001935C4B9A68022A8F
:1052700001BF1A685A4A526F5A689B6900231E463A
:10528000584A0133102B1660566002F10802F8D11B
:105290000127554B554D03F10C021A61DA60544A4F
:1052A0005E61DA611F705E609E60524B2F7003F189
:1052B0000C021A61DA60504A5E61DA611F7040F2D6
:1052C000BF325E609E604FF0E023EE61AE622E6200
:1052D000EE626E622E636E60AE605A6107229E615E
:1052E0001A6180224549464883F8232D08604548C5
:1052F000454C4860454903F550634FF0300CA662B9
:1053000021638CF3118862B6D868414920F4E060CB
:105310000004000C0143D960D3F8FC103D4841F073
:105320008071C3F8FC1001684FF000093943016037
:105330002021D97783F822C004F11003C4E9043393
:105340004FF0FF33E661A361E3693348984604F107
:105350003403E36000F1C403C0F8F4302F4BC0F80D
:10536000C860C0F8C4302E4BC0F8F070C0F8E4300C
:105370000223C4E90889A0F8FC30E263A265C4E90D
:105380000044C4E91466A660E662E6656464A4F8B5
:105390004870C0F8F840C0E94267C0F80461E830DE
:1053A000FCF74EFD86F311881E4B1F4ADF701F4B22
:1053B000DFF87CA01A60FDF7D5F801F001FE4FF48C
:1053C000807248461A49FDF784FE002840F0B782F3
:1053D000FDF7C8F8FDF7C6F884E000BF000C0140F7
:1053E00000040140F015002010230020041F0020BD
:1053F000003000407016002000900040A4160020ED
:10540000482300200070002000200020CC780008F5
:105410000003FA05001000E000110020610B0008F5
:10542000D1010008A8100020590B00080C0E002024
:10543000B01600201EF8013B7340A3FB0C9B0CFB35
:1054400007BB7E015A0119EB020246EAD3664BEB19
:10545000060B4FEAC719D2184FEAC31647EB0B0BDE
:105460004FEA0328961949EA53694FEA07274BEB9D
:10547000090947EA136716EB080649EB070908EB29
:10548000090786190139D5D101224FF400600CA912
:10549000FDF71FFEDDE90C23BB4208BFB24201D07D
:1054A000FDF760F840F60806012230460AA9FDF72C
:1054B00010FE002800F06782DDE90A3253EA02019B
:1054C00000F0608213F0C00FCDE90C3206F108063F
:1054D000D9B200F03D82CAF80068FDF77FFE0028CF
:1054E0003FF478AF4FF080436FF0200200261A633C
:1054F00020214FF055321A605E609E60DE60DE62F1
:105500001E625E6299616FF40071C3F830144FF44B
:105510000071C3F80024C3F80464C3F80864C3F836
:105520000C64C3F82C64C3F82064C3F82464C3F883
:1055300018146FF48071C3F83014C3F800244FF4CA
:105540008072C3F804643146C3F80864B748C3F8EE
:105550000C64C3F82C64C3F82064C3F82464C3F853
:105560001824102203F580634FF0A80801F002FE12
:10557000302731464FF0010C3246AD4BDFF8B4E234
:105580001E70AD4B1E70AD4B03F15C00D86493F8F8
:10559000840010B103F170001865DFF8A0A2D3F801
:1055A000946008FB01AAD3F89800D3F890900436D1
:1055B0001B605B6083F808C0CAF80C9006FB090A00
:1055C00058611861C3F818A0DE61C3F820905862D2
:1055D0009A62DA62C3F830E05B6387F31188D3F82C
:1055E000880093F88C6000EB8600836183F8A0202C
:1055F00082F311880131032903F1A803C4D1904932
:1056000001F15C030B65CB6FD1F880008E6F043322
:1056100081F808C006FB030CCB618A4B0960496026
:10562000CA6048610861C1F818C00E6248628A62A7
:10563000CA620B63496387F3118891F874000B6F9A
:10564000093043F8201081F8842082F311887E49C4
:105650006FF4C0508B6C43F4004343F020038B6421
:105660004FF0804318636FF480501A609A60DA60DC
:1056700018634FF0807018604FF4805058604FF0FE
:1056800080505A62986187F311882B78012B17D0CC
:105690004FF480406D4BC3F88000C3F8800183F85D
:1056A0000E236B4BDA72DA715A724B6903F00803FE
:1056B0004B614A61CA66CA670B6C23F002030B6434
:1056C0004FF0000901230426624FC5F804902B70A7
:1056D00057F8048FB8F1000F0FD0D8F8140020B19C
:1056E0006FF001010C30FCF7DBFBD8F8180020B19B
:1056F0006FF001010C30FCF7D3FB013EC7F80090BE
:10570000E6D1FDF7B9FA86F3118841F28830FEF749
:105710005FFC302383F311882A784F4B012A6B609A
:10572000EE602E616E61AE6132D102204B4BEB60B8
:10573000454B196C41F480711964196C41F00201F8
:105740001964D3F8881041F00201C3F88810D3F827
:10575000881021F00201C3F8881041495A63DA67C2
:1057600008640821DA66596159695961596941F03B
:105770000101596103F55053DE72DA71D0225E7275
:10578000324B83F80E234FF48042C3F880211A6015
:1057900002232B70002585F311882B4A41F28830B3
:1057A000936C43F4004343F0200393644FF0804331
:1057B0006FF4C0521A634FF07072DA624FF02072C9
:1057C0001A604FF44C325D609D60DD605A620122C8
:1057D00003F5A0335A700722DA72FEF7F9FB302383
:1057E00083F311881F4BE2691A601F4B1D601F4B2A
:1057F0001D6085F31188FCF7D3FAFCF7BAFA08B9F3
:10580000FDF79EFE08220021194801F0B3FC012299
:10581000184B80211A7018482022FDF71CF920220D
:105820004021FDF718F9154A516829E0EE1E0020C5
:10583000FF1E0020A1170008FE1E0020280E0020D9
:105840002010002027170008000C014000E100E0B4
:10585000004001400C1F0020FC780008D8780008A8
:10586000004C0140C01E0020BC1E0020B81E0020BD
:105870009F1F00209E1F002000040040001000E039
:1058800053685B1AB3F5165FFAD300210846FBF79D
:10589000F3FA012102460020FBF7EEFA0F24A54B94
:1058A00042EA4002A44D1A7055F8040B471C01D07F
:1058B000FDF7F0F8013C14F0FF04F5D19F4D55F8C9
:1058C000040B461C01D0FDF7E5F80134E4B2062CC8
:1058D000F5D10C2200219A4801F04CFC0C22002149
:1058E000984801F047FC0020FCF75FFA4FF6E363AD
:1058F000984250D0FDF7DEFE0220FCF733F9924BC0
:1059000018700420FCF751FA904B1880FDF72AFA22
:105910004FF47A70FEF75CFBFDF724FA884B1C7895
:1059200014F001043CD0FDF7C5FB4FF6FF710020D9
:10593000FDF729FE864B874A1A60FBF715FC40F6F7
:105940000101D64648464FF0120C834E834F99E52D
:105950001BBA080423F07F4300F4E02023F0FF0388
:1059600040EA3320CA0800EBD101B1F5006F3FF6E1
:10597000B2AD0DF13301504401F004FCB6F5805F87
:105980007FF492AD0120CAF8006800283FF4A5AD6D
:10599000FDF78CFCA3E5FCF7ECF90028ACD1A9E7F6
:1059A0000320FCF7DFF86FF010026D4B1025187024
:1059B0006C4B6D481A634FF055321A605C609C6006
:1059C000DC60DC621C625C629D61FBF79DFAFF217A
:1059D0002A4600F8194B01F0CDFB64482A46644D75
:1059E000FF2100F8194B01F0C5FB082229461720BA
:1059F000FCF7A8F85F4B1C702B78032B01D8FDF740
:105A0000EBFC00245C4B04221C705C4B13200CA9A3
:105A10001C700C94FCF796F80C9B032B4AD800D012
:105A20001C46574D2B70574B1C70FDF731F9564BE8
:105A3000564A186000231370554A28781370554A47
:105A40001370FAF743FD5449C0F3072208704A70F7
:105A5000C0F30743D2B2C0B240EA02208B70DBB27F
:105A600040EA0340FBF72EF9FCF716FE4B4B4C4A7D
:105A70001A604C4D002001244B4B4C4E19782B786A
:105A8000994200F09F80F25C0133012003F00F0384
:105A9000052AF5D801A757F822F000BF295B0008B6
:105AA000815A0008115B0008215B0008B95A000800
:105AB000C75A00082346B3E703222B703C4B1C70E7
:105AC0003C4BDA70D6E700242B70394B1C703A4BF4
:105AD0001C703A4B1C70FCF79FFD2046FBF7A4FAA4
