:020000040800F2
:1000000000040020B9010008BB010008BB01000882
:10001000BB010008BB010008BB010008BB010008D0
:10002000BB010008BB010008BB010008B168000863
:10003000BB010008BB010008BB010008B56D00084A
:10004000BB010008BB010008BB010008BB010008A0
:10005000BB010008BB010008156C00083D6C0008DE
:10006000656C00088D6C0008B56C0008BB010008C9
:10007000BB010008BB010008616E0008BB0100085D
:10008000DD6C0008BB010008BB010008BB010008D3
:10009000BB010008BB010008BB010008BB01000850
:1000A000BB010008BB010008396E00084D6E000856
:1000B000BB010008BB010008BB010008BB01000830
:1000C000BB010008416D0008BB010008BB0100082E
:1000D000BB010008BB010008BB010008BB01000810
:1000E00072B6264880F30888254880F30988254899
:1000F00025490860022080F31488BFF36F8F02F057
:100100000DFC02F03DFC4FF0553020491B4A914256
:100110003CBF41F8040BFAE71D49194A91423CBF24
:1001200041F8040BFAE71B491B4A1C4B9A423EBF9D
:1001300051F8040B42F8040BF8E700201849194A5B
:1001400091423CBF41F8040BFAE702F0B7FC02F021
:10015000B3FC154C154DAC4203DA54F8041B884728
:10016000F9E705F0ADF8124C124DAC4203DA54F841
:10017000041B8847F9E702F0A0BC0000000400203F
:10018000000C00200000000808ED00E00000002046
:10019000000400206C7E0008000C0020E810002005
:1001A000E810002040230020E0000008E0000008E4
:1001B000E0000008E000000892E700F000F8FEE729
:1001C0002DE9F04FC1F80CD0C3689D46BDE8F08F13
:1001D000002383F311882846A047002003F01AFF6C
:1001E000FEE702F091FC00DFFEE7000053B94AB9D8
:1001F000002908BF00281CBF4FF0FF314FF0FF302F
:1002000000F062B9ADF1080C6DE904CE00F006F81B
:10021000DDF804E0DDE9022304B070472DE9F04782
:100220008C46154604461E46089F002B40F0CB80A6
:100230008A4248D9B2FA82F149B1C1F120030CFADD
:1002400001FC20FA03F38D4043EA0C0C8C404FEA8A
:10025000154EBCFBFEF8A8B20EFB18CC08FB00F94B
:10026000230C43EA0C43994529D9EB1808F1FF32D6
:1002700004D2994502D9A8F102022B44A3EB090349
:10028000B3FBFEFC0EFB1C330CFB00F0A4B244EAF3
:100290000344A04215D92C190CF1FF3304D2A0421B
:1002A00002D9ACF102032C44241A43EA02401FB1E4
:1002B0000023CC403C607B603146BDE8F08742467D
:1002C000DCE76346F0E7002A73D0B2FA82F3DBB3CF
:1002D0001E4602FA06F5C6F1200321FA03F24FEAA0
:1002E000154EB14020FA03F30B43B2FBFEF100FAC6
:1002F00006F40EFB112CA8B201FB00F81A0C42EA1E
:100300000C42904557D9AA1801F1FF3C04D2904500
:1003100002D9A1F1020C2A44A2EB0802B2FBFEF1C1
:100320000EFB112248439BB243EA0243984244D950
:10033000EB1801F1FF3203D2984201D98A1E2B44F7
:100340001B1A42EA0C4201E08B1A01224FEA154EB9
:10035000B3FBFEFCA8B20EFB1C330CFB00F8210C17
:1003600041EA034398452AD9EB180CF1FF3104D236
:10037000984502D9ACF102012B44A3EB0803B3FB6F
:10038000FEFC0EFB1C330CFB00F0A4B244EA034459
:10039000A04216D92C190CF1FF3304D2A04202D985
:1003A000ACF102032C44241A43EA014031461646BC
:1003B0007DE71F268DE78C46AEE70A46C0E761461B
:1003C000DBE76346EFE78B4206D917B900263046D4
:1003D00072E7C7E90001F9E7B3FA83F686B98B4201
:1003E00001D3824207D8841A61EB030301209C46A3
:1003F0001FB9002660E73046FAE7C7E9004CF8E786
:10040000C6F1200CB34022FA0CF41C434FEA144905
:1004100021FA0CF3B3FBF9F820FA0CF5B1402943AB
:100420001FFA84FE00FA06F509FB183008FB0EFAE5
:100430000B0C43EA00439A4502FA06F240D9E3184E
:1004400008F1FF3004D29A4502D9A8F102002344F2
:10045000A3EB0A03B3FBF9F809FB183308FB0EFE04
:1004600089B241EA03418E452CD9611808F1FF3366
:1004700004D28E4502D9A8F10203214443EA004088
:10048000A0FB0298A1EB0E014145CE46434602D3A4
:1004900006D14D4504D2B9EB020E68EB04030138D6
:1004A000002FA6D0B5EB0E0261EB030101FA0CFCA4
:1004B00022FA06F34CEA0303F140C7E9003198E75A
:1004C0004046C5E74346D9E7704700BF054B064A9B
:1004D000DB781278534358434FF60163B0FBF3F0D7
:1004E000C0B27047E8220020E510002010F0020F93
:1004F0000CBF10224FF48012014B9A61704700BF6D
:10050000000800400123034A834011780B43137015
:10051000704700BF302100200123034A8340107838
:1005200020EA0300107070473021002001F007031B
:10053000C90801EB410130B501250A4400219D4065
:10054000013A12F8014F20FA01F343F3000363402C
:100550002B4001315C4003291470F2D130BD0022E0
:1005600010B500F00704C00800EB4000014410463D
:100570008B5CE34003F00103934001321843032AEC
:10058000C0B2F5D110BD00000246C0F30723052B11
:10059000084682B0D1B209D80E290DD8C3EB031397
:1005A0001944064A89B202B0FFF7C0BF0433DBB278
:1005B000012B01D8024AF6E702B07047FF20002065
:1005C000FC200020C0F30723052B82B0C0B209D85D
:1005D0000E280DD8C3EB03131844074980B202B0AC
:1005E000FFF7BDBF0433DBB2012B01D80349F6E7A7
:1005F000002002B0704700BFFF200020FC20002038
:1006000030B50124074D04FA01F12B7804FA00F00B
:100610000843C1B21840944081420CBF2343A34316
:100620002B7030BD30210020F0B50D4B0D4C1B78E8
:1006300026780D4CB34201D10020F0BD04EBC30578
:100640006F788F4206D114F83370874202D16D79EA
:10065000954203D1013303F00703EBE70120ECE7F8
:10066000342100203321002036210020054B064A8A
:100670001B7812789A4200D17047013303F00703C8
:10068000F8E700BF342100203321002010B50949CC
:100690000B7823EA000010F00704087009D1984293
:1006A00007D0054B5B785B0703D5C008FFF734FF25
:1006B0000C7010BD31210020DE22002070B5144BDB
:1006C000144D1878144B1B7818432B78C0B293B193
:1006D0001843124B9B78012B04D1114B93F9003036
:1006E000002B09DB06220F4B00211A449A4206D147
:1006F00009B100232B7070BD1E220B4BF4E74C1C7C
:1007000013F8016BE4B2002E18BF2146EEE700BFDC
:100710002C2100202D21002032210020A0100020BB
:10072000DE220020F6130020FE130020024A137878
:1007300023EA0003137070472C210020E7284FD8CC
:10074000DF2807D8312864D00ED8292857D02A2886
:1007500066D07047A0F1E003072B41D8DFE803F033
:100760001540232831403C41392804D0822802D04A
:1007700035283FD07047324B1A7892071FD15B78EB
:1007800013F0080F18BF292070472D4A1378D90796
:100790004DD4527812F0010F22D013F0100F14BF75
:1007A0000020E3207047264B1B7813F0040FF3E77B
:1007B000234A137859073CD45278D207EDD5E0206C
:1007C00070471F4B5A7891070AD51B7813F0100F0A
:1007D00014BF0020E7207047194B1B781A07F5D487
:1007E0007047174A1378190725D452789107EDD529
:1007F000E4207047124B1B7813F0200FC2E7104B18
:100800001A78920619D45B7813F0080F18BF3920B4
:1008100070470B4B1B7813F0400F18BF2A2070470E
:10082000074B1B7813F0400F18BF31207047392059
:100830007047E2207047E62070473520D0E700BFC0
:10084000DE22002030B5304D2B785A0711D500F04C
:10085000140100F018020C1F6142A2F1080C614162
:10086000DCF1000242EB0C0280F00C04914218BF54
:100870002046190713D500F0140400F01801A4F164
:10088000140CA1F11802DCF1000444EB0C045142F9
:10089000514180F00C02D2B28C4218BF10466D78E4
:1008A000E90713D500F0110400F0180104F1FF3C32
:1008B000A1F10802DCF1000444EB0C045142514167
:1008C00080F00902D2B28C4218BF1046AA0711D597
:1008D00000F0110400F01801A4F111025442A1F13A
:1008E00018055441694280F009026941D2B28C4234
:1008F00018BF1046DB0605D500F0E70310F0080F1F
:1009000018BF184630BD00BFDE22002038B5FFF703
:1009100015FFB0F5A44F04463FD2B0F5A04F80F0CC
:10092000A680DF2816D8CC2800F28680A7280AD80F
:10093000A42874D8012804D0031F9BB2A12B28BF80
:100940000024204638BDA0F1A8039BB21A2B6BD916
:100950000024F6E7B0F5804F16D2B0F5005F80F0C6
:100960009980E728EDD9A0F580739BB2B3F5F85FC5
:10097000EED2C0F30720FFF765FF0546E0B2FFF7B0
:10098000DDFE40EA0524DCE7C0B2FFF7D7FE04F441
:100990007064204340F42044D3E7B0F5A54F21D242
:1009A00045F25F23984251D845F23F2398420ED832
:1009B00045F21F23984242D8012300F00304A340CC
:1009C000C0F3850243EA421343F40D44B9E701231F
:1009D00000F00304A340C0F3820243EA421343F44D
:1009E0000C44AEE745F2BF2398420AD845F29F2354
:1009F000984200F01F0034D84AF2F40343EA00247E
:100A00009FE7A0F5A543403B9BB21F2BA0D8040253
:100A100004F4F85444F4204444F0F00491E7A0F1C5
:100A2000240444F480448CE7204B5834E4B233F877
:100A3000144044F4884484E740F4A04481E74AF237
:100A4000F10300F01F0443EA04247AE7012300F0D5
:100A50000304A340C0F3820243EA421343F40A446E
:100A60006FE7FFF7EFFE040244F4005469E700F07B
:100A70001F00FFF7E7FE03B21A0102F0F00210F0C8
:100A8000100F18BF1346C4F3431443EA042343F47E
:100A9000104456E7C0F30420FFF7D4FE0546E0B249
:100AA000FFF74CFE40EA0524DEE700BF807C00082B
:100AB000002070470020704730BFFDE7044B93F8DB
:100AC00004281AB9012083F80408704702207047EF
:100AD00098160020054B93F8042822B1002201202B
:100AE00083F8042870470220704700BF9816002042
:100AF000024B1A7810431870704700BFAC1E0020DC
:100B000000F0B8B92DE9F3410446D0B2C2F307258D
:100B10000E46C2F30741FFF7D9FC07462846FFF708
:100B2000D5FC05460846FFF7D1FC8046E3B29E425D
:100B300002D802B0BDE8F081204643462A46394635
:100B4000FFF7DEFF0134F1E72DE9F04780468946E3
:100B500014469DF820609DF824709DF828A0D518B3
:100B600014F8010B404506D3484504D253463A4693
:100B70003146FFF7C5FFAC42F2D1BDE8F08700F087
:100B800085B90000044A137883F001031370002232
:100B9000024B1A70FFF7ACBFE8220020010E0020C4
:100BA000064A137813F0030304BF05490B700121B3
:100BB000137861F301031370704700BFE82200202F
:100BC000010E0020054B1A7892071EBF0021044A2F
:100BD00011701A7822F003021A707047E822002080
:100BE000010E0020074A1378980709D0012060F30E
:100BF000870313700022044B08461A70FFF778BF72
:100C0000704700BFE8220020010E002007B5032234
:100C1000019001A9094806F091FBFFF7C1FF084BBD
:100C20001B78C3F38503012B06D00021012003B0FC
:100C30005DF804EBFFF7D6BF03B000BDE210002063
:100C4000E822002001210846FFF7CCBF0121054B17
:100C50001878C0F385000138C0B2884238BF084612
:100C6000FFF7C0BFE822002030B4064C2578AD075E
:100C700006D06070A170E270184630BCFFF738BF34
:100C800030BC7047E8220020034901234878CA7825
:100C900008308978FFF7E8BFE822002004490123E3
:100CA0004878CA780838897880B2FFF7DDBF00BF7E
:100CB000E8220020054801238178C2781031FF29FD
:100CC00028BFFF214078C9B2FFF7CEBFE82200203D
:100CD000054801238178C278103921EAE171407812
:100CE000C9B2FFF7C1BF00BFE822002005480123B9
:100CF000C27881781032FF2A28BFFF224078D2B212
:100D0000FFF7B2BFE822002005480123C2788178AE
:100D1000103A22EAE2724078D2B2FFF7A5BF00BFD4
:100D2000E8220020044A012013791033FF2B28BF4A
:100D3000FF231371FFF7DCBEE8220020044A0120E4
:100D40001379103B23EAE3731371FFF7D1BE00BFA1
:100D5000E8220020054A01205379A3F1FF014B420C
:100D60004B410349CB5C5371FFF7C2BEE822002020
:100D700070790008054A01205379A3F1FF014B4225
:100D80004B410349CB5C5371FFF7B2BEE822002010
:100D90007079000830B5094B9C78DD78621C02F050
:100DA0000302954209D09A701A7800F07F001C4423
:100DB00040EAC110013220711A7030BD871F002037
:100DC000054BC1F18041186901F2074101F00F01A3
:100DD000C84000F0010070470004004070B50723D0
:100DE00001264FF400444FF00045184A06FA03F17B
:100DF0000142946115D0062100BF00BF00BF00BFB3
:100E000000BF00BF0139F7D10321956100BF00BFCA
:100E100000BF00BF00BF00BF0139F7D1013BE5D2E1
:100E200070BD032100BF00BF00BF00BF00BF00BFF7
:100E30000139F7D10621956100BF00BF00BF00BF97
:100E400000BF00BF0139F7D1E8E700BF0004004050
:100E50006FF40042064B1A634FF055321A600022BD
:100E60005A609A60DA60DA621A625A62704700BFAA
:100E70000004004030B5044D00EB40002C186170B8
:100E80002A54A37030BD00BFDA14002070B5134699
:100E900005460E4600242046324629460134FFF717
:100EA000E9FF512CF7D170BD38B5302383F3118899
:100EB00000250E4C2078FFF791FF6078FFF78EFF3A
:100EC0000135A078FFF78AFF512D04F10304F1D119
:100ED0004FF4E06300BF00BF00BF00BF00BF00BF12
:100EE000013BF7D183F3118838BD00BFDA1400202D
:100EF000012870B529D80022154B9D1D03EBC204B3
:100F00006679360705D515F83260864201D120464C
:100F100070BD0132032AF1D1B9B159790C070FD54F
:100F20005A7B11070FD55A7D12070ED4022103EB0D
:100F3000C1014B79887143F0080308464B71E7E71C
:100F4000C1F3C001F3E70121F1E70020E0E700BFB2
:100F5000C014002002B1104770470000034B1B680B
:100F600013B11B6803B1184718467047F0200020E2
:100F70000B4B07B51A8882420FD01880094B1B68AB
:100F80005BB11B694BB103228DF80500000A8DF897
:100F900006008DF8042001A8984703B000BD00BFEB
:100FA000BE140020F02000200B4B07B51A888242A7
:100FB00010D01880094B1B6863B11B6953B1042220
:100FC0008DF80500000A8DF806008DF804200DEB61
:100FD0000200984703B000BDBC140020F0200020A0
:100FE00010B5154B9B78012B15D000224FF0FF3325
:100FF000124911F8014FA0421DD0B3F1FF3F01D1BA
:1010000004B953B20132062AF3D15A1C13D00C4A48
:10101000134498700FE00B4A92F90020002AE4DA9A
:10102000EF2808D8084A02EBD002917800F00700B8
:1010300083400B43937010BDA0100020F5130020D7
:10104000F4130020DE220020FC13002010B5114B09
:101050009A78012A0CD0062300210F4A12F8014F7A
:10106000013B844208BF117013F0FF03F6D110E07A
:101070000A4B93F90030002BEDDAEF2809D8084B22
:1010800003EBD003997800F00700824021EA0202C6
:101090009A7010BDA0100020F5130020DE22002061
:1010A000FC130020014B5878704700BFA0100020AF
:1010B000BFF34F8F0549064BCA6802F4E062134341
:1010C000CB60BFF34F8F00BFFDE700BF00ED00E036
:1010D0000400FA0530B590F8472090F8463085B006
:1010E00043EA02231A0A032A1BD00DD8012A5FD033
:1010F000022A13D15B23314A314842600360002A3F
:1011000008BF104605B030BD90F8483090F849103F
:10111000212A43EA01233CD0222A41D000231A4647
:10112000EAE7DBB2032BF9D8DFE803F04502050854
:101130000623244AE0E72A23234ADDE7234B244DF4
:101140001C781CBB012221461A706846102206F04A
:10115000EDF821461F4804AB03EB610313F8102C94
:1011600005EB41031409045D02F00F029C7000249A
:10117000825CDC704B1C023105EB430320299A7022
:10118000DC70E8D142232B7003236B702B78104A5C
:10119000B2E7022BC2D8104A52F823200923ABE74A
:1011A000022BBBD80D4A0E4952F82320CB5CA3E793
:1011B00012230C4AA0E704230B4A9DE75075000850
:1011C000B414002044750008187500086E1400203F
:1011D0006F14002007750008CC750008C075000862
:1011E000BD750008AB7500084C75000810B5064ABF
:1011F000064C117824784B1C03F00F039C421EBF51
:10120000034C1370605410BDE71E0020E61E002042
:10121000D61E002090F84A2090F84B00084942EA78
:101220000022022A0B7807D1012B01D0062B05D111
:101230004A78044B5A707047024A5370704700BF97
:101240006C140020A010002070B590F844100446E3
:1012500001F07F03212B40F09D8011F0800F90F86A
:10126000453053D0022B35D0032B25D0012B4DD147
:1012700090F84830022B01D9002070BD90F846103C
:101280000829F9D8594AD25C022AF5D8A820584B27
:1012900000FB0233D3F8A430002BEDD0554D5E682F
:1012A00018682A46B04705F10803A363AB6C002217
:1012B000E36322640120E0E790F8482090F8493089
:1012C00052EA032266D14C494C4B897883631970EA
:1012D0000123EDE790F84830022BCDD890F8461066
:1012E0000829C9D8414AD25C022AC5D8A820404B57
:1012F00000FB0233D3F8A430002BBDD05A69186824
:1013000090473F4B1870A3630123D0E70A2B23D0EB
:101310000B2B10D0092B3DD194F8483094F849207C
:1013200043EA022323F00203002B33D1354B364A24
:10133000A3630223BCE794F8483094F8492053EAA9
:10134000022306D194F846302B4A003B18BF0123F4
:1013500093700023A363AAE7274B94F847201A70E1
:1013600094F84830022B87D894F84610082983D87F
:101370001E48C05C02283FF67FAFA8251C4B05FB2A
:101380000033D3F8A430002B3FF476AF1D69186802
:10139000A847DEE701F09F01812918D194F8453074
:1013A000062B14D194F84920616894F848304D68B0
:1013B00043EA0223204694F8472094F84610A847B1
:1013C00000283FF459AF4368A36303686FE7032520
:1013D000074ED6F89C3023B9013D06F1A806F8D196
:1013E0004AE7204698470028F6D063E704750008CE
:1013F000200E00201C140020A010002069140020E2
:10140000681400206C140020151200087047302367
:1014100083F31188026943699A4210D1C36883B18A
:101420000123D0F8882090F88C1012898B40134249
:101430000CBF01200020002383F311887047002097
:10144000F9E71846F7E70000036843B19100196017
:1014500003490B78002A18BF43F001030B70704753
:10146000E01F0020006810B10068C0F387007047DB
:1014700038B503680BB9002038BD302383F31188D9
:10148000036800211C685B6881F31188002CF2D08E
:101490004FF47A7C074A084DD069084AC01AE0FB2D
:1014A0000C5100232846FEF7A1FE84428CBF002089
:1014B0000120E1E7E81F00209F860100A0860100CF
:1014C0004B1E072B0BD850F8213043B19100196007
:1014D00003490B78002A18BF43F001030B707047D3
:1014E000E01F0020082906D850F8210020B100682C
:1014F000C0F387007047002070470000082938B506
:1015000001D9002038BD50F82130002BF9D030230C
:1015100083F3118850F8213000211C685B6881F347
:101520001188002CEDD04FF47A7C084A084DD06920
:10153000084AC01AE0FB0C5100232846FEF756FE6D
:1015400084428CBF00200120DCE700BFE81F0020A0
:101550009F860100A0860100034610B51B689842D3
:1015600003D09C688A689442F8D25A680B604A603B
:101570001160596010BD0000302383F311880D4BBA
:101580005B6813F4006312D0EFF309834FF08072AD
:10159000203BDA6183F30988074A1168D2688968B9
:1015A000926891428CBF054A054A9A61704783F35D
:1015B0001188704700ED00E0E81F0020E3010008FB
:1015C000E601000803691960C268013AC260C26995
:1015D000134482690361934224BF436A0361002379
:1015E0008362036B03B118477047000070B5012494
:1015F000468904FA01F53543458100EB8100C56851
:1016000001F00F01A8698260002203604260C2609D
:1016100023B16C8A013B2344B3FBF4F4054B0482F1
:10162000997321B11A7D02F0FE021A7570BD402235
:101630005A74FBE70040014010B40346006F027883
:10164000042A12D1012293F8741044898A4022425C
:101650000BD11A695C69A24201D1DC682CB910BCBB
:10166000DB690432043BFFF7C1BF10BC7047406B1D
:10167000FFF7E2BFF0B50124002605898C402C431A
:10168000048100EB810411F00F0108BF4027E468DA
:1016900065696E60EE6008BF114E2B60AA6008BFDE
:1016A000B173248A08BF7774A34228BF23460D4C28
:1016B0002B6104EB8104D518954205D1084A91733A
:1016C00031B101235374F0BD12F8016B2670F3E7BA
:1016D000517CC168098A8B4234BF0A230223F1E797
:1016E000004001402040014010B4436BD3F8880013
:1016F0000278042A11D1012293F88C1004898A40BF
:1017000022420AD15A691C69944201D1DB6823B98B
:1017100010BC52F8043BFFF7ADBF10BC704700008F
:1017200005480178052906D190F8503003704368C8
:101730001B6803B118477047EC1E0020002160228F
:10174000074B10B599735A7499735A7443680446D9
:101750001B680BB106219847062384F8343010BD6E
:101760000040014090F8343010B5152B04460CD8D9
:10177000012208499A400A4208D1152B05D1036C71
:1017800003B19847002384F8343010BDBDE8104001
:10179000FFF7D4BF410E100090F8343010B5152B70
:1017A00004460CD8012208499A400A4208D1092B64
:1017B00005D1036C03B19847002384F8343010BD81
:1017C000BDE81040FFF7BABF410C300010B51C4B0C
:1017D0009B78012B1ED11B4B93F90030002B19DA9B
:1017E000FEF76CFF184C202260701849204605F067
:1017F000B3FD20B320222146144805F09FFD144B71
:101800001B68E3B19B68D3B1062222702046BDE875
:1018100010401847FEF752FF0E4C082220700E4968
:10182000204605F099FD50B1082221460A4805F0EE
:1018300085FD074B1B6813B15B68002BE6D110BD1B
:10184000A0100020DE220020FC130020D020002069
:10185000F0200020F4130020F420002010B51478AC
:101860005378844201D0834216D14C79834214BF0D
:101870001146511CCC701549097869B1917859B15C
:10188000181A18BF01201318DB782BB1022905D0D4
:1018900014D9CB1E012B0CD9012010BD105C2CB922
:1018A000FFF79EFBFFF792FF0020F6E7FFF7CEFB66
:1018B000F8E7033918BF01218842F5D0105C14B94C
:1018C000FFF78EFBE8E7FFF7C1FBE5E7C422002046
:1018D00010B5044600284FD0031FDBB2A02B27D839
:1018E000264B9B78012B0FD00023254A12F8011FAD
:1018F000A14217D00133062BF8D12046FFF770FB29
:10190000BDE81040FFF762BF1E4A92F90020002A8E
:10191000EADA1D4A00F0070102EBD00292788B4010
:101920001A42EAD02046FFF791FBFFF74FFFE4E7AA
:1019300000F12003DBB2072B08D80123134A00F083
:1019400007041178A3400B431370D9E700F15B0340
:10195000DBB2022B05D8BDE81040243880B2FFF777
:1019600007BB5834E4B21A2C06D8094B33F81400DC
:10197000BDE81040FFF718BB10BD00BFA01000204D
:10198000F5130020DE220020FC1300202C21002073
:10199000807C000808B5034648B3021FD2B2A02AD3
:1019A00005D8FFF753FBBDE80840FFF70FBF00F174
:1019B0002002D2B2072A07D800F00703012098407E
:1019C000C0B2FEF7B3FEEEE700F15B02D2B2022A2C
:1019D00004D8BDE808400020FFF7CABA5833DBB28C
:1019E0001A2B04D8BDE808400020FFF7DDBA08BD77
:1019F00028B1034B1A7810431870FFF7E7BE704701
:101A00002C21002008B528B1FEF790FEBDE8084063
:101A1000FFF7DCBE08BD00008318B3F5006F10B4FB
:101A20000C4605D803490144204610BC05F086BC8D
:101A300010BC704798160020002307B501220DF155
:101A400007018DF80730FFF7E7FF9DF8070003B0A7
:101A500000BD042838B517D8052915D80E2A13D883
:101A60001E23520003FB0122B42303FB002404F1D4
:101A70002900FFF7E1FF054604F12A00FFF7DCFF2C
:101A800040EA052080B238BD0020FCE7F8B51446D6
:101A900040F23E4700F2C1355618B44200D1F8BDBD
:101AA0006FF47073EB18BB4206D82846FFF7C4FFEB
:101AB00004F8010B0135F0E70020F9E713B50446FF
:101AC000012100680DF10702FFF7E0FF23689DF890
:101AD00007000133236002B010BD800070B500F232
:101AE000AD3481F001000D4604EB4000FFF7A4FF88
:101AF000002D06460CBF032001202044FFF79CFF69
:101B000040EA062080B270BDCAB2C1F307210529A0
:101B100082B006D80E2A14D8042812D802B0FFF7D3
:101B200098BFFD2906D162B904280AD8012102B064
:101B3000FFF7D3BFFC2904D11AB9042801D81146F4
:101B4000F5E7002002B070477FB50424104BADF8D4
:101B500004001D780F4B1B781D43EDB245FA04F3CA
:101B6000DB0705D4013CF9D20026304604B070BD35
:101B7000BDF80430E6B2ADF80C3003993046FFF7FB
:101B8000C3FFFEF7C3FE80B20128EBD0EDE700BF34
:101B9000302100202F21002013B502884379ADF8B1
:101BA0000420019873B169B1FFF7CEFF04460146E6
:101BB0000198FEF7E9FC2046019902B0BDE810400B
:101BC000FFF7A2BFFEF7FEFC0446F4E71FB5ADF831
:101BD00004000198FFF7B8FFBDF80430ADF80C30F1
:101BE0000399FFF791FF05B05DF804EBFEF78EBE99
:101BF00008B503792BB30088FFF7E8FFC3B2C0F341
:101C00000330062812D094BF0E30063000F00F00CB
:101C1000012812D8F02B12D004D8E72B8CBF00205B
:101C2000012008BDF43B58425841FAE7F12B18BF98
:101C3000E72B94BF01200020F3E70020F1E701200B
:101C4000EFE71846EDE738B52520FFF7F5FE054626
:101C50002620FFF7F1FE04462720FFF7EDFE262D94
:101C600006D1082C04D1A0F120035842584138BDB8
:101C70000020FCE708B52820FFF7DEFE08BD0023A2
:101C800007B502220DF10601ADF80630FFF7C4FEDC
:101C9000BDF8060003B000BD006810B440B1054CAB
:101CA0008264E469083040F8044C10BC05F046BB7F
:101CB00010BC7047E81F00200168134631B18A6CE0
:101CC00003F108009A64083105F038BB7047000042
:101CD0000B7810B4082B0BD850F8230040B110BC7F
:101CE000044B8264DB69083040F8043C05F026BBF5
:101CF00010BC7047E81F00200829134609D850F887
:101D0000211031B18A6C03F108009A64083105F0A2
:101D100015BB704700238268037503691B689968C7
:101D20009142FBD25A68036042601060586070476D
:101D300008B5302383F311880A7D0023052A06D8CD
:101D4000DFE802F00C050503130F8A6913604FF0FA
:101D5000FF3308468B61FFF7DDFF002383F3118813
:101D600008BD8A699368013393604A680B68136001
:101D70005A60ECE703682BB10022026018469961B3
:101D8000FFF7C8BF704700002DE9F04190F83430EC
:101D900004463BB1836823F0011383600023C363CF
:101DA00080F83430A94904F1440304F14C0691F859
:101DB000202003F8012BB342F9D163689B68DBB99B
:101DC00094F8443013F060053ED0002160229F4B10
:101DD00099735A7499735A7463681B6813B1062116
:101DE00020469847A36823F00113A3600023E36310
:101DF000062384F8343025E0204698470028DFD0B9
:101E000094F84B3094F84A2042EA0322E36B934261
:101E100084BF1346E26394F94420002A80F248818B
:101E2000002B00F05381092384F83430302383F3EE
:101E3000118800212046E36BA26BFFF71BFC0023F7
:101E400083F31188BDE8F08194F8452003F07F0307
:101E500043EA022340F20232934200F015811FD878
:101E6000B3F5807F4BD00BD8012B42D0022B00F072
:101E7000CA80002BA9D10222A663E2632364BFE7D4
:101E8000B3F5817F00F0EA80B3F5407F9DD194F8EF
:101E90004630012B99D1B4F84C3043F0020337E0BF
:101EA000B3F5006F51D01CD8B3F5A06F36D0A3F5B1
:101EB000C063012B89D894F84920616894F84830B0
:101EC0004E6843EA0223204694F8462094F84710CF
:101ED000B04700283FF479AF4368A3630368E36326
:101EE0001AE0B3F5106F35D040F6024293427FF40A
:101EF0006CAF574BA3630223E3630023BEE794F860
:101F00004630012B7FF461AFB4F84C3023F002036C
:101F1000A4F84C30A563E563256471E7B4F8443058
:101F2000B3F5A06F0DD194F84630484A84F84E308E
:101F3000137063681B6813B101212046984703237F
:101F400023700023A363E36398E704F14F03A363C3
:101F50000123C4E72378042B45D1302383F3118870
:101F6000A36804F10C0603F00113A36004F1180840
:101F700056F8047F6FB1786920B16FF001010C3021
:101F8000FFF7F8FEB86920B16FF001010C30FFF7E0
:101F9000F1FE46453560EBD100212C4B4FF0400C53
:101FA000DA79082602F00102DA7180275D720122D7
:101FB0000D4610209A730132D2B2042A9D7483F820
:101FC00011C05E745E745D751F7518751875F1D15A
:101FD00081F3118884F84F100321636821701B6816
:101FE0000BB12046984794F84630002BA9D084F8CE
:101FF0004F300423237063681B68002BA1D002219B
:10200000204698479DE794F8483003F00F0213F0FC
:10201000800F0E4B9A7311D042B95A7C50070BD4E3
:10202000DB79DB077FF5D1AE0A4B63E7597CCD0640
:1020300002D4DB791341F4E7074B5BE7002AECD0CD
:10204000197D8906F8D45B7AF4E700BF00400140AF
:10205000817400087D7400087F74000894F846308D
:10206000002B7FF4B2AE94F8483013F00F023FF427
:1020700068AF13F0800F184B9A7302D040225A7445
:102080005FE780221A755CE794F84630002B7FF4F6
:102090009CAE94F8483013F00F023FF452AF13F0A7
:1020A000800F0D4B9A7301D01022E8E72022E9E758
:1020B00063B1152384F83430302383F31188002171
:1020C0002046E36BA26BFFF791FAB8E64821024A7B
:1020D000937351748DE600BF0040014070B5044613
:1020E000C5692E6BC26A6B6A9A4234BFC36A6B6A57
:1020F000002B2FD1E26A002A39D1EB620223237030
:1021000063681B680BB120469847302383F311881E
:10211000002104F10800FFF72DFE002383F311884E
:10212000F30716D5286A228E666AE36A616AD31AB3
:102130003344121A934228BF134699424FF6FF7157
:1021400038BF636AE3B9636A1BB9EB6A23F0010322
:10215000EB6270BD296EE26A013B013AE262A26A5B
:10216000002AC5D01170A26A0132A262C0E7E26AF9
:10217000EB699A429EBFE36A03F1FF33EB61CFE75D
:10218000626A013B013A6262226A0AB92966D9E7AA
:1021900012F8010B28662262D4E70000F8B5204C43
:1021A000861C04EB86035D6801466A69D2E9000378
:1021B000834218D3012223898A4023EA0203238120
:1021C000AB680BB120469847302383F3118804EBAA
:1021D00086046368002158690C30FFF7CBFD0023AB
:1021E00083F3118817E00F4FB97317693B445360AD
:1021F000C31ADFD0288A984228BF18469368106116
:102200003B449360084A184402EB8102984203D190
:102210000122044B5A74F8BD13F8011B1170F5E745
:10222000EC1E00200040014020400140F8B5294C40
:10223000851C04EB85035E68274AB36990730146E9
:10224000107DC00739D59868917392F817C0927DB8
:10225000224F42EA0C2207EB810700EB020C844577
:102260002CD19868104498605868104458601868D9
:10227000801A1860188A013880B21882738A9342D3
:1022800000D800BB012263898A4023EA02036381EC
:1022900004EB85035B68DB680BB10E48984730237D
:1022A00083F3118804EB85046368986941680C30F6
:1022B000FFF760FD002383F31188F8BD97F800E075
:1022C00000F801EBCBE7044A137D03F0FE0313751E
:1022D000F3E700BFEC1E0020004001402040014019
:1022E0000368984207D01A680260506000221846BE
:1022F0009A61FFF70FBD7047F8B500EB81039C6949
:1023000005460E46002C4ED0302383F3118800235F
:102310002269616984F8A0308A4201D1E36803BB75
:1023200005EB8603DB685B691B68D3B1D4F8A43086
:1023300043B18A4201D1E2684ABB51F8042B9F683D
:102340001868B847E368E2690133E36063692046CF
:102350001344A2696361934224BF636A6361FFF718
:10236000BFFF62692369934214D1E36893B105EB1F
:102370008603DB681A68022A12D15A6912687AB198
:102380001B8A013B13400BD105F1440204E00022FB
:102390001146D4E752F8043B31462846FFF76AF964
:1023A000002383F31188F8BD01F1090310B550F83B
:1023B000234034B3302383F3118800EB8100C368DA
:1023C0009B695B68BBB194F87420236F204603EBD4
:1023D0008203DB689B695A6823691A60E2680132EC
:1023E000E260E2691344A2692361934224BF636AF5
:1023F0002361FFF775FF2046FFF71EF9002383F3E3
:10240000118810BD38B504466FF00105206884427C
:1024100000D138BD036823605C608561FFF77AFCFA
:10242000F4E7026AC260426A42610261002282628B
:10243000C262FFF7E7BF00004FF4006208B5002159
:10244000044804F073FF40F60803024AC2F800385B
:1024500008BD00BF9816002010B50C4682680169BF
:102460002046FEF777FD094AE1781378207923EAC0
:1024700001031370FEF75AF9FFF7A8F92046BDE8EB
:1024800010400822002104F051BF00BF322100207B
:1024900038B54B7905469A070C4613D4104A43F0D9
:1024A00002034B71CB7811780B4313700D4A2379DB
:1024B00011780B431370FFF789F920466A68296980
:1024C000FEF748FD0022084B1A806379DB0705D42C
:1024D00021462846BDE83840FFF7BEBF38BD00BFE3
:1024E000322100202C2100207E210020084B9B78E7
:1024F000012B09D1074B93F90030002B04DA1E227F
:102500000021054804F012BF062200210348F9E724
:10251000A0100020DE220020FE130020F613002071
:1025200010B50024074B1C70FFF7E0FF2046FEF7B4
:102530001FFD2046FEF738FD034B1C70BDE8104020
:10254000FFF744B92C2100203221002010B5164B92
:102550001B78032B20D1154B1B78EBB9144B1B7840
:1025600083F00103134A03F001011078884212D06E
:102570001170114C114A8BB12378C3F3001143F051
:1025800010032370DB09117005D1FFF7C9FF237811
:1025900043F08003237010BD0023E3E72378127813
:1025A00062F30413F6E700BFE3220020E2220020DA
:1025B000E1220020E0220020DE220020DD22002097
:1025C00008B58378022B06D9FFF7AAFF024B034A0E
:1025D0001A60FEF76DFD08BDFC6F0020EFBEADDE9A
:1025E0002DE9F843052900F2D680DFE811F0A700B5
:1025F000D4000600A700A700D600302383F311887B
:1026000000273E466D4D6E4CD5F8883095F88C907D
:1026100003EB890805F13803C8F80C30E86C18B1F1
:102620001422002104F082FE286D18B1142200212A
:1026300004F07CFED8F80C2009F00F01A173136898
:1026400003F00303002972D0022B4AD0032B48D099
:10265000012B22D153690BB99369F3B1E020584B98
:102660004FF0010C9874108A0CFA01F1C00818742C
:1026700040205874082058745874D8790843D87189
:10268000C0205875528AD208DA7480221A75102236
:102690001A751A755A7A1143597228460137FFF78D
:1026A000C0FE032F2E7205F1A805ADD1454C636A1B
:1026B000204663612361E660A662E662FFF7A2FE40
:1026C00020462672FEF7B8FF86F311883E4B1B7832
:1026D00013B10520FEF78AFD0220BDE8F843FEF79E
:1026E00085BD536973B10023A374138A0120DB08ED
:1026F000237440236374082363746374E37988400C
:102700000343E3719369002BC7D000202C4B58750D
:10271000528A0120D208DA7480221A7510221A75A2
:102720001A755A7A00FA01F10A435A72B5E7002B7A
:10273000B3D1E37943F00103E371AEE70846FEF756
:1027400055FD302383F31188002501261B4C2046BC
:102750002672FFF757FE2046FFF763FED4F8A43039
:1027600013B1DA68186890470135032D04F1A80405
:10277000EDD101230025134C20462372FFF742FEC2
:10278000636A2046E56063612361A562E562FFF745
:1027900039FE85F31188BDE8F883302383F311886F
:1027A0000023064A137282F8B03082F85831054A85
:1027B000137283F3118805208FE700BF200E0020DD
:1027C0000040014018100020E81E002010B504460B
:1027D000006840B1826C0021083004F0A7FD00229F
:1027E00023681A605A6010BD70B50026051F00F1FD
:1027F000200455F8040F38B1826C0021083004F031
:1028000095FD2B681E605E60A542F2D170BD000090
:10281000002208231146014804F02CBD0C0800409A
:10282000F7B51F464BBA090C064615468DF804004D
:10283000ADF806308DF80510FFF7EAFFE8B1042186
:102840000DEB010004F048FD044648B945B1022EE5
:102850000BD0032E0ED12846B9B204F047FD044632
:1028600004F04EFD204603B0F0BD2846B9B204F096
:1028700033FDF4E74FF0FF34F2E74FF0FF34F1E7B8
:10288000054BD96808751868026853601A60012200
:102890000275D860FDF794BCE81F002070B5184C95
:1028A0004B1CE56886B028D0164B04950393002393
:1028B000059323699A6891421CD85E68029101963B
:1028C0000093C6F800D04FF0FF369A68C3F804D0E2
:1028D000521A9A60A661FFF7D3FF009B3BB19A683A
:1028E00002990A449A60019A13605A60A661A86925
:1028F00006B070BD1B68891ADCE7FFF7C1FFF6E779
:10290000E81F0020311D0008034BDB68036098615D
:102910000320FFF7B5BF00BFE81F00207047C94381
:102920004FF05533016302F003015943016042F354
:1029300080014160C2F3C10159438160C2F341117A
:102940005943C160C2F3C1214B43C3624FF01133FD
:10295000C2F3C3125A4302624262704708B5302381
:1029600083F31188012100F00F039940202220F009
:102970000F00FFF7D4FF002383F3118808BD000088
:10298000464A13B5464B52F8041C99420CD1002319
:1029900042F8043C83F31488424B1A6882F3088897
:1029A00062B65B689847FEE70C20032440F2BE71D4
:1029B0003D4B3E4A9C62D862C2F894100021996255
:1029C000D9629C62D8628020C3F81C0CD3F81C0C1E
:1029D000C3F81C0C009101914FF40141C3F8481C4D
:1029E0004FF6FC71A3F5744319630F21196002239C
:1029F000136501234BF68031D364936D03F001031B
:102A00000193009B01330093019B13B9009B8B4200
:102A1000F3D1019B03B9FEE7254B26498024C3F877
:102A200000140021A3F5884399611C62196A0120F2
:102A300019622021586019601968196019680143EA
:102A4000196054679067D16F0329FCD102229A6004
:102A500001220021DA60144A9162D1629A6C42F438
:102A600000429A649A6CDA6C42F40062DA64DA6CBE
:102A70009A6C42F020029A649A6C9A6C42F040027E
:102A80009A649A6C9A6C42F080029A649A6C9A6C7E
:102A900042F480729A649B6C02B010BD00700020FA
:102AA000EFBEADDE00E0FF1F00000140000401406A
:102AB00000500140130000037047FEE7F0B5082006
:102AC0000026104A516813680D469468043BAC42D6
:102AD00010D8E31C5B1ACD1E23F00303AC4238BFB1
:102AE00000230B44D168994209D8013802F1100241
:102AF000E8D1F0BD53F8047F45F8047BE7E743F8DD
:102B0000046BF0E7847400080C4B10B41868D968A3
:102B1000026853601A600122D860002302758A6837
:102B20000B750B691B689C689442FBD810BC5A68F3
:102B30000B604A6011605960FDF742BBE81F00203E
:102B4000044B1A68DB6892689B689A4201D9FFF7C8
:102B5000DBBF7047E81F002070B5EFF3118525B982
:102B6000EFF30583302282F31188174B174E184973
:102B7000DC6933680A68E41AA242164A0AD9A3F546
:102B80008333E03B10683360134B04F58334C31880
:102B9000E034136016680C6035B9EFF30583C3F3B6
:102BA00008036BB185F311884FF47A7500210B4847
:102BB0000023E4FB05010A4AFDF718FB304470BD11
:102BC000FFF7BEFFEEE700BFE81F0020A81E0020B1
:102BD000A41E0020A01E002088598F029F8601009D
:102BE000A086010038B51A4B1A4D1B780446834263
:102BF0002A7801D10AB938BD1AB1174A1278A2420F
:102C0000F9D0164A1370144B1C70FFF7A5FF144B34
:102C1000186001232B70C4B9124B1B78124A137031
:102C20000022124B1A70002CE5D0FDF7B9FF104AB4
:102C300013785178907843EA012343EA0040FDF786
:102C4000E5FFBDE83840FFF781BC0023E6E700BFA1
:102C5000E5100020DC220020E1100020E010002020
:102C6000D8220020D7220020D6220020D522002002
:102C7000E2100020FF22F8B52A4B04461A70002308
:102C8000294A2A4F13702A4A2A4D13702A490322CF
:102C90002A482B703E7804F051FB0122032C18BF08
:102CA000274B3C7018BF1C70264B1A70FFF754FF5F
:102CB000254B032C18602DD0244904EB44025318F3
:102CC000885C59789B78224A032E1070517093705B
:102CD00024D0032C40F6B83308BF4FF4FA731D4AD2
:102CE000138001221C4B1A7000231C4A2B70137096
:102CF000FFF732FF114A1A4B517818601378907819
:102D000043EA012343EA0040FDF780FFBDE8F840B5
:102D1000FFF71CBC002319461846D4E74FF4FA739A
:102D2000DDE700BFE5100020DC220020E3220020C8
:102D3000D6220020D5220020E2100020DD10002045
:102D4000D4220020CC220020C8220020567D00087A
:102D5000DA100020D8100020E1220020E22200201A
:102D6000D02200202DE9F74F1E468146884617469F
:102D70000023DFF898A01A011AF802100AEB0314D6
:102D8000A9B9012384F801900AF80230FFF7E4FEA4
:102D90004FF606731E4AA381137860600133C4F8AE
:102DA0000880A773E673137003B0BDE8F08F01339A
:102DB000142BE0D100252C462B46DFF850B0DBF871
:102DC000042001930092FFF7C7FE009A019B801A2E
:102DD000834298BFECB205F1010598BF0346142D5C
:102DE0000BF1100BEBD1012223010AEB04140AF8BA
:102DF000032084F80190FFF7AFFE4FF60673606082
:102E0000C4F80880A381A773E673CDE7842100206E
:102E1000802100202DE9F04F002401264FF03008DA
:102E200089B0DFF89092A44F05940694079459F85E
:102E3000041B4B1C40F0CD800134E4B276000F2C13
:102E4000B6B2F4D10C229D4805A904F085FA0546D6
:102E500020B10C22994805A904F070FA0027DFF888
:102E60006082984E98F800403770002C00F01D8169
:102E7000FFF772FE944A13681060C01A59D07F2879
:102E800028BF7F203A46BB46BA4601909DF80430E1
:102E900096F800C003938D4B88F800708C4EDFF8D5
:102EA0001CE2DFF830821F700297002102EB01095B
:102EB00018F809305F0821D00198874200F3DE80BE
:102EC00023F0FE0308F8093013F0010340F0DE8020
:102ED00001233788BEF800908B4003EA090927EAEE
:102EE000030349EA03035F40BFB257EA0C0714BF6C
:102EF0004FF0010C4FF0000CA346338001310F2935
:102F0000D4D10F325A2A06F102060EF1020ECCD1AC
:102F1000029B13B101226D4B1A70BBF1000F02D05E
:102F2000684B83F800C0BAF1000F02D00122644B55
:102F30001A7045B9654B1B78002B47D01CB9FFF7B9
:102F40000BFE614B18600022604B92461A704FF0E6
:102F500001091346DFF864E15D4D5E4E00203EF846
:102F6000028B35F8027B88EA070702EB000C16F8A3
:102F70000C1009FA00F427424FEA510B00F0888048
:102F8000BBF1000F12D118EA040F14BF01235B46F6
:102F900043F00A0306F80C3013F0010300F08380BD
:102FA0009A4635F8021C4C4025F8024C01300F2897
:102FB000DBD10F325A2AD1D1BAF1000F02D0012150
:102FC000404A117013B101223D4B1A7009B0BDE89F
:102FD000F08F88F31188012221F00F0001F00F011A
:102FE00002FA01F529462D04FFF799FC85610023BB
:102FF00083F3118800BF00BF00BF00BF00BF00BF48
:1030000000BF00BF00BF00BF00BF00BF00BF00BFC8
:1030100000BF00BF00BF00BF00BF00BF00BF00BFB8
:1030200000BF00BF6FEA060C2B4D05A855F8041B26
:1030300030F8022BB1F1FF3F1DD021F00F0EDEF86A
:1030400010E001F00F012EFA01F1C90713D4324349
:103050000133DBB2062B20F8022CE7D159F8040C1F
:10306000431C01D0FFF77AFC7A687B689B1AB3F5A2
:10307000346FFAD3E0E602EA0C02E9E70398A246CD
:103080003F1A67F3470308F8093037E7029335E73B
:10309000BBF1000F8AD011F0010487D164F347011E
:1030A00006F80C1082E7012380E7002D3FF442AFC1
:1030B00045E700BF2C7C0008001000E0C220002083
:1030C000B4200020B5200020B0200020AD2000203A
:1030D000B620002053200020687C000838B5FFF798
:1030E0003BFD00F57A75FFF737FD854214D9FFF7F0
:1030F0008FFBA0B1052004F0CDF804F0DDF8044604
:1031000004F0FEF8002C04DB14F00104EBD120469F
:1031100038BD231DE7D0FAE76FF00104F7E74FF061
:10312000FF34F4E710B5FFF7D9FF044608B10020DB
:1031300010BDFFF76DFB28B94FF0FF30B0FA80F0FB
:103140004009F5E7062004F0A5F804F0D9F8234675
:1031500022462146D820FFF763FB0028E7D1FFF77E
:10316000BDFFEBE710B5FDF7A9FC0446FFF7DAFF5A
:10317000FFF762F9012C03D1BDE81040FDF7AABCAE
:1031800010BD2DE9F04180460C46D600FFF7A6FFA2
:10319000054648B132460021204604F0C7F8B5FA8A
:1031A00085F04009BDE8F0813346224641460320C0
:1031B000FFF736FB05460028ECD121462644D1E92D
:1031C0000023D243DB4341F8082BB14241F8043CD1
:1031D000F5D1E4E72DE9F04F064614464FF000091B
:1031E000C3B00091202C254628BF2025009B4FEA24
:1031F000C50A524603EBC90102A804F09FF8002259
:1032000002ABD3E90001C043C943013243F8080BC4
:10321000954243F8041CF4D15746B0460DF1080B13
:10322000FFF75CFF78BBFFF7F3FA60B35FFA88F350
:10323000C3F580730620BB4294BF0193019704F04D
:1032400029F804F05DF85A4641460220019BFFF739
:10325000E7FAC0B9019BFF1A9B449844E0D1FFF7FD
:103260003DFF80B9FFF7D4FA074660B1042004F0AF
:1032700011F804F045F8641B5644A944B2D138460D
:1032800043B0BDE8F08F0027F9E700002DE9F347D0
:10329000FFF748FF002859D0FDF710FC2C490546E0
:1032A0004FF480720020FFF795FF294C002843D18E
:1032B0000146012D01D1FDF70DFC40F60803C4F8CD
:1032C0000038084602B0BDE8F08717F8013B4FEA26
:1032D0004E195A40A2FB003800FB0E884FEA421AF2
:1032E00049EAD26913EB0A0348EB09084FEAC21A0C
:1032F0009B184FEACE194FEA02264EEB080849EA1E
:10330000526913EB0A034FEA0E2E48EB09084EEA06
:10331000126E9B1948EB0E0EB64413EB0C020139EA
:10332000D3D16946CDE9002E4FF400600122FFF7AA
:1033300051FF4000C1B2BCE740F6010127464FF003
:10334000000C1220034ADFF810E0E8E70146B8E776
:103350009816002025232284E49CF2CB044BD3F85A
:103360000038B3F5805F01D3FFF790BF01207047AD
:10337000981600202DE9F04F8318B3F5006F04462E
:103380000E46154685B050D8DFF8A4A000EB0A071A
:103390003946304603F0E0FF002846D02A46314641
:1033A000384603F0CBFFFDF789FB4FF0000883465A
:1033B0004FF000094DB9FFF7D1FFBBF1010F34D138
:1033C00005B0BDE8F04FFDF785BB052D2F4628BFA2
:1033D0000527C4F3024343EAC703CDE900893A460F
:1033E00031468DF800300DF10300230A8DF80130CD
:1033F0008DF8024003F0A2FFDDE90023DAF80008AF
:10340000CDE9022302A90122FFF7E4FE0028D4D06F
:10341000DAF800380833CAF80038FFF79FFF0128B0
:10342000CBD1ED1B3C443E44C4E705B0BDE8F08F72
:1034300098160020F8B50D4606461446D31D23F015
:10344000070300AFADEB030D69462846FEF7E4FA2B
:1034500022466946304603F07FFF20B122463146BE
:103460002846FFF787FFBD46F8BD0000082208B5D3
:1034700017210348FFF7DEFF0022024B1A7008BD38
:10348000E8220020AC1E002010B5084C0523204681
:10349000032200F8013B064903F050FF4FF67F730B
:1034A000A380BDE81040FFF7E1BF00BFE822002085
:1034B00078730008F0B585B010220021684603F04B
:1034C00035FF442440F23F4540F2C137102D2E46CF
:1034D00028BF1026394632466846FFF7ABFF013C4D
:1034E0003744A5EB0605F1D105B0F0BD37B50C4664
:1034F0000546FEF7A1FAA04207D0012228460DF1A9
:1035000007018DF80740FFF735FF03B030BD0428F1
:1035100038B51D4616D8052914D80E2A12D81E23F0
:10352000520003FB0122B42303FB0024290A04F107
:103530002900FFF7DBFFE9B204F12A00BDE83840BB
:10354000FFF7D4BF38BD042870B516461D4614D801
:1035500099B9800000F2AD3482F0010004EB400024
:10356000190AFFF7C3FF002E0CBF03200120E9B2A8
:103570002044BDE87040FFF7B9BF70BD2DE9F74F9B
:103580000024194EDFF864A0D14600255FFA84F8C4
:103590000FE0FAB240463BF8023B01370191FFF7DA
:1035A000B6FF0F2F0199F4D10135062D09F11E093F
:1035B00003D0CB460027E9B2EBE733880122002194
:1035C0004046FFF7C0FF0022738811464046013491
:1035D000FFF7B9FF052C06F104060AF1B40AD3D1AE
:1035E00003B0BDE8F08F00BF5C790008D875000813
:1035F00008B5FF212520FFF779FFFF212620FFF7DF
:1036000075FFFF212720FFF771FF00212820FFF71A
:103610006DFFFFF7B3FFFFF74DFF26212520FFF7D2
:1036200065FF08212620FFF761FFBDE80840202143
:103630002720FFF75BBF37B50C460546FEF71FFB9B
:10364000A04207D0022228460DF10601ADF806403F
:10365000FFF790FE03B030BD094A08B55378C3F3B5
:10366000800181420BD060F38203537004201188E3
:10367000FFF7E1FFBDE808400220FDF707B808BDED
:10368000DE22002037B5042200230C460DEB020198
:1036900001930546FEF7C0F9019B9C4206D0042227
:1036A00028460DEB02010194FFF764FE03B030BD24
:1036B00008B5FFF757FD4FF6E3610020FFF7BBFFAA
:1036C00000210220FFF712FF01210D4B032019708A
:1036D000FFF70CFF4FF4A0510420FFF7ACFFFFF7FA
:1036E000D3FEFFF785FF00210F20FFF7CBFF00215E
:1036F0001320FFF7C7FFBDE80840FFF7B7BE00BFC4
:103700002F21002008B58378022B05D9FFF7D0FFC1
:10371000FEF706FFFDF7CCFC08BD00002DE9F04FD9
:10372000874C8FB0D4F80080FFF716FA8146A0EBE3
:103730000805FFF711FA00212060824C0F4694F82B
:1037400000C008F57F436646FF33A3EB090ECBB2FA
:103750009C4510D807B126707B4D7C4E95F80080B3
:103760003478B8F1030F00F28E81DFE818F0190009
:103770002D005703620301F10C0204EB420253785F
:1037800092F80280013143EA08239E4523BF5B196A
:1037900053701B0A012734BF06F1FF369370D6E73A
:1037A00000226B4B67491A706A4B292218606A48DD
:1037B00003F0C4FD694B1B7813F0030218BF9A088D
:1037C000012332702B705EE1654BDFF890A11B780E
:1037D000A34227D1634A9AF80030127803F003031A
:1037E0009B1A18BF01235A4E99467278B3709AF803
:1037F00005309A4205D00022114610467370FDF73D
:10380000BEF9012C37780FD0FF2C00F0B1803CB905
:10381000B9F1000F04D0224621462046FDF7AFF94A
:10382000002656E00123DEE707EB0710C0B200F1E7
:103830001106F6B29AF803304B499AF80220512E3D
:10384000B346C95C28BF4FF0510B002A61D04FF03E
:10385000060EFF239AF801C06FF0540A0EFB0CFE0F
:10386000BEFBF3FE0AFB0EFA0AEB4C0A0AEB4A0A0D
:103870005FFA8AFA0AFB02FCCAF1FF0A9B1A02FBF2
:103880000AF24FEA2C2C1212CCF1FF0CC2F1FF020B
:103890004B4301FB0CFC4A43C3F30723CCF3072C37
:1038A000C2F30722BEF1060F2FD8DFE80EF00406A0
:1038B0002225292E04008C4611460A466146DFF86F
:1038C000ACA05FFA80FCE34526D8502E8CBF0026C2
:1038D00001261F4B01371F70002E40F0D2800223BB
:1038E0002B70B9F1000F40F0CC80002C52D1032393
:1038F00068E79C461346E0E762469C460B46DBE7DA
:103900008C46194663469446D7E762468C4619466C
:10391000F0E70B460A46D2E7DFF834C01AF800E0B9
:103920009CF801C01EEA0C0F07D007930692059180
:103930000490FDF7E5F804A80FC80130C1E700BF07
:10394000D0150020401F0020010E0020D8150020B7
:10395000FC0D0020D4150020AD1E0020E822002020
:10396000000E0020FF0D002072790008C87B0008BF
:103970007A4B1B68C3F38123022B7BD0032B7DD0B2
:10398000012B4FF0000272D011461420FDF7F7F81A
:1039900002232B70724BDFF8CCA11C789AF8003010
:1039A000013C04EB0414E4B204F11106F6B2512E0A
:1039B000354628BF5125002B68D16B4B1B78002B57
:1039C00000F0AC80DFF8A4A19AF80030002B00F0E2
:1039D000A281990740F19F810D2265490AA803F051
:1039E000ADFC00270DF1280919F8010B844206D817
:1039F000854204D9802300211A46FDF781F801375A
:103A0000FFB20D2FF0D140F23F330227ADF8243042
:103A10000DF1240919F8010B844206D8854204D916
:103A2000FF231A461946FDF76BF8012F40F06B8112
:103A3000372C00F26A81372E40F287810023FF2164
:103A40001A463720FDF75CF8402E40F264810023CF
:103A5000FF211A464020FDF753F8512E40F05B81BC
:103A6000FF2300227A215020FDF74AF853E1142168
:103A700010468BE700211422084687E714221146DE
:103A8000F6E7002C86D10FB0BDE8F08F4FF00009AB
:103A9000CB46384F3B78A3B17B680493FFF75CF8C3
:103AA000049BC01ABB68834218D8FFF755F83B7BCC
:103AB000786073B99AF8003087F800B0C7F804B09E
:103AC000D3B909F10109B9F1140F07F11007E1D1D8
:103AD00073E7013BDBB23B73002BEBD03B7B787889
:103AE000DB070DD58442ECD88542EAD9FB7BBA7B53
:103AF000797BFDF705F8E4E7013B8AF80030E0E761
:103B00008442DED88542DCD9FB7BBA7B797B83F0AB
:103B1000FF0382F0FF0281F0FF01EAE7164B1B78FA
:103B2000002B7FF44FAF154B1B783BB1144B15495D
:103B30001B7803EB4303CA18CB5C04E0124B1B78E1
:103B400033B3124A13785178927843EA012320461E
:103B5000294643EA0242FCF7D5FF33E7D41500209B
:103B6000FC0D002080210020D522002030210020E3
:103B70007B7300088421002023210020E122002003
:103B8000E3220020567D0008E2220020E2100020FF
:103B9000AF4B1B78032B40F0B4802746FBB29D420D
:103BA00000F293805620FCF791FC01466620FCF75A
:103BB0008DFC07460020FCF789FC0C23A54ACDE9C3
:103BC0000017029029462046FCF7BEFF4420FCF770
:103BD0007DFC01460020FCF779FC07466620FCF7D7
:103BE00075FC06239C4ACDE9001702902946204621
:103BF000FCF7AAFF0020FCF769FC01463C20FCF71B
:103C000065FC0423954A02900190009120462946C4
:103C1000FCF79AFF0020FCF759FC01463620FCF720
:103C200055FC07464C20FCF751FCCDE900170290EB
:103C30000423294620468A4AFCF786FF4FF00009F4
:103C4000DFF820A29AF800205FFA89F39A427FF603
:103C5000B9AE03F10C010AEB41014A78897842EAD6
:103C60000122952A2ED853445F7C0C237949087889
:103C7000B84232D0013B13F0FF0301F10101F6D14C
:103C80001946754890F800C0BC4526D00131C9B22C
:103C9000062900F10100F5D10021704890F800C01C
:103CA000BC451AD00131C9B2042900F10100F5D197
:103CB0006B490878B84210D00133DBB2042B01F114
:103CC0000101F6D109F10109BCE7002338461A4683
:103CD0001946FCF715FF013760E7BC42F2D8BD4238
:103CE000F0D99623C2EB0220B0FBF3F0C043C0B280
:103CF000FCF7ECFB0146034602463846FCF700FFA2
:103D0000E0E7594915E7474684E6402C7FF69CAE2C
:103D1000502C7FF6A5AE9AF80030D3B35A0738D5A9
:103D2000452C34D8452E18D90023FF211A464520AA
:103D3000FCF7E6FE4A2E25D9FF2300227A214A20ED
:103D4000FCF7DEFE412C24D81CE0631F102BE2D8C8
:103D500000234022FF21152086E62C2C10D82C2E83
:103D600017D90023A522FF212C20FCF7C9FE302EF5
:103D70000FD9FF22002311463020FCF7C1FE08E0D6
:103D8000302CF6D90023FF211A464120F5E74A2CB2
:103D9000D0D99AF8003053B3DB0628D5A4F10C0330
:103DA000102B05D80023FF211A461C20FCF7A8FE83
:103DB00010222E490AA803F0C1FA00260AAF17F80C
:103DC000010B844206D8854204D90023FF221946FC
:103DD000FCF796FE0136F6B2102EF0D1231F102B01
:103DE00005D8FF2300227A211420FCF789FE204BFE
:103DF0001B78002B3FF447AE072C3FF644AE502013
:103E0000FCF764FB01461820FCF760FB0023024628
:103E100007200FB0BDE8F04FFCF772BE154B164AF5
:103E20001C70164B1B78C3F301031370FDF73CF8AD
:103E30005DE5134B1B780BB1FFF718FB114B1C68AA
:103E4000FEF78AFE001B0F287FF61DAE0023B9E4A3
:103E5000E3220020807A00087A7A0008767A000847
:103E6000727A0008AD1E0020567D00088973000894
:103E7000C4220020000E0020FF0D0020E8220020B8
:103E8000AC1E0020D41500202DE9F74F3023074643
:103E90009146009183F31188A824504D04FB0054EF
:103EA000D4F888301B78042B4FF0000304D083F340
:103EB000118803B0BDE8F08F94F8A02042F210788A
:103EC000002A18BF4FF0000883F31188302383F3D2
:103ED00011884FF0000A009EDFF804B1A26A3AB9D7
:103EE000E26852B32269111DA162E1690A44E262EB
:103EF000A06AE26AA9EB0A01121A8A4228BF0A469E
:103F0000402A44D93146402203F018FAA16A4036CB
:103F100040310AF1400AE26AA1628A4204D8E169AA
:103F200020460439FDF74EFB002282F31188D1456B
:103F30001CD9302282F31188D0E7227A82B9B8F1F5
:103F4000000F0DD0DBF80C20616814605160042074
:103F50000A6042F210716260FEF7A0FC0028BFDA2E
:103F60004FF0000B8BF31188D1451AD8302383F31F
:103F70001188A82303FB0755A96A31B12B690439BD
:103F8000C91A02D02046FDF71DFB00238FE73146FA
:103F9000019203F0D3F9019AA16A164411449244A4
:103FA000B9E7302282F31188A82606FB075696F857
:103FB000A0202046BAF1000F08BF42F0010286F8A7
:103FC000A020FEF71FFA2046FEF72BFA86F808B06D
:103FD000FEF7B6FD8BF3118878E700BF200E0020B6
:103FE000E81F0020014608220120FFF74DBF0146CF
:103FF00020220020FFF748BF014603220020FFF7E0
:1040000043BF20290A4603D101460220FFF73CBFE7
:1040100070470000302383F31188034BDB689861FD
:104020000F20FEF72DBC00BFE81F002008B5014699
:10403000302383F311880820FEF730FC002383F33C
:10404000118808BD38B5392814BF0A255025044603
:10405000FDF73EFC40F2E7300021DFF820C00023EE
:10406000E5FB0C014FF47A72FCF7C0F8FFF7DEFFB6
:104070002046BDE83840FDF78DBC00BFA08601009A
:104080002DE9F0411F460C461646244B68B11970C5
:10409000FEF762FD224B04F0070418800120A040C7
:1040A000C0B2BDE8F041FDF7A3BC1D788D422DD113
:1040B0001B4BB3F80080FEF74FFDA0EB080080B269
:1040C000C72823D806F12004B542E4B210D005F089
:1040D0000700012505FA00F0C0B2FDF793FC072C9C
:1040E00006D806F0070305FA03F0C0B2FDF780FC1E
:1040F0003846FFF7A7FF072C0DD8012006F007066A
:10410000B040C0B2BDE8F041FDF77CBC012004F036
:104110000704A040F5E7BDE8F08100BF2A21002098
:10412000D81400202DE9F04F0379064687B0002B04
:1041300000F0D4860121FDF72FFD73790746B3B156
:10414000A14B1C889CB1A04212D014F0FE0FE0B22B
:1041500004BF45429D4B4FF000010ABF05F0140516
:104160000025ED18FCF7C4FE0146002854D13C465A
:104170007379C3B1FEF7F0FC954B1860954B1A7834
:104180000AB100221A70944B1B784BB9934B1B78E1
:10419000FF2B05D1924B1B782BB1924B1B7813B997
:1041A000FF20FEF71FFD47F643639C4211D08E4F60
:1041B0003B78002B00F0748699074FEA630240F1C8
:1041C00073867378032B40F06F863378052B40F0AD
:1041D0006B86737963B1854B1B78032B12BF032069
:1041E000834B1878FEF746FDFEF7B6FC784B186057
:1041F000804B1B785F0700F071867379002B00F00D
:104200006D867D4B5B785D0740F16886022007B0C4
:10421000BDE8F04FFCF73ABA4379078043F0040356
:1042200043712846FEF734F90022744B01213046D1
:104230001A70FDF7B1FC04469AE731462046704AF1
:10424000FDF70CFB0028D3D0314620466D4AFDF720
:1042500005FB0028CCD047F641639C4200F08480E7
:104260003AD847F213039C4243D047F640639C423E
:1042700072D07579002D00F05F81A4F5EE439BB2FA
:104280007F2B00F25981E4B20F2CB1D8012140F20A
:104290003E4003AAFDF7FAFB9DF80C50002DA7D174
:1042A00040F23F47002C66D10395574F574DDFF83A
:1042B000608103A8FDF702FC002899D0012840F096
:1042C000D98003A8FDF7FAFB431E0446032B68D8E8
:1042D000DFE803F0626E74A647F642639C42C8D1E1
:1042E0007379002B84D04B4A137883F00103137049
:1042F0007EE77379002B3FF47BAFFEF711F93E495F
:104300000B7883F08002D20962F3C7130B709AB165
:104310000C2241490DEB020003F010F8002403AD1C
:10432000FF2301341A46C82115F8010BE4B2FEF749
:1043300019FD0C2CF4D15BE70425384B03AC039337
:10434000002396211A4614F8010B013DFEF70AFDE1
:1043500015F0FF05F4D14BE77379002B3FF448AF1C
:1043600001222C4B1A7043E77379002B3FF440AFC6
:104370000022284BF6E7BD423FF43AAF0121284620
:1043800003AAFDF783FB9DF80C300BB10135F2E772
:10439000013CE4B2013585E703A8FDF78FFBFFF789
:1043A00051FE4FF47A70FFF741FE002C81D11FE7D8
:1043B00003A8FDF783FBFDF78BFAF2E703A8FDF7EF
:1043C0007DFBFDF7E7FAECE77E210020B01000202E
:1043D0002421002023210020D5220020E5100020E8
:1043E000DC220020E110002030210020E322002008
:1043F000D422002031210020DE22002032210020A2
:10440000A9100020A4100020C67C0008D67C00085B
:10441000B67C0008C42200209A730008464438394C
:1044200003A8FDF74BFB4FF0000904464FF00A0BC1
:10443000DFF8E0A21AF8041011F0040110D1B9F16C
:10444000000F15D040F2E730DFF8CCC24FF47A729B
:104450000023C9FB0C01FBF7C9FEFFF7E7FDA0E74E
:1044600003A8FDF72BFB303C0BFB09490446E1E7B1
:104470000120F2E7C0F3C702A849BB5C2C5C18F826
:10448000029000F0070011F802A0034149FA00F978
:104490004AFA00FA13F0010B09F001090AF0010AC7
:1044A0000AD09F4A137843F002031370FDF78EF988
:1044B0004FF47A70FFF7BAFDB9F1000F0AD0984AAD
:1044C000137843F040031370FDF780F94FF47A70CE
:1044D000FFF7ACFD2046FDF7FBF94FF47A70FFF7CC
:1044E000A5FD2046FDF756FA4FF47A70FFF79EFDC2
:1044F000B9F1000F08D04020FCF718F9FDF766F974
:104500004FF47A70FFF792FDBBF1000F08D0022044
:10451000FCF70CF9FDF75AF94FF47A70FFF786FDB6
:10452000BAF1000F3FF4C5AE2C20FFF78BFD4FF41E
:104530007A70FFF77BFDBCE6A4F5AE43FF2B00F2DB
:10454000908014F0FE0B7FF453AE2946E0B2FCF7E6
:10455000CFFC804600283FF44BAE4379DFF8C4A17E
:1045600065F300035FFA84F94371002D60D0FEF714
:10457000F3FA6D4B6A4A188098F8023012780133CA
:1045800088F80230694B40461B78134388F80330A3
:10459000674B1B7888F80430142303FB09F30AEBFC
:1045A00003015AF803200969FCF7D4FC98F8053098
:1045B00013F0020F08BFA3465E4BA3F800B0727958
:1045C000002A00F05F8400215B4BA4F5E0451970E0
:1045D000ABB2222B00F23E840420FDF750FB574C77
:1045E000013D2080212D65D8DFE815F0B8002301BA
:1045F000C00074007800C4007C00C800D4008800AB
:104600001B018C00D8009000DC000201AA00E00031
:104610000A01B000E600EE008000CC008400D0006B
:10462000B400EA00F900140119016F00BC002B016D
:10463000142303FB09A3DA681969FCF78BFC98F8CB
:1046400005309B07BBD5C9F1000000F014004146BE
:104650005044FDF701FF374B1A88A242AFD11D80AD
:10466000ADE7A4F5F843183B062BA8D8DFE803F024
:104670000F13040B171B1F00E122262311462846A7
:10468000FFF7FEFCB4E52723E522E521F7E7262323
:10469000E122E021F3E72723E522E421EFE72623C7
:1046A000E122E221EBE72723E522E621E7E72823C1
:1046B0000122EAE7237843F00103237004202188D4
:1046C000FEF7B9FFFDF72CFF92E5637843F008038E
:1046D0006370F3E7237843F00203EEE7237843F0B7
:1046E0000403EAE7237843F00803E6E7637843F03E
:1046F0000103EDE7637843F00203E9E7237843F031
:104700001003DAE7237843F02003D6E7237843F059
:104710004003D2E7637D0008A0860100B67C000854
:104720002C210020B0100020282100203221002060
:104730002D2100207E2100202A210020DE220020C1
:10474000FDF7EEFE237843F08003B6E7237843F0CD
:104750000C03B2E7637843F00303B9E7237823F04F
:104760000103AAE7637823F00803B1E7237823F075
:104770000203A2E7237823F004039EE7237823F0C3
:1047800008039AE7637823F00103A1E7637823F035
:1047900002039DE7237823F010038EE7237823F0AC
:1047A00020038AE7237823F0400386E7FDF7B8FE6D
:1047B000237823F0800380E7237823F00C037CE741
:1047C000637823F0030383E72378C3F3800282F046
:1047D0000102D2B262F3820362F3C3036DE763782E
:1047E000DA4302F0010262F3000362F341036FE770
:1047F0002378C3F3801282F0010262F386135CE730
:10480000FDF78EFE2378C3F3C01282F0010262F33B
:10481000C71352E701210E20FEF768FE4EE7002184
:10482000F9E72378C3F3001282F0010262F3041364
:1048300043E72378C3F3000282F0010262F300032E
:104840003BE76378C3F3C00282F0010262F3C30363
:104850003EE71B78A4F5F041A1F1200003F022030C
:104860000A282CD8DFE800F00E1259175E1C6321CD
:1048700068266D0047F677439C4274D10120FBF710
:104880004BFE94E00120FCF77DF9B1E4002B46D00B
:10489000FCF7DCF9ACE4002B46D0FCF7FFF9A7E409
:1048A000002B46D0FCF714FAA2E4002B46D0FCF70C
:1048B0002BFA9DE4002B46D0FCF740FA98E44039EF
:1048C0000E294CD801A050F821F000BF094900087A
:1048D00015490008854800088D4800081B49000854
:1048E0009748000825490008A14800082F490008FA
:1048F000AB48000839490008B5480008434900089A
:104900004D49000855490008FCF74AF90120FCF719
:10491000EFF86DE4FCF756F9F8E7002BB8D0FCF798
:1049200091F965E4002BB8D0FCF7AEF960E4002BF8
:10493000B8D0FCF7BFF95BE4002BB8D0FCF7D6F990
:1049400056E4002BB8D0FCF7EDF951E423B1FCF7A5
:1049500011FA4DE4002BFAD0FCF7FCF948E447F6D5
:1049600077439C4215D047F678439C4219D0A4F572
:10497000A543603B9BB21F2B1DD86ABB04F01F03ED
:1049800001249C400320E1B2FEF7B0FDA74B1C7050
:104990002EE40120FBF7B6FD03220221FBF730FED7
:1049A00026E40220002A3FF46AAFFBF7ABFD0322A6
:1049B00002210120F2E7AAB347F65B439C4225D0CF
:1049C00047F65C439C4215D047F65A439C421BD0A5
:1049D00047F601439C4222D047F603439C4217D03E
:1049E000B4F5F84F1ED1FDF79BFD914B914A1A602B
:1049F000FCF75EFB904B587880F00400C0F3800019
:104A0000FEF72AFEFFF7F4BB0120F9E70020F7E7E5
:104A1000FEF7A8FB4FF6FF710020FEF70CFEFDF736
:104A20007FFDE5E73388ADF808300298002A58D0BA
:104A3000FDF78AF8044601460298FBF7A5FDBDF88C
:104A400008302046ADF80C300399FDF75DF8FBF710
:104A50005DFFDFF8E8A196F806909AF8008004461A
:104A600018F007087579C9F3031928D0A84635B39B
:104A7000C4F3072303F0F002402A0ED0C1B201F1C3
:104A80002002D2B2072A30D903F0E003202B04D150
:104A900001292AD9B9F1000F2AD0674B93F8018078
:104AA00018F004080BD00220FBF7F0FD9AF8003054
:104AB00013F0070F0CBF4FF001084FF00008C4F3CC
:104AC00003330B2B6AD8DFE813F0150015004900FB
:104AD0004900D200690069006900E9004E016001E7
:104AE0006001FBF76FFD0446A9E74FF00008E6E719
:104AF000C846E4E7C4F30327C4F307223B010F2AA7
:104B000088BF1F46E4B295B15FB104F12003DBB268
:104B1000072B00D94CB94A4A13783B431370FCF772
:104B200055FE2046FCF7D4FE38E0464AF4E720461E
:104B3000FCF730FF002F31D004F12003DBB2072B4C
:104B400000D91CB93846FBF7F1FD04E03D4A137863
:104B500023EA07031370FCF739FE1FE0C4F30320B8
:104B6000C4F3072303F0F0030201E4B2202B18BFC3
:104B700010463CB1012C4ED0002D69D0B9F1000F88
:104B800027D0CEE72C4B5B785C071ED425B128B12B
:104B90002B4A13780343DDE70028D4D1B8F1000F86
:104BA00000F0A5809AF8000010F0010340F09F800B
:104BB0007371C008FBF7A6FC3046FFF7B3FA9AF80A
:104BC0000000C008FBF7A8FC91E085B1B9F1000F27
:104BD00002D1FCF70DFFE1E7B9F1010FDED11A4A6E
:104BE000137830EA0301D9D003431370D6E7B9F143
:104BF000000FD3D10190FCF705FF134A01981378F9
:104C000018421CBF83431370104A13781842C5D052
:104C100023EA0003E9E71DB1B9F1050FBED8D8E7D3
:104C2000B9F1040FBAD8FCF7EDFEB7E72F21002049
:104C3000FC6F0020EFBEADDEDE220020312100201F
:104C40002C210020322100202D2100202E210020A7
:104C5000B9F1000FE7D0392C0CBF4FF4FA504FF4E4
:104C60007A70FFF7E3F92046FCF794FE96E714F418
:104C7000406FC4F3812307D0012B8FD165B1C4F3FA
:104C80000900FCF791F989E725B1C4F30900FCF7A5
:104C90006FF983E72846FAE72846F2E714F4407FE5
:104CA00032D105BB0F21C4F342129200D2B291401F
:104CB000C94304F00F03C9B2934014F01002C4F3C7
:104CC000812418BF0A46022C864917D0032C19D01C
:104CD000012C04D013430A7813400B7003E00878CA
:104CE00003431A430A70FCF739F9FBF7FFFB002175
:104CF000304607B0BDE8F04FFCF74EBF13430A78CB
:104D00005340EAE71343E8E7C4F30122EDB1D107CA
:104D1000E9D50F21C4F342129200D2B29140C943A7
:104D200004F00F039340C9B214F01002C4F38124BD
:104D300018BF0A46022C10D0032C12D0012C07D029
:104D400013433A7813403B70CDE7012AE1D8CAE714
:104D500039780B431A433A70C5E713433A78534006
:104D6000F1E71343EFE7E7B2C4F3032435B120467C
:104D7000FBF7C8FB3846FCF73BFEB4E73846FCF7C8
:104D800041FE2046FBF7C8FBADE75FFA84F8A8F1C7
:104D9000F003042B40D8DFE803F003240F162000B3
:104DA0003DB1B9F1040F9ED80123C4F30424A340FC
:104DB000D4E7B9F1050FF6E7C4F30420002DE1D1E3
:104DC000FBF7A0FB8FE735B10123C4F3042403FAFA
:104DD00004F43C7087E73D7085E7434B5B785A07E6
:104DE00004D4C4F30420002DCCD0E9E74DB15B0717
:104DF000C4F30420E4D5C30043F003038AF8003071
:104E0000DEE70120FBF742FCB9F1010F7FF66BAF43
:104E10000220FBF73BFC66E74DB1B9F1000F03D070
:104E20004046FCF755FD5EE7C4F30420C8E7B9F13E
:104E3000000F0CD0B8F1390F0CBF4FF4FA504FF4FB
:104E40007A70FFF7F3F84046FCF7A4FD4BE7C4F394
:104E5000042097E747F616439C42244B7FF4F9ACB5
:104E60001B7803F0AA03002B14BF01220022204B61
:104E70000CBF292035201A70FCF7B2F8FCF7A6FC0D
:104E8000FFF7B6B947F616439C427FF4F3AC184BD4
:104E90001B78002B0CBF29203520FCF7D7F8EDE755
:104EA00047F644639C420CE047F644639C420AD0B8
:104EB000D2077FF5C2A97378042B7FF4BEA933789B
:104EC000012B7FF4BAA97379002B3FF491A9094B08
:104ED0001878013000F00300FFF784B907B0BDE88F
:104EE000F08F00BF2F210020DE2200202C21002087
:104EF0002B210020E32200201C49F8B58B790F2BD1
:104F00000AD84B7943B11A4B1A4A1B7815784E7858
:104F10000F78194CAB4200D1F8BD04EBC300027905
:104F200002B34278B2421DD114F83320BA4219D1EB
:104F30004279BAB94288B1F802C0A2EB0C0292B22F
:104F4000C72A0FD801228B7962F307138B718379FB
:104F500062F3071383710548FFF7E4F8BDE8F840F2
:104F6000FBF784BB013303F00703D3E7762100206E
:104F70003421002033210020362100202DE9F04F7C
:104F8000054685B08A4C01460622684602F0D6F9ED
:104F900094F804A06F7995F80490BAF1000F1AD133
:104FA000B9F1000F15D0002F00F0FE802846FCF765
:104FB0001FFE002800F0F88008222946204602F053
:104FC000BDF9B9F1010F02D12088FCF7FFFDFFF711
:104FD00093FF012444E0B5F802B063886679ABEB37
:104FE000030395F800809BB2002E00F0AE80C72B23
:104FF00000F28880B9F1000FEBD0A37962780F2B13
:10500000697850D891420FD1227842450CD1002FB7
:1050100044D10122204662F30713A371FFF782F8FF
:10502000A379AB7100241BE0002F37D13A464046EC
:10503000FBF7FAFA4046FBF7F7FA04460028F1D1ED
:105040000098FCF7C3FDC0F30332032AC3B20BD8A8
:10505000012A13D910F4706F15D0AA790F2A12D82B
:10506000204605B0BDE8F08F063202F00F02012A9B
:105070000ED92846FFF756F83446F1E710F4706F62
:1050800001D0002BECD02033DBB2072BE8D9F0E7BE
:10509000EF2BE5D90F33DBB2022BF7E7A37943F00F
:1050A0000103A371BEE791420DD1227842450AD196
:1050B0004FB92846AB71FFF735F80822294620463C
:1050C00002F03CF985E72846FCF792FD00286BD0FA
:1050D000002F69D0A3791F2B0ED9228802A8ADF822
:1050E00008200022ADF80AB08DF80CA08DF80D2034
:1050F0008DF80E30FFF716F8082229462C4802F0EA
:105100001DF964E7A3790F2B08D82046FFF70AF8AA
:1051100008220021204602F009F983E7B9F1000FC7
:105120003FF457AF61786A789142CCD122784245FA
:10513000C9D1002FC7D12846AB71FEF7F3FF082273
:105140003946204602F0F2F843E7C72BE0D8B9F120
:10515000000F3FF43EAF3FB362786B789A421AD1AA
:105160002378434517D1A379DA0710D40F2B0ED932
:10517000AB7103F0F003F02B06D0AB79C3F303124D
:10518000013262F30713AB712846FEF7CBFF08220A
:105190002946074894E72846FCF72AFD0028ABD1AA
:1051A000A37943F00103A3712846FEF7BBFF10E784
:1051B00076210020F0B589B0CDE900019DF80550B9
:1051C00000220DB12C490A709DF80460DDE9000150
:1051D000ADF80E2002905EB1012102A88DF80C609E
:1051E0008DF80D50FCF7D8FC012102A8FCF7D4FC87
:1051F0008DF80C608DF80D50DDE90201CDE9040158
:1052000004A8FFF7BBFE1D4E07461D4CB8B9DDE9EB
:105210000401CDE906019DF814103378227871B1AC
:105220005D1C05F00705954210D01648082206A916
:1052300000EBC30002F082F83570FBF717FA114D4E
:105240002078337883420BD109B0F0BDFDF768F9BF
:10525000082239460C483770277002F067F8EEE7ED
:1052600005EBC000FFF78AFE0028EDD0237801335C
:1052700003F007032370E3E73221002033210020ED
:1052800034210020362100207621002073B5FDF75F
:1052900063FC0A4D84B22B88A3420DD00026ADF8E2
:1052A0000060FDF759FCADF80460ADF80200DDE9DF
:1052B0000001FFF77FFF2C8002B070BDCE200020E0
:1052C00000232DE9804895B001935C4B9A68022A2F
:1052D00001BF1A685A4A526F5A689B6900231E46DA
:1052E000584A0133102B1660566002F10802F8D1BB
:1052F0000127554B554D03F10C021A61DA60544AEF
:105300005E61DA611F705E609E60524B2F7003F128
:105310000C021A61DA60504A5E61DA611F7040F275
:10532000BF325E609E604FF0E023EE61AE622E629F
:10533000EE626E622E636E60AE605A6107229E61FD
:105340001A6180224549464883F8232D0860454864
:10535000454C4860454903F550634FF0300CA66258
:1053600021638CF3118862B6D868414920F4E0606B
:105370000004000C0143D960D3F8FC103D4841F013
:105380008071C3F8FC1001684FF0000939430160D7
:105390002021D97783F822C004F11003C4E9043333
:1053A0004FF0FF33E661A361E3693348984604F1A7
:1053B0003403E36000F1C403C0F8F4302F4BC0F8AD
:1053C000C860C0F8C4302E4BC0F8F070C0F8E430AC
:1053D0000223C4E90889A0F8FC30E263A265C4E9AD
:1053E0000044C4E91466A660E662E6656464A4F855
:1053F0004870C0F8F840C0E94267C0F80461E8307E
:10540000FCF788FC86F311881E4B1F4ADF701F4B88
:10541000DFF87CA01A60FDF70FF801F0ADFE4FF445
:10542000807248461A49FDF7ACFE002840F0B7826A
:10543000FDF702F8FDF700F884E000BF000C014022
:1054400000040140DC1500200C230020EC1E00208D
:10545000003000405C1600200090004090160020B4
:105460004023002000700020E81F00208C7A0008F4
:105470000003FA05001000E0E8100020B90A000857
:10548000D1010008A0100020B10A0008040E00207D
:10549000981600201EF8013B7340A3FB0C9B0CFBED
:1054A00007BB7E015A0119EB020246EAD3664BEBB9
:1054B000060B4FEAC719D2184FEAC31647EB0B0B7E
:1054C0004FEA0328961949EA53694FEA07274BEB3D
:1054D000090947EA136716EB080649EB070908EBC9
:1054E000090786190139D5D101224FF400600CA9B2
:1054F000FDF747FEDDE90C23BB4208BFB24201D0F5
:10550000FCF79AFF40F60806012230460AA9FDF78B
:1055100038FE002800F06782DDE90A3253EA020112
:1055200000F0608213F0C00FCDE90C3206F10806DE
:10553000D9B200F03D82CAF80068FDF7A7FE002846
:105540003FF478AF4FF080436FF0200200261A63DB
:1055500020214FF055321A605E609E60DE60DE6290
:105560001E625E6299616FF40071C3F830144FF4EB
:105570000071C3F80024C3F80464C3F80864C3F8D6
:105580000C64C3F82C64C3F82064C3F82464C3F823
:1055900018146FF48071C3F83014C3F800244FF46A
:1055A0008072C3F804643146C3F80864B748C3F88E
:1055B0000C64C3F82C64C3F82064C3F82464C3F8F3
:1055C0001824102203F580634FF0A80801F0AEFE06
:1055D000302731464FF0010C3246AD4BDFF8B4E2D4
:1055E0001E70AD4B1E70AD4B03F15C00D86493F898
:1055F000840010B103F170001865DFF8A0A2D3F8A1
:10560000946008FB01AAD3F89800D3F89090043670
:105610001B605B6083F808C0CAF80C9006FB090A9F
:1056200058611861C3F818A0DE61C3F82090586271
:105630009A62DA62C3F830E05B6387F31188D3F8CB
:10564000880093F88C6000EB8600836183F8A020CB
:1056500082F311880131032903F1A803C4D19049D1
:1056600001F15C030B65CB6FD1F880008E6F0433C2
:1056700081F808C006FB030CCB618A4B09604960C6
:10568000CA6048610861C1F818C00E6248628A6247
:10569000CA620B63496387F3118891F874000B6F3A
:1056A000093043F8201081F8842082F311887E4964
:1056B0006FF4C0508B6C43F4004343F020038B64C1
:1056C0004FF0804318636FF480501A609A60DA607C
:1056D00018634FF0807018604FF4805058604FF09E
:1056E00080505A62986187F311882B78012B17D06C
:1056F0004FF480406D4BC3F88000C3F8800183F8FD
:105700000E236B4BDA72DA715A724B6903F008039D
:105710004B614A61CA66CA670B6C23F002030B64D3
:105720004FF0000901230426624FC5F804902B7046
:1057300057F8048FB8F1000F0FD0D8F8140020B13B
:105740006FF001010C30FCF715FBD8F8180020B100
:105750006FF001010C30FCF70DFB013EC7F8009023
:10576000E6D1FDF7EDF986F3118841F28830FEF7B6
:105770005DFC302383F311882A784F4B012A6B603C
:10578000EE602E616E61AE6132D102204B4BEB6058
:10579000454B196C41F480711964196C41F0020198
:1057A0001964D3F8881041F00201C3F88810D3F8C7
:1057B000881021F00201C3F8881041495A63DA6762
:1057C00008640821DA66596159695961596941F0DB
:1057D0000101596103F55053DE72DA71D0225E7215
:1057E000324B83F80E234FF48042C3F880211A60B5
:1057F00002232B70002585F311882B4A41F2883053
:10580000936C43F4004343F0200393644FF08043D0
:105810006FF4C0521A634FF07072DA624FF0207268
:105820001A604FF44C325D609D60DD605A62012267
:1058300003F5A0335A700722DA72FEF7F7FB302324
:1058400083F311881F4BE2691A601F4B1D601F4BC9
:105850001D6085F31188FCF70DFAFCF7F4F908B91F
:10586000FDF7C6FE08220021194801F05FFD012264
:10587000184B80211A7018482022FDF750F820227A
:105880004021FDF74CF8154A516829E0D61E00204A
:10589000E71E0020E9160008E61E0020200E00206A
:1058A000181000206F160008000C014000E100E015
:1058B00000400140F41E0020BC7A0008987A0008DD
:1058C000004C0140A81E0020A41E0020A01E0020A5
:1058D000871F0020861F002000040040001000E009
:1058E00053685B1AB3F5165FFAD300210846FBF73D
:1058F00067FA012102460020FBF762FA0F24B34B3E
:1059000042EA4002B24D1A7055F8040B471C01D010
:10591000FDF724F8013C14F0FF04F5D1AD4D55F826
:10592000040B461C01D0FDF719F80134E4B2062C33
:10593000F5D10C220021A84801F0F8FC0C2200212E
:10594000A64801F0F3FC0020FCF799F94FF6E36359
:10595000984250D0FDF7ACFE0220FCF76DF8A04B4A
:1059600018700420FCF78BF99E4B1880FDF752FA53
:105970004FF47A70FEF75AFBFDF74CFA964B1C7801
:1059800014F001043CD0FDF7EDFB4FF6FF71002051
:10599000FDF751FE944B954A1A60FBF789FB40F6E0
:1059A0000101D64648464FF0120C914E914F99E5B1
:1059B0001BBA080423F07F4300F4E02023F0FF0328
:1059C00040EA3320CA0800EBD101B1F5006F3FF681
:1059D000B2AD0DF13301504401F0B0FCB6F5805F7B
:1059E0007FF492AD0120CAF8006800283FF4A5AD0D
:1059F000FDF7B4FCA3E5FCF726F90028ACD1A9E734
:105A00000320FCF719F86FF010027B4B102518707B
:105A10007A4B7B481A634FF055321A605C609C6089
:105A2000DC60DC621C625C629D61FBF711FAFF21A5
:105A30002A4600F8194B01F079FC72482A46724D4B
:105A4000FF2100F8194B01F071FC082229461720AC
:105A5000FBF7E2FF6D4B1C702B78032B01D8FDF791
:105A600013FD00246A4B04221C706A4B13200CA9FE
:105A70001C700C94FBF7D0FF0C9B032B54D800D068
:105A80001C46654D2B70654B1C70FDF765F8FF22B9
:105A9000634B18600020634B1A70634B1870634BA4
:105AA0001870634B1870634B1870634B18702B7829
:105AB000032B07BF02460346604A03EB43031FBFA5
:105AC00099188878D35C4A785D490B7043EA0223C1
:105AD000887043EA00404A70FBF798F8FCF736FDFF
