:020000040800F2
:1000000000040020B9010008BB010008BB01000882
:10001000BB010008BB010008BB010008BB010008D0
:10002000BB010008BB010008BB010008296F0008E4
:10003000BB010008BB010008BB0100082D740008CB
:10004000BB010008BB010008BB010008BB010008A0
:10005000BB010008BB0100088D720008B5720008E2
:10006000DD720008057300082D730008BB0100084D
:10007000BB010008BB010008D9740008BB010008DF
:1000800055730008BB010008BB010008BB01000854
:10009000BB010008BB010008BB010008BB01000850
:1000A000BB010008BB010008B1740008C57400085A
:1000B000BB010008BB010008BB010008BB01000830
:1000C000BB010008B9730008BB010008BB010008B0
:1000D000BB010008BB010008BB010008BB01000810
:1000E00072B6264880F30888254880F30988254899
:1000F00025490860022080F31488BFF36F8F02F057
:100100002BFF02F05BFF4FF0553020491B4A914214
:100110003CBF41F8040BFAE71D49194A91423CBF24
:1001200041F8040BFAE71B491B4A1C4B9A423EBF9D
:1001300051F8040B42F8040BF8E700201849194A5B
:1001400091423CBF41F8040BFAE702F0D5FF02F000
:10015000D1FF154C154DAC4203DA54F8041B884707
:10016000F9E705F0EFFB124C124DAC4203DA54F8FC
:10017000041B8847F9E702F0BEBF0000000400201E
:10018000000C00200000000808ED00E00000002046
:1001900000040020EC840008000C0020FC1000206B
:1001A0000011002040230020E0000008E0000008CB
:1001B000E0000008E000000892E700F000F8FEE729
:1001C0002DE9F04FC1F80CD0C3689D46BDE8F08F13
:1001D000002383F311882846A047002004F0CCF9BF
:1001E000FEE702F0AFFF00DFFEE7000053B94AB9B7
:1001F000002908BF00281CBF4FF0FF314FF0FF302F
:1002000000F062B9ADF1080C6DE904CE00F006F81B
:10021000DDF804E0DDE9022304B070472DE9F04782
:100220008C46154604461E46089F002B40F0CB80A6
:100230008A4248D9B2FA82F149B1C1F120030CFADD
:1002400001FC20FA03F38D4043EA0C0C8C404FEA8A
:10025000154EBCFBFEF8A8B20EFB18CC08FB00F94B
:10026000230C43EA0C43994529D9EB1808F1FF32D6
:1002700004D2994502D9A8F102022B44A3EB090349
:10028000B3FBFEFC0EFB1C330CFB00F0A4B244EAF3
:100290000344A04215D92C190CF1FF3304D2A0421B
:1002A00002D9ACF102032C44241A43EA02401FB1E4
:1002B0000023CC403C607B603146BDE8F08742467D
:1002C000DCE76346F0E7002A73D0B2FA82F3DBB3CF
:1002D0001E4602FA06F5C6F1200321FA03F24FEAA0
:1002E000154EB14020FA03F30B43B2FBFEF100FAC6
:1002F00006F40EFB112CA8B201FB00F81A0C42EA1E
:100300000C42904557D9AA1801F1FF3C04D2904500
:1003100002D9A1F1020C2A44A2EB0802B2FBFEF1C1
:100320000EFB112248439BB243EA0243984244D950
:10033000EB1801F1FF3203D2984201D98A1E2B44F7
:100340001B1A42EA0C4201E08B1A01224FEA154EB9
:10035000B3FBFEFCA8B20EFB1C330CFB00F8210C17
:1003600041EA034398452AD9EB180CF1FF3104D236
:10037000984502D9ACF102012B44A3EB0803B3FB6F
:10038000FEFC0EFB1C330CFB00F0A4B244EA034459
:10039000A04216D92C190CF1FF3304D2A04202D985
:1003A000ACF102032C44241A43EA014031461646BC
:1003B0007DE71F268DE78C46AEE70A46C0E761461B
:1003C000DBE76346EFE78B4206D917B900263046D4
:1003D00072E7C7E90001F9E7B3FA83F686B98B4201
:1003E00001D3824207D8841A61EB030301209C46A3
:1003F0001FB9002660E73046FAE7C7E9004CF8E786
:10040000C6F1200CB34022FA0CF41C434FEA144905
:1004100021FA0CF3B3FBF9F820FA0CF5B1402943AB
:100420001FFA84FE00FA06F509FB183008FB0EFAE5
:100430000B0C43EA00439A4502FA06F240D9E3184E
:1004400008F1FF3004D29A4502D9A8F102002344F2
:10045000A3EB0A03B3FBF9F809FB183308FB0EFE04
:1004600089B241EA03418E452CD9611808F1FF3366
:1004700004D28E4502D9A8F10203214443EA004088
:10048000A0FB0298A1EB0E014145CE46434602D3A4
:1004900006D14D4504D2B9EB020E68EB04030138D6
:1004A000002FA6D0B5EB0E0261EB030101FA0CFCA4
:1004B00022FA06F34CEA0303F140C7E9003198E75A
:1004C0004046C5E74346D9E7704700BFA0F58073B3
:1004D000B3F5F85F30B42ED210F4805F00F40075ED
:1004E000C0F3002300F4806400F4006014D01B010A
:1004F00043F02002002D18BF134643F04002D2B251
:10050000002C18BF134663F07F02D2B2002818BF38
:10051000134630BC1846084743F00202D2B2002D01
:1005200018BF134643F00402D2B2002C18BF134682
:1005300043F00802E9E70023EBE7020906BF134690
:100540000246042391081CBF0A46023303EB520003
:10055000C0B2704710F0020F0CBF10224FF480128F
:10056000014B9A61704700BF000800400123034A15
:10057000834011780B431370704700BF1A2100208D
:100580000123034A8340107820EA0300107070476B
:100590001A2100200123034A834011784B40137035
:1005A000704700BF1A21002001F00703C90801EBC2
:1005B000410130B501250A4400219D40013A12F85D
:1005C000014F20FA01F343F3000363402B40013154
:1005D0005C4003291470F2D130BD002210B500F048
:1005E0000704C00800EB4000014410468B5CE34068
:1005F00003F00103934001321843032AC0B2F5D13E
:1006000010BD00000246C0F30723052B084682B048
:10061000D1B209D80E290DD8C3EB03131944064AE9
:1006200089B202B0FFF7C0BF0433DBB2012B01D89F
:10063000024AF6E702B07047DF200020DC200020ED
:10064000C0F30723052B82B0C0B209D80E280DD8FD
:10065000C3EB03131844074980B202B0FFF7BDBFD4
:100660000433DBB2012B01D80349F6E7002002B0C6
:10067000704700BFDF200020DC20002030B50124BF
:10068000074D04FA01F12B7804FA00F00843C1B2D7
:100690001840944081420CBF2343A3432B7030BDCC
:1006A0001A210020F0B50D4B0D4C1B7826780D4C0F
:1006B000B34201D10020F0BD04EBC3056F788F4237
:1006C00006D114F83370874202D16D79954203D177
:1006D000013303F00703EBE70120ECE720210020C2
:1006E0001F21002022210020054B064A1B7812788A
:1006F0009A4200D17047013303F00703F8E700BFC7
:10070000202100201F21002010B509490B7823EA81
:10071000000010F00704087009D1984207D0054B7B
:100720005B785B0703D5C008FFF72AFF0C7010BD8C
:100730001B2100201C21002070B5144B144D18788B
:10074000144B1B7818432B78C0B293B11843124B4B
:100750009B78012B04D1114B93F90030002B09DB5E
:1007600006220F4B00211A449A4206D109B10023F8
:100770002B7070BD1E220B4BF4E74C1C13F8016B61
:10078000E4B2002E18BF2146EEE700BF162100207C
:10079000172100201E210020A81000201C2100206D
:1007A0000E14002016140020024A137823EA0003D6
:1007B0001370704716210020E7284FD8DF2807D88C
:1007C000312864D00ED8292857D02A2866D07047FF
:1007D000A0F1E003072B41D8DFE803F01540232800
:1007E00031403C41392804D0822802D035283FD0FE
:1007F0007047324B1A7892071FD15B7813F0080FBD
:1008000018BF292070472D4A1378D9074DD4527844
:1008100012F0010F22D013F0100F14BF0020E320BC
:100820007047264B1B7813F0040FF3E7234A137825
:1008300059073CD45278D207EDD5E02070471F4BC2
:100840005A7891070AD51B7813F0100F14BF0020B7
:10085000E7207047194B1B781A07F5D47047174AE1
:100860001378190725D452789107EDD5E420704705
:10087000124B1B7813F0200FC2E7104B1A78920628
:1008800019D45B7813F0080F18BF392070470B4B51
:100890001B7813F0400F18BF2A207047074B1B78B6
:1008A00013F0400F18BF3120704739207047E22005
:1008B0007047E62070473520D0E700BF1C2100209C
:1008C00030B5304D2B785A0711D500F0140100F0E7
:1008D00018020C1F6142A2F1080C6141DCF1000218
:1008E00042EB0C0280F00C04914218BF204619071D
:1008F00013D500F0140400F01801A4F1140CA1F1B8
:100900001802DCF1000444EB0C045142514180F028
:100910000C02D2B28C4218BF10466D78E90713D58D
:1009200000F0110400F0180104F1FF3CA1F10802ED
:10093000DCF1000444EB0C045142514180F0090207
:10094000D2B28C4218BF1046AA0711D500F011048C
:1009500000F01801A4F111025442A1F1180554410C
:10096000694280F009026941D2B28C4218BF104638
:10097000DB0605D500F0E70310F0080F18BF184696
:1009800030BD00BF1C21002038B5FFF715FFB0F5C2
:10099000A44F04463FD2B0F5A04F80F0A680DF28D8
:1009A00016D8CC2800F28680A7280AD8A42874D8A4
:1009B000012804D0031F9BB2A12B28BF002420468E
:1009C00038BDA0F1A8039BB21A2B6BD90024F6E71F
:1009D000B0F5804F16D2B0F5005F80F09980E7281F
:1009E000EDD9A0F580739BB2B3F5F85FEED2C0F3FA
:1009F0000720FFF765FF0546E0B2FFF7DDFE40EA9E
:100A00000524DCE7C0B2FFF7D7FE04F4706420438E
:100A100040F42044D3E7B0F5A54F21D245F25F233F
:100A2000984251D845F23F2398420ED845F21F23F1
:100A3000984242D8012300F00304A340C0F385028A
:100A400043EA421343F40D44B9E7012300F00304E1
:100A5000A340C0F3820243EA421343F40C44AEE7DE
:100A600045F2BF2398420AD845F29F23984200F0EE
:100A70001F0034D84AF2F40343EA00249FE7A0F5AC
:100A8000A543403B9BB21F2BA0D8040204F4F854AA
:100A900044F4204444F0F00491E7A0F1240444F429
:100AA00080448CE7204B5834E4B233F8144044F4CB
:100AB000884484E740F4A04481E74AF2F10300F05F
:100AC0001F0443EA04247AE7012300F00304A3404F
:100AD000C0F3820243EA421343F40A446FE7FFF78C
:100AE000EFFE040244F4005469E700F01F00FFF732
:100AF000E7FE03B21A0102F0F00210F0100F18BF67
:100B00001346C4F3431443EA042343F4104456E762
:100B1000C0F30420FFF7D4FE0546E0B2FFF74CFE19
:100B200040EA0524DEE700BF048300080020704788
:100B30000020704730BFFDE7044B93F804281AB932
:100B4000012083F80408704702207047B016002087
:100B5000054B93F8042822B10022012083F80428D1
:100B600070470220704700BFB016002030B52B4AF6
:100B700085B0C0F3074310F47F4FD25C0190C0F3FF
:100B8000072547D00620FF239DF80440591B6043EA
:100B9000B0FBF3F06FF05403434303EB440303EB68
:100BA0004303DBB203FB05F4C3F1FF036B432412E1
:100BB0001B12C4F1FF04C3F1FF03514354435343D9
:100BC000091224121B12062820D8DFE800F00406C0
:100BD00013161A1F040014461A4613462246002014
:100BE000D2B262F30700DBB263F30F2061F3174068
:100BF00005B030BD0C461946EFE723460C461146BA
:100C0000EAE710461C460A460146E6E72346144634
:100C10000A46F0E711461346E1E700BF06800008E8
:100C20001FB55308D209184C1ABF83F0FF0303F015
:100C30000F0203F00F02C3F30113019004EB430111
:100C4000497818BF01324A4314F81330C0F3074003
:100C500003EB22135BB2002BB8BF5B425B00DBB23D
:100C600000FB033300201B128DF80630019BDAB223
:100C700062F30700C3F3072262F30F20C3F30743B5
:100C800063F3174004B010BDFE7F000884B00190EC
:100C900000208DF80420019BDAB262F30700C3F351
:100CA000072262F30F20C3F3074363F3174004B036
:100CB0007047000084B0019000200B4B03EB410310
:100CC00093F85A309B1A8DF80430019BDAB262F324
:100CD0000700C3F3072262F30F20C3F3074363F354
:100CE000174004B0704700BF4881000884B00190ED
:100CF00000200B4B03EB410393F85B309B1A8DF8FC
:100D00000430019BDAB262F30700C3F3072262F3F7
:100D10000F20C3F3074363F3174004B0704700BFCD
:100D2000488100081FB5124C2C3104EB4104E378D4
:100D30000190A3F12001C3F120035BB249B231EA73
:100D4000210128BF1946A3789B1A0B4403440020B5
:100D50008DF80430019BDAB262F30700C3F3072277
:100D600062F30F20C3F3074363F3174004B010BDD1
:100D700048810008FF2928BFFF21C94384B00190A2
:100D8000C9B2C0F3074000FB0111002009128DF821
:100D90000610019BDAB262F30700C3F3072262F385
:100DA0000F20C3F3074363F3174004B07047FF29D4
:100DB00028BFFF21C943C9B284B001EB8111019062
:100DC00000EB11208DF804000020019BDAB262F3E1
:100DD0000700C3F3072262F30F20C3F3074363F353
:100DE000174004B0704784B0BDF81020C0F307412D
:100DF000D31A9BB2FF2B28BFFF23DBB283F0FF0285
:100E00001144FF2928BFFF210190034400208DF8E1
:100E100004308DF80610019BDAB262F30700C3F3C9
:100E2000072262F30F20C3F3074363F3174004B0B4
:100E300070470000024B1A7810431870704700BFCB
:100E4000C41E002000F034BB2DE9F04780468946DF
:100E500014469DF820609DF824709DF828A0D518B0
:100E600014F8010B404506D3484504D253463A4690
:100E70003146FFF7E7FFAC42F2D1BDE8F0872DE93C
:100E8000F0478046894614469DF820609DF82470FE
:100E90009DF828A0D51814F8010B404506D3484505
:100EA00004D253463A463146FFF7CCFFAC42F2D16A
:100EB000BDE8F0872DE9F04104460D4606468AB0AC
:100EC000F3B29D424CD800264FF0FF08C827384B9C
:100ED00029462046059305AA04230296CDF80480EE
:100EE0000097FFF7CCFF334B29462046049304AA12
:100EF0000423CDE900780296FFF7C1FF05222E49B1
:100F000006A806F057FDA023294600932046052396
:100F1000CDF80880019606AAFFF7B1FF1C2C07D870
:100F20001C2D05D93B463A4631461C20FFF78AFF67
:100F30000622224908A806F03DFD0026C8232946BE
:100F40000293019320460623009608AAFFF797FF15
:100F50001B4F3B78F2B293420AD80AB0BDE8F08149
:100F6000002330461A461946FFF76CFF0136A7E703
:100F700002F10C0107EB41014B78897843EA012328
:100F8000B3F5C87F11D23A44507C84420DD88542D3
:100F90000BD94FF4C872C3EB0323B3FBF2F3DB436B
:100FA000DBB21A461946FFF74DFF0136D1E700BF05
:100FB0002F34333502033F04F3790008F979000830
:100FC0008121002000F080BA00EB0010C3B20020A5
:100FD00003F1110263F30700D3B2512B28BF512351
:100FE00082B063F30F2002B0704700002DE9FF4785
:100FF000DFF89480814698F80000FFF7E5FF234E64
:10100000234B34791B88A40802345C43DFF884A0A6
:10101000C0F30727C4F30724C5B2E9B28F4206D84C
:10102000502F8CBF0020012004B0BDE8F08798F855
:1010300001301AF805201A4223D0B2787378F0787C
:1010400043EA022343EA00402246C8478DF80400E1
:10105000C0F30723C0F307408DF806008DF8053074
:10106000019BADF808301B0C8DF80A300298FFF791
:101070007DFDC0F30743C0F30722C1B22846FFF746
:10108000E1FE0135C9E700BF070E002070210020F6
:10109000F0150020448200082DE9F04FDFF8F080C1
:1010A0003C4D85B0834698F80000FFF78DFF2B7903
:1010B0004FF6FF760133FF2B28BFFF23B6FBF3F675
:1010C000DFF8D4A0DFF8D490ADF80000C0F3072714
:1010D000C4B2E0B2874206D8502F8CBF0020012056
:1010E00005B0BDE8F08F98F801301AF804201A42D4
:1010F0003CD099F80030DFF8A8C0013B5BB21A067B
:1011000036D531462B79AA780133FF2B28BFFF2330
:1011100003FB01116B78E87843EA0223C1F30F2146
:1011200043EA0040D8478DF80400C0F30723C0F31A
:1011300007408DF806008DF80530019BADF80830AA
:101140001B0C8DF80A300298FFF710FDC0F3072240
:10115000C0F307438DF80C008DF80D208DF80E308C
:10116000C1B2DBB22046D2B2FFF76CFE0134B0E769
:101170001CF80320824209D103F10C0209EB420260
:101180005178927841EA02218E42BBD8013BB6E702
:10119000070E0020702100204482000881210020D9
:1011A00092210020044A137883F001031370002277
:1011B000024B1A70FFF73EBE70210020060E002081
:1011C000064A137813F0030304BF05490B7001218D
:1011D000137861F301031370704700BF7021002082
:1011E000060E0020054B1A7892071EBF0021044A04
:1011F00011701A7822F003021A70704770210020D3
:10120000060E00200D4A0346107810B4800713D054
:1012100073B1092B0ED803F03F031478084663F32B
:10122000870414700022064B1A7010BCFFF702BE30
:101230000123F2E70923F0E710BC7047702100207A
:10124000060E00200121054B1878C0F385000130FF
:10125000C0B20A2828BF0846FFF7D4BF702100207B
:10126000054B01211878C0F38500013810F0FF000C
:1012700008BF0920FFF7C6BF7021002030B4064C1C
:101280002578AD0706D06070A170E270184630BCBA
:10129000FFF7D0BD30BC70477021002007B501902A
:1012A000FFF78EFF00210120FFF7ACFF0B469DF8F2
:1012B00006209DF805109DF8040003B05DF804EBCE
:1012C000FFF7DCBF034901234878CA7808308978E2
:1012D000FFF7D4BF70210020044901234878CA7861
:1012E0000838897880B2FFF7C9BF00BF702100209D
:1012F000054801238178C2781031FF2928BFFF21DA
:101300004078C9B2FFF7BABF702100200548012319
:101310008178C278103921EAE1714078C9B2FFF7CB
:10132000ADBF00BF7021002005480123C27881783D
:101330001032FF2A28BFFF224078D2B2FFF79EBFAB
:101340007021002005480123C2788178103A22EAF2
:10135000E2724078D2B2FFF791BF00BF7021002047
:10136000044A012013791033FF2B28BFFF23137188
:10137000FFF760BD70210020044A01201379103B63
:1013800023EAE3731371FFF755BD00BF70210020FE
:10139000054A01205379A3F1FF014B424B41034918
:1013A000CB5C5371FFF746BD70210020FC7F000825
:1013B000054A01205379A3F1FF014B424B410349F8
:1013C000CB5C5371FFF736BD70210020FC7F000815
:1013D00030B5094B9C78DD78621C02F0030295421F
:1013E00009D09A701A7800F07F001C4440EAC110BE
:1013F000013220711A7030BD731F0020054BC1F1FE
:101400008041186901F2074101F00F01C84000F066
:10141000010070470004004070B5072301264FF417
:1014200000444FF00045184A06FA03F10142946166
:1014300015D0062100BF00BF00BF00BF00BF00BF26
:101440000139F7D10321956100BF00BF00BF00BF84
:1014500000BF00BF0139F7D1013BE5D270BD0321C8
:1014600000BF00BF00BF00BF00BF00BF0139F7D100
:101470000621956100BF00BF00BF00BF00BF00BFD5
:101480000139F7D1E8E700BF000400406FF40042E3
:10149000064B1A634FF055321A6000225A609A6068
:1014A000DA60DA621A625A62704700BF00040040D4
:1014B00030B5044D00EB40002C1861702A54A37025
:1014C00030BD00BFF214002070B5134605460E462D
:1014D00000242046324629460134FFF7E9FF512C0B
:1014E000F7D170BD38B5302383F3118800250E4C39
:1014F0002078FFF791FF6078FFF78EFF0135A07825
:10150000FFF78AFF512D04F10304F1D14FF4E0639A
:1015100000BF00BF00BF00BF00BF00BF013BF7D14D
:1015200083F3118838BD00BFF2140020022870B583
:1015300029D80022154B9D1D03EBC204667936079E
:1015400005D515F83260864201D1204670BD0132C2
:10155000032AF1D1B9B159790C070FD55A7B11077C
:101560000FD55A7D12070ED4022103EBC1014B792E
:10157000887143F0080308464B71E7E7C1F3C001E7
:10158000F3E70121F1E70020E0E700BFD8140020D5
:1015900002B1104770470000034B1B6813B11B6872
:1015A00003B1184718467047D02000200B4B07B5F1
:1015B0001A8882420FD01880094B1B685BB11B69E7
:1015C0004BB103228DF80500000A8DF806008DF856
:1015D000042001A8984703B000BD00BFD614002026
:1015E000D02000200B4B07B51A88824210D01880FB
:1015F000094B1B6863B11B6953B104228DF80500C8
:10160000000A8DF806008DF804200DEB02009847C3
:1016100003B000BDD4140020D020002010B5154B1D
:101620009B78012B15D000224FF0FF33124911F89F
:10163000014FA0421DD0B3F1FF3F01D104B953B215
:101640000132062AF3D15A1C13D00C4A1344987065
:101650000FE00B4A92F90020002AE4DAEF2808D8BC
:10166000084A02EBD002917800F0070083400B4358
:10167000937010BDA81000200D1400200C14002041
:101680001C2100201414002010B5114B9A78012A57
:101690000CD0062300210F4A12F8014F013B84426F
:1016A00008BF117013F0FF03F6D110E00A4B93F955
:1016B0000030002BEDDAEF2809D8084B03EBD003FC
:1016C000997800F00700824021EA02029A7010BD6A
:1016D000A81000200D1400201C210020141400204C
:1016E000014B5878704700BFA8100020BFF34F8F00
:1016F0000549064BCA6802F4E0621343CB60BFF3AE
:101700004F8F00BFFDE700BF00ED00E00400FA05C9
:1017100030B590F8472090F8463085B043EA022370
:101720001A0A032A1BD00DD8012A5FD0022A13D12E
:101730005B23314A314842600360002A08BF1046EB
:1017400005B030BD90F8483090F84910212A43EA9E
:1017500001233CD0222A41D000231A46EAE7DBB21B
:10176000032BF9D8DFE803F0450205080623244AD5
:10177000E0E72A23234ADDE7234B244D1C781CBBDA
:10178000012221461A706846102206F00BF9214604
:101790001F4804AB03EB610313F8102C05EB410366
:1017A0001409045D02F00F029C700024825CDC705E
:1017B0004B1C023105EB430320299A70DC70E8D101
:1017C00042232B7003236B702B78104AB2E7022B55
:1017D000C2D8104A52F823200923ABE7022BBBD80A
:1017E0000D4A0E4952F82320CB5CA3E712230C4A82
:1017F000A0E704230B4A9DE7DC7B0008CC14002003
:10180000D07B0008A47B00088614002087140020E9
:10181000937B0008587C00084C7C0008497C000839
:10182000377C0008D87B000810B5064A064C1178B2
:1018300024784B1C03F00F039C421EBF034C137013
:10184000605410BDD61E0020D51E0020C51E0020ED
:1018500090F84A2090F84B00084942EA0022022AF8
:101860000B7807D1012B01D0062B05D14A78044B08
:101870005A707047024A5370704700BF84140020AA
:10188000A810002070B590F84410044601F07F03C2
:10189000212B40F09D8011F0800F90F8453053D0FF
:1018A000022B35D0032B25D0012B4DD190F8483099
:1018B000022B01D9002070BD90F846100829F9D8F4
:1018C000594AD25C022AF5D8A820584B00FB0233B3
:1018D000D3F8A430002BEDD0554D5E6818682A4629
:1018E000B04705F10803A363AB6C0022E3632264F5
:1018F0000120E0E790F8482090F8493052EA0322AE
:1019000066D14C494C4B8978836319700123EDE70C
:1019100090F84830022BCDD890F846100829C9D845
:10192000414AD25C022AC5D8A820404B00FB0233B2
:10193000D3F8A430002BBDD05A69186890473F4BAC
:101940001870A3630123D0E70A2B23D00B2B10D0F0
:10195000092B3DD194F8483094F8492043EA0223FA
:1019600023F00203002B33D1354B364AA363022305
:10197000BCE794F8483094F8492053EA022306D192
:1019800094F846302B4A003B18BF01239370002384
:10199000A363AAE7274B94F847201A7094F84830BD
:1019A000022B87D894F84610082983D81E48C05CBB
:1019B00002283FF67FAFA8251C4B05FB0033D3F868
:1019C000A430002B3FF476AF1D691868A847DEE706
:1019D00001F09F01812918D194F84530062B14D1CC
:1019E00094F84920616894F848304D6843EA02232E
:1019F000204694F8472094F84610A84700283FF462
:101A000059AF4368A36303686FE70325074ED6F811
:101A10009C3023B9013D06F1A806F8D14AE72046DB
:101A200098470028F6D063E7907B0008280E002036
:101A300034140020A81000208114002080140020FD
:101A400084140020511800087047302383F3118854
:101A5000026943699A4210D1C36883B10123D0F867
:101A6000882090F88C1012898B4013420CBF012003
:101A70000020002383F3118870470020F9E71846FF
:101A8000F7E70000036843B19100196003490B7840
:101A9000002A18BF43F001030B707047CC1F0020D1
:101AA000006810B10068C0F38700704738B503685C
:101AB0000BB9002038BD302383F31188036800215F
:101AC0001C685B6881F31188002CF2D04FF47A7C9B
:101AD000074A084DD069084AC01AE0FB0C510023A0
:101AE0002846FEF783FB84428CBF00200120E1E7FB
:101AF000D01F00209F860100A08601004B1E072BEF
:101B00000BD850F8213043B19100196003490B788C
:101B1000002A18BF43F001030B707047CC1F002050
:101B2000082906D850F8210020B10068C0F38700CA
:101B30007047002070470000082938B501D90020FF
:101B400038BD50F82130002BF9D0302383F31188B1
:101B500050F8213000211C685B6881F31188002C4B
:101B6000EDD04FF47A7C084A084DD069084AC01A73
:101B7000E0FB0C5100232846FEF738FB84428CBF63
:101B800000200120DCE700BFD01F00209F8601005D
:101B9000A0860100034610B51B68984203D09C68DC
:101BA0008A689442F8D25A680B604A6011605960A2
:101BB00010BD0000302383F311880D4B5B6813F4D4
:101BC000006312D0EFF309834FF08072203BDA619B
:101BD00083F30988074A1168D2688968926891423C
:101BE0008CBF054A054A9A61704783F31188704794
:101BF00000ED00E0D01F0020E3010008E60100082E
:101C000003691960C268013AC260C26913448269FB
:101C10000361934224BF436A036100238362036B21
:101C200003B118477047000070B50124468904FAD3
:101C300001F53543458100EB8100C56801F00F01D6
:101C4000A8698260002203604260C26023B16C8A8E
:101C5000013B2344B3FBF4F4054B0482997321B197
:101C60001A7D02F0FE021A7570BD40225A74FBE71D
:101C70000040014010B40346006F0278042A12D1DC
:101C8000012293F8741044898A4022420BD11A69C8
:101C90005C69A24201D1DC682CB910BCDB6904325A
:101CA000043BFFF7C1BF10BC7047406BFFF7E2BFBA
:101CB000F0B50124002605898C402C43048100EBFB
:101CC000810411F00F0108BF4027E46865696E6068
:101CD000EE6008BF114E2B60AA6008BFB173248A62
:101CE00008BF7774A34228BF23460D4C2B6104EB39
:101CF0008104D518954205D1084A917331B1012369
:101D00005374F0BD12F8016B2670F3E7517CC16883
:101D1000098A8B4234BF0A230223F1E700400140C5
:101D20002040014010B4436BD3F888000278042AA5
:101D300011D1012293F88C1004898A4022420AD1E1
:101D40005A691C69944201D1DB6823B910BC52F86E
:101D5000043BFFF7ADBF10BC704700000548017899
:101D6000052906D190F85030037043681B6803B111
:101D700018477047D81E002000216022074B10B57D
:101D800099735A7499735A74436804461B680BB16B
:101D900006219847062384F8343010BD00400140E6
:101DA00090F8343010B5152B04460CD801220849A0
:101DB0009A400A4208D1152B05D1036C03B198470C
:101DC000002384F8343010BDBDE81040FFF7D4BFC5
:101DD000410E100090F8343010B5152B04460CD885
:101DE000012208499A400A4208D1092B05D1036C07
:101DF00003B19847002384F8343010BDBDE810408B
:101E0000FFF7BABF410C300010B51C4B9B78012B7B
:101E10001ED11B4B93F90030002B19DAFEF78CFC16
:101E2000184C202260701849204605F0D1FD20B3DF
:101E300020222146144805F0BDFD144B1B68E3B178
:101E40009B68D3B1062222702046BDE81040184797
:101E5000FEF772FC0E4C082220700E49204605F059
:101E6000B7FD50B1082221460A4805F0A3FD074BF3
:101E70001B6813B15B68002BE6D110BDA8100020D1
:101E80001C21002014140020B0200020D0200020AD
:101E90000C140020D420002038B51C4B1B78D3B183
:101EA0009378C3B114785578844201D0854212D119
:101EB00085424C790CBF012100211144CC7014BF24
:101EC000012100215018C07828B1022B05D014D967
:101ED000D81E01280CD9012038BD505C2CB9FFF761
:101EE0009DFBFFF791FF0020F6E7FFF7CDFBF8E73A
:101EF000033B18BF01239942F5D0505C14B9FFF79A
:101F00008DFBE8E7FFF7C0FBE5E700BFAA21002053
:101F100010B5044600284FD0031FDBB2A02B27D8F2
:101F2000264B9B78012B0FD00023254A12F8011F66
:101F3000A14217D00133062BF8D12046FFF76EFBE4
:101F4000BDE81040FFF760BF1E4A92F90020002A4A
:101F5000EADA1D4A00F0070102EBD00292788B40CA
:101F60001A42EAD02046FFF78FFBFFF74DFFE4E768
:101F700000F12003DBB2072B08D80123134A00F03D
:101F800007041178A3400B431370D9E700F15B03FA
:101F9000DBB2022B05D8BDE81040243880B2FFF731
:101FA00005BB5834E4B21A2C06D8094B33F8140098
:101FB000BDE81040FFF716BB10BD00BFA810002001
:101FC0000D1400201C2100201414002016210020D4
:101FD0000483000810B58378012B10D10C88A4F17C
:101FE000E003072B00D944B909492046FEF76EFAF1
:101FF000E0B2BDE81040FFF78BBF0649F5E7022BC2
:1020000004D1BDE810404B688878184710BD00BF68
:10201000752000089D20000808B5034648B3021F3C
:10202000D2B2A02A05D8FFF72FFBBDE80840FFF782
:10203000EBBE00F12002D2B2072A07D800F0070356
:1020400001209840C0B2FEF7AFFBEEE700F15B0263
:10205000D2B2022A04D8BDE808400020FFF7A6BA91
:102060005833DBB21A2B04D8BDE808400020FFF734
:10207000B9BA08BD28B1034B1A7810431870FFF79E
:10208000C3BE70471621002008B528B1FEF78CFBAF
:10209000BDE80840FFF7B8BE08BD000028B1034BFB
:1020A0001A7810431870FFF7AFBE70471E2100204A
:1020B00030B1044A137823EA00031370FFF7A4BE7B
:1020C000704700BF1E2100208318B3F5006F10B4C5
:1020D0000C4605D803490144204610BC05F06ABCF3
:1020E00010BC7047B0160020002307B501220DF187
:1020F00007018DF80730FFF7E7FF9DF8070003B0F1
:1021000000BD042838B517D8052915D80E2A13D8CC
:102110001E23520003FB0122B42303FB002404F11D
:102120002900FFF7E1FF054604F12A00FFF7DCFF75
:1021300040EA052080B238BD0020FCE7F8B514461F
:1021400040F23E4700F2C1355618B44200D1F8BD06
:102150006FF47073EB18BB4206D82846FFF7C4FF34
:1021600004F8010B0135F0E70020F9E713B5044648
:10217000012100680DF10702FFF7E0FF23689DF8D9
:1021800007000133236002B010BD800070B500F27B
:10219000AD3481F001000D4604EB4000FFF7A4FFD1
:1021A000002D06460CBF032001202044FFF79CFFB2
:1021B00040EA062080B270BDCAB2C1F307210529EA
:1021C00082B006D80E2A14D8042812D802B0FFF71D
:1021D00098BFFD2906D162B904280AD8012102B0AE
:1021E000FFF7D3BFFC2904D11AB9042801D811463E
:1021F000F5E7002002B070477FB50424104BADF81E
:1022000004001D780F4B1B781D43EDB245FA04F313
:10221000DB0705D4013CF9D20026304604B070BD7E
:10222000BDF80430E6B2ADF80C3003993046FFF744
:10223000C3FFFEF7A9FB80B20128EBD0EDE700BF9A
:102240001A2100201921002013B502884379ADF826
:102250000420019873B169B1FFF7CEFF044601462F
:102260000198FEF7CFF92046019902B0BDE8104071
:10227000FFF7A2BFFEF7E4F90446F4E71FB5ADF897
:1022800004000198FFF7B8FFBDF80430ADF80C303A
:102290000399FFF791FF05B05DF804EBFEF774BBFF
:1022A00008B503792BB30088FFF7E8FFC3B2C0F38A
:1022B0000330062812D094BF0E30063000F00F0015
:1022C000012812D8F02B12D004D8E72B8CBF0020A5
:1022D000012008BDF43B58425841FAE7F12B18BFE2
:1022E000E72B94BF01200020F3E70020F1E7012055
:1022F000EFE71846EDE738B52520FFF7F5FE054670
:102300002620FFF7F1FE04462720FFF7EDFE262DDD
:1023100006D1082C04D1A0F120035842584138BD01
:102320000020FCE708B52820FFF7DEFE08BD0023EB
:1023300007B502220DF10601ADF80630FFF7C4FE25
:10234000BDF8060003B000BD006810B440B1054CF4
:102350008264E469083040F8044C10BC05F02ABBE4
:1023600010BC7047D01F00200168134631B18A6C41
:1023700003F108009A64083105F01CBB70470000A7
:102380000B7810B4082B0BD850F8230040B110BCC8
:10239000044B8264DB69083040F8043C05F00ABB5A
:1023A00010BC7047D01F00200829134609D850F8E8
:1023B000211031B18A6C03F108009A64083105F0EC
:1023C000F9BA704700238268037503691B6899682E
:1023D0009142FBD25A6803604260106058607047B7
:1023E00008B5302383F311880A7D0023052A06D817
:1023F000DFE802F00C050503130F8A6913604FF044
:10240000FF3308468B61FFF7DDFF002383F311885C
:1024100008BD8A699368013393604A680B6813604A
:102420005A60ECE703682BB10022026018469961FC
:10243000FFF7C8BF704700002DE9F04190F8343035
:1024400004463BB1836823F0011383600023C36318
:1024500080F83430A94904F1440304F14C0691F8A2
:10246000202003F8012BB342F9D163689B68DBB9E4
:1024700094F8443013F060053ED0002160229F4B59
:1024800099735A7499735A7463681B6813B106215F
:1024900020469847A36823F00113A3600023E36359
:1024A000062384F8343025E0204698470028DFD002
:1024B00094F84B3094F84A2042EA0322E36B9342AB
:1024C00084BF1346E26394F94420002A80F24881D5
:1024D000002B00F05381092384F83430302383F338
:1024E000118800212046E36BA26BFFF7E1FB00237C
:1024F00083F31188BDE8F08194F8452003F07F0351
:1025000043EA022340F20232934200F015811FD8C1
:10251000B3F5807F4BD00BD8012B42D0022B00F0BB
:10252000CA80002BA9D10222A663E2632364BFE71D
:10253000B3F5817F00F0EA80B3F5407F9DD194F838
:102540004630012B99D1B4F84C3043F0020337E008
:10255000B3F5006F51D01CD8B3F5A06F36D0A3F5FA
:10256000C063012B89D894F84920616894F84830F9
:102570004E6843EA0223204694F8462094F8471018
:10258000B04700283FF479AF4368A3630368E3636F
:102590001AE0B3F5106F35D040F6024293427FF453
:1025A0006CAF574BA3630223E3630023BEE794F8A9
:1025B0004630012B7FF461AFB4F84C3023F00203B6
:1025C000A4F84C30A563E563256471E7B4F84430A2
:1025D000B3F5A06F0DD194F84630484A84F84E30D8
:1025E000137063681B6813B10121204698470323C9
:1025F00023700023A363E36398E704F14F03A3630D
:102600000123C4E72378042B45D1302383F31188B9
:10261000A36804F10C0603F00113A36004F1180889
:1026200056F8047F6FB1786920B16FF001010C306A
:10263000FFF7F8FEB86920B16FF001010C30FFF729
:10264000F1FE46453560EBD100212C4B4FF0400C9C
:10265000DA79082602F00102DA7180275D72012220
:102660000D4610209A730132D2B2042A9D7483F869
:1026700011C05E745E745D751F7518751875F1D1A3
:1026800081F3118884F84F100321636821701B685F
:102690000BB12046984794F84630002BA9D084F817
:1026A0004F300423237063681B68002BA1D00221E4
:1026B000204698479DE794F8483003F00F0213F046
:1026C000800F0E4B9A7311D042B95A7C50070BD42D
:1026D000DB79DB077FF5D1AE0A4B63E7597CCD068A
:1026E00002D4DB791341F4E7074B5BE7002AECD017
:1026F000197D8906F8D45B7AF4E700BF00400140F9
:102700000E7B00080A7B00080C7B000894F846301A
:10271000002B7FF4B2AE94F8483013F00F023FF470
:1027200068AF13F0800F184B9A7302D040225A748E
:102730005FE780221A755CE794F84630002B7FF43F
:102740009CAE94F8483013F00F023FF452AF13F0F0
:10275000800F0D4B9A7301D01022E8E72022E9E7A1
:1027600063B1152384F83430302383F311880021BA
:102770002046E36BA26BFFF757FAB8E64821024AFE
:10278000937351748DE600BF0040014070B504465C
:10279000C5692E6BC26A6B6A9A4234BFC36A6B6AA0
:1027A000002B2FD1E26A002A39D1EB620223237079
:1027B00063681B680BB120469847302383F3118868
:1027C000002104F10800FFF72DFE002383F3118898
:1027D000F30716D5286A228E666AE36A616AD31AFD
:1027E0003344121A934228BF134699424FF6FF71A1
:1027F00038BF636AE3B9636A1BB9EB6A23F001036C
:10280000EB6270BD296EE26A013B013AE262A26AA4
:10281000002AC5D01170A26A0132A262C0E7E26A42
:10282000EB699A429EBFE36A03F1FF33EB61CFE7A6
:10283000626A013B013A6262226A0AB92966D9E7F3
:1028400012F8010B28662262D4E70000F8B5204C8C
:10285000861C04EB86035D6801466A69D2E90003C1
:10286000834218D3012223898A4023EA0203238169
:10287000AB680BB120469847302383F3118804EBF3
:1028800086046368002158690C30FFF7CBFD0023F4
:1028900083F3118817E00F4FB97317693B445360F6
:1028A000C31ADFD0288A984228BF1846936810615F
:1028B0003B449360084A184402EB8102984203D1DA
:1028C0000122044B5A74F8BD13F8011B1170F5E78F
:1028D000D81E00200040014020400140F8B5294C9E
:1028E000851C04EB85035E68274AB3699073014633
:1028F000107DC00739D59868917392F817C0927D02
:10290000224F42EA0C2207EB810700EB020C8445C0
:102910002CD1986810449860586810445860186822
:10292000801A1860188A013880B21882738A93421C
:1029300000D800BB012263898A4023EA0203638135
:1029400004EB85035B68DB680BB10E4898473023C6
:1029500083F3118804EB85046368986941680C303F
:10296000FFF760FD002383F31188F8BD97F800E0BE
:1029700000F801EBCBE7044A137D03F0FE03137567
:10298000F3E700BFD81E0020004001402040014076
:102990000368984207D01A68026050600022184607
:1029A0009A61FFF70FBD7047F8B500EB81039C6992
:1029B00005460E46002C4ED0302383F311880023A9
:1029C0002269616984F8A0308A4201D1E36803BBBF
:1029D00005EB8603DB685B691B68D3B1D4F8A430D0
:1029E00043B18A4201D1E2684ABB51F8042B9F6887
:1029F0001868B847E368E2690133E3606369204619
:102A00001344A2696361934224BF636A6361FFF761
:102A1000BFFF62692369934214D1E36893B105EB68
:102A20008603DB681A68022A12D15A6912687AB1E1
:102A30001B8A013B13400BD105F1440204E0002244
:102A40001146D4E752F8043B31462846FFF730F9E7
:102A5000002383F31188F8BD01F1090310B550F884
:102A6000234034B3302383F3118800EB8100C36823
:102A70009B695B68BBB194F87420236F204603EB1D
:102A80008203DB689B695A6823691A60E268013235
:102A9000E260E2691344A2692361934224BF636A3E
:102AA0002361FFF775FF2046FFF7E4F8002383F367
:102AB000118810BD38B504466FF0010520688442C6
:102AC00000D138BD036823605C608561FFF77AFC44
:102AD000F4E7026AC260426A4261026100228262D5
:102AE000C262FFF7E7BF00004FF4006208B50021A3
:102AF000044804F057FF40F60803024AC2F80038C1
:102B000008BD00BFB016002010B50C4682680169F0
:102B10002046FEF73DFD094AE1781378207923EA43
:102B200001031370FDF740FEFFF76EF92046BDE884
:102B300010400822002104F035BF00BF1E210020F4
:102B400038B54B7905469A070C4613D4104A43F022
:102B500002034B71CB7811780B4313700D4A237924
:102B600011780B431370FFF74FF920466A68296903
:102B7000FEF70EFD0022084B1A806379DB0705D4AF
:102B800021462846BDE83840FFF7BEBF38BD00BF2C
:102B90001E21002016210020AC210020084B9B782C
:102BA000012B09D1074B93F90030002B04DA1E22C8
:102BB0000021054804F0F6BE062200210348F9E78B
:102BC000A81000201C210020161400200E14002044
:102BD00010B50024074B1C70FFF7E0FF2046FEF7FE
:102BE000E5FC2046FEF7FEFC034B1C70BDE81040E0
:102BF000FFF70AB9162100201E21002008B58378AE
:102C0000022B06D9FFF7E4FF024B034A1A60FEF7D6
:102C10006DFD08BDFC6F0020EFBEADDE2DE9F84371
:102C2000052900F2D680DFE811F0A700D4000600E5
:102C3000A700A700D600302383F3118800273E4663
:102C40006D4D6E4CD5F8883095F88C9003EB890863
:102C500005F13803C8F80C30E86C18B114220021D3
:102C600004F0A0FE286D18B11422002104F09AFE91
:102C7000D8F80C2009F00F01A173136803F00303C7
:102C8000002972D0022B4AD0032B48D0012B22D12D
:102C900053690BB99369F3B1E020584B4FF0010C25
:102CA0009874108A0CFA01F1C00818744020587406
:102CB000082058745874D8790843D871C0205875C2
:102CC000528AD208DA7480221A7510221A751A757F
:102CD0005A7A1143597228460137FFF7FAFE032F3B
:102CE0002E7205F1A805ADD1454C636A204663619B
:102CF0002361E660A662E662FFF7DCFE20462672EC
:102D0000FEF7B8FF86F311883E4B1B7813B1052000
:102D1000FEF78AFD0220BDE8F843FEF785BD536942
:102D200073B10023A374138A0120DB0823744023AA
:102D30006374082363746374E37988400343E37125
:102D40009369002BC7D000202C4B5875528A012064
:102D5000D208DA7480221A7510221A751A755A7AF6
:102D600000FA01F10A435A72B5E7002BB3D1E379B7
:102D700043F00103E371AEE70846FEF755FD30234B
:102D800083F31188002501261B4C20462672FFF78D
:102D900091FE2046FFF79DFED4F8A43013B1DA6807
:102DA000186890470135032D04F1A804EDD10123E3
:102DB0000025134C20462372FFF77CFE636A2046F1
:102DC000E56063612361A562E562FFF773FE85F349
:102DD0001188BDE8F883302383F311880023064A65
:102DE000137282F8B03082F85831054A137283F3B7
:102DF000118805208FE700BF280E00200040014009
:102E000020100020D71E002010B50446006840B1F5
:102E1000826C0021083004F0C5FD002223681A608E
:102E20005A6010BD70B50026051F00F1200455F84A
:102E3000040F38B1826C0021083004F0B3FD2B6818
:102E40001E605E60A542F2D170BD00000022082322
:102E50001146014804F04ABD0C080040F7B51F4672
:102E60004BBA090C064615468DF80400ADF806303D
:102E70008DF80510FFF7EAFFE8B104210DEB010022
:102E800004F066FD044648B945B1022E0BD0032E6E
:102E90000ED12846B9B204F065FD044604F06CFD7D
:102EA000204603B0F0BD2846B9B204F051FDF4E766
:102EB0004FF0FF34F2E74FF0FF34F1E7054BD968EC
:102EC00008751868026853601A6001220275D8609C
:102ED000FDF776B9D01F002070B5184C4B1CE56883
:102EE00086B028D0164B04950393002305932369DD
:102EF0009A6891421CD85E68029101960093C6F8C8
:102F000000D04FF0FF369A68C3F804D0521A9A6086
:102F1000A661FFF7D3FF009B3BB19A6802990A4470
:102F20009A60019A13605A60A661A86906B070BDE4
:102F30001B68891ADCE7FFF7C1FFF6E7D01F002006
:102F4000E1230008034BDB68036098610320FFF76F
:102F5000B5BF00BFD01F00207047C9434FF05533A5
:102F6000016302F003015943016042F380014160B3
:102F7000C2F3C10159438160C2F341115943C16099
:102F8000C2F3C1214B43C3624FF01133C2F3C312EA
:102F90005A4302624262704708B5302383F31188B6
:102FA000012100F00F039940202220F00F00FFF7CD
:102FB000D4FF002383F3118808BD0000464A13B5EF
:102FC000464B52F8041C99420CD1002342F8043CB1
:102FD00083F31488424B1A6882F3088862B65B68F0
:102FE0009847FEE70C20032440F2BE713D4B3E4A59
:102FF0009C62D862C2F8941000219962D9629C62E6
:10300000D8628020C3F81C0CD3F81C0CC3F81C0C2D
:10301000009101914FF40141C3F8481C4FF6FC7137
:10302000A3F5744319630F2119600223136501236B
:103030004BF68031D364936D03F001030193009B41
:1030400001330093019B13B9009B8B42F3D1019B89
:1030500003B9FEE7254B26498024C3F8001400215C
:10306000A3F5884399611C62196A01201962202125
:10307000586019601968196019680143196054672C
:103080009067D16F0329FCD102229A6001220021AE
:10309000DA60144A9162D1629A6C42F400429A64F6
:1030A0009A6CDA6C42F40062DA64DA6C9A6C42F080
:1030B00020029A649A6C9A6C42F040029A649A6C6C
:1030C0009A6C42F080029A649A6C9A6C42F4807214
:1030D0009A649B6C02B010BD00700020EFBEADDEA4
:1030E00000E0FF1F000001400004014000500140CB
:1030F000130000037047FEE7F0B508200026104AD1
:10310000516813680D469468043BAC4210D8E31C28
:103110005B1ACD1E23F00303AC4238BF00230B44DF
:10312000D168994209D8013802F11002E8D1F0BD06
:1031300053F8047F45F8047BE7E743F8046BF0E7B6
:10314000107B00080C4B10B41868D96802685360F3
:103150001A600122D860002302758A680B750B691A
:103160001B689C689442FBD810BC5A680B604A608C
:1031700011605960FDF724B8D01F0020044B1A6875
:10318000DB6892689B689A4201D9FFF7DBBF704702
:10319000D01F002070B5EFF3118525B9EFF305833B
:1031A000302282F31188174B174E1849DC693368B7
:1031B0000A68E41AA242164A0AD9A3F58333E03B0F
:1031C00010683360134B04F58334C318E034136084
:1031D00016680C6035B9EFF30583C3F308036BB1D0
:1031E00085F311884FF47A7500210B480023E4FB26
:1031F00005010A4AFCF7FAFF304470BDFFF7BEFF35
:10320000EEE700BFD01F0020C01E0020BC1E002023
:10321000B81E002088598F029F860100A0860100F9
:103220002DE9F84388461746994600250E4E2A0197
:10323000B35C06EB05149BB901236070B354FFF730
:10324000A9FF9DF820307F00A3739DF824306060B3
:10325000C4F80880277384F80D90E373BDE8F88301
:103260000135142DE3D1F9E7B02100202DE9F84311
:103270000025074688462E461D4C2378002B30D06B
:10328000D4F80490FFF786FFA368A0EB09008342FF
:103290001AD8FFF77FFF237B606083B926706660D2
:1032A0006078B8421DD340451BD2E37BA27B617B93
:1032B00083F0FF0382F0FF0281F0FF010FE0013B8A
:1032C000DBB22373002BE9D0237BDB07E8D56078E2
:1032D000874206D8804504D9E37BA27B617BFDF75A
:1032E000B1FD0135142D04F11004C6D1BDE8F883F9
:1032F000B0210020134B10B51870134B134C997864
:10330000DA78617012495B7800EB4000A2700144EA
:1033100003221048237004F04DFBFFF73BFF01220E
:103320000D4B18600D4BA0781A7000220C4B1A70D0
:1033300023786278BDE8104043EA022343EA004064
:10334000FDF7ACBF8021002070210020BD100020BF
:10335000DA830008BA1000207C21002079210020A7
:103360007821002008B5FFF715FF0D4B18600D4BB5
:103370001A78A2B10C4A12788AB91A700B4B0C4910
:103380001B7803EB4303CA18CB5C5178907843EA6F
:10339000012343EA0040BDE80840FDF77FBF08BDB8
:1033A0006C210020782100206A210020802100204B
:1033B000DA8300082DE9F04F002401264FF0300891
:1033C00089B0DFF89092A44F05940694079459F8B9
:1033D000041B4B1C40F0CD800134E4B276000F2C6E
:1033E000B6B2F4D10C229D4805A904F0F1FA0546C5
:1033F00020B10C22994805A904F0DCFA0027DFF877
:103400006082984E98F800403770002C00F01D81C3
:10341000FFF7C0FE944A13681060C01A59D07F2885
:1034200028BF7F203A46BB46BA4601909DF804303B
:1034300096F800C003938D4B88F800708C4EDFF82F
:103440001CE2DFF830821F700297002102EB0109B5
:1034500018F809305F0821D00198874200F3DE8018
:1034600023F0FE0308F8093013F0010340F0DE807A
:1034700001233788BEF800908B4003EA090927EA48
:10348000030349EA03035F40BFB257EA0C0714BFC6
:103490004FF0010C4FF0000CA346338001310F298F
:1034A000D4D10F325A2A06F102060EF1020ECCD107
:1034B000029B13B101226D4B1A70BBF1000F02D0B9
:1034C000684B83F800C0BAF1000F02D00122644BB0
:1034D0001A7045B9654B1B78002B47D01CB9FFF714
:1034E00059FE614B18600022604B92461A704FF0F3
:1034F00001091346DFF864E15D4D5E4E00203EF8A1
:10350000028B35F8027B88EA070702EB000C16F8FD
:103510000C1009FA00F427424FEA510B00F08880A2
:10352000BBF1000F12D118EA040F14BF01235B4650
:1035300043F00A0306F80C3013F0010300F0838017
:103540009A4635F8021C4C4025F8024C01300F28F1
:10355000DBD10F325A2AD1D1BAF1000F02D00121AA
:10356000404A117013B101223D4B1A7009B0BDE8F9
:10357000F08F88F31188012221F00F0001F00F0174
:1035800002FA01F529462D04FFF7E7FC85610023C7
:1035900083F3118800BF00BF00BF00BF00BF00BFA2
:1035A00000BF00BF00BF00BF00BF00BF00BF00BF23
:1035B00000BF00BF00BF00BF00BF00BF00BF00BF13
:1035C00000BF00BF6FEA060C2B4D05A855F8041B81
:1035D00030F8022BB1F1FF3F1DD021F00F0EDEF8C5
:1035E00010E001F00F012EFA01F1C90713D43243A4
:1035F0000133DBB2062B20F8022CE7D159F8040C7A
:10360000431C01D0FFF7C8FC7A687B689B1AB3F5AE
:10361000346FFAD3E0E602EA0C02E9E70398A24627
:103620003F1A67F3470308F8093037E7029335E795
:10363000BBF1000F8AD011F0010487D164F3470178
:1036400006F80C1082E7012380E7002D3FF442AF1B
:1036500045E700BFB0820008001000E0A220002073
:103660009420002095200020902000208E20002013
:103670009620002034200020EC82000838B5FFF7A7
:1036800089FD00F57A75FFF785FD854214D9FFF7AE
:10369000DDFBA0B1052004F039F904F049F9044636
:1036A00004F06AF9002C04DB14F00104EBD120468D
:1036B00038BD231DE7D0FAE76FF00104F7E74FF0BC
:1036C000FF34F4E710B5FFF7D9FF044608B1002036
:1036D00010BDFFF7BBFB28B94FF0FF30B0FA80F008
:1036E0004009F5E7062004F011F904F045F92346F6
:1036F00022462146D820FFF7B1FB0028E7D1FFF78B
:10370000BDFFEBE710B5FDF717FA0446FFF7DAFF48
:10371000FFF7EAF9012C03D1BDE81040FDF718BA14
:1037200010BD2DE9F04180460C46D600FFF7A6FFFC
:10373000054648B132460021204604F033F9B5FA77
:1037400085F04009BDE8F08133462246414603201A
:10375000FFF784FB05460028ECD121462644D1E939
:103760000023D243DB4341F8082BB14241F8043C2B
:10377000F5D1E4E72DE9F04F064614464FF0000975
:10378000C3B00091202C254628BF2025009B4FEA7E
:10379000C50A524603EBC90102A804F00BF9002246
:1037A00002ABD3E90001C043C943013243F8080B1F
:1037B000954243F8041CF4D15746B0460DF1080B6E
:1037C000FFF75CFF78BBFFF741FB60B35FFA88F35C
:1037D000C3F580730620BB4294BF0193019704F0A8
:1037E00095F804F0C9F85A4641460220019BFFF7BC
:1037F00035FBC0B9019BFF1A9B449844E0D1FFF709
:103800003DFF80B9FFF722FB074660B1042004F0BA
:103810007DF804F0B1F8641B5644A944B2D138468F
:1038200043B0BDE8F08F0027F9E700002DE9F3472A
:10383000FFF748FF002859D0FDF77EF92C490546CF
:103840004FF480720020FFF795FF294C002843D1E8
:103850000146012D01D1FDF77BF940F60803C4F8BC
:103860000038084602B0BDE8F08717F8013B4FEA80
:103870004E195A40A2FB003800FB0E884FEA421A4C
:1038800049EAD26913EB0A0348EB09084FEAC21A66
:103890009B184FEACE194FEA02264EEB080849EA78
:1038A000526913EB0A034FEA0E2E48EB09084EEA61
:1038B000126E9B1948EB0E0EB64413EB0C02013945
:1038C000D3D16946CDE9002E4FF400600122FFF705
:1038D00051FF4000C1B2BCE740F6010127464FF05E
:1038E000000C1220034ADFF810E0E8E70146B8E7D1
:1038F000B016002025232284E49CF2CB044BD3F89D
:103900000038B3F5805F01D3FFF790BF0120704707
:10391000B01600202DE9F04F8318B3F5006F044670
:103920000E46154685B050D8DFF8A4A000EB0A0774
:103930003946304604F04CF8002846D02A46314635
:10394000384604F037F8FDF7F7F84FF000088346E3
:103950004FF000094DB9FFF7D1FFBBF1010F34D192
:1039600005B0BDE8F04FFDF7F3B8052D2F4628BF91
:103970000527C4F3024343EAC703CDE900893A4669
:1039800031468DF800300DF10300230A8DF8013027
:103990008DF8024004F00EF8DDE90023DAF80008A3
:1039A000CDE9022302A90122FFF7E4FE0028D4D0CA
:1039B000DAF800380833CAF80038FFF79FFF01280B
:1039C000CBD1ED1B3C443E44C4E705B0BDE8F08FCD
:1039D000B0160020F8B50D4606461446D31D23F058
:1039E000070300AFADEB030D69462846FEF76CFBFD
:1039F00022466946304603F0EBFF20B122463146AD
:103A00002846FFF787FFBD46F8BD0000082208B52D
:103A100017210348FFF7DEFF0022024B1A7008BD92
:103A200070210020C41E002010B5084C052320463C
:103A3000032200F8013B064903F0BCFF4FF67F73F9
:103A4000A380BDE81040FFF7E1BF00BF7021002058
:103A5000F0790008F0B585B010220021684603F027
:103A6000A1FF442440F23F4540F2C137102D2E46BD
:103A700028BF1026394632466846FFF7ABFF013CA7
:103A80003744A5EB0605F1D105B0F0BD37B50C46BE
:103A90000546FEF729FBA04207D0012228460DF17A
:103AA00007018DF80740FFF735FF03B030BD04284C
:103AB00038B51D4616D8052914D80E2A12D81E234B
:103AC000520003FB0122B42303FB0024290A04F162
:103AD0002900FFF7DBFFE9B204F12A00BDE8384016
:103AE000FFF7D4BF38BD042870B516461D4614D85C
:103AF00099B9800000F2AD3482F0010004EB40007F
:103B0000190AFFF7C3FF002E0CBF03200120E9B202
:103B10002044BDE87040FFF7B9BF70BD2DE9F74FF5
:103B20000024194EDFF864A0D14600255FFA84F81E
:103B30000FE0FAB240463BF8023B01370191FFF734
:103B4000B6FF0F2F0199F4D10135062D09F11E0999
:103B500003D0CB460027E9B2EBE7338801220021EE
:103B60004046FFF7C0FF00227388114640460134EB
:103B7000FFF7B9FF052C06F104060AF1B40AD3D108
:103B800003B0BDE8F08F00BFE87F0008647C000848
:103B900008B5FF212520FFF779FFFF212620FFF739
:103BA00075FFFF212720FFF771FF00212820FFF775
:103BB0006DFFFFF7B3FFFFF74DFF26212520FFF72D
:103BC00065FF08212620FFF761FFBDE8084020219E
:103BD0002720FFF75BBF37B50C460546FEF7A7FB6E
:103BE000A04207D0022228460DF10601ADF806409A
:103BF000FFF790FE03B030BD094A08B55378C3F310
:103C0000800181420BD060F382035370042011883D
:103C1000FFF7E1FFBDE808400220FCF775BD08BDD5
:103C20001C21002037B5042200230C460DEB0201B5
:103C300001930546FEF748FA019B9C4206D00422F8
:103C400028460DEB02010194FFF764FE03B030BD7E
:103C500008B5FFF757FD4FF6E3610020FFF7BBFF04
:103C600000210220FFF712FF01210D4B03201970E4
:103C7000FFF70CFF4FF4A0510420FFF7ACFFFFF754
:103C8000D3FEFFF785FF00210F20FFF7CBFF0021B8
:103C90001320FFF7C7FFBDE80840FFF7B7BE00BF1E
:103CA0001921002008B58378022B05D9FFF7D0FF32
:103CB000FEF78EFFFDF71AFD08BD00002DE9F04F5D
:103CC0009E4C97B0D4F80080FFF764FA8146A0EBD1
:103CD0000806FFF75FFA00212060994C0F4694F820
:103CE00000C008F57F436546FF33A3EB090ECBB256
:103CF0009C4510D807B12570924C934E23783578A7
:103D00001A460493032A00F2B280DFE812F0190089
:103D10002D003F034B0301F10C0204EB42025378E8
:103D200092F80280013143EA08239E4523BF9B1984
:103D300053701B0A012734BF05F1FF359370D6E796
:103D40000022824B7E491A70814B292218608148DB
:103D500003F030FE804B1B7813F0030218BF9A0863
:103D600001233270237082E07C4B7B4A1B78AB428C
:103D700020D17B491378097803F003035B1A18BF3D
:103D80000123724F1E46BB7053797A789A4205D050
:103D90000022114610467B70FDF714F9092D0BD84F
:103DA0006B1E082B0DD8DFE803F0144C6567696BB8
:103DB0006D7173000123E4E7FF2D00F049810020BD
:103DC00042E0002EFBD0002211461046FDF7FAF823
:103DD000F5E73878FDF7F8F8624906460322ADF8B2
:103DE000440012A803F0E6FD1298FCF7BFFEDFF8CE
:103DF00078B1C0F30722C0F30743C6F307248DF858
:103E000038008DF839208DF83A305FFA80F85FFA83
:103E100082FA5FFA83F9F6B2F3B29C4204D8502CCE
:103E20008CBF002001200FE07B781BF806201A428F
:103E300005D04B46524641463046FDF703F8013661
:103E4000EAE74A48FDF7D2F8404B1A7801321A7077
:103E5000002840F04A8102213A4A9B781170002BD9
:103E600040F04381002D40F005810323137017B00B
:103E7000BDE8F08F3E48E5E73E48E3E73E48E1E72E
:103E80003E48DFE73E48FDF707F9DDE73D48FAE742
:103E9000304B38781B78DFF8C0905E1E0593FDF735
:103EA00093F8394BC4B203EB4407FC3326EAE676B9
:103EB000ADF84000C0F3072B0993E3B29B4502D84D
:103EC000BBF1500FACE7214B099A5B78125D1A42A7
:103ED00030D00322234911A803F06CFDB046002224
:103EE00099F8033008931B4B06EB030A05995FFA18
:103EF00088F399424AD8089B03FB022212128DF8DC
:103F00004620119BADF848301B0C8DF84A301298B2
:103F1000FCF72CFEC0F30722C0F307438DF83C00EA
:103F20008DF83D208DF83E30C1B2DBB22046D2B2D2
:103F3000FCF788FF01340237BFE700BFE815002017
:103F40002C1F0020060E0020EC150020070E00207C
:103F5000F01500208121002070210020050E002096
:103F6000040E00207121002044820008210C00086A
:103F70008D0C0008B50C0008ED0C0008250D00089C
:103F8000750D0008AF0D0008488100081AF8013FC0
:103F900097F85A1097F85BC0C81A9AF8081006905C
:103FA000ACEB010307935B4300FB003080B20128B8
:103FB0002BD8C3B299F80400B5490130FF2828BFB7
:103FC000FF2008F10C0C01EB4C0C9CF801109CF844
:103FD00002C08DF8462041EA0C2100FB0111C1F31B
:103FE0000F211198079A00910699FCF7FCFEC0F387
:103FF0000742C0F307238DF846208DF844008DF862
:104000004530D2B208F1010870E7B0F5F75F8EBF16
:104010004FF0FF0C4FEA501C0CF1080C049998BFAC
:104020005FFA8CFC01EB0C035B1003FB03FE1FFA31
:104030008EFE704507D2013B5FFA83FC6145F1D9E2
:104040000139CBB2B6E7FF2BB4D00133D9B2F5E7D3
:10405000904B1B68C3F38123022B3FD0032B41D02D
:10406000012B4FF0000236D011461420FCF7AAFFB6
:1040700002232370884B894F1878DFF82482013897
:10408000C0B2FCF7A1FF3B78ADF82C00C4B2C0F37E
:10409000072573B329462046FFF7E8F83B781BB1A4
:1040A00029462046FCF706FF98F80030002B3FF425
:1040B000DEAE9A077FF5DBAE372C3FF6D8AE372D54
:1040C0007FF6D5AE0023FF211A46372017B0BDE892
:1040D000F04FFCF7B7BE14211046C7E700211422A9
:1040E0000846C3E714221146F6E7002D3FF4BFAEA1
:1040F000C0E798F800603046FCF71FFA30B929464F
:10410000204617B0BDE8F04FFFF7B0B8B6BB98F83F
:104110000030002B47D198F80030002B00F0E780EA
:104120005A0740F1E480452C00F22981452D40F2E8
:10413000D9800023FF211A464520FCF783FE2C2C52
:1041400000F243810023A522FF212C20FCF77AFEF8
:10415000302D40F2CC80FF22002311463020FCF7A6
:1041600071FE4A2D00F20281412D40F2C0800023F1
:10417000FF211A464120FCF765FEB8E0730701D421
:10418000F006C4D526460BE0B44207D8B54205D99F
:10419000002330461A461946FCF754FE0136F6B2A3
:1041A000B542F1D2B3E79907B5D54FF0800A4FF089
:1041B00000090D223B4912A803F0FCFB0D23294600
:1041C000204612AACDF808A0CDF804A0CDF80090A2
:1041D000FCF73AFE0322344910A803F0EBFBFF265C
:1041E000402329462046019310AA032302960096F5
:1041F000FCF72AFE40F23F3329462046ADF8303026
:104200000CAA0223029601960096FCF71DFE40F2CE
:10421000024329462046ADF834300DAA0223CDE9E9
:10422000009A0296FCF710FE0322204911A803F021
:10423000C1FB032329462046CDF808A00196CDF8FE
:10424000009011AAFCF700FE272C10D8272D07D9C3
:104250004B46A52231462720FCF7F4FD372D27D801
:10426000162C3FF658AF162D7FF655AF33E0372C9E
:10427000F4D9402C22D9502C3FF64DAF502D7FF66B
:104280004AAFFF2300227A215020FCF7DBFD1FE01C
:1042900081210020F0150020070E00206A21002057
:1042A0001A210020007A00080E7A0008127A00080D
:1042B0000023FF211A463720FCF7C4FD402DCFD93B
:1042C0000023FF211A464020FCF7BCFD502DD8D812
:1042D000162C3FF620AF8023E022FF211620FCF7AA
:1042E000B1FD18E72C2C6CD82C2D3FF62BAF98F88D
:1042F000003063B3DB062AD51C2C07D81C2D05D94A
:104300000023FF211A461C20FCF79CFD1022314996
:1043100012A803F04FFB10260DF1480818F8010B06
:10432000844206D8854204D90023FF221946FCF7AF
:1043300089FD013E16F0FF06F0D1142C07D8142D8C
:1043400005D9FF2332467A211420FCF77BFD29464C
:104350002046FEF78BFF3B78002B3FF488AD2946C3
:10436000204617B0BDE8F04FFCF7A4BDFF230022A4
:104370007A214A20FCF766FD412CB8D8F7E64A2C92
:10438000B5D84A2DF2D8412CB1D8EDE6124B134ADC
:104390001D70134B1B78C3F301031370FDF7A2F8D4
:1043A0000323DFE40F4B1B780BB1FFF72FFB0E4B02
:1043B0001D68FEF7EFFE401B0F287FF658AD002367
:1043C000D0E4302C7FF6C4AEDDE7302C7FF6C3AEF0
:1043D000D7E700BF167A0008050E0020040E002063
:1043E00070210020C41E0020F01500202DE9F74F99
:1043F000302307469146009183F31188A824504D3D
:1044000004FB0054D4F888301B78042B4FF00003D1
:1044100004D083F3118803B0BDE8F08F94F8A02096
:1044200042F21078002A18BF4FF0000883F3118879
:10443000302383F311884FF0000A009EDFF804B1A7
:10444000A26A3AB9E26852B32269111DA162E16918
:104450000A44E262A06AE26AA9EB0A01121A8A42DD
:1044600028BF0A46402A44D93146402203F0A2FA26
:10447000A16A403640310AF1400AE26AA1628A42EA
:1044800004D8E16920460439FDF7BAFB002282F323
:104490001188D1451CD9302282F31188D0E7227AC5
:1044A00082B9B8F1000F0DD0DBF80C206168146000
:1044B000516004200A6042F210716260FEF70CFD48
:1044C0000028BFDA4FF0000B8BF31188D1451AD8C2
:1044D000302383F31188A82303FB0755A96A31B160
:1044E0002B690439C91A02D02046FDF789FB002345
:1044F0008FE73146019203F05DFA019AA16A1644F2
:1045000011449244B9E7302282F31188A82606FBB1
:10451000075696F8A0202046BAF1000F08BF42F0D7
:10452000010286F8A020FEF7C5FA2046FEF7D1FA70
:1045300086F808B0FEF722FE8BF3118878E700BFFB
:10454000280E0020D01F0020014608220120FFF77E
:104550004DBF014620220020FFF748BF014603223D
:104560000020FFF743BF20290A4603D1014602205D
:10457000FFF73CBF70470000302383F31188034BE3
:10458000DB6898610F20FEF799BC00BFD01F0020A8
:1045900008B50146302383F311880820FEF79CFC00
:1045A000002383F3118808BD38B5392814BF0A25C4
:1045B00050250446FDF7ACFC40F2E7300021DFF85F
:1045C00020C00023E5FB0C014FF47A72FBF70EFECE
:1045D000FFF7DEFF2046BDE83840FDF71DBD00BFF8
:1045E000A08601002DE9F0411F460C461646244BDB
:1045F00068B11970FEF7CEFD224B04F00704188055
:104600000120A040C0B2BDE8F041FDF733BD1D78E8
:104610008D422DD11B4BB3F80080FEF7BBFDA0EB04
:10462000080080B2C72823D806F12004B542E4B2BE
:1046300010D005F00700012505FA00F0C0B2FDF723
:1046400023FD072C06D806F0070305FA03F0C0B2D5
:10465000FDF710FD3846FFF7A7FF072C0DD8012006
:1046600006F00706B040C0B2BDE8F041FDF70CBD52
:10467000012004F00704A040F5E7BDE8F08100BF89
:1046800014210020F01400202DE9F04F0379064694
:1046900089B0002B00F064870121FDF7D5FD737907
:1046A0000546A3B1B54B1C888CB1A04210D0E0B236
:1046B00002289CBF1422B24B4FF000018CBF002493
:1046C00002FB0034FCF732FF0146002849D12C469A
:1046D00073790BB1FEF746FE31462046A94AFDF735
:1046E000DBFB50B331462046A74AFDF7D5FB20B38C
:1046F00047F62B039C4245D17379002B00F0928141
:1047000001210846FCF77EFDFF2300240322C82177
:10471000502001930093FEF783FD23460322C82116
:104720004F2001940094FEF77BFD23460322C8210D
:10473000204601940094FEF773FD944B1B785F07AD
:1047400000F00E877379002B00F00A87904B5B789E
:104750005D0740F10587022009B0BDE8F04FFBF787
:10476000D3BF4379058043F0040343712046FEF72D
:10477000E7F90022874B012130461A70FDF764FDEE
:104780000446A5E747F213039C4200F0D080A4F54D
:10479000FC42A2F140039BB2042B00F24381413A58
:1047A0007379032A00F22881DFE812F02D0133012A
:1047B0000400AB00002BC0D0774D784B2978744CA7
:1047C000DFF8DCC1774F002943D04FF000089CF898
:1047D000002083F80080237885F8008062F30413BA
:1047E00023703B7853B1704B1C68FEF7D3FC6F4AC3
:1047F00087F8008013681B1B03441360FEF7CAFC94
:104800006B4B18606B4B1878FEF774FD2C78002CFE
:1048100058D00024FF230322C8212F2001940094A4
:10482000FEF7FEFCFF230322C821342001940094EC
:10483000FEF7F6FCFF230322C821332001940094E5
:10484000FEF7EEFCFF230322C821019400943520DB
:1048500071E701201870584BDFF860E11A7893F87F
:104860000280C2F385028EF80020554A93F803E0D7
:104870005B7882F801801370237882F802E0C3F33A
:10488000001243F010038CF8002023702870FCF70E
:10489000B9FC23781A0605D4FEF79AF9237843F079
:1048A0008003237001233B70FEF774FC3E4B454AA6
:1048B000186000231370444A1370444A1370FCF7C5
:1048C0007FFCA3E7FF252346022296212F20CDE976
:1048D0000045FEF7A5FC2346022296213420CDE9AF
:1048E0000045FEF79DFC2346022296213320CDE9A8
:1048F0000045FEF795FC234602229621CDE90045AE
:10490000A5E7002B3FF419AF03232A4C2078013090
:10491000B0FBF3F303EB4303C01AC0B2FEF7EAFCAB
:1049200013202178FFF77EF9FEF71CFD05E7737968
:10493000002B3FF402AFFEF74BF9154A137883F0D2
:104940008004E40964F3C7131370002C42D00C22D6
:104950001F4905A803F02EF80024FF2705AD019795
:1049600000970134FF230322C82115F8010BE4B29C
:10497000FEF756FC0C2CF2D1DFE600BFAC21002084
:10498000C0100020B5100020B01000201B21002016
:104990001C2100201E2100206A210020AA210020C5
:1049A00011210020102100200C21002004210020D2
:1049B0006C2100208021002070210020AF100020F9
:1049C000AC1000207921002078210020082100204F
:1049D000277A00082746884B05AD05930197009775
:1049E0000134FF230322962115F8010BE4B2FEF7F0
:1049F00017FC042CF2D1A0E6002B3FF49EAE01225E
:104A00007E4B1A7099E6002B3FF497AE00227B4B49
:104A1000F7E7002B3FF491AE784A137883F0010357
:104A200013708AE67579002D00F0F880A4F5EE4346
:104A30009BB27F2B00F2F280E4B20F2C3FF67DAEEA
:104A4000012140F23E4005AAFDF778FB9DF8145085
:104A5000002D7FF472AE40F23F47BCB90595684F18
:104A6000684DDFF8A48105A8FDF780FB00283FF41E
:104A700064AE01285DD105A8FDF778FB431E04460E
:104A8000032B19D8DFE803F0131F252BBD423FF499
:104A900054AE0121284605AAFDF750FB9DF81430BD
:104AA0000BB10135F2E7013CE4B20135D5E705A8C9
:104AB000FDF75CFBFFF778FD4FF47A70FFF768FDB8
:104AC000002CD0D139E605A8FDF750FBFDF720FA00
:104AD000F2E705A8FDF74AFBFDF79EFAECE705A80B
:104AE000FDF744FB4FF0000904464FF00A0BDFF8D6
:104AF0001CA11AF8041011F0040110D1B9F1000F33
:104B000015D040F2E730DFF808C14FF47A72002385
:104B1000C9FB0C01FBF76AFBFFF73AFDCCE705A8E0
:104B2000FDF724FB303C0BFB09490446E1E701207B
:104B3000F2E7C0F3C7023749BB5C2C5C18F802905F
:104B400000F0070011F802A0034149FA00F94AFAFF
:104B500000FA13F0010B09F001090AF0010A0AD06A
:104B60002D4A137843F002031370FDF74DF94FF40B
:104B70007A70FFF70DFDB9F1000F0AD0264A1378BD
:104B800043F040031370FDF73FF94FF47A70FFF7DD
:104B9000FFFC2046FDF7BCF94FF47A70FFF7F8FCF4
:104BA0002046FDF739FA4FF47A70FFF7F1FCB9F1BE
:104BB000000F08D04020FBF7F7FDFDF725F94FF473
:104BC0007A70FFF7E5FCBBF1000F08D00220FBF77D
:104BD000EBFDFDF719F94FF47A70FFF7D9FCBAF144
:104BE000000F3FF440AF2C20FFF7DEFC4FF47A704B
:104BF000FFF7CEFC37E700BF46443839AA21002032
:104C00004A8300085A8300083A830008E4830008B6
:104C1000A08601003A83000816210020A4F5AE43C7
:104C2000FF2B00F28680E0B2022881463FF685AD78
:104C30002946FCF77BFC074600283FF47EAD43790C
:104C4000DFF8A48265F300034371002D5BD0FEF70B
:104C5000A1FAA64BA64A1880BB7812780133BB7024
:104C6000A44B38461B781343FB70A34B1B783B7156
:104C7000142303FB09F308EB030158F80320096927
:104C8000FCF786FC7B7913F0020F0CBF2246002252
:104C90009A4B1A807279002A00F03C840021984BCC
:104CA000A4F5E0451970ABB2222B00F24184042038
:104CB000FDF73DFB934C013D2080212D62D8DFE8BC
:104CC00015F09F000A01A70071007500AB00790084
:104CD000AF00BB00850002018900BF008D00C3004A
:104CE000E9009100C700F1009700CD00D5007D00DC
:104CF000B3008100B7009B00D100E000FB00000181
:104D00006C00A3002301142303FB0988D8F80C20AE
:104D1000D8F81010FCF73CFC7B799B07BAD53946D4
:104D20004046FDF7F1FE754B1A88A242B2D11D80B4
:104D3000B0E7A4F5F843183B062BABD8DFE803F047
:104D40000F13040B171B1F00E122262311462846D0
:104D5000FFF748FCF1E42723E522E521F7E72623C6
:104D6000E122E021F3E72723E522E421EFE72623F0
:104D7000E122E221EBE72723E522E621E7E72823EA
:104D80000122EAE7237843F00103237004202188FD
:104D9000FEF721FFFDF71CFFCFE4637843F0080323
:104DA0006370F3E7237843F00203EEE7237843F0E0
:104DB0000403EAE7237843F00803E6E7637843F067
:104DC0000103EDE7637843F00203E9E7237843F05A
:104DD0001003DAE7237843F02003D6E7237843F083
:104DE0004003D2E7FDF7F4FE237843F08003CCE7DD
:104DF000237843F00C03C8E7637843F00303CFE75D
:104E0000237823F00103C0E7637823F00803C7E7A2
:104E1000237823F00203B8E7237823F00403B4E7F0
:104E2000237823F00803B0E7637823F00103B7E7A2
:104E3000637823F00203B3E7237823F01003A4E799
:104E4000237823F02003A0E7237823F040039CE796
:104E5000FDF7BEFE237823F0800396E7237823F046
:104E60000C0392E7637823F0030399E72378C3F3F5
:104E7000800282F00102D2B262F3820362F3C303C2
:104E800083E76378DA4302F0010262F3000362F31E
:104E9000410385E72378C3F3801282F0010262F3B5
:104EA000861372E7FDF794FE2378C3F3C01282F0F5
:104EB000010262F3C71368E701210E20FEF7E6FD49
:104EC00064E70021F9E72378C3F3001282F00102BE
:104ED00062F3041359E72378C3F3000282F001025E
:104EE00062F3000351E700BFC01000201221002030
:104EF000162100201E21002017210020AC210020B7
:104F0000142100201C2100206378C3F3C00282F02A
:104F1000010262F3C30343E747F677439C4240F044
:104F200094800120FBF72CFBB5E01B78A4F5F04141
:104F3000A1F1200003F022030A282AD8DFE800F0BC
:104F4000060B58115E17641D6A2370000120FCF7E0
:104F500029F9FFF7F2BB002B4CD0FCF781F9FFF7E2
:104F6000ECBB002B4CD0FCF7B7F9FFF7E6BB002BEE
:104F70004CD0FCF7CBF9FFF7E0BB002B4CD0FCF793
:104F8000E1F9FFF7DABB002B4CD0FCF7F5F9FFF79E
:104F9000D4BB40390E2954D801A050F821F000BFED
:104FA000DD4F0008EB4F00084D4F0008574F000839
:104FB000F14F0008634F0008FD4F00086F4F0008D5
:104FC000095000087B4F000815500008874F000863
:104FD000215000082D50000837500008FCF7F0F869
:104FE0000120FBF727FFFFF7A8BBFCF7FBF8F7E76B
:104FF000002BB2D0FCF726F9FFF79FBB002BB2D0F5
:10500000FCF760F9FFF799BB002BB2D0FCF770F901
:10501000FFF793BB002BB2D0FCF786F9FFF78DBBEF
:10502000002BB2D0FCF79CF9FFF787BB2BB1FCF744
:10503000BFF9FFF782BB002BF9D0FCF7A9F9FFF706
:105040007CBB47F677439C4216D047F678439C4298
:105050001BD0A4F5A543603B9BB21F2B1FD87ABB86
:1050600004F01F0301249C400320E1B2FEF70EFD73
:10507000A54B1C70FFF761BB0120FBF777FA0322F9
:105080000221FBF7FBFAFFF758BB0220002A3FF48E
:1050900049AFFBF76BFA032202210120F1E7AAB323
:1050A00047F65B439C4225D047F65C439C4215D0B3
:1050B00047F65A439C421BD047F601439C4222D0FC
:1050C00047F603439C4217D0B4F5F84F1ED1FDF7C5
:1050D0007FFD8E4B8E4A1A60FCF708FB8D4B58788B
:1050E00080F00400C0F38000FEF786FDFFF725BBCB
:1050F0000120F9E70020F7E7FEF704FB4FF6FF7108
:105100000020FEF768FDFDF763FDE5E73388ADF8A5
:1051100010300498002A55D0FDF76EF80446014679
:105120000498FBF76FFABDF810302046ADF8143044
:105130000599FDF741F8FBF727FCDFF8DC9196F8BD
:10514000068099F80070044617F007077579C8F3D0
:10515000031825D02F461DB3C4F3072303F0F00234
:10516000402A0ED0C1B201F12002D2B2072A2DD9B5
:1051700003F0E003202B04D1012927D9B8F1000F57
:1051800026D0644B5F7817F0040709D00220FBF7A4
:10519000BBFA99F8003013F0070F0CBF0127002766
:1051A000C4F303330B2B6ED8DFE813F014001400A4
:1051B0004D004D00D5006D006D006D00EC003E010E
:1051C00050015001FBF73CFA0446ACE70027E7E743
:1051D0004746E5E7C4F30328C4F307224FEA081360
:1051E0000F2A88BF9846E4B2ADB1B8F1000F0CD0D9
:1051F00004F12003DBB2072B00D954B9474A1378D6
:1052000048EA03031370FCF7FFFD2046FCF780FE1D
:1052100039E0434AF3E72046FCF7FEFEB8F1000F01
:1052200031D004F12003DBB2072B00D91CB9404672
:10523000FBF7BAFA04E03A4A137823EA080313703A
:10524000FCF7E2FD1FE0C4F30320C4F3072303F0DF
:10525000F0030201E4B2202B18BF10463CB1012C30
:105260004DD0002D68D0B8F1000F26D0CDE7294BE6
:105270005B785C071DD425B128B1284A1378034315
:10528000DDE70028D4D1002F00F0A68099F80000B7
:1052900010F0010340F0A0807371C008FBF766F9BD
:1052A0003046FFF7F1F999F80000C008FBF768F9FC
:1052B00092E085B1B8F1000F02D1FCF7DBFEE2E726
:1052C000B8F1010FDFD1174A137830EA0301DAD0C1
:1052D00003431370D7E7B8F1000FD4D10390FCF764
:1052E000D3FE104A0398137818421CBF83431370EF
:1052F0000D4A13781842C6D023EA0003E9E7ADB19E
:10530000B8F1050FBFD8D8E719210020FC6F0020A5
:10531000EFBEADDE1C2100201B2100201621002045
:105320001E2100201721002018210020B8F1040FB1
:10533000A9D8FCF7A9FEA6E7B8F1000FF9D0392CDF
:105340000CBF4FF4FA504FF47A70FFF721F9204662
:10535000FCF762FE97E714F4406FC4F3812307D093
:10536000012B90D165B1C4F30900FCF73BF98AE742
:1053700025B1C4F30900FCF719F984E72846FAE7D8
:105380002846F2E714F4407F1DD10DBB0F21C4F372
:1053900042129200D2B29140C94304F00F03C9B245
:1053A000934014F0100218BF0A46C4F381246E49DA
:1053B000022C33D0032C35D0012C2AD013430A7889
:1053C00013400B7004E0C4F3012265B1D1070CD483
:1053D000FCF7E2F8FBF7BEF80021304609B0BDE863
:1053E000F04FFCF731BF012AF2D90F21C4F342126A
:1053F0009200D2B29140C94304F00F03C9B2934066
:1054000014F01002C4F3812418BF0A465749022C35
:10541000CFE7087803431A430A70D9E713430A78A1
:105420005340CEE71343CCE7E7B2C4F3032435B1CE
:105430002046FBF79BF83846FCF71CFEC8E73846C9
:10544000FCF722FE2046FBF79BF8C1E7E7B2A7F185
:10545000F003042B41D8DFE803F003250F162100E9
:105460003DB1B8F1040FB3D8C4F30420FBF792F8B0
:10547000AEE7B8F1050FF6E7C4F30420002DE2D142
:10548000FBF774F8A4E7394A35B10123C4F30424C7
:1054900003FA04F414709BE7157099E7344B5B78BA
:1054A0005A0704D4C4F30420002DCCD0E8E74DB152
:1054B0005B07C4F30420E3D5C30043F0030389F87A
:1054C0000030DDE70120FBF71FF9B8F1010F7FF68F
:1054D0007FAF0220FBF718F97AE74DB1B8F1000F62
:1054E00003D03846FCF714FD72E7C4F30420C7E785
:1054F000B8F1000F0BD0392F0CBF4FF4FA504FF416
:105500007A70FFF745F83846FCF786FD60E7C4F38C
:10551000042098E747F616439C427FF4FDAC154BF8
:105520001B78002B0CBF29203520FCF7ADF813E0C9
:1055300047F616439C42104B7FF4F7AC1B7803F000
:10554000AA03002B14BF012200220A4B0CBF292002
:1055500035201A70FCF762F8FCF756FCFFF7EDB83F
:1055600009B0BDE8F08F00BF192100201A210020EA
:105570001C21002015210020162100201C49F8B50F
:105580008B790F2B0AD84B7943B11A4B1A4A1B78E7
:1055900015784E780F78194CAB4200D1F8BD04EB6A
:1055A000C300027902B34278B2421DD114F833200D
:1055B000BA4219D14279BAB94288B1F802C0A2EB15
:1055C0000C0292B2C72A0FD801228B7962F307131B
:1055D0008B71837962F3071383710548FFF754F8E1
:1055E000BDE8F840FBF780B8013303F00703D3E7C9
:1055F00062210020202100201F21002022210020E4
:105600002DE9F04F054685B08A4C014606226846D2
:1056100002F0D0F994F804A06F7995F80490BAF1EB
:10562000000F1AD1B9F1000F15D0002F00F0FE8045
:105630002846FCF735FE002800F0F88008222946AD
:10564000204602F0B7F9B9F1010F02D12088FCF72A
:1056500015FEFFF793FF012444E0B5F802B063881C
:105660006679ABEB030395F800809BB2002E00F047
:10567000AE80C72B00F28880B9F1000FEBD0A37980
:1056800062780F2B697850D891420FD12278424529
:105690000CD1002F44D10122204662F30713A371DD
:1056A000FEF7F2FFA379AB7100241BE0002F37D186
:1056B0003A464046FAF7F6FF4046FAF7F3FF04464B
:1056C0000028F1D10098FCF7D9FDC0F30332032A7A
:1056D000C3B20BD8012A13D910F4706F15D0AA7970
:1056E0000F2A12D8204605B0BDE8F08F063202F02E
:1056F0000F02012A0ED92846FEF7C6FF3446F1E70D
:1057000010F4706F01D0002BECD02033DBB2072BEC
:10571000E8D9F0E7EF2BE5D90F33DBB2022BF7E73F
:10572000A37943F00103A371BEE791420DD1227822
:1057300042450AD14FB92846AB71FEF7A5FF0822B2
:105740002946204602F036F985E72846FCF7A8FDF1
:1057500000286BD0002F69D0A3791F2B0ED9228887
:1057600002A8ADF808200022ADF80AB08DF80CA010
:105770008DF80D208DF80E30FEF786FF08222946A1
:105780002C4802F017F964E7A3790F2B08D82046BC
:10579000FEF77AFF08220021204602F003F983E792
:1057A000B9F1000F3FF457AF61786A789142CCD1DC
:1057B00022784245C9D1002FC7D12846AB71FEF7E8
:1057C00063FF08223946204602F0ECF843E7C72B76
:1057D000E0D8B9F1000F3FF43EAF3FB362786B7889
:1057E0009A421AD12378434517D1A379DA0710D406
:1057F0000F2B0ED9AB7103F0F003F02B06D0AB7971
:10580000C3F30312013262F30713AB712846FEF7AC
:105810003BFF08222946074894E72846FCF740FD4D
:105820000028ABD1A37943F00103A3712846FEF70A
:105830002BFF10E762210020F0B589B0CDE900010F
:105840009DF8055000220DB12C490A709DF80460A6
:10585000DDE90001ADF80E2002905EB1012102A841
:105860008DF80C608DF80D50FCF7EEFC012102A8BC
:10587000FCF7EAFC8DF80C608DF80D50DDE90201B3
:10588000CDE9040104A8FFF7BBFE1D4E07461D4CE1
:10589000B8B9DDE90401CDE906019DF814103378AB
:1058A000227871B15D1C05F00705954210D01648AD
:1058B000082206A900EBC30002F07CF83570FAF765
:1058C00013FF114D2078337883420BD109B0F0BD1E
:1058D000FDF77EF9082239460C483770277002F030
:1058E00061F8EEE705EBC000FFF78AFE0028EDD077
:1058F0002378013303F007032370E3E71E21002020
:105900001F210020202100202221002062210020D0
:1059100073B5FDF73FFC0A4D84B22B88A3420DD02E
:105920000026ADF80060FDF735FCADF80460ADF879
:105930000200DDE90001FFF77FFF2C8002B070BD9F
:10594000AE20002000232DE9804895B001935C4BE8
:105950009A68022A01BF1A685A4A526F5A689B69AC
:1059600000231E46584A0133102B1660566002F180
:105970000802F8D10127554B554D03F10C021A616D
:10598000DA60544A5E61DA611F705E609E60524B5D
:105990002F7003F10C021A61DA60504A5E61DA611D
:1059A0001F7040F2BF325E609E604FF0E023EE61F8
:1059B000AE622E62EE626E622E636E60AE605A61FF
:1059C00007229E611A6180224549464883F8232DAB
:1059D00008604548454C4860454903F550634FF021
:1059E000300CA66221638CF3118862B6D8684149F5
:1059F00020F4E0600004000C0143D960D3F8FC10EF
:105A00003D4841F08071C3F8FC1001684FF0000977
:105A1000394301602021D97783F822C004F11003B3
:105A2000C4E904334FF0FF33E661A361E36933480F
:105A3000984604F13403E36000F1C403C0F8F43085
:105A40002F4BC0F8C860C0F8C4302E4BC0F8F070BF
:105A5000C0F8E4300223C4E90889A0F8FC30E2630E
:105A6000A265C4E90044C4E91466A660E662E6657E
:105A70006464A4F84870C0F8F840C0E94267C0F810
:105A80000461E830FCF79EFC86F311881E4B1F4A28
:105A9000DF701F4BDFF87CA01A60FDF725F801F0DE
:105AA000A7FE4FF4807248461A49FDF73AFE0028D7
:105AB00040F0B882FDF718F8FDF716F884E000BF53
:105AC000000C014000040140F41500200C230020CC
:105AD000D81E0020003000407416002000900040C6
