:020000040800F2
:1000000000040020B9010008BB010008BB01000882
:10001000BB010008BB010008BB010008BB010008D0
:10002000BB010008BB010008BB0100081D6F0008F0
:10003000BB010008BB010008BB01000821740008D7
:10004000BB010008BB010008BB010008BB010008A0
:10005000BB010008BB01000881720008A9720008FA
:10006000D1720008F972000821730008BB01000872
:10007000BB010008BB010008CD740008BB010008EB
:1000800049730008BB010008BB010008BB01000860
:10009000BB010008BB010008BB010008BB01000850
:1000A000BB010008BB010008A5740008B974000872
:1000B000BB010008BB010008BB010008BB01000830
:1000C000BB010008AD730008BB010008BB010008BC
:1000D000BB010008BB010008BB010008BB01000810
:1000E00072B6264880F30888254880F30988254899
:1000F00025490860022080F31488BFF36F8F02F057
:1001000075FC02F0A5FC4FF0553020491B4A914286
:100110003CBF41F8040BFAE71D49194A91423CBF24
:1001200041F8040BFAE71B491B4A1C4B9A423EBF9D
:1001300051F8040B42F8040BF8E700201849194A5B
:1001400091423CBF41F8040BFAE702F01FFD02F0B8
:100150001BFD154C154DAC4203DA54F8041B8847BF
:10016000F9E705F0F9FA124C124DAC4203DA54F8F3
:10017000041B8847F9E702F008BD000000040020D6
:10018000000C00200000000808ED00E00000002046
:1001900000040020F8840008000C0020E810002073
:1001A000E810002054230020E0000008E0000008D0
:1001B000E0000008E000000892E700F000F8FEE729
:1001C0002DE9F04FC1F80CD0C3689D46BDE8F08F13
:1001D000002383F311882846A047002004F00AF981
:1001E000FEE702F0F9FC00DFFEE7000053B94AB970
:1001F000002908BF00281CBF4FF0FF314FF0FF302F
:1002000000F062B9ADF1080C6DE904CE00F006F81B
:10021000DDF804E0DDE9022304B070472DE9F04782
:100220008C46154604461E46089F002B40F0CB80A6
:100230008A4248D9B2FA82F149B1C1F120030CFADD
:1002400001FC20FA03F38D4043EA0C0C8C404FEA8A
:10025000154EBCFBFEF8A8B20EFB18CC08FB00F94B
:10026000230C43EA0C43994529D9EB1808F1FF32D6
:1002700004D2994502D9A8F102022B44A3EB090349
:10028000B3FBFEFC0EFB1C330CFB00F0A4B244EAF3
:100290000344A04215D92C190CF1FF3304D2A0421B
:1002A00002D9ACF102032C44241A43EA02401FB1E4
:1002B0000023CC403C607B603146BDE8F08742467D
:1002C000DCE76346F0E7002A73D0B2FA82F3DBB3CF
:1002D0001E4602FA06F5C6F1200321FA03F24FEAA0
:1002E000154EB14020FA03F30B43B2FBFEF100FAC6
:1002F00006F40EFB112CA8B201FB00F81A0C42EA1E
:100300000C42904557D9AA1801F1FF3C04D2904500
:1003100002D9A1F1020C2A44A2EB0802B2FBFEF1C1
:100320000EFB112248439BB243EA0243984244D950
:10033000EB1801F1FF3203D2984201D98A1E2B44F7
:100340001B1A42EA0C4201E08B1A01224FEA154EB9
:10035000B3FBFEFCA8B20EFB1C330CFB00F8210C17
:1003600041EA034398452AD9EB180CF1FF3104D236
:10037000984502D9ACF102012B44A3EB0803B3FB6F
:10038000FEFC0EFB1C330CFB00F0A4B244EA034459
:10039000A04216D92C190CF1FF3304D2A04202D985
:1003A000ACF102032C44241A43EA014031461646BC
:1003B0007DE71F268DE78C46AEE70A46C0E761461B
:1003C000DBE76346EFE78B4206D917B900263046D4
:1003D00072E7C7E90001F9E7B3FA83F686B98B4201
:1003E00001D3824207D8841A61EB030301209C46A3
:1003F0001FB9002660E73046FAE7C7E9004CF8E786
:10040000C6F1200CB34022FA0CF41C434FEA144905
:1004100021FA0CF3B3FBF9F820FA0CF5B1402943AB
:100420001FFA84FE00FA06F509FB183008FB0EFAE5
:100430000B0C43EA00439A4502FA06F240D9E3184E
:1004400008F1FF3004D29A4502D9A8F102002344F2
:10045000A3EB0A03B3FBF9F809FB183308FB0EFE04
:1004600089B241EA03418E452CD9611808F1FF3366
:1004700004D28E4502D9A8F10203214443EA004088
:10048000A0FB0298A1EB0E014145CE46434602D3A4
:1004900006D14D4504D2B9EB020E68EB04030138D6
:1004A000002FA6D0B5EB0E0261EB030101FA0CFCA4
:1004B00022FA06F34CEA0303F140C7E9003198E75A
:1004C0004046C5E74346D9E7704700BF0B4A0C4B8F
:1004D000107807221B7800F007001B0940EAC300D0
:1004E000084940F0404011F8013B1B099340043299
:1004F0001B2A40EA0300F6D1704700BF0523002005
:10050000E6100020002300208022054B1A705A704C
:100510009A70DA701A714022024B1A70704700BF4D
:1005200000230020E6100020054B064ADB781278F5
:10053000534358434FF60163B0FBF3F0C0B270472A
:10054000F8220020E5100020042807B513D100236D
:10055000ADF804308DF8063000209DF8043063F3C8
:1005600007009DF8053063F30F209DF8063063F314
:10057000174003B000BD044900EB400001440322D2
:1005800001A807F025FAE7E7DE830008074B1B7890
:1005900053B9074B1B783BB9064B1B7823B9064B65
:1005A000187800F0010070470120FAE7E8220020E7
:1005B000E7220020E6220020E5220020FF22064B51
:1005C0001A700023054A1370054A1370054A137008
:1005D000054A1370704700BFE5100020E422002098
:1005E000DB220020E5220020DA22002010F0020F9A
:1005F0000CBF10224FF48012014B9A61704700BF6C
:10060000000800400123034A834011780B43137014
:10061000704700BF002100200123034A8340107867
:1006200020EA0300107070470021002001F007034A
:10063000C90801EB410130B501250A4400219D4064
:10064000013A12F8014F20FA01F343F3000363402B
:100650002B4001315C4003291470F2D130BD0022DF
:1006600010B500F00704C00800EB4000014410463C
:100670008B5CE34003F00103934001321843032AEB
:10068000C0B2F5D110BD00000246C0F30723052B10
:10069000084682B0D1B209D80E290DD8C3EB031396
:1006A0001944064A89B202B0FFF7C0BF0433DBB277
:1006B000012B01D8024AF6E702B07047CF20002094
:1006C000CC200020C0F30723052B82B0C0B209D88C
:1006D0000E280DD8C3EB03131844074980B202B0AB
:1006E000FFF7BDBF0433DBB2012B01D80349F6E7A6
:1006F000002002B0704700BFCF200020CC20002097
:1007000030B50124074D04FA01F12B7804FA00F00A
:100710000843C1B21840944081420CBF2343A34315
:100720002B7030BD00210020F0B50D4B0D4C1B7817
:1007300026780D4CB34201D10020F0BD04EBC30577
:100740006F788F4206D114F83370874202D16D79E9
:10075000954203D1013303F00703EBE70120ECE7F7
:10076000042100200321002006210020054B064A19
:100770001B7812789A4200D17047013303F00703C7
:10078000F8E700BF042100200321002010B509492B
:100790000B7823EA000010F00704087009D1984292
:1007A00007D0054B5B785B0703D5C008FFF734FF24
:1007B0000C7010BD01210020EA22002070B5144BFE
:1007C000144D1878144B1B7818432B78C0B293B192
:1007D0001843124B9B78012B04D1114B93F9003035
:1007E000002B09DB06220F4B00211A449A4206D146
:1007F00009B100232B7070BD1E220B4BF4E74C1C7B
:1008000013F8016BE4B2002E18BF2146EEE700BFDB
:10081000FC200020FD20002002210020A01000204C
:10082000EA220020F6130020FE130020024A13786B
:1008300023EA000313707047FC200020E7284FD8FC
:10084000DF2807D8312864D00ED8292857D02A2885
:1008500066D07047A0F1E003072B41D8DFE803F032
:100860001540232831403C41392804D0822802D049
:1008700035283FD07047324B1A7892071FD15B78EA
:1008800013F0080F18BF292070472D4A1378D90795
:100890004DD4527812F0010F22D013F0100F14BF74
:1008A0000020E3207047264B1B7813F0040FF3E77A
:1008B000234A137859073CD45278D207EDD5E0206B
:1008C00070471F4B5A7891070AD51B7813F0100F09
:1008D00014BF0020E7207047194B1B781A07F5D486
:1008E0007047174A1378190725D452789107EDD528
:1008F000E4207047124B1B7813F0200FC2E7104B17
:100900001A78920619D45B7813F0080F18BF3920B3
:1009100070470B4B1B7813F0400F18BF2A2070470D
:10092000074B1B7813F0400F18BF31207047392058
:100930007047E2207047E62070473520D0E700BFBF
:10094000EA22002030B5304D2B785A0711D500F03F
:10095000140100F018020C1F6142A2F1080C614161
:10096000DCF1000242EB0C0280F00C04914218BF53
:100970002046190713D500F0140400F01801A4F163
:10098000140CA1F11802DCF1000444EB0C045142F8
:10099000514180F00C02D2B28C4218BF10466D78E3
:1009A000E90713D500F0110400F0180104F1FF3C31
:1009B000A1F10802DCF1000444EB0C045142514166
:1009C00080F00902D2B28C4218BF1046AA0711D596
:1009D00000F0110400F01801A4F111025442A1F139
:1009E00018055441694280F009026941D2B28C4233
:1009F00018BF1046DB0605D500F0E70310F0080F1E
:100A000018BF184630BD00BFEA22002038B5FFF7F6
:100A100015FFB0F5A44F04463FD2B0F5A04F80F0CB
:100A2000A680DF2816D8CC2800F28680A7280AD80E
:100A3000A42874D8012804D0031F9BB2A12B28BF7F
:100A40000024204638BDA0F1A8039BB21A2B6BD915
:100A50000024F6E7B0F5804F16D2B0F5005F80F0C5
:100A60009980E728EDD9A0F580739BB2B3F5F85FC4
:100A7000EED2C0F30720FFF765FF0546E0B2FFF7AF
:100A8000DDFE40EA0524DCE7C0B2FFF7D7FE04F440
:100A90007064204340F42044D3E7B0F5A54F21D241
:100AA00045F25F23984251D845F23F2398420ED831
:100AB00045F21F23984242D8012300F00304A340CB
:100AC000C0F3850243EA421343F40D44B9E701231E
:100AD00000F00304A340C0F3820243EA421343F44C
:100AE0000C44AEE745F2BF2398420AD845F29F2353
:100AF000984200F01F0034D84AF2F40343EA00247D
:100B00009FE7A0F5A543403B9BB21F2BA0D8040252
:100B100004F4F85444F4204444F0F00491E7A0F1C4
:100B2000240444F480448CE7204B5834E4B233F876
:100B3000144044F4884484E740F4A04481E74AF236
:100B4000F10300F01F0443EA04247AE7012300F0D4
:100B50000304A340C0F3820243EA421343F40A446D
:100B60006FE7FFF7EFFE040244F4005469E700F07A
:100B70001F00FFF7E7FE03B21A0102F0F00210F0C7
:100B8000100F18BF1346C4F3431443EA042343F47D
:100B9000104456E7C0F30420FFF7D4FE0546E0B248
:100BA000FFF74CFE40EA0524DEE700BFA481000801
:100BB000002070470020704730BFFDE7044B93F8DA
:100BC00004281AB9012083F80408704702207047EE
:100BD00098160020054B93F8042822B1002201202A
:100BE00083F8042870470220704700BF9816002041
:100BF000024B1A7810431870704700BFAC1E0020DB
:100C000000F0C4B92DE9F3410446D0B2C2F3072580
:100C10000E46C2F30741FFF787FC07462846FFF759
:100C200083FC05460846FFF77FFC8046E3B29E4200
:100C300002D802B0BDE8F081204643462A46394634
:100C4000FFF7DEFF0134F1E72DE9F04780468946E2
:100C500014469DF820609DF824709DF828A0D518B2
:100C600014F8010B404506D3484504D253463A4692
:100C70003146FFF7C5FFAC42F2D1BDE8F08700F086
:100C800091B90000044A137883F001031370002225
:100C9000024B1A70FFF7ACBFF8220020010E0020B3
:100CA000064A137813F0030304BF05490B700121B2
:100CB000137861F301031370704700BFF82200201E
:100CC000010E0020054B1A7892071EBF0021044A2E
:100CD00011701A7822F003021A707047F82200206F
:100CE000010E0020074A1378980709D0012060F30D
:100CF000870313700022044B08461A70FFF778BF71
:100D0000704700BFF8220020010E002007B5032223
:100D1000019001A9094806F05BFEFFF7C1FF084BEF
:100D20001B78C3F38503012B06D00021012003B0FB
:100D30005DF804EBFFF7D6BF03B000BDE210002062
:100D4000F822002001210846FFF7CCBF0121054B06
:100D50001878C0F385000138C0B2884238BF084611
:100D6000FFF7C0BFF822002030B4064C2578AD074D
:100D700006D06070A170E270184630BCFFF738BF33
:100D800030BC7047F822002010B4044C0246A17811
:100D90006078002310BCFFF7E7BF00BFF8220020F7
:100DA000034901234878CA7808308978FFF7DCBF07
:100DB000F8220020044901234878CA780838897845
:100DC00080B2FFF7D1BF00BFF82200200548012301
:100DD0008178C2781031FF2928BFFF214078C9B23D
:100DE000FFF7C2BFF8220020054801238178C278AE
:100DF000103921EAE1714078C9B2FFF7B5BF00BFF1
:100E0000F822002005480123C27881781032FF2A99
:100E100028BFFF224078D2B2FFF7A6BFF8220020F9
:100E200005480123C2788178103A22EAE2724078BC
:100E3000D2B2FFF799BF00BFF8220020044A012078
:100E400013791033FF2B28BFFF231371FFF7D0BE98
:100E5000F8220020044A01201379103B23EAE373AF
:100E60001371FFF7C5BE00BFF8220020054A01201C
:100E70005379A3F1FF014B424B410349CB5C5371C2
:100E8000FFF7B6BEF8220020FC7F0008054A0120CB
:100E90005379A3F1FF014B424B410349CB5C5371A2
:100EA000FFF7A6BEF8220020FC7F000830B5094BF2
:100EB0009C78DD78621C02F00302954209D09A709A
:100EC0001A7800F07F001C4440EAC1100132207102
:100ED0001A7030BD5B1F0020054BC1F180411869BD
:100EE00001F2074101F00F01C84000F00100704716
:100EF0000004004070B5072301264FF400444FF072
:100F00000045184A06FA03F10142946115D0062102
:100F100000BF00BF00BF00BF00BF00BF0139F7D155
:100F20000321956100BF00BF00BF00BF00BF00BF2D
:100F30000139F7D1013BE5D270BD032100BF00BFED
:100F400000BF00BF00BF00BF0139F7D10621956186
:100F500000BF00BF00BF00BF00BF00BF0139F7D115
:100F6000E8E700BF000400406FF40042064B1A633C
:100F70004FF055321A6000225A609A60DA60DA62E5
:100F80001A625A62704700BF0004004030B5044D39
:100F900000EB40002C1861702A54A37030BD00BFD4
:100FA000DA14002070B5134605460E46002420468C
:100FB000324629460134FFF7E9FF502CF7D170BDC6
:100FC00038B5302383F3118800250E4C2078FFF7C5
:100FD00091FF6078FFF78EFF0135A078FFF78AFF59
:100FE000502D04F10304F1D14FF4E06300BF00BFC2
:100FF00000BF00BF00BF00BF013BF7D183F31188E2
:1010000038BD00BFDA140020012870B529D80022AD
:10101000154B9D1D03EBC2046679360705D515F8FF
:101020003260864201D1204670BD0132032AF1D1DF
:10103000B9B159790C070FD55A7B11070FD55A7DD5
:1010400012070ED4022103EBC1014B79887143F0E2
:10105000080308464B71E7E7C1F3C001F3E701213C
:10106000F1E70020E0E700BFC014002002B1104704
:1010700070470000034B1B6813B11B6803B118478E
:1010800018467047C02000200B4B07B51A888242D3
:101090000FD01880094B1B685BB11B694BB1032251
:1010A0008DF80500000A8DF806008DF8042001A8CF
:1010B000984703B000BD00BFBE140020C020002030
:1010C0000B4B07B51A88824210D01880094B1B6859
:1010D00063B11B6953B104228DF80500000A8DF835
:1010E00006008DF804200DEB0200984703B000BD08
:1010F000BC140020C020002010B5154B9B78012B9C
:1011000015D000224FF0FF33124911F8014FA042D1
:101110001DD0B3F1FF3F01D104B953B20132062A09
:10112000F3D15A1C13D00C4A134498700FE00B4AA9
:1011300092F90020002AE4DAEF2808D8084A02EBE6
:10114000D002917800F0070083400B43937010BDEC
:10115000A0100020F5130020F4130020EA22002044
:10116000FC13002010B5114B9A78012A0CD00623ED
:1011700000210F4A12F8014F013B844208BF117051
:1011800013F0FF03F6D110E00A4B93F90030002B67
:10119000EDDAEF2809D8084B03EBD003997800F07B
:1011A0000700824021EA02029A7010BDA0100020C0
:1011B000F5130020EA220020FC130020014B587890
:1011C000704700BFA0100020BFF34F8F0549064BAA
:1011D000CA6802F4E0621343CB60BFF34F8F00BFD5
:1011E000FDE700BF00ED00E00400FA0530B590F81F
:1011F000472090F8463085B043EA02231A0A032AB2
:101200001BD00DD8012A5FD0022A13D15B23314AAB
:10121000314842600360002A08BF104605B030BD67
:1012200090F8483090F84910212A43EA01233CD035
:10123000222A41D000231A46EAE7DBB2032BF9D871
:10124000DFE803F0450205080623244AE0E72223ED
:10125000234ADDE7234B244D1C781CBB0122214689
:101260001A706846102206F0ABFB21461F4804ABFB
:1012700003EB610313F8102C05EB41031409045D23
:1012800002F00F029C700024825CDC704B1C023167
:1012900005EB430320299A70DC70E8D142232B70C0
:1012A00003236B702B78104AB2E7022BC2D8104A86
:1012B00052F823200923ABE7022BBBD80D4A0E4975
:1012C00052F82320CB5CA3E712230C4AA0E70423A7
:1012D0000B4A9DE7DC7B0008B4140020D07B00089B
:1012E000AC7B00086E1400206F1400209B7B00086C
:1012F000587C00084C7C0008497C0008377C0008BA
:10130000D87B000810B5064A064C117824784B1C8F
:1013100003F00F039C421EBF034C1370605410BDBA
:10132000BE1E0020BD1E0020AD1E002090F84A20E9
:1013300090F84B00084942EA0022022A0B7807D1B4
:10134000012B01D0062B05D14A78044B5A70704707
:10135000024A5370704700BF6C140020A010002098
:1013600070B590F84410044601F07F03212B40F043
:101370009D8011F0800F90F8453053D0022B35D06E
:10138000032B25D0012B4DD190F84830022B01D9E9
:10139000002070BD90F846100829F9D8594AD25C4F
:1013A000022AF5D8A820584B00FB0233D3F8A4300A
:1013B000002BEDD0554D5E6818682A46B04705F100
:1013C0000803A363AB6C0022E36322640120E0E71F
:1013D00090F8482090F8493052EA032266D14C49EF
:1013E0004C4B8978836319700123EDE790F84830FE
:1013F000022BCDD890F846100829C9D8414AD25CB2
:10140000022AC5D8A820404B00FB0233D3F8A430F1
:10141000002BBDD05A69186890473F4B1870A363E2
:101420000123D0E70A2B23D00B2B10D0092B3DD161
:1014300094F8483094F8492043EA022323F0020349
:10144000002B33D1354B364AA3630223BCE794F813
:10145000483094F8492053EA022306D194F84630E4
:101460002B4A003B18BF012393700023A363AAE714
:10147000274B94F847201A7094F84830022B87D8ED
:1014800094F84610082983D81E48C05C02283FF60D
:101490007FAFA8251C4B05FB0033D3F8A430002BED
:1014A0003FF476AF1D691868A847DEE701F09F0199
:1014B000812918D194F84530062B14D194F849208D
:1014C000616894F848304D6843EA0223204694F856
:1014D000472094F84610A84700283FF459AF4368C6
:1014E000A36303686FE70325074ED6F89C3023B942
:1014F000013D06F1A806F8D14AE7204698470028A2
:10150000F6D063E7987B0008200E00201C14002012
:10151000A010002069140020681400206C14002022
:101520002D1300087047302383F311880269436943
:101530009A4210D1C36883B10123D0F8882090F873
:101540008C1012898B4013420CBF01200020002315
:1015500083F3118870470020F9E71846F7E7000089
:10156000036843B19100196003490B78002A18BF42
:1015700043F001030B707047B41F0020006810B1E6
:101580000068C0F38700704738B503680BB90020C6
:1015900038BD302383F31188036800211C685B6821
:1015A00081F31188002CF2D04FF47A7C074A084D61
:1015B000D069084AC01AE0FB0C5100232846FEF708
:1015C00015FE84428CBF00200120E1E7B81F0020F7
:1015D0009F860100A08601004B1E072B0BD850F8F8
:1015E000213043B19100196003490B78002A18BFDC
:1015F00043F001030B707047B41F0020082906D880
:1016000050F8210020B10068C0F387007047002027
:1016100070470000082938B501D9002038BD50F8BE
:101620002130002BF9D0302383F3118850F821307A
:1016300000211C685B6881F31188002CEDD04FF409
:101640007A7C084A084DD069084AC01AE0FB0C5160
:1016500000232846FEF7CAFD84428CBF00200120EB
:10166000DCE700BFB81F00209F860100A0860100B4
:10167000034610B51B68984203D09C688A68944260
:10168000F8D25A680B604A601160596010BD0000C2
:10169000302383F311880D4B5B6813F4006312D081
:1016A000EFF309834FF08072203BDA6183F30988FE
:1016B000074A1168D2688968926891428CBF054ACE
:1016C000054A9A61704783F31188704700ED00E086
:1016D000B81F0020E3010008E60100080369196053
:1016E000C268013AC260C2691344826903619342CD
:1016F00024BF436A036100238362036B03B118476D
:101700007047000070B50124468904FA01F535439D
:10171000458100EB8100C56801F00F01A869826076
:10172000002203604260C26023B16C8A013B234403
:10173000B3FBF4F4054B0482997321B11A7D02F0D6
:10174000FE021A7570BD40225A74FBE7004001404A
:1017500010B40346006F0278042A12D1012293F8D4
:10176000741044898A4022420BD11A695C69A242F2
:1017700001D1DC682CB910BCDB690432043BFFF7F3
:10178000C1BF10BC7047406BFFF7E2BFF0B501244A
:10179000002605898C402C43048100EB810411F064
:1017A0000F0108BF4027E46865696E60EE6008BFFE
:1017B000114E2B60AA6008BFB173248A08BF7774EA
:1017C000A34228BF23460D4C2B6104EB8104D5189E
:1017D000954205D1084A917331B101235374F0BD8C
:1017E00012F8016B2670F3E7517CC168098A8B42BD
:1017F00034BF0A230223F1E70040014020400140AA
:1018000010B4436BD3F888000278042A11D1012266
:1018100093F88C1004898A4022420AD15A691C69C3
:10182000944201D1DB6823B910BC52F8043BFFF7A6
:10183000ADBF10BC7047000005480178052906D1EE
:1018400090F85030037043681B6803B11847704725
:10185000C01E002010B51C4B9B78012B1ED11B4BCA
:1018600093F90030002B19DAFEF7A8FF184C20225C
:1018700060701849204606F0B9F820B320222146AE
:10188000144806F0A5F8144B1B68E3B19B68D3B16C
:10189000062222702046BDE810401847FEF78EFF52
:1018A0000E4C082220700E49204606F09FF850B1D9
:1018B000082221460A4806F08BF8074B1B6813B133
:1018C0005B68002BE6D110BDA0100020EA220020AA
:1018D000FC130020A0200020C0200020F4130020D2
:1018E000C420002010B514785378844201D083427C
:1018F00016D14C79834214BF1146511CCC70154946
:10190000097869B1917859B1181A18BF01201318D4
:10191000DB782BB1022905D014D9CB1E012B0CD9B1
:10192000012010BD105C2CB9FFF7E6FBFFF792FF1A
:101930000020F6E7FFF716FCF8E7033918BF01218E
:101940008842F5D0105C14B9FFF7D6FBE8E7FFF743
:1019500009FCE5E79422002010B5044600284FD08A
:10196000031FDBB2A02B27D8264B9B78012B0FD06F
:101970000023254A12F8011FA14217D00133062B7C
:10198000F8D12046FFF7B8FBBDE81040FFF762BF73
:101990001E4A92F90020002AEADA1D4A00F00701E7
:1019A00002EBD00292788B401A42EAD02046FFF731
:1019B000D9FBFFF74FFFE4E700F12003DBB2072B71
:1019C00008D80123134A00F007041178A3400B4301
:1019D0001370D9E700F15B03DBB2022B05D8BDE839
:1019E0001040243880B2FFF74FBB5834E4B21A2CB1
:1019F00006D8094B33F81400BDE81040FFF760BB70
:101A000010BD00BFA0100020F5130020EA22002026
:101A1000FC130020FC200020A481000808B5034628
:101A200048B3021FD2B2A02A05D8FFF79BFBBDE83E
:101A30000840FFF70FBF00F12002D2B2072A07D8F3
:101A400000F0070301209840C0B2FEF7EFFEEEE77A
:101A500000F15B02D2B2022A04D8BDE8084000209F
:101A6000FFF712BB5833DBB21A2B04D8BDE808408D
:101A70000020FFF725BB08BD28B1034B1A7810439F
:101A80001870FFF7E7BE7047FC20002008B528B1AA
:101A9000FEF7CCFEBDE80840FFF7DCBE08BD000045
:101AA0008318B3F5006F10B40C4605D80349014400
:101AB000204610BC05F08CBF10BC70479816002063
:101AC000002307B501220DF107018DF80730FFF75C
:101AD000E7FF9DF8070003B000BD042838B517D80C
:101AE000052915D80E2A13D81E23520003FB012204
:101AF000B42303FB002404F12900FFF7E1FF0546AE
:101B000004F12A00FFF7DCFF40EA052080B238BD6F
:101B10000020FCE7F8B5144640F23E4700F2C1351C
:101B20005618B44200D1F8BD6FF47073EB18BB4285
:101B300006D82846FFF7C4FF04F8010B0135F0E78B
:101B40000020F9E713B50446012100680DF10702F2
:101B5000FFF7E0FF23689DF807000133236002B020
:101B600010BD800070B500F2AD3481F001000D466B
:101B700004EB4000FFF7A4FF002D06460CBF032036
:101B800001202044FFF79CFF40EA062080B270BD90
:101B9000CAB2C1F30721052982B006D80E2A14D88B
:101BA000042812D802B0FFF798BFFD2906D162B908
:101BB00004280AD8012102B0FFF7D3BFFC2904D1C1
:101BC0001AB9042801D81146F5E7002002B0704781
:101BD0007FB50424104BADF804001D780F4B1B7823
:101BE0001D43EDB245FA04F3DB0705D4013CF9D2FD
:101BF0000026304604B070BDBDF80430E6B2ADF842
:101C00000C3003993046FFF7C3FFFEF7FFFE80B2AA
:101C10000128EBD0EDE700BF00210020FF200020CD
:101C200013B502884379ADF80420019873B169B106
:101C3000FFF7CEFF044601460198FEF725FD20463A
:101C4000019902B0BDE81040FFF7A2BFFEF73AFDD0
:101C50000446F4E71FB5ADF804000198FFF7B8FF9C
:101C6000BDF80430ADF80C300399FFF791FF05B0D3
:101C70005DF804EBFEF7CABE08B503792BB3008804
:101C8000FFF7E8FFC3B2C0F30330062812D094BFB9
:101C90000E30063000F00F00012812D8F02B12D0C1
:101CA00004D8E72B8CBF0020012008BDF43B58422C
:101CB0005841FAE7F12B18BFE72B94BF0120002011
:101CC000F3E70020F1E70120EFE71846EDE738B52C
:101CD0002520FFF7F5FE05462620FFF7F1FE044616
:101CE0002720FFF7EDFE262D06D1082C04D1A0F108
:101CF00028035842584138BD0020FCE708B5282089
:101D0000FFF7DEFE08BD002307B502220DF1060134
:101D1000ADF80630FFF7C4FEBDF8060003B000BD05
:101D2000006810B440B1054C8264E469083040F8A2
:101D3000044C10BC05F04CBE10BC7047B81F00200E
:101D40000168134631B18A6C03F108009A640831C6
:101D500005F03EBE704700000B7810B4082B0BD87E
:101D600050F8230040B110BC044B8264DB6908309A
:101D700040F8043C05F02CBE10BC7047B81F002092
:101D80000829134609D850F8211031B18A6C03F1A3
:101D900008009A64083105F01BBE70470023826872
:101DA000037503691B6899689142FBD25A68036006
:101DB000426010605860704708B5302383F3118883
:101DC0000A7D0023052A06D8DFE802F00C0505038A
:101DD000130F8A6913604FF0FF3308468B61FFF7DA
:101DE000DDFF002383F3118808BD8A6993680133FE
:101DF00093604A680B6813605A60ECE703682BB184
:101E00000022026018469961FFF7C8BF70470000C2
:101E10002DE9F04190F8343004463BB1836823F05B
:101E2000011383600023C36380F83430A94904F1AF
:101E3000440304F14C0691F8202003F8012BB3422F
:101E4000F9D163689B68DBB994F8443013F06005FE
:101E50003ED0002160229F4B99735A7499735A7433
:101E600063681B6813B1062120469847A36823F0D6
:101E70000113A3600023E363062384F8343025E0D4
:101E8000204698470028DFD094F84B3094F84A2039
:101E900042EA0322E36B934284BF1346E26394F960
:101EA0004420002A80F24881002B00F0538109234E
:101EB00084F83430302383F3118800212046E36B0B
:101EC000A26BFFF763FC002383F31188BDE8F08168
:101ED00094F8452003F07F0343EA022340F20232E4
:101EE000934200F015811FD8B3F5807F4BD00BD8FB
:101EF000012B42D0022B00F0CA80002BA9D1022274
:101F0000A663E2632364BFE7B3F5817F00F0EA8054
:101F1000B3F5407F9DD194F84630012B99D1B4F8A8
:101F20004C3043F0020337E0B3F5006F51D01CD8BA
:101F3000B3F5A06F36D0A3F5C063012B89D894F810
:101F40004920616894F848304E6843EA02232046ED
:101F500094F8462094F84710B04700283FF479AF32
:101F60004368A3630368E3631AE0B3F5106F35D0E9
:101F700040F6024293427FF46CAF574BA3630223B7
:101F8000E3630023BEE794F84630012B7FF461AF92
:101F9000B4F84C3023F00203A4F84C30A563E56399
:101FA000256471E7B4F84430B3F5A06F0DD194F80F
:101FB0004630484A84F84E30137063681B6813B18A
:101FC000012120469847032323700023A363E36382
:101FD00098E704F14F03A3630123C4E72378042B9C
:101FE00045D1302383F31188A36804F10C0603F074
:101FF0000113A36004F1180856F8047F6FB17869E3
:1020000020B16FF001010C30FFF7F8FEB86920B184
:102010006FF001010C30FFF7F1FE46453560EBD162
:1020200000212C4B4FF0400CDA79082602F0010217
:10203000DA7180275D7201220D4610209A730132F9
:10204000D2B2042A9D7483F811C05E745E745D750B
:102050001F7518751875F1D181F3118884F84F1028
:102060000321636821701B680BB12046984794F8E0
:102070004630002BA9D084F84F30042323706368C6
:102080001B68002BA1D00221204698479DE794F8B9
:10209000483003F00F0213F0800F0E4B9A7311D0EB
:1020A00042B95A7C50070BD4DB79DB077FF5D1AE00
:1020B0000A4B63E7597CCD0602D4DB791341F4E780
:1020C000074B5BE7002AECD0197D8906F8D45B7AD0
:1020D000F4E700BF00400140157B0008117B0008B9
:1020E000137B000894F84630002B7FF4B2AE94F8CE
:1020F000483013F00F023FF468AF13F0800F184B15
:102100009A7302D040225A745FE780221A755CE706
:1021100094F84630002B7FF49CAE94F8483013F0CE
:102120000F023FF452AF13F0800F0D4B9A7301D0A2
:102130001022E8E72022E9E763B1152384F8343060
:10214000302383F3118800212046E36BA26BFFF755
:10215000D9FAB8E64821024A937351748DE600BF5C
:102160000040014070B50446C5692E6BC26A6B6AB7
:102170009A4234BFC36A6B6A002B2FD1E26A002AED
:1021800039D1EB620223237063681B680BB12046D0
:102190009847302383F31188002104F10800FFF7EA
:1021A0002DFE002383F31188F30716D5286A228EAB
:1021B000666AE36A616AD31A3344121A934228BFEB
:1021C000134699424FF6FF7138BF636AE3B9636AF9
:1021D0001BB9EB6A23F00103EB6270BD296EE26A62
:1021E000013B013AE262A26A002AC5D01170A26ADC
:1021F0000132A262C0E7E26AEB699A429EBFE36ADB
:1022000003F1FF33EB61CFE7626A013B013A62629F
:10221000226A0AB92966D9E712F8010B28662262F8
:10222000D4E70000F8B5204C861C04EB86035D68FB
:1022300001466A69D2E90003834218D30122238947
:102240008A4023EA02032381AB680BB120469847FA
:10225000302383F3118804EB8604636800215869F6
:102260000C30FFF7CBFD002383F3118817E00F4FED
:10227000B97317693B445360C31ADFD0288A984268
:1022800028BF1846936810613B449360084A18447D
:1022900002EB8102984203D10122044B5A74F8BD2B
:1022A00013F8011B1170F5E7C01E0020004001402B
:1022B00020400140F8B5294C851C04EB85035E687D
:1022C000274AB36990730146107DC00739D59868D5
:1022D000917392F817C0927D224F42EA0C2207EBCD
:1022E000810700EB020C84452CD19868104498605B
:1022F0005868104458601868801A1860188A0138A5
:1023000080B21882738A934200D800BB012263898D
:102310008A4023EA0203638104EB85035B68DB6880
:102320000BB10E489847302383F3118804EB8504E2
:102330006368986941680C30FFF760FD002383F300
:102340001188F8BD97F800E000F801EBCBE7044AEC
:10235000137D03F0FE031375F3E700BFC01E0020DA
:1023600000400140204001400368984207D01A68AD
:1023700002605060002218469A61FFF70FBD704757
:10238000F8B500EB81039C6905460E46002C4ED043
:10239000302383F3118800232269616984F8A03017
:1023A0008A4201D1E36803BB05EB8603DB685B6906
:1023B0001B68D3B1D4F8A43043B18A4201D1E2689A
:1023C0004ABB51F8042B9F681868B847E368E26974
:1023D0000133E360636920461344A2696361934259
:1023E00024BF636A6361FFF7BFFF62692369934299
:1023F00014D1E36893B105EB8603DB681A68022AFF
:1024000012D15A6912687AB11B8A013B13400BD171
:1024100005F1440204E000221146D4E752F8043BDF
:1024200031462846FFF7B2F9002383F31188F8BD3F
:1024300001F1090310B550F8234034B3302383F37E
:10244000118800EB8100C3689B695B68BBB194F89D
:102450007420236F204603EB8203DB689B695A6874
:1024600023691A60E2680132E260E2691344A269FA
:102470002361934224BF636A2361FFF775FF2046FF
:10248000FFF766F9002383F3118810BD38B50446C1
:102490006FF001052068844200D138BD03682360D5
:1024A0005C608561FFF77AFCF4E7026AC260426A09
:1024B0004261026100228262C262FFF7E7BF000050
:1024C0004FF4006208B50021044805F079FA40F69F
:1024D0000803024AC2F8003808BD00BF9816002061
:1024E00010B50C46826801692046FEF7BFFD094A17
:1024F000E1781378207923EA01031370FEF796F947
:10250000FFF7A8F92046BDE810400822002105F099
:1025100057BA00BF0221002038B54B7905469A070B
:102520000C4613D4104A43F002034B71CB78117858
:102530000B4313700D4A237911780B431370FFF787
:1025400089F920466A682969FEF790FD0022084B48
:102550001A806379DB0705D421462846BDE8384058
:10256000FFF7BEBF38BD00BF02210020FC200020C5
:102570004E210020084B9B78012B09D1074B93F982
:102580000030002B04DA1E220021054805F018BA9D
:10259000062200210348F9E7A0100020EA220020CB
:1025A000FE130020F613002010B50024074B1C700A
:1025B000FFF7E0FF2046FEF767FD2046FEF780FDAF
:1025C000034B1C70BDE81040FFF744B9FC2000200D
:1025D0000221002010B5164B1B78042B20D1154B7F
:1025E0001B78EBB9144B1B7883F00103134A03F0FB
:1025F00001011078884212D01170114C114A8BB130
:102600002378C3F3001143F010032370DB0911702A
:1026100005D1FFF7C9FF237843F08003237010BD75
:102620000023E3E72378127862F30413F6E700BF90
:1026300005230020EE220020ED220020EC220020C5
:10264000EA220020E92200202DE9F843052900F2C2
:10265000D680DFE811F0A700D4000600A700A7008D
:10266000D600302383F3118800273E466D4D6E4C13
:10267000D5F8883095F88C9003EB890805F138037C
:10268000C8F80C30E86C18B11422002105F098F954
:10269000286D18B11422002105F092F9D8F80C2009
:1026A00009F00F01A173136803F00303002972D02E
:1026B000022B4AD0032B48D0012B22D153690BB9EE
:1026C0009369F3B1E020584B4FF0010C9874108AD5
:1026D0000CFA01F1C008187440205874082058748E
:1026E0005874D8790843D871C0205875528AD208D6
:1026F000DA7480221A7510221A751A755A7A1143E3
:10270000597228460137FFF7D0FE032F2E7205F1CC
:10271000A805ADD1454C636A204663612361E6603C
:10272000A662E662FFF7B2FE20462672FFF710F8B7
:1027300086F311883E4B1B7813B10520FEF7E2FDAE
:102740000220BDE8F843FEF7DDBD536973B10023F5
:10275000A374138A0120DB082374402363740823C5
:1027600063746374E37988400343E3719369002BD6
:10277000C7D000202C4B5875528A0120D208DA7439
:1027800080221A7510221A751A755A7A00FA01F108
:102790000A435A72B5E7002BB3D1E37943F0010342
:1027A000E371AEE70846FEF7ADFD302383F31188F1
:1027B000002501261B4C20462672FFF767FE2046A7
:1027C000FFF773FED4F8A43013B1DA6818689047A5
:1027D0000135032D04F1A804EDD101230025134C8C
:1027E00020462372FFF752FE636A2046E56063616C
:1027F0002361A562E562FFF749FE85F31188BDE814
:10280000F883302383F311880023064A137282F879
:10281000B03082F85831054A137283F311880520CD
:102820008FE700BF200E002000400140181000205C
:10283000BF1E002010B50446006840B1826C002124
:10284000083005F0BDF8002223681A605A6010BDF8
:1028500070B50026051F00F1200455F8040F38B1AB
:10286000826C0021083005F0ABF82B681E605E60BA
:10287000A542F2D170BD0000002208231146014894
:1028800005F042B80C080040F7B51F464BBA090CDA
:10289000064615468DF80400ADF806308DF8051093
:1028A000FFF7EAFFE8B104210DEB010005F05EF847
:1028B000044648B945B1022E0BD0032E0ED128464E
:1028C000B9B205F05DF8044605F064F8204603B09F
:1028D000F0BD2846B9B205F049F8F4E74FF0FF34EF
:1028E000F2E74FF0FF34F1E7054BD9680875186837
:1028F000026853601A6001220275D860FDF760BC5F
:10290000B81F002070B5184C4B1CE56886B028D065
:10291000164B049503930023059323699A6891420B
:102920001CD85E68029101960093C6F800D04FF063
:10293000FF369A68C3F804D0521A9A60A661FFF76E
:10294000D3FF009B3BB19A6802990A449A60019AAE
:1029500013605A60A661A86906B070BD1B68891A29
:10296000DCE7FFF7C1FFF6E7B81F0020B91D00083C
:10297000034BDB68036098610320FFF7B5BF00BF1E
:10298000B81F002090F8343010B5152B04460CD831
:10299000012208499A400A4208D1092B05D1036C4B
:1029A00003B19847002384F8343010BDBDE81040CF
:1029B00004F018BF410C300090F8343010B5152BDE
:1029C00004460CD8012208499A400A4208D1152B26
:1029D00005D1036C03B19847002384F8343010BD4F
:1029E000BDE8104004F0FEBE410E10007047C94320
:1029F0004FF05533016302F003015943016042F384
:102A000080014160C2F3C10159438160C2F34111A9
:102A10005943C160C2F3C1214B43C3624FF011332C
:102A2000C2F3C3125A4302624262704708B53023B0
:102A300083F31188012100F00F039940202220F038
:102A40000F00FFF7D4FF002383F3118808BD0000B7
:102A5000464A13B5464B52F8041C99420CD1002348
:102A600042F8043C83F31488424B1A6882F30888C6
:102A700062B65B689847FEE70C20032440F2BE7103
:102A80003D4B3E4A9C62D862C2F894100021996284
:102A9000D9629C62D8628020C3F81C0CD3F81C0C4D
:102AA000C3F81C0C009101914FF40141C3F8481C7C
:102AB0004FF6FC71A3F5744319630F2119600223CB
:102AC000136501234BF68031D364936D03F001034A
:102AD0000193009B01330093019B13B9009B8B4230
:102AE000F3D1019B03B9FEE7254B26498024C3F8A7
:102AF00000140021A3F5884399611C62196A012022
:102B00001962202158601960196819601968014319
:102B1000196054679067D16F0329FCD102229A6033
:102B200001220021DA60144A9162D1629A6C42F467
:102B300000429A649A6CDA6C42F40062DA64DA6CED
:102B40009A6C42F020029A649A6C9A6C42F04002AD
:102B50009A649A6C9A6C42F080029A649A6C9A6CAD
:102B600042F480729A649B6C02B010BD0070002029
:102B7000EFBEADDE00E0FF1F000001400004014099
:102B800000500140130000037047FEE7F0B5082035
:102B90000026104A516813680D469468043BAC4205
:102BA00010D8E31C5B1ACD1E23F00303AC4238BFE0
:102BB00000230B44D168994209D8013802F1100270
:102BC000E8D1F0BD53F8047F45F8047BE7E743F80C
:102BD000046BF0E7187B00080C4B10B41868D96838
:102BE000026853601A600122D860002302758A6867
:102BF0000B750B691B689C689442FBD810BC5A6823
:102C00000B604A6011605960FDF7DABAB81F002006
:102C1000044B1A68DB6892689B689A4201D9FFF7F7
:102C2000DBBF7047B81F002070B5EFF3118525B9E1
:102C3000EFF30583302282F31188174B174E1849A2
:102C4000DC6933680A68E41AA242164A0AD9A3F575
:102C50008333E03B10683360134B04F58334C318AF
:102C6000E034136016680C6035B9EFF30583C3F3E5
:102C700008036BB185F311884FF47A7500210B4876
:102C80000023E4FB05010A4AFDF7B0FA304470BDA9
:102C9000FFF7BEFFEEE700BFB81F0020A81E002010
:102CA000A41E0020A01E002088598F029F860100CC
:102CB000A0860100012208B5034B1A70FFF7B4FF8C
:102CC000024B186008BD00BFF4220020F022002053
:102CD00070B51F4B1F4E1B78044683420D46327859
:102CE00001D10AB970BD1AB11B4A1278A242F9D0BB
:102CF0001A4A1370184B1C70FFF796FF184B186098
:102D000001233370FCB9174B1B78F3B185F0010335
:102D1000154A03F0010313700022144B1D70144B6D
:102D20001A70002CDED0FDF7BBFF124A13785178E1
:102D3000907843EA012343EA0040FDF7E7FFBDE84E
:102D40007040FFF747BC0023E2E72346E0E700BFFF
:102D5000E5100020E4220020E1100020E010002017
:102D6000E0220020DC220020DB220020E5220020DF
:102D7000DA220020E210002070B51F4B1F4E1B7896
:102D8000054683420C46327805D12AB914B1012296
:102D90001B4B1A7070BD1AB11A4A1278AA42F5D0AC
:102DA000194A1370174B1D70FFF73EFF174B186041
:102DB00001233370ECB9FF2D01D1154B1C78104B5A
:102DC00004F001041C70FDF7F9FBFDF769FFFF2D0E
:102DD00003D1104B1878FDF7D7FFBDE870400E4ABD
:102DE00013785178907843EA012343EA0040FDF7D5
:102DF0008DBF1C46E3E700BFE7220020E62200204B
:102E0000E8220020D9220020D8220020D42200204D
:102E1000DC220020E6100020E2100020F8B5044675
:102E2000FDF7B4FB254F264D3E7810B9254BDB78D6
:102E3000AB55FDF7C3FB24490322244804F0C8FD29
:102E4000042C18BF224B3C7018BF1C70FFF732FFD8
:102E50002046FDF779FB1F4BC0F307221870042EA4
:102E6000C0F307405A70987024D0042C40F6B83351
:102E700008BF4FF4FA73184A13800122174B1A70D7
:102E80000023174A1370174A1370FFF7CDFE164B35
:102E90001860285DFDF778FF0C4A13785178907818
:102EA00043EA012343EA0040FDF730FFBDE8F84064
:102EB000FFF790BB4FF4FA73DDE700BF0523002056
:102EC00000230020F8220020E2100020DD10002066
:102ED000D0220020DA100020D8100020ED2200209F
:102EE000EE220020DA220020CC22002008B5074B79
:102EF0001B7853B90122064B1A70FFF795FE054B5C
:102F00001860BDE80840FDF7CBBE08BDC92200200F
:102F1000C8220020C422002010B583780446022B6A
:102F200013D9FFF7E3FF0023084A21461380A27953
:102F3000BDE81040012A9DBF5242054802F014022C
:102F4000184698BF8018FFF7CBBA10BD4E2100205D
:102F5000B01000202DE9F041AE4B04461B780D4621
:102F600086B033B3AC4B1E68FFF75EFEB423861BFE
:102F7000B6FBF3F203FB12662C2E8CBF10224FF42B
:102F80008012A64B9A61E0B2854202D806B0BDE835
:102F9000F0812C2E4FF0000307D8152805D1902280
:102FA000FF21FDF72DFE0134EDE71A4619462046B4
:102FB000F7E79B4B1B7843B39A4B9B4F1E68FFF779
:102FC00033FE40F28923801BE02698429EBF704367
:102FD00040F28A26B0FBF6F606F11208E3B29D42F3
:102FE000D4D917F8143003F11202B24209D943457B
:102FF00007D2FF23F422E8212046FDF701FE013429
:10300000ECE700231A461946F6E7884B1B78002B9D
:10301000BCD1874B1B78002BB8D1864B1E78864BD2
:103020001B78002E3DD0B3BB844B1B789BBB844BDD
:103030001878FDF789FAC0F307238DF81000C0F364
:1030400007408DF811308DF81200FF209DF81070A8
:103050009DF81110C7F13803734393FBF0F31F443D
:10306000C1F10103734393FBF0F39DF8122019445F
:103070005342734393FBF0F38DF815102046294615
:103080001A448DF814708DF81620059A06B0BDE824
:10309000F041FDF7B7BD03226A4904A804F098FC8B
:1030A000D3E73BB1664B684C1B7803EB4303E21854
:1030B000E35C04E0614B1B7843B1624A13785478B7
:1030C000927843EA042343EA0242DFE75C4B1B7831
:1030D000042B40F0D7800646F3B29D4200F28E806A
:1030E0005620FDF721FA01466620FDF71DFA064637
:1030F0000020FDF719FA0C23544ACDE9001602907E
:1031000029462046FDF7A0FD4420FDF70DFA0146B3
:103110000020FDF709FA06466620FDF705FA0623AA
:103120004B4ACDE90016029029462046FDF78CFD5A
:103130000020FDF7F9F901463C20FDF7F5F90423DD
:10314000444A02900190009120462946FDF77CFDFB
:103150000020FDF7E9F901463620FDF7E5F90646BE
:103160004C20FDF7E1F9CDE9001602900423294631
:103170002046394AFDF768FD0027DFF8E08098F81F
:103180000030FAB293427FF601AF02F10C0108EB76
:1031900041014B78897843EA0123952B38D8424482
:1031A000567C002229490878B0422FD00132D2B291
:1031B0000C2A01F10101F6D1002225490878B0421C
:1031C00024D00132D2B2062A01F10101F6D1002247
:1031D00020490878B04219D00132D2B2042A01F154
:1031E0000101F6D100221C490878B0420ED001320C
:1031F000D2B2042A01F10101F6D109E000233046E0
:103200001A461946FDF7FCFC013665E7B44227D99A
:103210000137B4E7C8220020C42200200008004083
:10322000C9220020C0220020EE820008DA220020FD
:10323000BE220020E7220020ED220020EE22002006
:1032400005230020E2100020DE83000888820008A9
:10325000828200087E8200087A820008952200207F
:10326000B542D5D9C3EB03209623B0FBF3F0C0439E
:10327000C0B2FDF759F90146034602463046FDF754
:10328000BFFCC5E7004C10E7DE8300082DE9F74FCF
:103290001E468146884617460023DFF898A01A018B
:1032A0001AF802100AEB0314A9B9012384F801905B
:1032B0000AF80230FFF7B8FC4FF606731E4AA381E6
:1032C000137860600133C4F80880A773E673137045
:1032D00003B0BDE8F08F0133142BE0D100252C465C
:1032E0002B46DFF850B0DBF8042001930092FFF783
:1032F0009BFC009A019B801A834298BFECB205F1B7
:10330000010598BF0346142D0BF1100BEBD10122E0
:1033100023010AEB04140AF8032084F80190FFF754
:1033200083FC4FF606736060C4F80880A381A7731E
:10333000E673CDE7542100205021002010B583789A
:103340000446022B1BD90E4B1B7843B901220D4BAF
:103350001A70FFF769FC0C4B1860FDF7A1FC002008
:103360000A4B21461880A379BDE81040012B9FBF6E
:103370005B42074803F01403C018FFF7B1B810BD53
:10338000C8220020C9220020C02200204E21002097
:10339000B01000202DE9F04F002401264FF0300836
:1033A00085B0DFF80892824F01940294039459F893
:1033B000041B4B1C6DD10134E4B276000F2CB6B265
:1033C000F5D10C227B4801A904F010FB044620B182
:1033D0000C22784801A904F0FBFA0026764F774DBD
:1033E00097F800802E70B8F1000F00F0AE80FFF764
:1033F0001BFC734A13681060C01A47D0FF2828BF0F
:10340000FF2033463146B34695F800C0DFF8B4914B
:103410006D4DDFF8A0E1C0B23E704F46002617F8B0
:10342000012BE2B19042C0F089804FF0000207F812
:10343000012C01222988BEF800A0B24002EA0A0A43
:1034400021EA02024AEA0202514089B251EA0C0121
:1034500014BF4FF0010C4FF0000C41462A8001369A
:103460000F2EDCD10F339BB25A2B09F10F0905F156
:1034700002050EF1020ED0D111B1504B83F800C0FD
:10348000BBF1000F02D001224B4B1A70002C61D10E
:1034900088E088F31188012221F00F0001F00F016C
:1034A00002FA01F529462D04FFF7A1FA85610023F0
:1034B00083F3118800BF00BF00BF00BF00BF00BF83
:1034C00000BF00BF00BF00BF00BF00BF00BF00BF04
:1034D00000BF00BF00BF00BF00BF00BF00BF00BFF4
:1034E00000BF00BF6FEA060C384D01A855F8041B59
:1034F00030F8022BB1F1FF3F1DD021F00F0EDEF8A6
:1035000010E001F00F012EFA01F1C90713D4324384
:103510000133DBB2062B20F8022CE7D159F8040C5A
:10352000431C01D0FFF782FA7A687B689B1AB3F5D7
:10353000346FFAD33FE702EA0C02E9E7121AC346F6
:1035400007F8012C8BE710701DE05CB3FFF76CFBF4
:103550001B4B186000234FF0080E1E46DFF854C0C6
:10356000194F184C37F8022B3CF8025B00215540EC
:10357000224645FA01F010F00100E4D0107810B9AD
:10358000012682F800E001310F2902F10102F0D199
:103590000F339BB25A2B04F10F04E3D116B1012271
:1035A000054B1A7005B0BDE8F08F00BF50810008D0
:1035B000001000E0922000208420002085200020C0
:1035C0008020002023200020862000208C810008FD
:1035D00038B5FFF729FB00F57A75FFF725FB854223
:1035E00014D9FFF749F9A0B1052004F09DF904F0C2
:1035F000ADF9044604F0CEF9002C04DB14F001040C
:10360000EBD1204638BD231DE7D0FAE76FF0010467
:10361000F7E74FF0FF34F4E710B5FFF7D9FF0446A2
:1036200008B1002010BDFFF727F928B94FF0FF308F
:10363000B0FA80F04009F5E7062004F075F904F0CF
:10364000A9F9234622462146D820FFF71DF9002874
:10365000E7D1FFF7BDFFEBE710B5FDF7AFFA044682
:10366000FFF7DAFFFEF72CFF012C03D1BDE8104075
:10367000FDF7B0BA10BD2DE9F04180460C46D600EA
:10368000FFF7A6FF054648B132460021204604F068
:1036900097F9B5FA85F04009BDE8F0813346224636
:1036A00041460320FFF7F0F805460028ECD12146FB
:1036B0002644D1E90023D243DB4341F8082BB14231
:1036C00041F8043CF5D1E4E72DE9F04F06461446F5
:1036D0004FF00009C3B00091202C254628BF2025BB
:1036E000009B4FEAC50A524603EBC90102A804F049
:1036F0006FF9002202ABD3E90001C043C943013294
:1037000043F8080B954243F8041CF4D15746B046E1
:103710000DF1080BFFF75CFF78BBFFF7ADF860B366
:103720005FFA88F3C3F580730620BB4294BF019310
:10373000019704F0F9F804F02DF95A4641460220A9
:10374000019BFFF7A1F8C0B9019BFF1A9B44984465
:10375000E0D1FFF73DFF80B9FFF78EF8074660B173
:10376000042004F0E1F804F015F9641B5644A94460
:10377000B2D1384643B0BDE8F08F0027F9E700002A
:103780002DE9F347FFF748FF002859D0FDF716FA57
:103790002C4905464FF480720020FFF795FF294C15
:1037A000002843D10146012D01D1FDF713FA40F65F
:1037B0000803C4F80038084602B0BDE8F08717F8DF
:1037C000013B4FEA4E195A40A2FB003800FB0E881D
:1037D0004FEA421A49EAD26913EB0A0348EB090897
:1037E0004FEAC21A9B184FEACE194FEA02264EEB57
:1037F000080849EA526913EB0A034FEA0E2E48EB18
:1038000009084EEA126E9B1948EB0E0EB64413EBF4
:103810000C020139D3D16946CDE9002E4FF4006086
:103820000122FFF751FF4000C1B2BCE740F60101A1
:1038300027464FF0000C1220034ADFF810E0E8E7BB
:103840000146B8E79816002025232284E49CF2CB99
:10385000044BD3F80038B3F5805F01D3FFF790BF76
:1038600001207047981600202DE9F04F8318B3F51A
:10387000006F04460E46154685B050D8DFF8A4A068
:1038800000EB0A073946304604F0B0F8002846D06D
:103890002A463146384604F09BF8FDF78FF94FF081
:1038A000000883464FF000094DB9FFF7D1FFBBF187
:1038B000010F34D105B0BDE8F04FFDF78BB9052DF0
:1038C0002F4628BF0527C4F3024343EAC703CDE9C7
:1038D00000893A4631468DF800300DF10300230A85
:1038E0008DF801308DF8024004F072F8DDE9002314
:1038F000DAF80008CDE9022302A90122FFF7E4FE6D
:103900000028D4D0DAF800380833CAF80038FFF7B6
:103910009FFF0128CBD1ED1B3C443E44C4E705B0DA
:10392000BDE8F08F98160020F8B50D4606461446FF
:10393000D31D23F0070300AFADEB030D6946284606
:10394000FEF7AEF822466946304604F04FF820B143
:10395000224631462846FFF787FFBD46F8BD0000E6
:10396000082208B517210348FFF7DEFF0022024BAB
:103970001A7008BDF8220020AC1E002010B5084CBB
:1039800005232046032200F8013B064904F020F8F5
:103990004FF67F73A380BDE81040FFF7E1BF00BF83
:1039A000F82200200C7A0008F0B585B01022002122
:1039B000684604F005F8442440F23F4540F2C13720
:1039C000102D2E4628BF1026394632466846FFF78E
:1039D000ABFF013C3744A5EB0605F1D105B0F0BDC6
:1039E00037B50C460546FEF76BF8A04207D001221A
:1039F00028460DF107018DF80740FFF735FF03B0AA
:103A000030BD042838B51D4616D8052914D80E2A0D
:103A100012D81E23520003FB0122B42303FB00240F
:103A2000290A04F12900FFF7DBFFE9B204F12A00BB
:103A3000BDE83840FFF7D4BF38BD042870B516463E
:103A40001D4614D899B9800000F2AD3482F001000F
:103A500004EB4000190AFFF7C3FF002E0CBF032040
:103A60000120E9B22044BDE87040FFF7B9BF70BD46
:103A70002DE9F74F0024194EDFF864A0D146002548
:103A80005FFA84F80FE0FAB240463BF8023B013798
:103A90000191FFF7B6FF0F2F0199F4D10135062DE3
:103AA00009F11E0903D0CB460027E9B2EBE73388C2
:103AB000012200214046FFF7C0FF00227388114613
:103AC00040460134FFF7B9FF052C06F104060AF160
:103AD000B40AD3D103B0BDE8F08F00BFE87F00087F
:103AE000647C000808B5FF212520FFF779FFFF213E
:103AF0002620FFF775FFFF212720FFF771FF002128
:103B00002820FFF76DFFFFF7B3FFFFF74DFF2621DA
:103B10002520FFF765FF08212620FFF761FFBDE89C
:103B2000084028212720FFF75BBF37B50C46054624
:103B3000FEF7E9F8A04207D0022228460DF106015F
:103B4000ADF80640FFF790FE03B030BD094A08B556
:103B50005378C3F3800181420BD060F3820353702A
:103B600004201188FFF7E1FFBDE808400220FCF7C0
:103B70000DBE08BDEA22002037B5042200230C4602
:103B80000DEB020101930546FDF78AFF019B9C4264
:103B900006D0042228460DEB02010194FFF764FED3
:103BA00003B030BD08B5FCF791FC01461320FFF7C8
:103BB000E3FF0022014B1A7008BD00BFF422002071
:103BC00008B5084B1B780BB1FFF7ECFF002211463C
:103BD0001046FDF754F8FDF7F3F9BDE80840FDF78E
:103BE00071B800BFF422002008B5FFF735FD4FF68D
:103BF000E3610020FFF799FF00210220FFF7F0FEAC
:103C00000121104B03201970FFF7EAFE4FF4A05179
:103C10000420FFF78AFFFFF7B1FEFFF763FF0021E3
:103C20000F20FFF7A9FF0022074B1A70FCF76CFC6E
:103C3000FCF74CFC01461320FFF79EFFBDE808404F
:103C4000FFF78EBEFF200020052300202DE9F04F56
:103C50009D4C8BB0D4F80080FEF7E6FF8146A0EBC8
:103C60000805FEF7E1FF00212060984C0F4694F80C
:103C700000C008F57F436646FF33A3EB090ECBB2C5
:103C80009C4510D807B12670914F924C97F800A030
:103C90002678BAF1030F00F21481DFE81AF0190058
:103CA0002D00BC02C70201F10C0204EB4202537862
:103CB00092F80280013143EA08239E4523BF5B1935
:103CC00053701B0A012734BF06F1FF369370D6E705
:103CD0000022814B7D491A70804B29221860804850
:103CE00003F076FE7F4B1B7813F0030218BF9A088F
:103CF000012322703B70E4E07B4B7A4D1B78B3428A
:103D000026D17A4A2B78127803F003039B1A18BF46
:103D10000123714C9B466278A3706B799A4205D05F
:103D20000022114610466370FCF7A9FF012E94F89B
:103D300000900FD0FF2E00F08D803EB9BBF1000F38
:103D400004D0324631463046FCF799FF00234EE05E
:103D50000123DEE74FEA0910C0B200F110085FFA54
:103D600088F84346502B28BF5023EA7860490193D6
:103D7000AB788C5C002B5AD006226978FF254A4329
:103D80006FF0540CB2FBF5F20CFB02FC0CEB410C97
:103D90000CEB4C0C5FFA8CFC0CFB03F1CCF1FF0C30
:103DA000ED1A03FB0CF309121B12C1F1FF01C3F161
:103DB000FF03654361436343C5F30725C1F307214F
:103DC000C3F30723062A2ED8DFE802F004062124D5
:103DD000282D040021461C4622460C460199C3B2F8
:103DE000994227D8B8F14F0F8CBF002301233A4ADC
:103DF00009F1010982F80090002B60D102233B7089
:103E0000BBF1000F5BD1002E36D1032372E72946A8
:103E10001D46E1E70B4629462546DCE722461946C2
:103E20002C461546D8E70B4621462C46F0E725469A
:103E30002246D3E7284B2F495B78095C194207D00B
:103E40002B46214603920290FCF7DAFE039A029871
:103E50000130C3E7214B1B68C3F38123022B27D01A
:103E6000032B29D0012B4FF000021ED01146142045
:103E7000FCF705FF02233B70174B1C781E4B013CDF
:103E80002401E4B204F11005EDB21B78502D2E464A
:103E900028BF502613B9194B1B788BB331462046E7
:103EA0000BB0BDE8F04FFFF755B814211046DFE71F
:103EB000002114220846DBE714221146F6E7002E03
:103EC000DAD10BB0BDE8F08FCC150020141F002014
:103ED000010E0020D4150020FC0D0020D01500207C
:103EE00095220020F8220020000E0020FF0D002067
:103EF000FE7F00088E830008C9220020C82200200F
:103F0000DFF8589299F8002012BB954F31462046B1
:103F1000FFF720F83B78002B61D13B78002B00F0B5
:103F200036815A0740F13381452C00F22581452D19
:103F300040F2FD800023FF211A464520FCF760FE79
:103F40004A2D00F21B810023FF211A464120FEE08A
:103F500098469B46834F3B78A3B17B680193FEF75D
:103F600063FE019BC01ABB68834218D8FEF75CFE53
:103F70003B7B786073B999F8003087F800B0C7F8D8
:103F800004B0D3B908F10108B8F1140F07F1100714
:103F9000E1D1BAE7013BDBB23B73002BEBD03B7BBB
:103FA0007878DB070DD58442ECD88642EAD9FB7BD2
:103FB000BA7B797BFCF724FEE4E7013B89F800300B
:103FC000E0E78442DED88642DCD9FB7BBA7B797B92
:103FD00083F0FF0382F0FF0281F0FF01EAE7990717
:103FE0009BD50D22604906A803F0F2FC4FF00008B3
:103FF0000DF1180919F8010B844206D8864204D93C
:10400000802300211A46FCF7FBFD08F101085FFA46
:1040100088F8B8F10D0FEDD140F23F334FF00208B0
:10402000ADF814300DF1140919F8010B844206D8CB
:10403000864204D9FF231A461946FCF7E1FDB8F180
:10404000010F5BD1494B1878002859D1484B1B7898
:10405000042B59D0474903EB4303CA18C85C92F8B4
:10406000018092F802C080F0FF0188F0FF0200EBAF
:10407000400008EB480800EB48004FF00A088CF0BD
:10408000FF0302EB4209844401EB410000EB4900CD
:1040900018441FFA8CFC80B2BCFBF8FEB0FBF8F0B1
:1040A000AEEB0008A0EB0E000FFA88F800B238EA79
:1040B000280828BF8046B8F14F0F06DCBCF5A06F7A
:1040C0002CBF0023FF231A461946372C1FD8372D43
:1040D00023D93720FCF794FD402D7FF61EAF002337
:1040E000FF211A464020FCF78BFD4F2D15D9FF23E9
:1040F00000227A214F20FCF783FD0EE7D04693E79C
:104100004FF0000C3820AEE784468046ABE7402CE9
:10411000E2D94F2C3FF601AFE7E7A31FDBB20F2B2D
:104120003FF6FBAE00234022FF211520E3E72C2CB5
:1041300010D82C2D2BD90023A522FF212C20FCF7F1
:104140005FFD302D23D9FF22002311463020FCF7DC
:1041500057FD1CE0302CF6D9F5E600BF50210020B9
:1041600000210020542100200F7A0008E7220020BF
:1041700005230020DE8300084A2C08D8FF230022F4
:104180007A214A20FCF73CFD412C7FF6DCAE3B78DF
:1041900053B3DB0628D5A4F10D030F2B05D800235C
:1041A000FF211A461C20FCF72BFD1022274906A8E8
:1041B00003F00EFC002506AF17F8010B844206D869
:1041C000864204D90023FF221946FCF719FD013568
:1041D000EDB2102DF0D1631F0F2B05D8FF23002265
:1041E0007A211420FCF70CFD194B1B78002B3FF4AF
:1041F00068AE072C3FF665AE5020FCF795F90146F6
:104200001820FCF791F90023024607200BB0BDE807
:10421000F04FFCF7F5BC0F4B0F4A1E700F4B1B788D
:10422000C3F301031370FCF7CBFEEEE50C4B1B78D8
:104230000BB1FFF795FB0B4B1C68FEF7F5FC001B61
:104240000F287FF63EAE002354E500BF1D7A00081C
:1042500094220020000E0020FF0D0020F8220020F4
:10426000AC1E0020D01500202DE9F74F3023074663
:104270009146009183F31188A824504D04FB00540B
:10428000D4F888301B78042B4FF0000304D083F35C
:10429000118803B0BDE8F08F94F8A02042F21078A6
:1042A000002A18BF4FF0000883F31188302383F3EE
:1042B00011884FF0000A009EDFF804B1A26A3AB9F3
:1042C000E26852B32269111DA162E1690A44E26207
:1042D000A06AE26AA9EB0A01121A8A4228BF0A46BA
:1042E000402A44D93146402203F072FBA16A40368D
:1042F00040310AF1400AE26AA1628A4204D8E169C7
:1043000020460439FDF7EAF9002282F31188D145ED
:104310001CD9302282F31188D0E7227A82B9B8F111
:10432000000F0DD0DBF80C20616814605160042090
:104330000A6042F210716260FEF7E4FA0028BFDA08
:104340004FF0000B8BF31188D1451AD8302383F33B
:104350001188A82303FB0755A96A31B12B690439D9
:10436000C91A02D02046FDF7B9F900238FE731467C
:10437000019203F02DFB019AA16A16441144924464
:10438000B9E7302282F31188A82606FB075696F873
:10439000A0202046BAF1000F08BF42F0010286F8C3
:1043A000A020FEF773F82046FEF77FF886F808B0E5
:1043B000FEF72EFC8BF3118878E700BF200E00205B
:1043C000B81F0020014608220120FFF74DBF01461B
:1043D00020220020FFF748BF014603220020FFF7FC
:1043E00043BF20290A4603D101460220FFF73CBF04
:1043F00070470000302383F31188034BDB6898611A
:104400000F20FEF771BA00BFB81F002008B50146A3
:10441000302383F311880820FEF774FA002383F316
:10442000118808BD38B5392814BF0A25502504461F
:10443000FDF792FA40F2E7300021DFF820C00023B8
:10444000E5FB0C014FF47A72FBF7D0FEFFF7DEFFBD
:104450002046BDE83840FDF7E1BA00BFA086010064
:104460002DE9F0411F460C461646244B68B11970E1
:10447000FEF7DAFB224B04F0070418800120A0406D
:10448000C0B2BDE8F041FDF7F7BA1D788D422DD1DD
:104490001B4BB3F80080FEF7C7FBA0EB080080B20F
:1044A000C72823D806F12004B542E4B210D005F0A5
:1044B0000700012505FA00F0C0B2FDF7E7FA072C66
:1044C00006D806F0070305FA03F0C0B2FDF7D4FAE8
:1044D0003846FFF7A7FF072C0DD8012006F0070686
:1044E000B040C0B2BDE8F041FDF7D0BA012004F001
:1044F0000704A040F5E7BDE8F08100BFFA200020E6
:10450000D81400202DE9F04F0379054687B0002B21
:1045100000F02E870121FDF783FB6B790746ABB1D5
:10452000934B1C8894B1A04211D014F0FE0FE0B25E
:1045300004BF46428F4B4FF000010ABF06F014063D
:104540000026F618FCF760FD014650BB3C468A4B3E
:104550001F78002F36D06A797AB1B4F5F84F0CD0B5
:1045600000221026854C1A70A661FCF783FD800797
:104570004ABF4FF48013A661A361814B1B78580793
:1045800000F0F6866B79002B00F0F2867D4B5B78AD
:10459000590740F1ED86022007B0BDE8F04FFCF767
:1045A000F5B84379078043F0040343713046FDF7C3
:1045B000B3FF0022744B012128461A70FDF730FB2F
:1045C0000446C4E7B4F5F84F05D16B79002BD4D07D
:1045D000FEF78CFCD1E7A82C19D1FBF7D7FFD0B19F
:1045E0006B79002BC9D0FEF71FFB684B1860684B36
:1045F0001B7853B1674B18780121B0FA80F040095D
:104600004042C0B2FEF764FBB7E7634BF3E747F6FF
:1046100044639C4213D0DFF8848198F80030002B6B
:1046200000F0A28699074FEA630240F181866B7819
:10463000022B40F07D862B780D2B40F079866B792C
:10464000002B9AD0564B187805230130B0FBF3F3BA
:1046500003EB8303C01AC0B2FEF7E0FBFEF7E4FAF7
:104660004A4B186089E76B79E3B1FEF7DDFA474BF7
:1046700018604C4B1A780AB100221A704A4B1B780A
:1046800063B94A4B1B786BB9434B1B78FF2B05D1A1
:104690003F4B1B7833B13F4B1B781BB90021FF20E8
:1046A000FEF716FB29462046414AFDF71BF9002874
:1046B0003FF463AF294620463E4AFDF713F9002830
:1046C0003FF45BAF47F641639C4200F0B78040D8AF
:1046D00047F213039C4277D047F640639C4200F0B8
:1046E000A5806E79002E00F06681A4F5EE439BB2A2
:1046F0007F2B00F26081E4B20F2C3FF63EAF012128
:1047000040F23E4003AAFDF705FA9DF80C60002E2A
:104710007FF433AF40F23F47002C40F09680039681
:10472000254F264EDFF8988003A8FDF70BFA0028E6
:104730003FF423AF012840F0DC8003A8FDF702FA24
:10474000431E0446032B00F29680DFE803F08F9CA3
:10475000A2A847F642639C42C3D16B79002B3FF479
:104760000CAF184A137883F00103137005E700BFFC
:104770004E210020B0100020C82200200008004078
:1047800001210020EA22002002210020F420002044
:10479000E4220020E1100020E5100020002100208C
:1047A00005230020BE220020DA220020E52200207E
:1047B000A9100020A4100020EA810008FA81000856
:1047C000DA810008942200206B79002B3FF4D5AEEB
:1047D000FDF7EAFEB74A137883F08004E40964F336
:1047E000C71313709CB10C22B3490DEB020003F008
:1047F000EFF8002403AEFF2301341A46C82116F84F
:10480000010BE4B2FEF742FD0C2CF4D1B5E6AB4B44
:1048100003AE0393002301341A46962116F8010BC8
:10482000E4B2FEF733FD042CF4D1A6E66B79002B3D
:104830003FF4A3AE0122A24B1A709EE66B79002BC7
:104840003FF49BAE00229E4BF6E7BE423FF495AE8E
:104850000121304603AAFDF75DF99DF80C300BB13C
:104860000136F2E7013CE4B2013655E703A8FDF753
:1048700069F9FFF7D7FD4FF47A70FFF7C7FD002CF9
:104880007FF452AF79E603A8FDF75CF9FDF764F811
:10489000F1E703A8FDF756F9FDF7C0F8EBE703A829
:1048A000FDF750F94FF0000904464FF00A0BDFF80E
:1048B00014A21AF8041011F0040110D1B9F1000F7C
:1048C00015D040F2E730DFF800C24FF47A720023CF
:1048D000C9FB0C01FBF78AFCFFF798FDCBE703A8A7
:1048E000FDF730F9303C0BFB09490446E1E70120B4
:1048F000F2E7C0F3C7027549BB5C345C18F802905C
:1049000000F0070011F802A0034149FA00F94AFA41
:1049100000FA13F0010B09F001090AF0010A0AD0AC
:104920006B4A137843F002031370FCF793FF4FF4C4
:104930007A70FFF76BFDB9F1000F0AD0644A137863
:1049400043F040031370FCF785FF4FF47A70FFF7D4
:104950005DFD2046FDF700F84FF47A70FFF756FD35
:104960002046FDF75BF84FF47A70FFF74FFDB9F181
:10497000000F08D04020FBF759FFFCF76BFF4FF406
:104980007A70FFF743FDBBF1000F08D00220FBF760
:104990004DFFFCF75FFF4FF47A70FFF737FDBAF178
:1049A000000F3FF4C1AE2C20FFF73CFD4FF47A70AE
:1049B000FFF72CFDB8E6A4F5AE43FF2B00F2AF8065
:1049C00014F0FE037FF4D9AD3146E0B20193FCF759
:1049D0001BFB814600283FF4D0AD4279DFF8F4B0EC
:1049E00066F300025FFA84FA4271002E7ED0FEF771
:1049F0001BF9394A3649108099F8022009780132AA
:104A000089F80220354A484612780A4389F803207B
:104A1000334A127889F80420142202FB0AF20BEBC5
:104A2000020109695BF80220FCF720FB99F80520D8
:104A3000019B12F0020F08BF23462A4A13806A79AD
:104A4000002A00F04F840021274BA4F5E04619709E
:104A5000B3B2222B00F254840420FDF754F9154C14
:104A6000013E2080212E00F28380DFE816F0BF0097
:104A70002A01C70091009500CB009900CF00DB0010
:104A8000A5002201A900DF00AD00E3000901B1008B
:104A9000E7001101B700ED00F5009D00D300A10073
:104AA000D700BB00F10000011B0120018C00C300F6
:104AB000320100BFEA2200202E7A0008464438392D
:104AC00094220020EE830008A0860100DA8100080D
:104AD000FC200020B0100020F8200020022100203F
:104AE000FD2000204E210020FA200020142303FB8B
:104AF0000AB3DA681969FCF7B9FA99F805309B0727
:104B00009DD5CAF1000000F0140049465844FDF755
:104B1000E7FCB24B1A88A24291D11E808FE7A4F520
:104B2000F843183B062B8AD8DFE803F00E12040B7B
:104B3000161A1E002623E12211463046FFF790FC8C
:104B40001BE52723E522F7E72623E122E021F4E70E
:104B50002723E522E421F0E72623E122E221ECE706
:104B60002723E522E621E8E728230122E521E4E7DF
:104B7000237843F00103237004202188FEF7D5FF3A
:104B8000FDF712FDF9E4637843F008036370F3E77F
:104B9000237843F00203EEE7237843F00403EAE7C7
:104BA000237843F00803E6E7637843F00103EDE779
:104BB000637843F00203E9E7237843F01003DAE770
:104BC000237843F02003D6E7237843F04003D2E76D
:104BD000FDF7EAFC237843F08003CCE7237843F029
:104BE0000C03C8E7637843F00303CFE7237823F08F
:104BF0000103C0E7637823F00803C7E7237823F0B5
:104C00000203B8E7237823F00403B4E7237823F002
:104C10000803B0E7637823F00103B7E7637823F074
:104C20000203B3E7237823F01003A4E7237823F0EB
:104C30002003A0E7237823F040039CE7FDF7B4FCB2
:104C4000237823F0800396E7237823F00C0392E780
:104C5000637823F0030399E72378C3F3800282F09B
:104C60000102D2B262F3820362F3C30383E7637883
:104C7000DA4302F0010262F3000362F3410385E7C5
:104C80002378C3F3801282F0010262F3861372E785
:104C9000FDF78AFC2378C3F3C01282F0010262F3AD
:104CA000C71368E701210E20FEF79AFE64E7002192
:104CB000F9E72378C3F3001282F0010262F30413D0
:104CC00059E72378C3F3000282F0010262F3000384
:104CD00051E76378C3F3C00282F0010262F3C303B9
:104CE00054E747F677439C4240F08F800120FBF762
:104CF00093FCB0E01B78A4F5F041A1F1200003F093
:104D000022030A2824D8DFE800F0060A510F5714BE
:104D10005D19631E6B000120FBF7B4FF2DE4002B2F
:104D200046D0FCF713F828E4002B47D0FCF742F8F4
:104D300023E4002B48D0FCF757F81EE4002B49D0A1
:104D4000FCF76EF819E4002B4CD0FCF783F814E460
:104D500040390E2955D801A050F821F0994D00088E
:104D6000A74D0008174D00081F4D0008AD4D000865
:104D7000294D0008B94D0008334D0008C54D000805
:104D80003D4D0008D14D0008474D0008E14D000899
:104D9000ED4D0008F74D0008FBF782FF0120FBF7FF
:104DA00027FFFFF7EABBFBF78DFFF7E7002BB8D033
:104DB000FBF7C8FFFFF7E1BB002BB7D0FBF7F0FF15
:104DC000FFF7DBBB002BB6D0FCF700F8FFF7D5BB35
:104DD000002BB5D0FCF716F8FFF7CFBB4E21002013
:104DE000002BB2D0FCF72AF8FFF7C7BB2BB1FCF7BA
:104DF0004DF8FFF7C2BB002BF9D0FCF737F8FFF7EF
:104E0000BCBB47F677439C4216D047F678439C429A
:104E10001BD0A4F5A543603B9BB21F2B1FD87ABBC8
:104E200004F01F0301249C400320E1B2FEF7D8FDEB
:104E3000A94B1C70FFF7A1BB0120FBF7E3FB03228A
:104E40000221FBF75DFCFFF798BB0220002A3FF42C
:104E50004EAFFBF7D7FB032202210120F1E762B33B
:104E600047F65B439C4226D047F65C439C4216D0F3
:104E700047F65A439C421CD047F601439C420AD055
:104E800047F603439C4218D1FEF7E6FB4FF6FF714D
:104E90000020FEF74AFEFDF787FBFCF795F98F4BE4
:104EA000587880F00400C0F38000FEF74FFEFFF753
:104EB00064BB0120F9E70020F7E72B88ADF8083044
:104EC0000298002A53D0FCF783FE0446014602985C
:104ED000FBF7DAFBBDF808302046ADF80C3003993B
:104EE000FCF756FEFBF792FDDFF8F4A195F806906B
:104EF0009AF8003004465A076E79C9F3031924D092
:104F0000002E38D0C4F3072303F0F002402A0ED05D
:104F1000C1B201F12002D2B2072A16D903F0E00390
:104F2000202B04D1012910D9B9F1000F0DD06B4B02
:104F30005B785B0709D50220FBF728FC9AF8003064
:104F400013F0070F0CBF01270027C4F303330B2B0B
:104F50006CD8DFE813F0120012004B004B00CF00BA
:104F60006B006B006B00E600500162016201FBF711
:104F7000A9FB0446AEE73746E7E7C4F30328C4F3CA
:104F800007224FEA08130F2A88BF9846E4B2AEB151
:104F9000B8F1000F0CD004F12003DBB2072B00D9CD
:104FA00054B9504A137848EA03031370FCF752FCD3
:104FB0002046FCF7D1FC39E04B4AF3E72046FCF7EA
:104FC0002DFDB8F1000F31D004F12003DBB2072B27
:104FD00000D91CB94046FBF729FC04E0424A13788B
:104FE00023EA08031370FCF735FC1FE0C4F3032029
:104FF000C4F3072303F0F0030201E4B2202B18BF2F
:1050000010463CB1012C4DD0002E56D0B9F1000F06
:1050100026D0CDE7314B5B785C071DD426B128B193
:10502000304A13780343DDE70028D4D1002F00F085
:10503000A1809AF8000010F0010340F09B806B7192
:10504000C008FBF7DFFA2846FFF75CFA9AF8000081
:10505000C008FBF7E1FA8DE086B1B9F1000F02D18B
:10506000FCF70AFDE2E7B9F1010FDFD11F4A13781F
:1050700030EA0301DAD003431370D7E7B9F1000F28
:10508000D4D10190FCF702FD184A01981378184218
:105090001CBF83431370164A13781842C6D023EA04
:1050A0000003E9E71EB1B9F1050FBFD8D8E7B9F1A0
:1050B000040FBBD8FCF7EAFCB8E7B9F1000FF9D050
:1050C000392C0CBF4FF4FA504FF47A70FFF79EF969
:1050D0002046FCF7A3FCA9E7FF200020EA220020DD
:1050E00001210020FC20002002210020FD200020C2
:1050F000FE20002014F4406FC4F3812307D0012B5D
:1051000094D166B1C4F30900FBF7DAFF8EE726B14C
:10511000C4F30900FBF7B8FF88E73046FAE73046EA
:10512000F2E714F4407F32D106BB0F21C4F34212E0
:105130009200D2B29140C94304F00F03C9B2934028
:1051400014F01002C4F3812418BF0A46022C8A49C5
:1051500017D0032C19D0012C04D013430A78134024
:105160000B7003E0087803431A430A70FBF782FFD1
:10517000FBF73CFA0021284607B0BDE8F04FFCF7EA
:105180004FBD13430A785340EAE71343E8E7C4F3FB
:105190000122FEB1D107E9D50F21C4F342129200DA
:1051A000D2B29140C94304F00F039340C9B214F046
:1051B0001002C4F3812418BF0A46022C14D0032C19
:1051C00017D0012C09D0134398F80020134088F819
:1051D0000030CBE7012ADFD8C8E798F800100B436E
:1051E0001A4388F80020C1E7134398F80020534081
:1051F000EDE71343EBE7E7B2C4F3032436B12046EF
:10520000FBF700FA3846FCF737FCAFE73846FCF707
:105210003DFC2046FBF700FAA8E7E7B2A7F1F00350
:10522000042B42D8DFE803F003260F1622003EB11C
:10523000B9F1040F9AD80123C4F30424A340D4E79E
:10524000B9F1050FF6E7C4F30420002EE2D1FBF715
:10525000D9F98BE73EB10123C4F3042403FA04F423
:1052600088F8004082E788F800607FE7434B5B786E
:105270005A0704D4C4F30420002ECBD0E7E74EB184
:105280005B07C4F30420E2D5C30043F003038AF8AC
:105290000030DCE70120FBF779FAB9F1010F7FF666
:1052A00065AF0220FBF772FA60E74EB1B9F1000F6B
:1052B00003D03846FCF750FB58E7C4F30420C6E798
:1052C000B9F1000F0BD0392F0CBF4FF4FA504FF447
:1052D0007A70FFF79BF83846FCF7A0FB46E7C4F36B
:1052E000042097E747F616439C427FF4FAAC244B20
:1052F0001B78002B0CBF29203520FBF733FF13E070
:1053000047F616439C421F4B7FF4F4AC1B7803F026
:10531000AA03002B14BF01220022194B0CBF292025
:1053200035201A70FBF7E8FEFCF794FAFFF725B971
:1053300047F643639C420AD0D2077FF594A96B7865
:10534000032B7FF490A92B78052B7FF48CA96B7924
:10535000002B3FF412A90C4B1B78042B0ABF0B4BFC
:1053600004201878FFF778B947F643639C42ECE7CE
:1053700007B0BDE8F08F00BFFF200020EA22002028
:10538000FB200020FC20002005230020D02200204C
:105390001C49F8B58B790F2B0AD84B7943B11A4BBE
:1053A0001A4A1B7815784E780F78194CAB4200D109
:1053B000F8BD04EBC300027902B34278B2421DD1BA
:1053C00014F83320BA4219D14279BAB94288B1F8F7
:1053D00002C0A2EB0C0292B2C72A0FD801228B792D
:1053E00062F307138B71837962F3071383710548A6
:1053F000FFF788F8BDE8F840FBF7B8B9013303F0D0
:105400000703D3E7462100200421002003210020C8
:10541000062100202DE9F04F054685B08A4C014653
:105420000622684602F0D4FA94F804A06F7995F841
:105430000490BAF1000F1AD1B9F1000F15D0002F66
:1054400000F0FE802846FCF717FC002800F0F880EA
:1054500008222946204602F0BBFAB9F1010F02D119
:105460002088FCF7F7FBFFF793FF012444E0B5F831
:1054700002B063886679ABEB030395F800809BB2BA
:10548000002E00F0AE80C72B00F28880B9F1000F2B
:10549000EBD0A37962780F2B697850D891420FD165
:1054A000227842450CD1002F44D10122204662F3DC
:1054B0000713A371FFF726F8A379AB7100241BE053
:1054C000002F37D13A464046FBF72EF94046FBF70E
:1054D0002BF904460028F1D10098FCF7BBFBC0F380
:1054E0000332032AC3B20BD8012A13D910F4706F08
:1054F00015D0AA790F2A12D8204605B0BDE8F08F42
:10550000063202F00F02012A0ED92846FEF7FAFFF2
:105510003446F1E710F4706F01D0002BECD020334B
:10552000DBB2072BE8D9F0E7EF2BE5D90F33DBB27D
:10553000022BF7E7A37943F00103A371BEE7914281
:105540000DD1227842450AD14FB92846AB71FEF7FA
:10555000D9FF08222946204602F03AFA85E7284674
:10556000FCF78AFB00286BD0002F69D0A3791F2B92
:105570000ED9228802A8ADF808200022ADF80AB0A2
:105580008DF80CA08DF80D208DF80E30FEF7BAFFC7
:10559000082229462C4802F01BFA64E7A3790F2B56
:1055A00008D82046FEF7AEFF08220021204602F070
:1055B00007FA83E7B9F1000F3FF457AF61786A78D3
:1055C0009142CCD122784245C9D1002FC7D128467B
:1055D000AB71FEF797FF08223946204602F0F0F93A
:1055E00043E7C72BE0D8B9F1000F3FF43EAF3FB31C
:1055F00062786B789A421AD12378434517D1A37900
:10560000DA0710D40F2B0ED9AB7103F0F003F02B97
:1056100006D0AB79C3F30312013262F30713AB7107
:105620002846FEF76FFF08222946074894E72846D8
:10563000FCF722FB0028ABD1A37943F00103A3714F
:105640002846FEF75FFF10E746210020F0B589B03D
:10565000CDE900019DF8055000220DB12C490A70DA
:105660009DF80460DDE90001ADF80E2002905EB106
:10567000012102A88DF80C608DF80D50FCF7D0FACE
:10568000012102A8FCF7CCFA8DF80C608DF80D50C2
:10569000DDE90201CDE9040104A8FFF7BBFE1D4EC0
:1056A00007461D4CB8B9DDE90401CDE906019DF8B6
:1056B00014103378227871B15D1C05F0070595420E
:1056C00010D01648082206A900EBC30002F080F9AA
:1056D0003570FBF74BF8114D2078337883420BD1AE
:1056E00009B0F0BDFCF760FF082239460C4837705E
:1056F000277002F065F9EEE705EBC000FFF78AFEC0
:105700000028EDD02378013303F007032370E3E78B
:105710000221002003210020042100200621002076
:105720004621002073B5FDF77FFA0A4D84B22B881D
:10573000A3420DD00026ADF80060FDF775FAADF874
:105740000460ADF80200DDE90001FFF77FFF2C8067
:1057500002B070BD9E20002000232DE9804895B046
:1057600001935C4B9A68022A01BF1A685A4A526F29
:105770005A689B6900231E46584A0133102B166055
:10578000566002F10802F8D10127554B554D03F13F
:105790000C021A61DA60544A5E61DA611F705E6061
:1057A0009E60524B2F7003F10C021A61DA60504A6E
:1057B0005E61DA611F7040F2BF325E609E604FF042
:1057C000E023EE61AE622E62EE626E622E636E6068
:1057D000AE605A6107229E611A618022454946489F
:1057E00083F8232D08604548454C4860454903F53A
:1057F00050634FF0300CA66221638CF3118862B6BF
:10580000D868414920F4E0600004000C0143D960ED
:10581000D3F8FC103D4841F08071C3F8FC100168DA
:105820004FF00009394301602021D97783F822C065
:1058300004F11003C4E904334FF0FF33E661A361C0
:10584000E3693348984604F13403E36000F1C4038C
:10585000C0F8F4302F4BC0F8C860C0F8C4302E4BED
:10586000C0F8F070C0F8E4300223C4E90889A0F859
:10587000FC30E263A265C4E90044C4E91466A66092
:10588000E662E6656464A4F84870C0F8F840C0E9D0
:105890004267C0F80461E830FCF780FA86F31188AB
:1058A0001E4B1F4ADF701F4BDFF87CA01A60FCF70D
:1058B00007FE01F0ABFF4FF4807248461A49FDF72E
:1058C000DAFE002840F0B882FCF7FAFDFCF7F8FD9C
:1058D00084E000BF000C014000040140D815002006
:1058E00020230020C01E0020003000405816002059
:1058F000009000408C1600205823002000700020EB
:10590000B81F0020008100080003FA05001000E025
:10591000E8100020B90B0008D1010008A0100020F9
:10592000B10B0008040E0020981600201EF8013B61
:105930007340A3FB0C9B0CFB07BB7E015A0119EBC8
:10594000020246EAD3664BEB060B4FEAC719D218A0
:105950004FEAC31647EB0B0B4FEA0328961949EAA7
:1059600053694FEA07274BEB090947EA136716EB20
:10597000080649EB070908EB090786190139D5D153
:1059800001224FF400600CA9FDF775FEDDE90C2340
:10599000BB4208BFB24201D0FCF792FD40F60806B8
:1059A000012230460AA9FDF766FE002800F0688251
:1059B000DDE90A3253EA020100F0618213F0C00F00
:1059C000CDE90C3206F10806D9B200F03E82CAF8E1
:1059D0000068FDF7D5FE00283FF478AF4FF0804314
:1059E0006FF0200200261A6320214FF055321A6012
:1059F0005E609E60DE60DE621E625E6299616FF4D0
:105A00000071C3F830144FF40071C3F80024C3F8D8
:105A10000464C3F80864C3F80C64C3F82C64C3F8C6
:105A20002064C3F82464C3F818146FF48071C3F8B9
:105A30003014C3F800244FF48072C3F80464314674
:105A4000C3F80864B748C3F80C64C3F82C64C3F8FF
:105A50002064C3F82464C3F81824102203F580637B
:105A60004FF0A80801F0ACFF302731464FF0010C91
:105A70003246AD4BDFF8B4E21E70AD4B1E70AD4B3D
:105A800003F15C00D86493F8840010B103F1700056
:105A90001865DFF8A0A2D3F8946008FB01AAD3F838
:105AA0009800D3F8909004361B605B6083F808C0C0
:105AB000CAF80C9006FB090A58611861C3F818A0CF
:105AC000DE61C3F8209058629A62DA62C3F830E06F
:105AD0005B6387F31188D3F8880093F88C6000EB40
