:020000040800F2
:1000000000040020B9010008BB010008BB01000882
:10001000BB010008BB010008BB010008BB010008D0
:10002000BB010008BB010008BB010008096D000806
:10003000BB010008BB010008BB0100080D720008ED
:10004000BB010008BB010008BB010008BB010008A0
:10005000BB010008BB0100086D7000089570000826
:10006000BD700008E57000080D710008BB010008B4
:10007000BB010008BB010008B9720008BB01000801
:1000800035710008BB010008BB010008BB01000876
:10009000BB010008BB010008BB010008BB01000850
:1000A000BB010008BB01000891720008A57200089E
:1000B000BB010008BB010008BB010008BB01000830
:1000C000BB01000899710008BB010008BB010008D2
:1000D000BB010008BB010008BB010008BB01000810
:1000E00072B6264880F30888254880F30988254899
:1000F00025490860022080F31488BFF36F8F02F057
:1001000069FC02F099FC4FF0553020491B4A91429E
:100110003CBF41F8040BFAE71D49194A91423CBF24
:1001200041F8040BFAE71B491B4A1C4B9A423EBF9D
:1001300051F8040B42F8040BF8E700201849194A5B
:1001400091423CBF41F8040BFAE702F013FD02F0C4
:100150000FFD154C154DAC4203DA54F8041B8847CB
:10016000F9E705F029FA124C124DAC4203DA54F8C3
:10017000041B8847F9E702F0FCBC000000040020E3
:10018000000C00200000000808ED00E00000002046
:1001900000040020C8820008000C0020E8100020A5
:1001A000E81000204C230020E0000008E0000008D8
:1001B000E0000008E000000892E700F000F8FEE729
:1001C0002DE9F04FC1F80CD0C3689D46BDE8F08F13
:1001D000002383F311882846A047002004F04CF840
:1001E000FEE702F0EDFC00DFFEE7000053B94AB97C
:1001F000002908BF00281CBF4FF0FF314FF0FF302F
:1002000000F062B9ADF1080C6DE904CE00F006F81B
:10021000DDF804E0DDE9022304B070472DE9F04782
:100220008C46154604461E46089F002B40F0CB80A6
:100230008A4248D9B2FA82F149B1C1F120030CFADD
:1002400001FC20FA03F38D4043EA0C0C8C404FEA8A
:10025000154EBCFBFEF8A8B20EFB18CC08FB00F94B
:10026000230C43EA0C43994529D9EB1808F1FF32D6
:1002700004D2994502D9A8F102022B44A3EB090349
:10028000B3FBFEFC0EFB1C330CFB00F0A4B244EAF3
:100290000344A04215D92C190CF1FF3304D2A0421B
:1002A00002D9ACF102032C44241A43EA02401FB1E4
:1002B0000023CC403C607B603146BDE8F08742467D
:1002C000DCE76346F0E7002A73D0B2FA82F3DBB3CF
:1002D0001E4602FA06F5C6F1200321FA03F24FEAA0
:1002E000154EB14020FA03F30B43B2FBFEF100FAC6
:1002F00006F40EFB112CA8B201FB00F81A0C42EA1E
:100300000C42904557D9AA1801F1FF3C04D2904500
:1003100002D9A1F1020C2A44A2EB0802B2FBFEF1C1
:100320000EFB112248439BB243EA0243984244D950
:10033000EB1801F1FF3203D2984201D98A1E2B44F7
:100340001B1A42EA0C4201E08B1A01224FEA154EB9
:10035000B3FBFEFCA8B20EFB1C330CFB00F8210C17
:1003600041EA034398452AD9EB180CF1FF3104D236
:10037000984502D9ACF102012B44A3EB0803B3FB6F
:10038000FEFC0EFB1C330CFB00F0A4B244EA034459
:10039000A04216D92C190CF1FF3304D2A04202D985
:1003A000ACF102032C44241A43EA014031461646BC
:1003B0007DE71F268DE78C46AEE70A46C0E761461B
:1003C000DBE76346EFE78B4206D917B900263046D4
:1003D00072E7C7E90001F9E7B3FA83F686B98B4201
:1003E00001D3824207D8841A61EB030301209C46A3
:1003F0001FB9002660E73046FAE7C7E9004CF8E786
:10040000C6F1200CB34022FA0CF41C434FEA144905
:1004100021FA0CF3B3FBF9F820FA0CF5B1402943AB
:100420001FFA84FE00FA06F509FB183008FB0EFAE5
:100430000B0C43EA00439A4502FA06F240D9E3184E
:1004400008F1FF3004D29A4502D9A8F102002344F2
:10045000A3EB0A03B3FBF9F809FB183308FB0EFE04
:1004600089B241EA03418E452CD9611808F1FF3366
:1004700004D28E4502D9A8F10203214443EA004088
:10048000A0FB0298A1EB0E014145CE46434602D3A4
:1004900006D14D4504D2B9EB020E68EB04030138D6
:1004A000002FA6D0B5EB0E0261EB030101FA0CFCA4
:1004B00022FA06F34CEA0303F140C7E9003198E75A
:1004C0004046C5E74346D9E7704700BF0322084BC3
:1004D0000849187800F0070040F0004011F8013B8F
:1004E000DB08934005321C2A40EA0300F6D170472E
:1004F000FD220020F8220020054B064ADB78127806
:10050000534358434FF60163B0FBF3F0C0B270475A
:10051000F0220020E5100020042807B513D10023A5
:10052000ADF804308DF8063000209DF8043063F3F8
:1005300007009DF8053063F30F209DF8063063F344
:10054000174003B000BD044900EB40000144032202
:1005500001A807F01FF9E7E7AE810008FF22064B6C
:100560001A700023054A1370054A1370054A137068
:10057000054A1370704700BFE5100020E8220020F4
:10058000DF220020DE220020DD22002010F0020FFA
:100590000CBF10224FF48012014B9A61704700BFCC
:1005A000000800400123034A834011780B43137075
:1005B000704700BF302100200123034A8340107898
:1005C00020EA0300107070473021002001F007037B
:1005D000C90801EB410130B501250A4400219D40C5
:1005E000013A12F8014F20FA01F343F3000363408C
:1005F0002B4001315C4003291470F2D130BD002240
:1006000010B500F00704C00800EB4000014410469C
:100610008B5CE34003F00103934001321843032A4B
:10062000C0B2F5D110BD00000246C0F30723052B70
:10063000084682B0D1B209D80E290DD8C3EB0313F6
:100640001944064A89B202B0FFF7C0BF0433DBB2D7
:10065000012B01D8024AF6E702B07047FF200020C4
:10066000FC200020C0F30723052B82B0C0B209D8BC
:100670000E280DD8C3EB03131844074980B202B00B
:10068000FFF7BDBF0433DBB2012B01D80349F6E706
:10069000002002B0704700BFFF200020FC20002097
:1006A00030B50124074D04FA01F12B7804FA00F06B
:1006B0000843C1B21840944081420CBF2343A34376
:1006C0002B7030BD30210020F0B50D4B0D4C1B7848
:1006D00026780D4CB34201D10020F0BD04EBC305D8
:1006E0006F788F4206D114F83370874202D16D794A
:1006F000954203D1013303F00703EBE70120ECE758
:10070000342100203321002036210020054B064AE9
:100710001B7812789A4200D17047013303F0070327
:10072000F8E700BF342100203321002010B509492B
:100730000B7823EA000010F00704087009D19842F2
:1007400007D0054B5B785B0703D5C008FFF734FF84
:100750000C7010BD31210020EA22002070B5144B2E
:10076000144D1878144B1B7818432B78C0B293B1F2
:100770001843124B9B78012B04D1114B93F9003095
:10078000002B09DB06220F4B00211A449A4206D1A6
:1007900009B100232B7070BD1E220B4BF4E74C1CDB
:1007A00013F8016BE4B2002E18BF2146EEE700BF3C
:1007B0002C2100202D21002032210020A01000201B
:1007C000EA220020F6130020FE130020024A1378CC
:1007D00023EA0003137070472C210020E7284FD82C
:1007E000DF2807D8312864D00ED8292857D02A28E6
:1007F00066D07047A0F1E003072B41D8DFE803F093
:100800001540232831403C41392804D0822802D0A9
:1008100035283FD07047324B1A7892071FD15B784A
:1008200013F0080F18BF292070472D4A1378D907F5
:100830004DD4527812F0010F22D013F0100F14BFD4
:100840000020E3207047264B1B7813F0040FF3E7DA
:10085000234A137859073CD45278D207EDD5E020CB
:1008600070471F4B5A7891070AD51B7813F0100F69
:1008700014BF0020E7207047194B1B781A07F5D4E6
:100880007047174A1378190725D452789107EDD588
:10089000E4207047124B1B7813F0200FC2E7104B77
:1008A0001A78920619D45B7813F0080F18BF392014
:1008B00070470B4B1B7813F0400F18BF2A2070476E
:1008C000074B1B7813F0400F18BF312070473920B9
:1008D0007047E2207047E62070473520D0E700BF20
:1008E000EA22002030B5304D2B785A0711D500F0A0
:1008F000140100F018020C1F6142A2F1080C6141C2
:10090000DCF1000242EB0C0280F00C04914218BFB3
:100910002046190713D500F0140400F01801A4F1C3
:10092000140CA1F11802DCF1000444EB0C04514258
:10093000514180F00C02D2B28C4218BF10466D7843
:10094000E90713D500F0110400F0180104F1FF3C91
:10095000A1F10802DCF1000444EB0C0451425141C6
:1009600080F00902D2B28C4218BF1046AA0711D5F6
:1009700000F0110400F01801A4F111025442A1F199
:1009800018055441694280F009026941D2B28C4293
:1009900018BF1046DB0605D500F0E70310F0080F7E
:1009A00018BF184630BD00BFEA22002038B5FFF757
:1009B00015FFB0F5A44F04463FD2B0F5A04F80F02C
:1009C000A680DF2816D8CC2800F28680A7280AD86F
:1009D000A42874D8012804D0031F9BB2A12B28BFE0
:1009E0000024204638BDA0F1A8039BB21A2B6BD976
:1009F0000024F6E7B0F5804F16D2B0F5005F80F026
:100A00009980E728EDD9A0F580739BB2B3F5F85F24
:100A1000EED2C0F30720FFF765FF0546E0B2FFF70F
:100A2000DDFE40EA0524DCE7C0B2FFF7D7FE04F4A0
:100A30007064204340F42044D3E7B0F5A54F21D2A1
:100A400045F25F23984251D845F23F2398420ED891
:100A500045F21F23984242D8012300F00304A3402B
:100A6000C0F3850243EA421343F40D44B9E701237E
:100A700000F00304A340C0F3820243EA421343F4AC
:100A80000C44AEE745F2BF2398420AD845F29F23B3
:100A9000984200F01F0034D84AF2F40343EA0024DD
:100AA0009FE7A0F5A543403B9BB21F2BA0D80402B3
:100AB00004F4F85444F4204444F0F00491E7A0F125
:100AC000240444F480448CE7204B5834E4B233F8D7
:100AD000144044F4884484E740F4A04481E74AF297
:100AE000F10300F01F0443EA04247AE7012300F035
:100AF0000304A340C0F3820243EA421343F40A44CE
:100B00006FE7FFF7EFFE040244F4005469E700F0DA
:100B10001F00FFF7E7FE03B21A0102F0F00210F027
:100B2000100F18BF1346C4F3431443EA042343F4DD
:100B3000104456E7C0F30420FFF7D4FE0546E0B2A8
:100B4000FFF74CFE40EA0524DEE700BFD88000082E
:100B5000002070470020704730BFFDE7044B93F83A
:100B600004281AB9012083F804087047022070474E
:100B700098160020054B93F8042822B1002201208A
:100B800083F8042870470220704700BF98160020A1
:100B9000024B1A7810431870704700BFAC1E00203B
:100BA00000F0C4B92DE9F3410446D0B2C2F30725E1
:100BB0000E46C2F30741FFF79FFC07462846FFF7A2
:100BC0009BFC05460846FFF797FC8046E3B29E4231
:100BD00002D802B0BDE8F081204643462A46394695
:100BE000FFF7DEFF0134F1E72DE9F0478046894643
:100BF00014469DF820609DF824709DF828A0D51813
:100C000014F8010B404506D3484504D253463A46F2
:100C10003146FFF7C5FFAC42F2D1BDE8F08700F0E6
:100C200091B90000044A137883F001031370002285
:100C3000024B1A70FFF7ACBFF0220020010E00201B
:100C4000064A137813F0030304BF05490B70012112
:100C5000137861F301031370704700BFF022002086
:100C6000010E0020054B1A7892071EBF0021044A8E
:100C700011701A7822F003021A707047F0220020D7
:100C8000010E0020074A1378980709D0012060F36D
:100C9000870313700022044B08461A70FFF778BFD1
:100CA000704700BFF0220020010E002007B503228C
:100CB000019001A9094806F06DFDFFF7C1FF084B3F
:100CC0001B78C3F38503012B06D00021012003B05C
:100CD0005DF804EBFFF7D6BF03B000BDE2100020C3
:100CE000F022002001210846FFF7CCBF0121054B6F
:100CF0001878C0F385000138C0B2884238BF084672
:100D0000FFF7C0BFF022002030B4064C2578AD07B5
:100D100006D06070A170E270184630BCFFF738BF93
:100D200030BC7047F022002010B4044C0246A17879
:100D30006078002310BCFFF7E7BF00BFF02200205F
:100D4000034901234878CA7808308978FFF7DCBF67
:100D5000F0220020044901234878CA7808388978AD
:100D600080B2FFF7D1BF00BFF02200200548012369
:100D70008178C2781031FF2928BFFF214078C9B29D
:100D8000FFF7C2BFF0220020054801238178C27816
:100D9000103921EAE1714078C9B2FFF7B5BF00BF51
:100DA000F022002005480123C27881781032FF2A02
:100DB00028BFFF224078D2B2FFF7A6BFF022002062
:100DC00005480123C2788178103A22EAE27240781D
:100DD000D2B2FFF799BF00BFF0220020044A0120E1
:100DE00013791033FF2B28BFFF231371FFF7D0BEF9
:100DF000F0220020044A01201379103B23EAE37318
:100E00001371FFF7C5BE00BFF0220020054A012084
:100E10005379A3F1FF014B424B410349CB5C537122
:100E2000FFF7B6BEF0220020C87D0008054A012069
:100E30005379A3F1FF014B424B410349CB5C537102
:100E4000FFF7A6BEF0220020C87D000830B5094B90
:100E50009C78DD78621C02F00302954209D09A70FA
:100E60001A7800F07F001C4440EAC1100132207162
:100E70001A7030BD871F0020054BC1F180411869F1
:100E800001F2074101F00F01C84000F00100704776
:100E90000004004070B5072301264FF400444FF0D2
:100EA0000045184A06FA03F10142946115D0062163
:100EB00000BF00BF00BF00BF00BF00BF0139F7D1B6
:100EC0000321956100BF00BF00BF00BF00BF00BF8E
:100ED0000139F7D1013BE5D270BD032100BF00BF4E
:100EE00000BF00BF00BF00BF0139F7D106219561E7
:100EF00000BF00BF00BF00BF00BF00BF0139F7D176
:100F0000E8E700BF000400406FF40042064B1A639C
:100F10004FF055321A6000225A609A60DA60DA6245
:100F20001A625A62704700BF0004004030B5044D99
:100F300000EB40002C1861702A54A37030BD00BF34
:100F4000DA14002070B5134605460E4600242046EC
:100F5000324629460134FFF7E9FF512CF7D170BD25
:100F600038B5302383F3118800250E4C2078FFF725
:100F700091FF6078FFF78EFF0135A078FFF78AFFB9
:100F8000512D04F10304F1D14FF4E06300BF00BF21
:100F900000BF00BF00BF00BF013BF7D183F3118842
:100FA00038BD00BFDA140020012870B529D800220E
:100FB000154B9D1D03EBC2046679360705D515F860
:100FC0003260864201D1204670BD0132032AF1D140
:100FD000B9B159790C070FD55A7B11070FD55A7D36
:100FE00012070ED4022103EBC1014B79887143F043
:100FF000080308464B71E7E7C1F3C001F3E701219D
:10100000F1E70020E0E700BFC014002002B1104764
:1010100070470000034B1B6813B11B6803B11847EE
:1010200018467047F02000200B4B07B51A88824203
:101030000FD01880094B1B685BB11B694BB10322B1
:101040008DF80500000A8DF806008DF8042001A82F
:10105000984703B000BD00BFBE140020F020002060
:101060000B4B07B51A88824210D01880094B1B68B9
:1010700063B11B6953B104228DF80500000A8DF895
:1010800006008DF804200DEB0200984703B000BD68
:10109000BC140020F020002010B5154B9B78012BCC
:1010A00015D000224FF0FF33124911F8014FA04232
:1010B0001DD0B3F1FF3F01D104B953B20132062A6A
:1010C000F3D15A1C13D00C4A134498700FE00B4A0A
:1010D00092F90020002AE4DAEF2808D8084A02EB47
:1010E000D002917800F0070083400B43937010BD4D
:1010F000A0100020F5130020F4130020EA220020A5
:10110000FC13002010B5114B9A78012A0CD006234D
:1011100000210F4A12F8014F013B844208BF1170B1
:1011200013F0FF03F6D110E00A4B93F90030002BC7
:10113000EDDAEF2809D8084B03EBD003997800F0DB
:101140000700824021EA02029A7010BDA010002020
:10115000F5130020EA220020FC130020014B5878F0
:10116000704700BFA0100020BFF34F8F0549064B0A
:10117000CA6802F4E0621343CB60BFF34F8F00BF35
:10118000FDE700BF00ED00E00400FA0530B590F87F
:10119000472090F8463085B043EA02231A0A032A12
:1011A0001BD00DD8012A5FD0022A13D15B23314A0C
:1011B000314842600360002A08BF104605B030BDC8
:1011C00090F8483090F84910212A43EA01233CD096
:1011D000222A41D000231A46EAE7DBB2032BF9D8D2
:1011E000DFE803F0450205080623244AE0E72A2346
:1011F000234ADDE7234B244D1C781CBB01222146EA
:101200001A706846102206F0BDFA21461F4804AB4A
:1012100003EB610313F8102C05EB41031409045D83
:1012200002F00F029C700024825CDC704B1C0231C7
:1012300005EB430320299A70DC70E8D142232B7020
:1012400003236B702B78104AB2E7022BC2D8104AE6
:1012500052F823200923ABE7022BBBD80D4A0E49D5
:1012600052F82320CB5CA3E712230C4AA0E7042307
:101270000B4A9DE7A8790008B41400209C79000867
:10128000707900086E1400206F1400205F79000848
:10129000247A0008187A0008157A0008037A0008F2
:1012A000A479000810B5064A064C117824784B1C26
:1012B00003F00F039C421EBF034C1370605410BD1B
:1012C000E71E0020E61E0020D61E002090F84A20CF
:1012D00090F84B00084942EA0022022A0B7807D115
:1012E000012B01D0062B05D14A78044B5A70704768
:1012F000024A5370704700BF6C140020A0100020F9
:1013000070B590F84410044601F07F03212B40F0A3
:101310009D8011F0800F90F8453053D0022B35D0CE
:10132000032B25D0012B4DD190F84830022B01D949
:10133000002070BD90F846100829F9D8594AD25CAF
:10134000022AF5D8A820584B00FB0233D3F8A4306A
:10135000002BEDD0554D5E6818682A46B04705F160
:101360000803A363AB6C0022E36322640120E0E77F
:1013700090F8482090F8493052EA032266D14C494F
:101380004C4B8978836319700123EDE790F848305E
:10139000022BCDD890F846100829C9D8414AD25C12
:1013A000022AC5D8A820404B00FB0233D3F8A43052
:1013B000002BBDD05A69186890473F4B1870A36343
:1013C0000123D0E70A2B23D00B2B10D0092B3DD1C2
:1013D00094F8483094F8492043EA022323F00203AA
:1013E000002B33D1354B364AA3630223BCE794F874
:1013F000483094F8492053EA022306D194F8463045
:101400002B4A003B18BF012393700023A363AAE774
:10141000274B94F847201A7094F84830022B87D84D
:1014200094F84610082983D81E48C05C02283FF66D
:101430007FAFA8251C4B05FB0033D3F8A430002B4D
:101440003FF476AF1D691868A847DEE701F09F01F9
:10145000812918D194F84530062B14D194F84920ED
:10146000616894F848304D6843EA0223204694F8B6
:10147000472094F84610A84700283FF459AF436826
:10148000A36303686FE70325074ED6F89C3023B9A2
:10149000013D06F1A806F8D14AE720469847002802
:1014A000F6D063E75C790008200E00201C140020B1
:1014B000A010002069140020681400206C14002083
:1014C000CD1200087047302383F311880269436905
:1014D0009A4210D1C36883B10123D0F8882090F8D4
:1014E0008C1012898B4013420CBF01200020002376
:1014F00083F3118870470020F9E71846F7E70000EA
:10150000036843B19100196003490B78002A18BFA2
:1015100043F001030B707047E01F0020006810B11A
:101520000068C0F38700704738B503680BB9002026
:1015300038BD302383F31188036800211C685B6881
:1015400081F31188002CF2D04FF47A7C074A084DC1
:10155000D069084AC01AE0FB0C5100232846FEF768
:1015600045FE84428CBF00200120E1E7E81F0020F7
:101570009F860100A08601004B1E072B0BD850F858
:10158000213043B19100196003490B78002A18BF3C
:1015900043F001030B707047E01F0020082906D8B4
:1015A00050F8210020B10068C0F387007047002088
:1015B00070470000082938B501D9002038BD50F81F
:1015C0002130002BF9D0302383F3118850F82130DB
:1015D00000211C685B6881F31188002CEDD04FF46A
:1015E0007A7C084A084DD069084AC01AE0FB0C51C1
:1015F00000232846FEF7FAFD84428CBF002001201C
:10160000DCE700BFE81F00209F860100A0860100E4
:10161000034610B51B68984203D09C688A689442C0
:10162000F8D25A680B604A601160596010BD000022
:10163000302383F311880D4B5B6813F4006312D0E1
:10164000EFF309834FF08072203BDA6183F309885E
:10165000074A1168D2688968926891428CBF054A2E
:10166000054A9A61704783F31188704700ED00E0E6
:10167000E81F0020E3010008E60100080369196083
:10168000C268013AC260C26913448269036193422D
:1016900024BF436A036100238362036B03B11847CD
:1016A0007047000070B50124468904FA01F53543FE
:1016B000458100EB8100C56801F00F01A8698260D7
:1016C000002203604260C26023B16C8A013B234464
:1016D000B3FBF4F4054B0482997321B11A7D02F037
:1016E000FE021A7570BD40225A74FBE700400140AB
:1016F00010B40346006F0278042A12D1012293F835
:10170000741044898A4022420BD11A695C69A24252
:1017100001D1DC682CB910BCDB690432043BFFF753
:10172000C1BF10BC7047406BFFF7E2BFF0B50124AA
:10173000002605898C402C43048100EB810411F0C4
:101740000F0108BF4027E46865696E60EE6008BF5E
:10175000114E2B60AA6008BFB173248A08BF77744A
:10176000A34228BF23460D4C2B6104EB8104D518FE
:10177000954205D1084A917331B101235374F0BDEC
:1017800012F8016B2670F3E7517CC168098A8B421D
:1017900034BF0A230223F1E700400140204001400A
:1017A00010B4436BD3F888000278042A11D10122C7
:1017B00093F88C1004898A4022420AD15A691C6924
:1017C000944201D1DB6823B910BC52F8043BFFF707
:1017D000ADBF10BC7047000005480178052906D14F
:1017E00090F85030037043681B6803B11847704786
:1017F000EC1E002000216022074B10B599735A742B
:1018000099735A74436804461B680BB106219847C4
:10181000062384F8343010BD0040014090F8343085
:1018200010B5152B04460CD8012208499A400A42EB
:1018300008D1152B05D1036C03B19847002384F818
:10184000343010BDBDE81040FFF7D4BF410E10008A
:1018500090F8343010B5152B04460CD801220849F5
:101860009A400A4208D1092B05D1036C03B198476D
:10187000002384F8343010BDBDE81040FFF7BABF34
:10188000410C300010B51C4B9B78012B1ED11B4B1B
:1018900093F90030002B19DAFEF760FF184C202274
:1018A00060701849204605F083FF20B320222146AE
:1018B000144805F06FFF144B1B68E3B19B68D3B16C
:1018C000062222702046BDE810401847FEF746FF6A
:1018D0000E4C082220700E49204605F069FF50B1D9
:1018E000082221460A4805F055FF074B1B6813B133
:1018F0005B68002BE6D110BDA0100020EA2200207A
:10190000FC130020D0200020F0200020F413002041
:10191000F420002010B514785378844201D083421B
:1019200016D14C79834214BF1146511CCC70154915
:10193000097869B1917859B1181A18BF01201318A4
:10194000DB782BB1022905D014D9CB1E012B0CD981
:10195000012010BD105C2CB9FFF79EFBFFF792FF32
:101960000020F6E7FFF7CEFBF8E7033918BF0121A7
:101970008842F5D0105C14B9FFF78EFBE8E7FFF75B
:10198000C1FBE5E7C422002010B5044600284FD073
:10199000031FDBB2A02B27D8264B9B78012B0FD03F
:1019A0000023254A12F8011FA14217D00133062B4C
:1019B000F8D12046FFF770FBBDE81040FFF762BF8B
:1019C0001E4A92F90020002AEADA1D4A00F00701B7
:1019D00002EBD00292788B401A42EAD02046FFF701
:1019E00091FBFFF74FFFE4E700F12003DBB2072B89
:1019F00008D80123134A00F007041178A3400B43D1
:101A00001370D9E700F15B03DBB2022B05D8BDE808
:101A10001040243880B2FFF707BB5834E4B21A2CC8
:101A200006D8094B33F81400BDE81040FFF718BB87
:101A300010BD00BFA0100020F5130020EA220020F6
:101A4000FC1300202C210020D880000808B5034694
:101A500048B3021FD2B2A02A05D8FFF753FBBDE856
:101A60000840FFF70FBF00F12002D2B2072A07D8C3
:101A700000F0070301209840C0B2FEF7A7FEEEE792
:101A800000F15B02D2B2022A04D8BDE8084000206F
:101A9000FFF7CABA5833DBB21A2B04D8BDE80840A6
:101AA0000020FFF7DDBA08BD28B1034B1A781043B8
:101AB0001870FFF7E7BE70472C21002008B528B149
:101AC000FEF784FEBDE80840FFF7DCBE08BD00005D
:101AD0008318B3F5006F10B40C4605D803490144D0
:101AE000204610BC05F056BE10BC7047981600206A
:101AF000002307B501220DF107018DF80730FFF72C
:101B0000E7FF9DF8070003B000BD042838B517D8DB
:101B1000052915D80E2A13D81E23520003FB0122D3
:101B2000B42303FB002404F12900FFF7E1FF05467D
:101B300004F12A00FFF7DCFF40EA052080B238BD3F
:101B40000020FCE7F8B5144640F23E4700F2C135EC
:101B50005618B44200D1F8BD6FF47073EB18BB4255
:101B600006D82846FFF7C4FF04F8010B0135F0E75B
:101B70000020F9E713B50446012100680DF10702C2
:101B8000FFF7E0FF23689DF807000133236002B0F0
:101B900010BD800070B500F2AD3481F001000D463B
:101BA00004EB4000FFF7A4FF002D06460CBF032006
:101BB00001202044FFF79CFF40EA062080B270BD60
:101BC000CAB2C1F30721052982B006D80E2A14D85B
:101BD000042812D802B0FFF798BFFD2906D162B9D8
:101BE00004280AD8012102B0FFF7D3BFFC2904D191
:101BF0001AB9042801D81146F5E7002002B0704751
:101C00007FB50424104BADF804001D780F4B1B78F2
:101C10001D43EDB245FA04F3DB0705D4013CF9D2CC
:101C20000026304604B070BDBDF80430E6B2ADF811
:101C30000C3003993046FFF7C3FFFEF7B7FE80B2C2
:101C40000128EBD0EDE700BF302100202F2100203C
:101C500013B502884379ADF80420019873B169B1D6
:101C6000FFF7CEFF044601460198FEF7DDFC204653
:101C7000019902B0BDE81040FFF7A2BFFEF7F2FCE9
:101C80000446F4E71FB5ADF804000198FFF7B8FF6C
:101C9000BDF80430ADF80C300399FFF791FF05B0A3
:101CA0005DF804EBFEF782BE08B503792BB300881C
:101CB000FFF7E8FFC3B2C0F30330062812D094BF89
:101CC0000E30063000F00F00012812D8F02B12D091
:101CD00004D8E72B8CBF0020012008BDF43B5842FC
:101CE0005841FAE7F12B18BFE72B94BF01200020E1
:101CF000F3E70020F1E70120EFE71846EDE738B5FC
:101D00002520FFF7F5FE05462620FFF7F1FE0446E5
:101D10002720FFF7EDFE262D06D1082C04D1A0F1D7
:101D200020035842584138BD0020FCE708B5282060
:101D3000FFF7DEFE08BD002307B502220DF1060104
:101D4000ADF80630FFF7C4FEBDF8060003B000BDD5
:101D5000006810B440B1054C8264E469083040F872
:101D6000044C10BC05F016BD10BC7047E81F0020E5
:101D70000168134631B18A6C03F108009A64083196
:101D800005F008BD704700000B7810B4082B0BD885
:101D900050F8230040B110BC044B8264DB6908306A
:101DA00040F8043C05F0F6BC10BC7047E81F00206A
:101DB0000829134609D850F8211031B18A6C03F173
:101DC00008009A64083105F0E5BC7047002382687A
:101DD000037503691B6899689142FBD25A680360D6
:101DE000426010605860704708B5302383F3118853
:101DF0000A7D0023052A06D8DFE802F00C0505035A
:101E0000130F8A6913604FF0FF3308468B61FFF7A9
:101E1000DDFF002383F3118808BD8A6993680133CD
:101E200093604A680B6813605A60ECE703682BB153
:101E30000022026018469961FFF7C8BF7047000092
:101E40002DE9F04190F8343004463BB1836823F02B
:101E5000011383600023C36380F83430A94904F17F
:101E6000440304F14C0691F8202003F8012BB342FF
:101E7000F9D163689B68DBB994F8443013F06005CE
:101E80003ED0002160229F4B99735A7499735A7403
:101E900063681B6813B1062120469847A36823F0A6
:101EA0000113A3600023E363062384F8343025E0A4
:101EB000204698470028DFD094F84B3094F84A2009
:101EC00042EA0322E36B934284BF1346E26394F930
:101ED0004420002A80F24881002B00F0538109231E
:101EE00084F83430302383F3118800212046E36BDB
:101EF000A26BFFF71BFC002383F31188BDE8F08180
:101F000094F8452003F07F0343EA022340F20232B3
:101F1000934200F015811FD8B3F5807F4BD00BD8CA
:101F2000012B42D0022B00F0CA80002BA9D1022243
:101F3000A663E2632364BFE7B3F5817F00F0EA8024
:101F4000B3F5407F9DD194F84630012B99D1B4F878
:101F50004C3043F0020337E0B3F5006F51D01CD88A
:101F6000B3F5A06F36D0A3F5C063012B89D894F8E0
:101F70004920616894F848304E6843EA02232046BD
:101F800094F8462094F84710B04700283FF479AF02
:101F90004368A3630368E3631AE0B3F5106F35D0B9
:101FA00040F6024293427FF46CAF574BA363022387
:101FB000E3630023BEE794F84630012B7FF461AF62
:101FC000B4F84C3023F00203A4F84C30A563E56369
:101FD000256471E7B4F84430B3F5A06F0DD194F8DF
:101FE0004630484A84F84E30137063681B6813B15A
:101FF000012120469847032323700023A363E36352
:1020000098E704F14F03A3630123C4E72378042B6B
:1020100045D1302383F31188A36804F10C0603F043
:102020000113A36004F1180856F8047F6FB17869B2
:1020300020B16FF001010C30FFF7F8FEB86920B154
:102040006FF001010C30FFF7F1FE46453560EBD132
:1020500000212C4B4FF0400CDA79082602F00102E7
:10206000DA7180275D7201220D4610209A730132C9
:10207000D2B2042A9D7483F811C05E745E745D75DB
:102080001F7518751875F1D181F3118884F84F10F8
:102090000321636821701B680BB12046984794F8B0
:1020A0004630002BA9D084F84F3004232370636896
:1020B0001B68002BA1D00221204698479DE794F889
:1020C000483003F00F0213F0800F0E4B9A7311D0BB
:1020D00042B95A7C50070BD4DB79DB077FF5D1AED0
:1020E0000A4B63E7597CCD0602D4DB791341F4E750
:1020F000074B5BE7002AECD0197D8906F8D45B7AA0
:10210000F4E700BF00400140D9780008D578000806
:10211000D778000894F84630002B7FF4B2AE94F8DC
:10212000483013F00F023FF468AF13F0800F184BE4
:102130009A7302D040225A745FE780221A755CE7D6
:1021400094F84630002B7FF49CAE94F8483013F09E
:102150000F023FF452AF13F0800F0D4B9A7301D072
:102160001022E8E72022E9E763B1152384F8343030
:10217000302383F3118800212046E36BA26BFFF725
:1021800091FAB8E64821024A937351748DE600BF74
:102190000040014070B50446C5692E6BC26A6B6A87
:1021A0009A4234BFC36A6B6A002B2FD1E26A002ABD
:1021B00039D1EB620223237063681B680BB12046A0
:1021C0009847302383F31188002104F10800FFF7BA
:1021D0002DFE002383F31188F30716D5286A228E7B
:1021E000666AE36A616AD31A3344121A934228BFBB
:1021F000134699424FF6FF7138BF636AE3B9636AC9
:102200001BB9EB6A23F00103EB6270BD296EE26A31
:10221000013B013AE262A26A002AC5D01170A26AAB
:102220000132A262C0E7E26AEB699A429EBFE36AAA
:1022300003F1FF33EB61CFE7626A013B013A62626F
:10224000226A0AB92966D9E712F8010B28662262C8
:10225000D4E70000F8B5204C861C04EB86035D68CB
:1022600001466A69D2E90003834218D30122238917
:102270008A4023EA02032381AB680BB120469847CA
:10228000302383F3118804EB8604636800215869C6
:102290000C30FFF7CBFD002383F3118817E00F4FBD
:1022A000B97317693B445360C31ADFD0288A984238
:1022B00028BF1846936810613B449360084A18444D
:1022C00002EB8102984203D10122044B5A74F8BDFB
:1022D00013F8011B1170F5E7EC1E002000400140CF
:1022E00020400140F8B5294C851C04EB85035E684D
:1022F000274AB36990730146107DC00739D59868A5
:10230000917392F817C0927D224F42EA0C2207EB9C
:10231000810700EB020C84452CD19868104498602A
:102320005868104458601868801A1860188A013874
:1023300080B21882738A934200D800BB012263895D
:102340008A4023EA0203638104EB85035B68DB6850
:102350000BB10E489847302383F3118804EB8504B2
:102360006368986941680C30FFF760FD002383F3D0
:102370001188F8BD97F800E000F801EBCBE7044ABC
:10238000137D03F0FE031375F3E700BFEC1E00207E
:1023900000400140204001400368984207D01A687D
:1023A00002605060002218469A61FFF70FBD704727
:1023B000F8B500EB81039C6905460E46002C4ED013
:1023C000302383F3118800232269616984F8A030E7
:1023D0008A4201D1E36803BB05EB8603DB685B69D6
:1023E0001B68D3B1D4F8A43043B18A4201D1E2686A
:1023F0004ABB51F8042B9F681868B847E368E26944
:102400000133E360636920461344A2696361934228
:1024100024BF636A6361FFF7BFFF62692369934268
:1024200014D1E36893B105EB8603DB681A68022ACE
:1024300012D15A6912687AB11B8A013B13400BD141
:1024400005F1440204E000221146D4E752F8043BAF
:1024500031462846FFF76AF9002383F31188F8BD57
:1024600001F1090310B550F8234034B3302383F34E
:10247000118800EB8100C3689B695B68BBB194F86D
:102480007420236F204603EB8203DB689B695A6844
:1024900023691A60E2680132E260E2691344A269CA
:1024A0002361934224BF636A2361FFF775FF2046CF
:1024B000FFF71EF9002383F3118810BD38B50446D9
:1024C0006FF001052068844200D138BD03682360A5
:1024D0005C608561FFF77AFCF4E7026AC260426AD9
:1024E0004261026100228262C262FFF7E7BF000020
:1024F0004FF4006208B50021044805F043F940F6A6
:102500000803024AC2F8003808BD00BF9816002030
:1025100010B50C46826801692046FEF777FD094A2E
:10252000E1781378207923EA01031370FEF74EF95E
:10253000FFF7A8F92046BDE810400822002105F069
:1025400021B900BF3221002038B54B7905469A07E2
:102550000C4613D4104A43F002034B71CB78117828
:102560000B4313700D4A237911780B431370FFF757
:1025700089F920466A682969FEF748FD0022084B60
:102580001A806379DB0705D421462846BDE8384028
:10259000FFF7BEBF38BD00BF322100202C21002034
:1025A0007E210020084B9B78012B09D1074B93F922
:1025B0000030002B04DA1E220021054805F0E2B8A5
:1025C000062200210348F9E7A0100020EA2200209B
:1025D000FE130020F613002010B50024074B1C70DA
:1025E000FFF7E0FF2046FEF71FFD2046FEF738FD0F
:1025F000034B1C70BDE81040FFF744B92C210020AC
:102600003221002010B5164B1B78042B20D1154B1E
:102610001B78EBB9144B1B7883F00103134A03F0CA
:1026200001011078884212D01170114C114A8BB1FF
:102630002378C3F3001143F010032370DB091170FA
:1026400005D1FFF7C9FF237843F08003237010BD45
:102650000023E3E72378127862F30413F6E700BF60
:10266000FD220020EE220020ED220020EC2200209E
:10267000EA220020E922002008B58378022B06D93F
:10268000FFF7AAFF024B034A1A60FEF76DFD08BD73
:10269000FC6F0020EFBEADDE2DE9F843052900F206
:1026A000D680DFE811F0A700D4000600A700A7003D
:1026B000D600302383F3118800273E466D4D6E4CC3
:1026C000D5F8883095F88C9003EB890805F138032C
:1026D000C8F80C30E86C18B11422002105F052F84B
:1026E000286D18B11422002105F04CF8D8F80C2000
:1026F00009F00F01A173136803F00303002972D0DE
:10270000022B4AD0032B48D0012B22D153690BB99D
:102710009369F3B1E020584B4FF0010C9874108A84
:102720000CFA01F1C008187440205874082058743D
:102730005874D8790843D871C0205875528AD20885
:10274000DA7480221A7510221A751A755A7A114392
:10275000597228460137FFF7C0FE032F2E7205F18C
:10276000A805ADD1454C636A204663612361E660EC
:10277000A662E662FFF7A2FE20462672FEF7B8FFC9
:1027800086F311883E4B1B7813B10520FEF78AFDB6
:102790000220BDE8F843FEF785BD536973B10023FD
:1027A000A374138A0120DB08237440236374082375
:1027B00063746374E37988400343E3719369002B86
:1027C000C7D000202C4B5875528A0120D208DA74E9
:1027D00080221A7510221A751A755A7A00FA01F1B8
:1027E0000A435A72B5E7002BB3D1E37943F00103F2
:1027F000E371AEE70846FEF755FD302383F31188F9
:10280000002501261B4C20462672FFF757FE204666
:10281000FFF763FED4F8A43013B1DA681868904764
:102820000135032D04F1A804EDD101230025134C3B
:1028300020462372FFF742FE636A2046E56063612B
:102840002361A562E562FFF739FE85F31188BDE8D3
:10285000F883302383F311880023064A137282F829
:10286000B03082F85831054A137283F3118805207D
:102870008FE700BF200E002000400140181000200C
:10288000E81E002010B50446006840B1826C0021AB
:10289000083004F077FF002223681A605A6010BDE8
:1028A00070B50026051F00F1200455F8040F38B15B
:1028B000826C0021083004F065FF2B681E605E60AA
:1028C000A542F2D170BD0000002208231146014844
:1028D00004F0FCBE0C080040F7B51F464BBA090CCB
:1028E000064615468DF80400ADF806308DF8051043
:1028F000FFF7EAFFE8B104210DEB010004F018FF37
:10290000044648B945B1022E0BD0032E0ED12846FD
:10291000B9B204F017FF044604F01EFF204603B0CE
:10292000F0BD2846B9B204F003FFF4E74FF0FF34DE
:10293000F2E74FF0FF34F1E7054BD96808751868E6
:10294000026853601A6001220275D860FDF738BC36
:10295000E81F002070B5184C4B1CE56886B028D0E5
:10296000164B049503930023059323699A689142BB
:102970001CD85E68029101960093C6F800D04FF013
:10298000FF369A68C3F804D0521A9A60A661FFF71E
:10299000D3FF009B3BB19A6802990A449A60019A5E
:1029A00013605A60A661A86906B070BD1B68891AD9
:1029B000DCE7FFF7C1FFF6E7E81F0020E91D00088C
:1029C000034BDB68036098610320FFF7B5BF00BFCE
:1029D000E81F00207047C9434FF05533016302F0F0
:1029E00003015943016042F380014160C2F3C10118
:1029F00059438160C2F341115943C160C2F3C121FF
:102A00004B43C3624FF01133C2F3C3125A43026205
:102A10004262704708B5302383F31188012100F02A
:102A20000F039940202220F00F00FFF7D4FF00236E
:102A300083F3118808BD0000464A13B5464B52F88F
:102A4000041C99420CD1002342F8043C83F31488FF
:102A5000424B1A6882F3088862B65B689847FEE7C3
:102A60000C20032440F2BE713D4B3E4A9C62D8626A
:102A7000C2F8941000219962D9629C62D8628020C9
:102A8000C3F81C0CD3F81C0CC3F81C0C009101916A
:102A90004FF40141C3F8481C4FF6FC71A3F5744391
:102AA00019630F2119600223136501234BF680314E
:102AB000D364936D03F001030193009B01330093F2
:102AC000019B13B9009B8B42F3D1019B03B9FEE735
:102AD000254B26498024C3F800140021A3F5884320
:102AE00099611C62196A01201962202158601960DD
:102AF0001968196019680143196054679067D16FAC
:102B00000329FCD102229A6001220021DA60144AD2
:102B10009162D1629A6C42F400429A649A6CDA6CC7
:102B200042F40062DA64DA6C9A6C42F020029A6431
:102B30009A6C9A6C42F040029A649A6C9A6C42F0D9
:102B400080029A649A6C9A6C42F480729A649B6CCC
:102B500002B010BD00700020EFBEADDE00E0FF1F30
:102B60000000014000040140005001401300000338
:102B70007047FEE7F0B508200026104A5168136838
:102B80000D469468043BAC4210D8E31C5B1ACD1E82
:102B900023F00303AC4238BF00230B44D1689942B1
:102BA00009D8013802F11002E8D1F0BD53F8047FD2
:102BB00045F8047BE7E743F8046BF0E7DC780008AE
:102BC0000C4B10B41868D968026853601A6001226F
:102BD000D860002302758A680B750B691B689C68B6
:102BE0009442FBD810BC5A680B604A60116059606F
:102BF000FDF7E6BAE81F0020044B1A68DB6892680C
:102C00009B689A4201D9FFF7DBBF7047E81F00209D
:102C100070B5EFF3118525B9EFF30583302282F308
:102C20001188174B174E1849DC6933680A68E41A93
:102C3000A242164A0AD9A3F58333E03B10683360F9
:102C4000134B04F58334C318E034136016680C602A
:102C500035B9EFF30583C3F308036BB185F311882E
:102C60004FF47A7500210B480023E4FB05010A4A62
:102C7000FDF7BCFA304470BDFFF7BEFFEEE700BFC2
:102C8000E81F0020A81E0020A41E0020A01E002077
:102C900088598F029F860100A086010070B51F4BE6
:102CA0001F4E1B78044683420D46327801D10AB983
:102CB00070BD1AB11B4A1278A242F9D01A4A137099
:102CC000184B1C70FFF7A4FF184B186001233370DA
:102CD000FCB9174B1B78F3B185F00103154A03F0DB
:102CE000010313700022144B1D70144B1A70002C3A
:102CF000DED0FDF7A5FF124A13785178907843EAA9
:102D0000012343EA0040FDF7D1FFBDE87040FFF723
:102D100079BC0023E2E72346E0E700BFE51000208E
:102D2000E8220020E1100020E0100020E422002032
:102D3000E0220020DF220020DE220020DD22002011
:102D4000E210002070B51F4B1F4E1B7805468342D2
:102D50000C46327805D12AB914B101221B4B1A70E6
:102D600070BD1AB11A4A1278AA42F5D0194A1370E6
:102D7000174B1D70FFF74CFF174B18600123337082
:102D8000ECB9FF2D01D1154B1C78104B04F0010458
:102D90001C70FDF7E3FBFDF753FFFF2D03D1104B34
:102DA0009878FDF7C1FFBDE870400E4A137851785E
:102DB000907843EA012343EA0040FDF777BF1C46C1
:102DC000E3E700BFDC220020DB220020DA22002023
:102DD000D9220020D8220020D4220020E022002086
:102DE000F8220020E2100020F8B52E4B2E4F1B7861
:102DF00004463E78002B4FD12C4B1B78FF2B14BF81
:102E0000334602232A4A2B4DD2782B49EA542B48C9
:102E1000FDF7A4FB032204F0BDFC0122042C18BF23
:102E2000274B3C7018BF1C70264B1A70FFF7F0FE42
:102E3000254B18602046FDF76FFB244BC0F307229B
:102E40001870042EC0F307405A70987026D0042CD6
:102E500040F6B83308BF4FF4FA731D4A13800122BD
:102E60001C4B1A7000231C4A13701C4A1370FFF786
:102E7000CFFE1B4B1860285DFDF756FF0F4A1378F5
:102E80005178907843EA012343EA0040FDF70EFFB2
:102E9000BDE8F840FFF7B6BB0223B3E74FF4FA737F
:102EA000DBE700BFDA220020FD220020DC22002028
:102EB000F0220020F8220020E2100020DD10002087
:102EC000D0220020EF220020C8220020DA100020AB
:102ED000D8100020ED220020EE220020DD2200206C
:102EE000CC2200202DE9F74F1E4681468846174622
:102EF0000023DFF898A01A011AF802100AEB031455
:102F0000A9B9012384F801900AF80230FFF780FE86
:102F10004FF606731E4AA381137860600133C4F82C
:102F20000880A773E673137003B0BDE8F08F013318
:102F3000142BE0D100252C462B46DFF850B0DBF8EF
:102F4000042001930092FFF763FE009A019B801A10
:102F5000834298BFECB205F1010598BF0346142DDA
:102F60000BF1100BEBD1012223010AEB04140AF838
:102F7000032084F80190FFF74BFE4FF60673606064
:102F8000C4F80880A381A773E673CDE784210020ED
:102F9000802100202DE9F04F002401264FF0300859
:102FA00089B0DFF89092A44F05940694079459F8DD
:102FB000041B4B1C40F0CD800134E4B276000F2C92
:102FC000B6B2F4D10C229D4805A904F0F1FB0546E8
:102FD00020B10C22994805A904F0DCFB0027DFF89A
:102FE0006082984E98F800403770002C00F01D81E8
:102FF000FFF70EFE944A13681060C01A59D07F285C
:1030000028BF7F203A46BB46BA4601909DF804305F
:1030100096F800C003938D4B88F800708C4EDFF853
:103020001CE2DFF830821F700297002102EB0109D9
:1030300018F809305F0821D00198874200F3DE803C
:1030400023F0FE0308F8093013F0010340F0DE809E
:1030500001233788BEF800908B4003EA090927EA6C
:10306000030349EA03035F40BFB257EA0C0714BFEA
:103070004FF0010C4FF0000CA346338001310F29B3
:10308000D4D10F325A2A06F102060EF1020ECCD12B
:10309000029B13B101226D4B1A70BBF1000F02D0DD
:1030A000684B83F800C0BAF1000F02D00122644BD4
:1030B0001A7045B9654B1B78002B47D01CB9FFF738
:1030C000A7FD614B18600022604B92461A704FF0CA
:1030D00001091346DFF864E15D4D5E4E00203EF8C5
:1030E000028B35F8027B88EA070702EB000C16F822
:1030F0000C1009FA00F427424FEA510B00F08880C7
:10310000BBF1000F12D118EA040F14BF01235B4674
:1031100043F00A0306F80C3013F0010300F083803B
:103120009A4635F8021C4C4025F8024C01300F2815
:10313000DBD10F325A2AD1D1BAF1000F02D00121CE
:10314000404A117013B101223D4B1A7009B0BDE81D
:10315000F08F88F31188012221F00F0001F00F0198
:1031600002FA01F529462D04FFF735FC856100239D
:1031700083F3118800BF00BF00BF00BF00BF00BFC6
:1031800000BF00BF00BF00BF00BF00BF00BF00BF47
:1031900000BF00BF00BF00BF00BF00BF00BF00BF37
:1031A00000BF00BF6FEA060C2B4D05A855F8041BA5
:1031B00030F8022BB1F1FF3F1DD021F00F0EDEF8E9
:1031C00010E001F00F012EFA01F1C90713D43243C8
:1031D0000133DBB2062B20F8022CE7D159F8040C9E
:1031E000431C01D0FFF716FC7A687B689B1AB3F585
:1031F000346FFAD3E0E602EA0C02E9E70398A2464C
:103200003F1A67F3470308F8093037E7029335E7B9
:10321000BBF1000F8AD011F0010487D164F347019C
:1032200006F80C1082E7012380E7002D3FF442AF3F
:1032300045E700BF84800008001000E0C2200020A5
:10324000B4200020B5200020B0200020AD200020B8
:10325000B620002053200020C080000838B5FFF7BA
:10326000D7FC00F57A75FFF7D3FC854214D9FFF738
:103270002BFBA0B1052004F039FA04F049FA04460A
:1032800004F06AFA002C04DB14F00104EBD12046B0
:1032900038BD231DE7D0FAE76FF00104F7E74FF0E0
:1032A000FF34F4E710B5FFF7D9FF044608B100205A
:1032B00010BDFFF709FB28B94FF0FF30B0FA80F0DE
:1032C0004009F5E7062004F011FA04F045FA234618
:1032D00022462146D820FFF7FFFA0028E7D1FFF762
:1032E000BDFFEBE710B5FDF739FC0446FFF7DAFF49
:1032F000FFF7FEF8012C03D1BDE81040FDF73ABC02
:1033000010BD2DE9F04180460C46D600FFF7A6FF20
:10331000054648B132460021204604F033FAB5FA9A
:1033200085F04009BDE8F08133462246414603203E
:10333000FFF7D2FA05460028ECD121462644D1E910
:103340000023D243DB4341F8082BB14241F8043C4F
:10335000F5D1E4E72DE9F04F064614464FF0000999
:10336000C3B00091202C254628BF2025009B4FEAA2
:10337000C50A524603EBC90102A804F00BFA002269
:1033800002ABD3E90001C043C943013243F8080B43
:10339000954243F8041CF4D15746B0460DF1080B92
:1033A000FFF75CFF78BBFFF78FFA60B35FFA88F333
:1033B000C3F580730620BB4294BF0193019704F0CC
:1033C00095F904F0C9F95A4641460220019BFFF7DE
:1033D00083FAC0B9019BFF1A9B449844E0D1FFF7E0
:1033E0003DFF80B9FFF770FA074660B1042004F092
:1033F0007DF904F0B1F9641B5644A944B2D13846B2
:1034000043B0BDE8F08F0027F9E700002DE9F3474E
:10341000FFF748FF002859D0FDF7A0FB2C490546CF
:103420004FF480720020FFF795FF294C002843D10C
:103430000146012D01D1FDF79DFB40F60803C4F8BC
:103440000038084602B0BDE8F08717F8013B4FEAA4
:103450004E195A40A2FB003800FB0E884FEA421A70
:1034600049EAD26913EB0A0348EB09084FEAC21A8A
:103470009B184FEACE194FEA02264EEB080849EA9C
:10348000526913EB0A034FEA0E2E48EB09084EEA85
:10349000126E9B1948EB0E0EB64413EB0C02013969
:1034A000D3D16946CDE9002E4FF400600122FFF729
:1034B00051FF4000C1B2BCE740F6010127464FF082
:1034C000000C1220034ADFF810E0E8E70146B8E7F5
:1034D0009816002025232284E49CF2CB044BD3F8D9
:1034E0000038B3F5805F01D3FFF790BF012070472C
:1034F000981600202DE9F04F8318B3F5006F0446AD
:103500000E46154685B050D8DFF8A4A000EB0A0798
:103510003946304604F04CF9002846D02A46314658
:10352000384604F037F9FDF719FB4FF000088346E1
:103530004FF000094DB9FFF7D1FFBBF1010F34D1B6
:1035400005B0BDE8F04FFDF715BB052D2F4628BF90
:103550000527C4F3024343EAC703CDE900893A468D
:1035600031468DF800300DF10300230A8DF801304B
:103570008DF8024004F00EF9DDE90023DAF80008C6
:10358000CDE9022302A90122FFF7E4FE0028D4D0EE
:10359000DAF800380833CAF80038FFF79FFF01282F
:1035A000CBD1ED1B3C443E44C4E705B0BDE8F08FF1
:1035B00098160020F8B50D4606461446D31D23F094
:1035C000070300AFADEB030D69462846FEF780FA0E
:1035D00022466946304604F0EBF820B122463146D7
:1035E0002846FFF787FFBD46F8BD0000082208B552
:1035F00017210348FFF7DEFF0022024B1A7008BDB7
:10360000F0220020AC1E002010B5084C05232046F7
:10361000032200F8013B064904F0BCF84FF67F7323
:10362000A380BDE81040FFF7E1BF00BFF0220020FB
:10363000D0770008F0B585B010220021684604F06C
:10364000A1F8442440F23F4540F2C137102D2E46E8
:1036500028BF1026394632466846FFF7ABFF013CCB
:103660003744A5EB0605F1D105B0F0BD37B50C46E2
:103670000546FEF73DFAA04207D0012228460DF18B
:1036800007018DF80740FFF735FF03B030BD042870
:1036900038B51D4616D8052914D80E2A12D81E236F
:1036A000520003FB0122B42303FB0024290A04F186
:1036B0002900FFF7DBFFE9B204F12A00BDE838403A
:1036C000FFF7D4BF38BD042870B516461D4614D880
:1036D00099B9800000F2AD3482F0010004EB4000A3
:1036E000190AFFF7C3FF002E0CBF03200120E9B227
:1036F0002044BDE87040FFF7B9BF70BD2DE9F74F1A
:103700000024194EDFF864A0D14600255FFA84F842
:103710000FE0FAB240463BF8023B01370191FFF758
:10372000B6FF0F2F0199F4D10135062D09F11E09BD
:1037300003D0CB460027E9B2EBE733880122002112
:103740004046FFF7C0FF002273881146404601340F
:10375000FFF7B9FF052C06F104060AF1B40AD3D12C
:1037600003B0BDE8F08F00BFB47D0008307A0008D8
:1037700008B5FF212520FFF779FFFF212620FFF75D
:1037800075FFFF212720FFF771FF00212820FFF799
:103790006DFFFFF7B3FFFFF74DFF26212520FFF751
:1037A00065FF08212620FFF761FFBDE808402021C2
:1037B0002720FFF75BBF37B50C460546FEF7BBFA7F
:1037C000A04207D0022228460DF10601ADF80640BE
:1037D000FFF790FE03B030BD094A08B55378C3F334
:1037E000800181420BD060F3820353700420118862
:1037F000FFF7E1FFBDE808400220FCF797BF08BDD6
:10380000EA22002037B5042200230C460DEB02010A
:1038100001930546FEF75CF9019B9C4206D0042209
:1038200028460DEB02010194FFF764FE03B030BDA2
:1038300008B5FCF74BFE01461320FFF7E3FF00221B
:10384000014B1A7008BD00BFEF22002008B5084BDD
:103850001B780BB1FFF7ECFF002211461046FDF775
:10386000DEF9FDF77DFBBDE80840FDF7FBB900BFC1
:10387000EF22002008B5FFF735FD4FF6E361002089
:10388000FFF799FF00210220FFF7F0FE0121134B03
:1038900003201970FFF7EAFE4FF4A0510420FFF750
:1038A0008AFFFFF7B1FEFFF763FF00210F20FFF74C
:1038B000A9FF00220A4B1A7080220A4B1A705A7014
:1038C0009A70DA701A71FCF701FE01461320FFF7B7
:1038D00099FFBDE80840FFF789BE00BF2F210020F7
:1038E000FD220020F822002008B58378022B05D99C
:1038F000FFF7C0FFFEF770FEFDF736FC08BD0000C5
:103900002DE9F04F874C8FB0D4F80080FFF780F995
:103910008146A0EB0805FFF77BF900212060824C6F
:103920000F4694F800C008F57F436646FF33A3EBCB
:10393000090ECBB29C4510D807B126707B4D7C4E4A
:1039400095F800803478B8F1030F00F28E81DFE83B
:1039500018F019002D009603A10301F10C0204EBED
:103960004202537892F80280013143EA08239E45CF
:1039700023BF5B1953701B0A012734BF06F1FF36C2
:103980009370D6E700226B4B67491A706A4B292265
:1039900018606A4803F0FEFE694B1B7813F00302BF
:1039A00018BF9A08012332702B705EE1654BDFF877
:1039B00090A11B78A34227D1634A9AF8003012786D
:1039C00003F003039B1A18BF01235A4E99467278DD
:1039D000B3709AF805309A4205D00022114610467D
:1039E0007370FDF71CF9012C37780FD0FF2C00F015
:1039F000B1803CB9B9F1000F04D0224621462046DF
:103A0000FDF70DF9002656E00123DEE707EB07106E
:103A1000C0B200F11106F6B29AF803304B499AF899
:103A20000220512EB346C95C28BF4FF0510B002A2B
:103A300061D04FF0060EFF239AF801C06FF0540AD0
:103A40000EFB0CFEBEFBF3FE0AFB0EFA0AEB4C0A61
:103A50000AEB4A0A5FFA8AFA0AFB02FCCAF1FF0A79
:103A60009B1A02FB0AF24FEA2C2C1212CCF1FF0C2B
:103A7000C2F1FF024B4301FB0CFC4A43C3F3072393
:103A8000CCF3072CC2F30722BEF1060F2FD8DFE8D4
:103A90000EF004062225292E04008C4611460A4603
:103AA0006146DFF8ACA05FFA80FCE34526D8502ED3
:103AB0008CBF002601261F4B01371F70002E40F0DF
:103AC000D28002232B70B9F1000F40F0CC80002C83
:103AD00052D1032368E79C461346E0E762469C46C2
:103AE0000B46DBE78C46194663469446D7E76246A9
:103AF0008C461946F0E70B460A46D2E7DFF834C099
:103B00001AF800E09CF801C01EEA0C0F07D00793DA
:103B1000069205910490FDF743F804A80FC8013000
:103B2000C1E700BFD0150020401F0020010E00207B
:103B3000D8150020FC0D0020D4150020AD1E00205B
:103B4000F0220020000E0020FF0D0020CA7D00089A
:103B500020800008994B1B68C3F38123022B7BD084
:103B6000032B7DD0012B4FF0000272D011461420A0
:103B7000FDF755F802232B70914BDFF848A21C7813
:103B80009AF80030013C04EB0414E4B204F111078C
:103B9000FFB2512F3E4628BF5126002B68D18A4BD9
:103BA0001B78002B00F0AC80DFF820A29AF80030E0
:103BB000002B00F0E181990740F1DE810D2284495C
:103BC0000AA803F0E7FD00250DF1280919F8010BFB
:103BD000844206D8864204D9802300211A46FCF785
:103BE000DFFF0135EDB20D2DF0D140F23F3302255C
:103BF000ADF820300DF1200919F8010B844206D8E8
:103C0000864204D9FF231A461946FCF7C9FF012D45
:103C100040F0AA81372C00F2A981372F40F2C681EB
:103C20000023FF211A463720FCF7BAFF402F40F24D
:103C3000A3810023FF211A464020FCF7B1FF512F3A
:103C400040F09A81FF2300227A215020FCF7A8FF40
:103C500092E1142110468BE700211422084687E7E1
:103C600014221146F6E7002C86D10FB0BDE8F08F84
:103C70004FF00009CB46574D2B78A3B16B680493E6
:103C8000FEF7C6FF049BC01AAB68834218D8FEF744
:103C9000BFFF2B7B686073B99AF8003085F800B0DD
:103CA000C5F804B0D3B909F10109B9F1140F05F150
:103CB0001005E1D173E7013BDBB22B73002BEBD096
:103CC0002B7B6878DB070DD58442ECD88642EAD995
:103CD000EB7BAA7B697BFCF763FFE4E7013B8AF897
:103CE0000030E0E78442DED88642DCD9EB7BAA7B59
:103CF000697B83F0FF0382F0FF0281F0FF01EAE7B6
:103D0000354B1B78002B7FF44FAF344B1D78344B71
:103D10001B78002D3CD0ABBB324B1B7893BB324B96
:103D20001878FCF7F9FBC0F307238DF82800C0F3DF
:103D300007408DF829308DF82A00FF219DF828C012
:103D40009DF82900CCF100036B4393FBF1F39C44F5
:103D5000C0F158036B4393FBF1F39DF82A201844FC
:103D6000C2F110036B4393FBF1F31A448DF824C0A6
:103D70008DF825008DF82620099A31462046FCF75B
:103D800011FF11E7032219490AA803F003FDD4E744
:103D90003BB1154B16491B7803EB4303CA18CB5CA8
:103DA00004E0104B1B782BB3104A137851789278AB
:103DB00043EA012343EA0242DFE700BFD4150020B3
:103DC000FC0D002080210020DD2200203021002079
:103DD000D37700088421002023210020DC2200204A
:103DE000ED220020EE220020FD220020E210002023
:103DF000AE810008AF4B1B78042B40F0B380254602
:103E0000EBB29E4200F292805620FCF775FB014611
:103E10006620FCF771FB05460020FCF76DFB0C23C8
:103E2000A54ACDE90015029031462046FCF7DCFE9C
:103E30004420FCF761FB01460020FCF75DFB0546D2
:103E40006620FCF759FB06239C4ACDE90015029039
:103E500031462046FCF7C8FE0020FCF74DFB01462A
:103E60003C20FCF749FB0423954A02900190009105
:103E700020463146FCF7B8FE0020FCF73DFB01462A
:103E80003620FCF739FB05464C20FCF735FBCDE925
:103E9000001502900423314620468A4AFCF7A4FE0E
:103EA0004FF00009DFF820A29AF800305FFA89F29B
:103EB00093427FF679AE02F10C010AEB41014B7897
:103EC000897843EA0123952B2DD85244557C002252
:103ED00079490878A84231D00132D2B20C2A01F1D6
:103EE0000101F6D1002275490878A84226D0013296
:103EF000D2B2062A01F10101F6D1002270490878F8
:103F0000A8421BD00132D2B2042A01F10101F6D13C
:103F100000226C490878A84210D00132D2B2042A9B
:103F200001F10101F6D109F10109BDE7002328469D
:103F30001A461946FCF734FE013561E7AC42F2D867
:103F4000AE42F0D9C3EB03209623B0FBF3F0C0439D
:103F5000C0B2FCF7D1FA0146034602462846FCF7F8
:103F60001FFEE0E7594917E7454645E6402C7FF636
:103F70005DAE502C7FF666AE9AF80030D3B35A0788
:103F800038D5452C34D8452F18D90023FF211A469F
:103F90004520FCF705FE4A2F25D9FF2300227A2170
:103FA0004A20FCF7FDFD412C24D81CE0631F102B98
:103FB000E2D800234022FF21152047E62C2C10D800
:103FC0002C2F17D90023A522FF212C20FCF7E8FD78
:103FD000302F0FD9FF22002311463020FCF7E0FDDF
:103FE00008E0302CF6D90023FF211A464120F5E7DE
:103FF0004A2CD0D99AF8003053B3DB0628D5A4F167
:104000000C03102B05D80023FF211A461C20FCF7B7
:10401000C7FD10222E490AA803F0BCFB00250AAFF9
:1040200017F8010B844206D8864204D90023FF22E8
:104030001946FCF7B5FD0135EDB2102DF0D1231F67
:10404000102B05D8FF2300227A211420FCF7A8FDAD
:10405000204B1B78002B3FF408AE072C3FF605AE33
:104060005020FCF749FA01461820FCF745FA0023D6
:10407000024607200FB0BDE8F04FFCF791BD164B8C
:10408000164A1C70164B1B78C3F301031370FCF720
:1040900067FF1EE5134B1B780BB1FFF7A7FA124B16
:1040A0001C68FEF7B5FD001B0F287FF6DEAD002370
:1040B0007AE400BFFD220020D87E0008D27E0008EE
:1040C000CE7E0008CA7E0008AD1E0020AE8100082A
:1040D000E1770008C4220020000E0020FF0D002020
:1040E000F0220020AC1E0020D41500202DE9F74F4F
:1040F000302307469146009183F31188A824504D40
:1041000004FB0054D4F888301B78042B4FF00003D4
:1041100004D083F3118803B0BDE8F08F94F8A02099
:1041200042F21078002A18BF4FF0000883F311887C
:10413000302383F311884FF0000A009EDFF804B1AA
:10414000A26A3AB9E26852B32269111DA162E1691B
:104150000A44E262A06AE26AA9EB0A01121A8A42E0
:1041600028BF0A46402A44D93146402203F012FBB8
:10417000A16A403640310AF1400AE26AA1628A42ED
:1041800004D8E16920460439FDF778FA002282F369
:104190001188D1451CD9302282F31188D0E7227AC8
:1041A00082B9B8F1000F0DD0DBF80C206168146003
:1041B000516004200A6042F210716260FEF7CAFB8F
:1041C0000028BFDA4FF0000B8BF31188D1451AD8C5
:1041D000302383F31188A82303FB0755A96A31B163
:1041E0002B690439C91A02D02046FDF747FA00238B
:1041F0008FE73146019203F0CDFA019AA16A164485
:1042000011449244B9E7302282F31188A82606FBB4
:10421000075696F8A0202046BAF1000F08BF42F0DA
:10422000010286F8A020FEF749F92046FEF755F96D
:1042300086F808B0FEF7E0FC8BF3118878E700BF42
:10424000200E0020E81F0020014608220120FFF771
:104250004DBF014620220020FFF748BF0146032240
:104260000020FFF743BF20290A4603D10146022060
:10427000FFF73CBF70470000302383F31188034BE6
:10428000DB6898610F20FEF757BB00BFE81F0020D6
:1042900008B50146302383F311880820FEF75AFB46
:1042A000002383F3118808BD38B5392814BF0A25C7
:1042B00050250446FDF768FB40F2E7300021DFF8A7
:1042C00020C00023E5FB0C014FF47A72FBF78EFF50
:1042D000FFF7DEFF2046BDE83840FDF7B7BB00BF63
:1042E000A08601002DE9F0411F460C461646244BDE
:1042F00068B11970FEF78CFC224B04F0070418809B
:104300000120A040C0B2BDE8F041FDF7CDBB1D7853
:104310008D422DD11B4BB3F80080FEF779FCA0EB4A
:10432000080080B2C72823D806F12004B542E4B2C1
:1043300010D005F00700012505FA00F0C0B2FDF726
:10434000BDFB072C06D806F0070305FA03F0C0B240
:10435000FDF7AAFB3846FFF7A7FF072C0DD8012071
:1043600006F00706B040C0B2BDE8F041FDF7A6BBBD
:10437000012004F00704A040F5E7BDE8F08100BF8C
:104380002A210020D81400202DE9F04F0379064699
:1043900087B0002B00F011870121FDF759FC7379DC
:1043A0000446002B00F0A2869F4B1888002800F0DE
:1043B000D886844200F0D58610F0FE0FC0B204BF4C
:1043C00045429A4B4FF000010ABF05F01405002545
:1043D000ED18FCF7E9FD0146002800F0C28643799C
:1043E000048043F0040343712846FEF7ADF8002231
:1043F0008F4B012130461A70FDF72AFC47F64363C4
:104400009842044640F07786737963B1894B1B78F4
:10441000042B12BF0420884B1878FEF7E5FCFEF74A
:10442000F7FB864B1860864B1B785F0700F0C5864C
:104430007379002B00F0C186824B5B785D0740F1F9
:10444000BC86022007B0BDE8F04FFCF76FB97E4B89
:1044500000F07CBE47F644618C4208D0A3B19907B6
:1044600012D57378042B0FD13378012B0CD1002A8D
:10447000D9D0704B187805230130B0FBF3F303EB70
:104480008303C01AC0B2C8E7E2B1FEF7C1FB6B4BB1
:1044900018606E4B1A780AB100221A706C4B1B78A8
:1044A00063B96C4B1B786BB9674B1B78FF2B05D13D
:1044B000694B1B7833B1694B1B781BB90021FF2076
:1044C000FEF7ECFB31462046654AFDF723FA00284B
:1044D000A9D031462046634AFDF71CFA0028A2D035
:1044E00047F641639C4200F087803DD847F21303B2
:1044F0009C4247D047F640639C4275D07579002DA9
:1045000000F06381A4F5EE439BB27F2B00F25D8146
:10451000E4B20F2C87D8012140F23E4003AAFDF7F8
:1045200011FB9DF80C50002D7FF47DAF40F23F470A
:10453000002C68D103954C4F4C4DDFF8348103A813
:10454000FDF718FB00283FF46EAF012840F0DB8038
:1045500003A8FDF70FFB431E0446032B00F29580D2
:10456000DFE803F08E9BA1A747F642639C42C5D1CA
:104570007379002B3FF457AF3E4A137883F0010361
:10458000137050E77379002B3FF44DAFFEF724F81A
:104590002C4A137883F08004E40964F3C713137082
:1045A0009CB10C2234490DEB020003F0F3F8002417
:1045B00003ADFF2301341A46C82115F8010BE4B2FC
:1045C000FEF790FC0C2CF4D12DE72C4B03AD03939C
:1045D000002301341A46962115F8010BE4B2FEF7C8
:1045E00081FC042CF4D11EE77379002B3FF41BAF40
:1045F0000122204B1A7016E77379002B3FF413AF9A
:1046000000221C4BF6E7BD423FF40DAF01212846C6
:1046100003AAFDF797FA9DF80C300BB10135F2E7CC
:10462000013CE4B2013583E77E210020B010002078
:1046300032210020FD220020D02200202421002051
:1046400031210020EA220020E51000202321002053
:10465000DD220020DE220020E8220020E1100020E0
:10466000A9100020A41000201E8100082E8100083F
:104670000E810008C4220020F27700084644383931
:1046800003A8FDF777FAFFF70FFE4FF47A70FFF7F4
:10469000FFFD002C7FF453AFC5E603A8FDF76AFACF
:1046A000FDF772F9F1E703A8FDF764FAFDF7CEF91B
:1046B000EBE703A8FDF75EFA4FF0000904464FF060
:1046C0000A0BDFF8E4A21AF8041011F0040110D16B
:1046D000B9F1000F15D040F2E730DFF8D0C24FF447
:1046E0007A720023C9FB0C01FBF780FDFFF7D0FDB8
:1046F000CBE703A8FDF73EFA303C0BFB0949044623
:10470000E1E70120F2E7C0F3C702A949BB5C2C5CDA
:1047100018F8029000F0070011F802A0034149FACE
:1047200000F94AFA00FA13F0010B09F001090AF046
:10473000010A0AD09F4A137843F002031370FDF771
:10474000A1F84FF47A70FFF7A3FDB9F1000F0AD07A
:10475000984A137843F040031370FDF793F84FF431
:104760007A70FFF795FD2046FDF70EF94FF47A7049
:10477000FFF78EFD2046FDF769F94FF47A70FFF7D9
:1047800087FDB9F1000F08D04020FCF71FF8FDF7B6
:1047900079F84FF47A70FFF77BFDBBF1000F08D07A
:1047A0000220FCF713F8FDF76DF84FF47A70FFF76D
:1047B0006FFDBAF1000F3FF4C2AE2C20FFF774FD7D
:1047C0004FF47A70FFF764FDB9E6A4F5AE43FF2B12
:1047D00000F2908014F0FE0B7FF425AE2946E0B283
:1047E000FCF7E2FB804600283FF41DAE4379DFF87A
:1047F000C8A165F300035FFA84F94371002D60D00E
:10480000FEF706FA6D4B6B4A188098F80230127862
:10481000013388F802306A4B40461B78134388F80E
:104820000330684B1B7888F80430142303FB09F32A
:104830000AEB03015AF803200969FCF7E7FB98F833
:10484000053013F0020F08BFA3465F4BA3F800B07A
:104850007279002A00F0A38400215C4BA4F5E045A6
:104860001970ABB2222B00F282840420FDF763FAA8
:10487000574C013D2080212D65D8DFE815F0B900A7
:104880002401C10074007800C5007C00C900D50077
:1048900088001C018C00D9009000DD000301AB00F2
:1048A000E1000B01B100E700EF008000CD008400C3
:1048B000D100B500EB00FA0015011A016F00BD0030
:1048C0002C01142303FB09A3DA681969FCF79EFB8A
:1048D00098F805309B07BBD5C9F1000000F0140023
:1048E00041465044FDF714FE374B1A88A242AFD11F
:1048F0001D80ADE7A4F5F843183B062BA8D8DFE8E8
:1049000003F00F13040B171B1F00E122262311468F
:104910002846FFF7E7FC86E52723E522E521F7E7B0
:104920002623E122E021F3E72723E522E421EFE734
:104930002623E122E221EBE72723E522E621E7E730
:1049400028230122EAE7237843F00103237004209F
:104950002188FEF730FFFDF73FFE64E5637843F002
:1049600008036370F3E7237843F00203EEE723784C
:1049700043F00403EAE7237843F00803E6E76378AB
:1049800043F00103EDE7637843F00203E9E723789E
:1049900043F01003DAE7237843F02003D6E72378C7
:1049A00043F04003D2E700BFBE810008A0860100AB
:1049B0000E8100082C210020B010002028210020AA
:1049C000322100202D2100207E2100202A210020DC
:1049D000EA220020FDF700FE237843F08003B5E7CC
:1049E000237843F00C03B1E7637843F00303B8E79F
:1049F000237823F00103A9E7637823F00803B0E7E5
:104A0000237823F00203A1E7237823F004039DE732
:104A1000237823F0080399E7637823F00103A0E7E4
:104A2000637823F002039CE7237823F010038DE7DB
:104A3000237823F0200389E7237823F0400385E7D8
:104A4000FDF7CAFD237823F080037FE7237823F066
:104A50000C037BE7637823F0030382E72378C3F337
:104A6000800282F00102D2B262F3820362F3C303D6
:104A70006CE76378DA4302F0010262F3000362F349
:104A800041036EE72378C3F3801282F0010262F3E0
:104A900086135BE7FDF7A0FD2378C3F3C01282F015
:104AA000010262F3C71351E701210E20FEF7DEFD7C
:104AB0004DE70021F9E72378C3F3001282F00102E9
:104AC00062F3041342E72378C3F3000282F0010289
:104AD00062F300033AE76378C3F3C00282F0010295
:104AE00062F3C3033DE71B78A4F5F041A1F1200078
:104AF00003F022030A282CD8DFE800F00E12591721
:104B00005E1C632168266D0047F677439C4274D192
:104B10000120FBF751FD96E00120FCF783F882E4C9
:104B2000002B46D0FCF7E2F87DE4002B46D0FCF7E2
:104B300011F978E4002B46D0FCF726F973E4002B3A
:104B400046D0FCF73DF96EE4002B46D0FCF752F955
:104B500069E440390E294CD801A050F821F000BF7B
:104B60009D4B0008A94B0008194B0008214B000879
:104B7000AF4B00082B4B0008B94B0008354B000821
:104B8000C34B00083F4B0008CD4B0008494B0008C1
:104B9000D74B0008E14B0008E94B0008FCF750F840
:104BA0000120FBF7F5FF3EE4FCF75CF8F8E7002B8B
:104BB000B8D0FCF797F836E4002BB8D0FCF7C0F873
:104BC00031E4002BB8D0FCF7D1F82CE4002BB8D09E
:104BD000FCF7E8F827E4002BB8D0FCF7FFF822E454
:104BE00023B1FCF723F91EE4002BFAD0FCF70EF9F1
:104BF00019E447F677439C4216D047F678439C4227
:104C00001BD0A4F5A543603B9BB21F2B1FD87ABBDA
:104C100004F01F0301249C400320E1B2FEF726FDAF
:104C2000A84B1C70FFF7FFBB0120FBF7BBFC032266
:104C30000221FBF735FDFFF7F6BB0220002A3FF407
:104C400068AFFBF7AFFC032202210120F1E7AAB312
:104C500047F65B439C4225D047F65C439C4215D007
:104C600047F65A439C421BD047F601439C4222D050
:104C700047F603439C4217D0B4F5F84F1ED1FDF719
:104C8000ABFC914B914A1A60FCF76EFA904B587846
:104C900080F00400C0F38000FEF79EFDFFF7C3BB69
:104CA0000120F9E70020F7E7FEF71CFB4FF6FF7144
:104CB0000020FEF780FDFDF78FFCE5E73388ADF8B7
:104CC00008300298002A58D0FCF79AFF04460146A3
:104CD0000298FBF7A9FCBDF808302046ADF80C306F
:104CE0000399FCF76DFFFBF761FEDFF8E8A196F88A
:104CF00006909AF80080044618F007087579C9F301
:104D0000031928D0A84635B3C4F3072303F0F002F3
:104D1000402A0ED0C1B201F12002D2B2072A30D906
:104D200003F0E003202B04D101292AD9B9F1000FA7
:104D30002AD0674B93F8018018F004080BD00220AA
:104D4000FBF7F4FC9AF8003013F0070F0CBF4FF09C
:104D500001084FF00008C4F303330B2B6AD8DFE8D7
:104D600013F01500150049004900D20069006900E0
:104D70006900E9004E0160016001FBF773FC044625
:104D8000A9E74FF00008E6E7C846E4E7C4F30327C5
:104D9000C4F307223B010F2A88BF1F46E4B295B136
:104DA0005FB104F12003DBB2072B00D94CB94A4AAA
:104DB00013783B431370FCF765FD2046FCF7E4FDD8
:104DC00038E0464AF4E72046FCF740FE002F31D099
:104DD00004F12003DBB2072B00D91CB93846FBF7DE
:104DE000F5FC04E03D4A137823EA07031370FCF74F
:104DF00049FD1FE0C4F30320C4F3072303F0F003CD
:104E00000201E4B2202B18BF10463CB1012C4ED059
:104E1000002D69D0B9F1000F27D0CEE72C4B5B787D
:104E20005C071ED425B128B12B4A13780343DDE774
:104E30000028D4D1B8F1000F00F0A5809AF8000046
:104E400010F0010340F09F807371C008FBF7AAFBCC
:104E50003046FFF799FA9AF80000C008FBF7ACFB60
:104E600091E085B1B9F1000F02D1FCF71DFEE1E739
:104E7000B9F1010FDED11A4A137830EA0301D9D013
:104E800003431370D6E7B9F1000FD3D10190FCF7BB
:104E900015FE134A0198137818421CBF8343137000
:104EA000104A13781842C5D023EA0003E9E71DB180
:104EB000B9F1050FBED8D8E7B9F1040FBAD8FCF79D
:104EC000FDFDB7E72F210020FC6F0020EFBEADDE17
:104ED000EA220020312100202C2100203221002054
:104EE0002D2100202E210020B9F1000FE7D0392C10
:104EF0000CBF4FF4FA504FF47A70FFF7C9F920460F
:104F0000FCF7A4FD96E714F4406FC4F3812307D0A7
:104F1000012B8FD165B1C4F30900FCF7A1F889E733
:104F200025B1C4F30900FCF77FF883E72846FAE7C8
:104F30002846F2E714F4407F32D105BB0F21C4F3B9
:104F400042129200D2B29140C94304F00F03C9B299
:104F5000934014F01002C4F3812418BF0A46022CB7
:104F6000974917D0032C19D0012C04D013430A7889
:104F700013400B7003E0087803431A430A70FCF7F0
:104F800049F8FBF703FB0021304607B0BDE8F04FBE
:104F9000FCF75EBE13430A785340EAE71343E8E7A1
:104FA000C4F30122EDB1D107E9D50F21C4F34212B8
:104FB0009200D2B29140C94304F00F039340C9B2AA
:104FC00014F01002C4F3812418BF0A46022C10D03A
:104FD000032C12D0012C07D013433A7813403B70B6
:104FE000CDE7012AE1D8CAE739780B431A433A7072
:104FF000C5E713433A785340F1E71343EFE7E7B2CD
:10500000C4F3032435B12046FBF7CCFA3846FCF74D
:105010004BFDB4E73846FCF751FD2046FBF7CCFAD0
:10502000ADE75FFA84F8A8F1F003042B40D8DFE87D
:1050300003F003240F1620003DB1B9F1040F9ED8F0
:105040000123C4F30424A340D4E7B9F1050FF6E724
:10505000C4F30420002DE1D1FBF7A4FA8FE735B1AA
:105060000123C4F3042403FA04F43C7087E73D7081
:1050700085E7544B5B785A0704D4C4F30420002D11
:10508000CCD0E9E74DB15B07C4F30420E4D5C300FD
:1050900043F003038AF80030DEE70120FBF746FB0C
:1050A000B9F1010F7FF66BAF0220FBF73FFB66E71C
:1050B0004DB1B9F1000F03D04046FCF765FC5EE747
:1050C000C4F30420C8E7B9F1000F0CD0B8F1390FD0
:1050D0000CBF4FF4FA504FF47A70FFF7D9F84046FE
:1050E000FCF7B4FC4BE7C4F3042097E747F64363AF
:1050F00098423FF498A9344F3B7843B1980706D5BE
:105100007278032A03D13278052A3FF47DA9A82CAE
:1051100072797FF49FA92D49097851B92C490978F2
:1051200039B92C49097821B92B49097800293FF46C
:1051300095A9002A3FF477A9FDF76AFD274B18606F
:10514000274B1B78002B3FF482A9264B18780121AE
:10515000B0FA80F040094042C0B2FDF79FFDFFF772
:1051600062B947F643639C42C5D1FFF74FB947F692
:1051700016439C421C4B7FF4B6AC1B7803F0AA0389
:10518000002B14BF01220022184B0CBF2920352010
:105190001A70FBF781FFFCF775FBFFF744B947F680
:1051A00016439C427FF4B0AC104B1B78002B0CBF15
:1051B00029203520FBF7A6FFEDE707B0BDE8F08F0B
:1051C0002F210020EA22002030210020DA220020B6
:1051D000DC220020DB220020DE220020242100200F
:1051E000E8220020E11000202C2100202B210020AB
:1051F0001C49F8B58B790F2B0AD84B7943B11A4B60
:105200001A4A1B7815784E780F78194CAB4200D1AA
:10521000F8BD04EBC300027902B34278B2421DD15B
:1052200014F83320BA4219D14279BAB94288B1F898
:1052300002C0A2EB0C0292B2C72A0FD801228B79CE
:1052400062F307138B71837962F307138371054847
:10525000FFF79AF8BDE8F840FBF758BA013303F0BE
:105260000703D3E7762100203421002033210020DA
:10527000362100202DE9F04F054685B08A4C0146C5
:105280000622684602F086FA94F804A06F7995F831
:105290000490BAF1000F1AD1B9F1000F15D0002F08
:1052A00000F0FE802846FCF7FFFC002800F0F880A4
:1052B00008222946204602F06DFAB9F1010F02D109
:1052C0002088FCF7DFFCFFF793FF012444E0B5F8EA
:1052D00002B063886679ABEB030395F800809BB25C
:1052E000002E00F0AE80C72B00F28880B9F1000FCD
:1052F000EBD0A37962780F2B697850D891420FD107
:10530000227842450CD1002F44D10122204662F37D
:105310000713A371FFF738F8A379AB7100241BE0E2
:10532000002F37D13A464046FBF7CEF94046FBF70F
:10533000CBF904460028F1D10098FCF7A3FCC0F398
:105340000332032AC3B20BD8012A13D910F4706FA9
:1053500015D0AA790F2A12D8204605B0BDE8F08FE3
:10536000063202F00F02012A0ED92846FFF70CF888
:105370003446F1E710F4706F01D0002BECD02033ED
:10538000DBB2072BE8D9F0E7EF2BE5D90F33DBB21F
:10539000022BF7E7A37943F00103A371BEE7914223
:1053A0000DD1227842450AD14FB92846AB71FEF79C
:1053B000EBFF08222946204602F0ECF985E7284653
:1053C000FCF772FC00286BD0002F69D0A3791F2B4B
:1053D0000ED9228802A8ADF808200022ADF80AB044
:1053E0008DF80CA08DF80D208DF80E30FEF7CCFF57
:1053F000082229462C4802F0CDF964E7A3790F2B47
:1054000008D82046FEF7C0FF08220021204602F0FF
:10541000B9F983E7B9F1000F3FF457AF61786A78C3
:105420009142CCD122784245C9D1002FC7D128461C
:10543000AB71FEF7A9FF08223946204602F0A2F917
:1054400043E7C72BE0D8B9F1000F3FF43EAF3FB3BD
:1054500062786B789A421AD12378434517D1A379A1
:10546000DA0710D40F2B0ED9AB7103F0F003F02B39
:1054700006D0AB79C3F30312013262F30713AB71A9
:105480002846FEF781FF08222946074894E7284668
:10549000FCF70AFC0028ABD1A37943F00103A37108
:1054A0002846FEF771FF10E776210020F0B589B09D
:1054B000CDE900019DF8055000220DB12C490A707C
:1054C0009DF80460DDE90001ADF80E2002905EB1A8
:1054D000012102A88DF80C608DF80D50FCF7B8FB87
:1054E000012102A8FCF7B4FB8DF80C608DF80D507B
:1054F000DDE90201CDE9040104A8FFF7BBFE1D4E62
:1055000007461D4CB8B9DDE90401CDE906019DF857
:1055100014103378227871B15D1C05F007059542AF
:1055200010D01648082206A900EBC30002F032F999
:105530003570FBF7EBF8114D2078337883420BD1AF
:1055400009B0F0BDFDF748F8082239460C4837701D
:10555000277002F017F9EEE705EBC000FFF78AFEAF
:105560000028EDD02378013303F007032370E3E72D
:105570003221002033210020342100203621002058
:105580007621002073B5FDF743FB0A4D84B22B88CA
:10559000A3420DD00026ADF80060FDF739FBADF851
:1055A0000460ADF80200DDE90001FFF77FFF2C8009
:1055B00002B070BDCE20002000232DE9804895B0B8
:1055C00001935C4B9A68022A01BF1A685A4A526FCB
:1055D0005A689B6900231E46584A0133102B1660F7
:1055E000566002F10802F8D10127554B554D03F1E1
:1055F0000C021A61DA60544A5E61DA611F705E6003
:105600009E60524B2F7003F10C021A61DA60504A0F
:105610005E61DA611F7040F2BF325E609E604FF0E3
:10562000E023EE61AE622E62EE626E622E636E6009
:10563000AE605A6107229E611A6180224549464840
:1056400083F8232D08604548454C4860454903F5DB
:1056500050634FF0300CA66221638CF3118862B660
:10566000D868414920F4E0600004000C0143D9608F
:10567000D3F8FC103D4841F08071C3F8FC1001687C
:105680004FF00009394301602021D97783F822C007
:1056900004F11003C4E904334FF0FF33E661A36162
:1056A000E3693348984604F13403E36000F1C4032E
:1056B000C0F8F4302F4BC0F8C860C0F8C4302E4B8F
:1056C000C0F8F070C0F8E4300223C4E90889A0F8FB
:1056D000FC30E263A265C4E90044C4E91466A66034
:1056E000E662E6656464A4F84870C0F8F840C0E972
:1056F0004267C0F80461E830FCF768FB86F3118864
:105700001E4B1F4ADF701F4BDFF87CA01A60FCF7AE
:10571000EFFE01F05DFF4FF4807248461A49FDF735
:10572000F0FD002840F0B782FCF7E2FEFCF7E0FE57
:1057300084E000BF000C014000040140DC150020A3
:1057400018230020EC1E0020003000405C160020D2
:105750000090004090160020502300200070002090
:10576000E81F0020E47E00080003FA05001000E0B6
:10577000E8100020590B0008D1010008A0100020FB
:10578000510B0008040E0020981600201EF8013B63
:105790007340A3FB0C9B0CFB07BB7E015A0119EB6A
:1057A000020246EAD3664BEB060B4FEAC719D21842
:1057B0004FEAC31647EB0B0B4FEA0328961949EA49
:1057C00053694FEA07274BEB090947EA136716EBC2
:1057D000080649EB070908EB090786190139D5D1F5
:1057E00001224FF400600CA9FDF78BFDDDE90C23CD
:1057F000BB4208BFB24201D0FCF77AFE40F6080671
:10580000012230460AA9FDF77CFD002800F06782DE
:10581000DDE90A3253EA020100F0608213F0C00FA2
:10582000CDE90C3206F10806D9B200F03D82CAF883
:105830000068FDF7EBFD00283FF478AF4FF08043A0
:105840006FF0200200261A6320214FF055321A60B3
:105850005E609E60DE60DE621E625E6299616FF471
:105860000071C3F830144FF40071C3F80024C3F87A
:105870000464C3F80864C3F80C64C3F82C64C3F868
:105880002064C3F82464C3F818146FF48071C3F85B
:105890003014C3F800244FF48072C3F80464314616
:1058A000C3F80864B748C3F80C64C3F82C64C3F8A1
:1058B0002064C3F82464C3F81824102203F580631D
:1058C0004FF0A80801F05EFF302731464FF0010C81
:1058D0003246AD4BDFF8B4E21E70AD4B1E70AD4BDF
:1058E00003F15C00D86493F8840010B103F17000F8
:1058F0001865DFF8A0A2D3F8946008FB01AAD3F8DA
:105900009800D3F8909004361B605B6083F808C061
:10591000CAF80C9006FB090A58611861C3F818A070
:10592000DE61C3F8209058629A62DA62C3F830E010
:105930005B6387F31188D3F8880093F88C6000EBE1
:105940008600836183F8A02082F311880131032946
:1059500003F1A803C4D1904901F15C030B65CB6F3F
:10596000D1F880008E6F043381F808C006FB030C69
:10597000CB618A4B09604960CA6048610861C1F81F
:1059800018C00E6248628A62CA620B63496387F379
:10599000118891F874000B6F093043F8201081F8DA
:1059A000842082F311887E496FF4C0508B6C43F4DD
:1059B000004343F020038B644FF0804318636FF47F
:1059C00080501A609A60DA6018634FF08070186037
:1059D0004FF4805058604FF080505A62986187F3BE
:1059E00011882B78012B17D04FF480406D4BC3F8F2
:1059F0008000C3F8800183F80E236B4BDA72DA71F2
:105A00005A724B6903F008034B614A61CA66CA6760
:105A10000B6C23F002030B644FF0000901230426F2
:105A2000624FC5F804902B7057F8048FB8F1000F3F
:105A30000FD0D8F8140020B16FF001010C30FCF742
:105A4000F5F9D8F8180020B16FF001010C30FCF71F
:105A5000EDF9013EC7F80090E6D1FDF7CDF886F3E9
:105A6000118841F28830FEF713FC302383F311884C
:105A70002A784F4B012A6B60EE602E616E61AE6139
:105A800032D102204B4BEB60454B196C41F48071D5
:105A90001964196C41F002011964D3F8881041F0BF
:105AA0000201C3F88810D3F8881021F00201C3F86E
:105AB000881041495A63DA6708640821DA66596137
:105AC00059695961596941F00101596103F5505310
:105AD000DE72DA71D0225E72324B83F80E234FF4FD
