:020000040800F2
:1000000000040020B9010008BB010008BB01000882
:10001000BB010008BB010008BB010008BB010008D0
:10002000BB010008BB010008BB010008096C000807
:10003000BB010008BB010008BB0100080D710008EE
:10004000BB010008BB010008BB010008BB010008A0
:10005000BB010008BB0100086D6F0008956F000828
:10006000BD6F0008E56F00080D700008BB010008B7
:10007000BB010008BB010008B9710008BB01000802
:1000800035700008BB010008BB010008BB01000877
:10009000BB010008BB010008BB010008BB01000850
:1000A000BB010008BB01000891710008A5710008A0
:1000B000BB010008BB010008BB010008BB01000830
:1000C000BB01000899700008BB010008BB010008D3
:1000D000BB010008BB010008BB010008BB01000810
:1000E00072B6264880F30888254880F30988254899
:1000F00025490860022080F31488BFF36F8F03F056
:1001000031F803F061F84FF0553020491B4A914215
:100110003CBF41F8040BFAE71D49194A91423CBF24
:1001200041F8040BFAE71B491B4A1C4B9A423EBF9D
:1001300051F8040B42F8040BF8E700201849194A5B
:1001400091423CBF41F8040BFAE703F0DBF803F0FF
:10015000D7F8154C154DAC4203DA54F8041B884708
:10016000F9E705F009FC124C124DAC4203DA54F8E1
:10017000041B8847F9E703F0C4B80000000400201E
:10018000000C00200000000808ED00E00000002046
:1001900000040020BC810008000C0020F4100020A6
:1001A000F810002020230020E0000008E0000008F4
:1001B000E0000008E000000892E700F000F8FEE729
:1001C0002DE9F04FC1F80CD0C3689D46BDE8F08F13
:1001D000002383F311882846A047002004F0D2F8BA
:1001E000FEE703F0B5F800DFFEE7000053B94AB9B7
:1001F000002908BF00281CBF4FF0FF314FF0FF302F
:1002000000F062B9ADF1080C6DE904CE00F006F81B
:10021000DDF804E0DDE9022304B070472DE9F04782
:100220008C46154604461E46089F002B40F0CB80A6
:100230008A4248D9B2FA82F149B1C1F120030CFADD
:1002400001FC20FA03F38D4043EA0C0C8C404FEA8A
:10025000154EBCFBFEF8A8B20EFB18CC08FB00F94B
:10026000230C43EA0C43994529D9EB1808F1FF32D6
:1002700004D2994502D9A8F102022B44A3EB090349
:10028000B3FBFEFC0EFB1C330CFB00F0A4B244EAF3
:100290000344A04215D92C190CF1FF3304D2A0421B
:1002A00002D9ACF102032C44241A43EA02401FB1E4
:1002B0000023CC403C607B603146BDE8F08742467D
:1002C000DCE76346F0E7002A73D0B2FA82F3DBB3CF
:1002D0001E4602FA06F5C6F1200321FA03F24FEAA0
:1002E000154EB14020FA03F30B43B2FBFEF100FAC6
:1002F00006F40EFB112CA8B201FB00F81A0C42EA1E
:100300000C42904557D9AA1801F1FF3C04D2904500
:1003100002D9A1F1020C2A44A2EB0802B2FBFEF1C1
:100320000EFB112248439BB243EA0243984244D950
:10033000EB1801F1FF3203D2984201D98A1E2B44F7
:100340001B1A42EA0C4201E08B1A01224FEA154EB9
:10035000B3FBFEFCA8B20EFB1C330CFB00F8210C17
:1003600041EA034398452AD9EB180CF1FF3104D236
:10037000984502D9ACF102012B44A3EB0803B3FB6F
:10038000FEFC0EFB1C330CFB00F0A4B244EA034459
:10039000A04216D92C190CF1FF3304D2A04202D985
:1003A000ACF102032C44241A43EA014031461646BC
:1003B0007DE71F268DE78C46AEE70A46C0E761461B
:1003C000DBE76346EFE78B4206D917B900263046D4
:1003D00072E7C7E90001F9E7B3FA83F686B98B4201
:1003E00001D3824207D8841A61EB030301209C46A3
:1003F0001FB9002660E73046FAE7C7E9004CF8E786
:10040000C6F1200CB34022FA0CF41C434FEA144905
:1004100021FA0CF3B3FBF9F820FA0CF5B1402943AB
:100420001FFA84FE00FA06F509FB183008FB0EFAE5
:100430000B0C43EA00439A4502FA06F240D9E3184E
:1004400008F1FF3004D29A4502D9A8F102002344F2
:10045000A3EB0A03B3FBF9F809FB183308FB0EFE04
:1004600089B241EA03418E452CD9611808F1FF3366
:1004700004D28E4502D9A8F10203214443EA004088
:10048000A0FB0298A1EB0E014145CE46434602D3A4
:1004900006D14D4504D2B9EB020E68EB04030138D6
:1004A000002FA6D0B5EB0E0261EB030101FA0CFCA4
:1004B00022FA06F34CEA0303F140C7E9003198E75A
:1004C0004046C5E74346D9E7704700BFA0F58073B3
:1004D000B3F5F85F30B42ED210F4805F00F40075ED
:1004E000C0F3002300F4806400F4006014D01B010A
:1004F00043F02002002D18BF134643F04002D2B251
:10050000002C18BF134663F07F02D2B2002818BF38
:10051000134630BC1846084743F00202D2B2002D01
:1005200018BF134643F00402D2B2002C18BF134682
:1005300043F00802E9E70023EBE7020906BF134690
:100540000246042391081CBF0A46023303EB520003
:10055000C0B2704710F0020F0CBF10224FF480128F
:10056000014B9A61704700BF000800400123034A15
:10057000834011780B431370704700BF3A2100206D
:100580000123034A8340107820EA0300107070476B
:100590003A2100200123034A834011784B40137015
:1005A000704700BF3A21002001F00703C90801EBA2
:1005B000410130B501250A4400219D40013A12F85D
:1005C000014F20FA01F343F3000363402B40013154
:1005D0005C4003291470F2D130BD002210B500F048
:1005E0000704C00800EB4000014410468B5CE34068
:1005F00003F00103934001321843032AC0B2F5D13E
:1006000010BD00000246C0F30723052B084682B048
:10061000D1B209D80E290DD8C3EB03131944064AE9
:1006200089B202B0FFF7C0BF0433DBB2012B01D89F
:10063000024AF6E702B070470321002000210020A3
:10064000C0F30723052B82B0C0B209D80E280DD8FD
:10065000C3EB03131844074980B202B0FFF7BDBFD4
:100660000433DBB2012B01D80349F6E7002002B0C6
:10067000704700BF032100200021002030B5012475
:10068000074D04FA01F12B7804FA00F00843C1B2D7
:100690001840944081420CBF2343A3432B7030BDCC
:1006A0003A210020F0B50D4B0D4C1B7826780D4CEF
:1006B000B34201D10020F0BD04EBC3056F788F4237
:1006C00006D114F83370874202D16D79954203D177
:1006D000013303F00703EBE70120ECE740210020A2
:1006E0003F21002042210020054B064A1B7812784A
:1006F0009A4200D17047013303F00703F8E700BFC7
:10070000402100203F21002010B509490B7823EA41
:10071000000010F00704087009D1984207D0054B7B
:100720005B785B0703D5C008FFF72AFF0C7010BD8C
:100730003B2100203C21002070B5144B144D18784B
:10074000144B1B7818432B78C0B293B11843124B4B
:100750009B78012B04D1114B93F90030002B09DB5E
:1007600006220F4B00211A449A4206D109B10023F8
:100770002B7070BD1E220B4BF4E74C1C13F8016B61
:10078000E4B2002E18BF2146EEE700BF362100205C
:10079000372100203E210020A81000203C2100200D
:1007A000061400200E140020024A137823EA0003E6
:1007B0001370704736210020E7284FD8DF2807D86C
:1007C000312864D00ED8292857D02A2866D07047FF
:1007D000A0F1E003072B41D8DFE803F01540232800
:1007E00031403C41392804D0822802D035283FD0FE
:1007F0007047324B1A7892071FD15B7813F0080FBD
:1008000018BF292070472D4A1378D9074DD4527844
:1008100012F0010F22D013F0100F14BF0020E320BC
:100820007047264B1B7813F0040FF3E7234A137825
:1008300059073CD45278D207EDD5E02070471F4BC2
:100840005A7891070AD51B7813F0100F14BF0020B7
:10085000E7207047194B1B781A07F5D47047174AE1
:100860001378190725D452789107EDD5E420704705
:10087000124B1B7813F0200FC2E7104B1A78920628
:1008800019D45B7813F0080F18BF392070470B4B51
:100890001B7813F0400F18BF2A207047074B1B78B6
:1008A00013F0400F18BF3120704739207047E22005
:1008B0007047E62070473520D0E700BF3C2100207C
:1008C00030B5304D2B785A0711D500F0140100F0E7
:1008D00018020C1F6142A2F1080C6141DCF1000218
:1008E00042EB0C0280F00C04914218BF204619071D
:1008F00013D500F0140400F01801A4F1140CA1F1B8
:100900001802DCF1000444EB0C045142514180F028
:100910000C02D2B28C4218BF10466D78E90713D58D
:1009200000F0110400F0180104F1FF3CA1F10802ED
:10093000DCF1000444EB0C045142514180F0090207
:10094000D2B28C4218BF1046AA0711D500F011048C
:1009500000F01801A4F111025442A1F1180554410C
:10096000694280F009026941D2B28C4218BF104638
:10097000DB0605D500F0E70310F0080F18BF184696
:1009800030BD00BF3C21002038B5FFF715FFB0F5A2
:10099000A44F04463FD2B0F5A04F80F0A680DF28D8
:1009A00016D8CC2800F28680A7280AD8A42874D8A4
:1009B000012804D0031F9BB2A12B28BF002420468E
:1009C00038BDA0F1A8039BB21A2B6BD90024F6E71F
:1009D000B0F5804F16D2B0F5005F80F09980E7281F
:1009E000EDD9A0F580739BB2B3F5F85FEED2C0F3FA
:1009F0000720FFF765FF0546E0B2FFF7DDFE40EA9E
:100A00000524DCE7C0B2FFF7D7FE04F4706420438E
:100A100040F42044D3E7B0F5A54F21D245F25F233F
:100A2000984251D845F23F2398420ED845F21F23F1
:100A3000984242D8012300F00304A340C0F385028A
:100A400043EA421343F40D44B9E7012300F00304E1
:100A5000A340C0F3820243EA421343F40C44AEE7DE
:100A600045F2BF2398420AD845F29F23984200F0EE
:100A70001F0034D84AF2F40343EA00249FE7A0F5AC
:100A8000A543403B9BB21F2BA0D8040204F4F854AA
:100A900044F4204444F0F00491E7A0F1240444F429
:100AA00080448CE7204B5834E4B233F8144044F4CB
:100AB000884484E740F4A04481E74AF2F10300F05F
:100AC0001F0443EA04247AE7012300F00304A3404F
:100AD000C0F3820243EA421343F40A446FE7FFF78C
:100AE000EFFE040244F4005469E700F01F00FFF732
:100AF000E7FE03B21A0102F0F00210F0100F18BF67
:100B00001346C4F3431443EA042343F4104456E762
:100B1000C0F30420FFF7D4FE0546E0B2FFF74CFE19
:100B200040EA0524DEE700BFD87F000800207047B8
:100B30000020704730BFFDE7044B93F804281AB932
:100B4000012083F80408704702207047A81600208F
:100B5000054B93F8042822B10022012083F80428D1
:100B600070470220704700BFA816002030B52B4AFE
:100B700085B0C0F3074310F47F4FD25C0190C0F3FF
:100B8000072547D00620FF239DF80440591B6043EA
:100B9000B0FBF3F06FF05403434303EB440303EB68
:100BA0004303DBB203FB05F4C3F1FF036B432412E1
:100BB0001B12C4F1FF04C3F1FF03514354435343D9
:100BC000091224121B12062820D8DFE800F00406C0
:100BD00013161A1F040014461A4613462246002014
:100BE000D2B262F30700DBB263F30F2061F3174068
:100BF00005B030BD0C461946EFE723460C461146BA
:100C0000EAE710461C460A460146E6E72346144634
:100C10000A46F0E711461346E1E700BFE27C000810
:100C20001FB55308D209184C1ABF83F0FF0303F015
:100C30000F0203F00F02C3F30113019004EB430111
:100C4000497818BF01324A4314F81330C0F3074003
:100C500003EB22135BB2002BB8BF5B425B00DBB23D
:100C600000FB033300201B128DF80630019BDAB223
:100C700062F30700C3F3072262F30F20C3F30743B5
:100C800063F3174004B010BDDA7C000884B0019013
:100C900000208DF80420019BDAB262F30700C3F351
:100CA000072262F30F20C3F3074363F3174004B036
:100CB0007047000084B0019000200B4B03EB410310
:100CC00093F85A309B1A8DF80430019BDAB262F324
:100CD0000700C3F3072262F30F20C3F3074363F354
:100CE000174004B0704700BF247E000884B0019014
:100CF00000200B4B03EB410393F85B309B1A8DF8FC
:100D00000430019BDAB262F30700C3F3072262F3F7
:100D10000F20C3F3074363F3174004B0704700BFCD
:100D2000247E00081FB5124C2C3104EB4104E378FB
:100D30000190A3F12001C3F120035BB249B231EA73
:100D4000210128BF1946A3789B1A0B4403440020B5
:100D50008DF80430019BDAB262F30700C3F3072277
:100D600062F30F20C3F3074363F3174004B010BDD1
:100D7000247E0008FF2928BFFF21C94384B00190C9
:100D8000C9B2C0F3074000FB0111002009128DF821
:100D90000610019BDAB262F30700C3F3072262F385
:100DA0000F20C3F3074363F3174004B07047FF29D4
:100DB00028BFFF21C943C9B284B001EB8111019062
:100DC00000EB11208DF804000020019BDAB262F3E1
:100DD0000700C3F3072262F30F20C3F3074363F353
:100DE000174004B0704784B0BDF81020C0F307412D
:100DF000D31A9BB2FF2B28BFFF23DBB283F0FF0285
:100E00001144FF2928BFFF210190034400208DF8E1
:100E100004308DF80610019BDAB262F30700C3F3C9
:100E2000072262F30F20C3F3074363F3174004B0B4
:100E300070470000024B1A7810431870704700BFCB
:100E4000BC1E002000F03ABCF8B50B4B06461B78E0
:100E50000F4683B10424094D15F8010B864206D8CC
:100E6000874204D90023FF211A46FFF7EBFF013C1C
:100E700014F0FF04F0D1F8BD8A210020AE800008F4
:100E800000F028BC08B5074B074A1870074B1B78C1
:100E9000C3F30103137000F02BFC0322044B1A7000
:100EA00008BD00BF060E0020050E002028210020EE
:100EB000040E002000EB0010C3B2002003F1110269
:100EC00063F30700D3B2512B28BF512382B063F3E1
:100ED0000F2002B0704700002DE9FF47DFF8948033
:100EE000814698F80000FFF7E5FF234E234B347945
:100EF0001B88A40802345C43DFF884A0C0F30727F2
:100F0000C4F30724C5B2E9B28F4206D8502F8CBF74
:100F10000020012004B0BDE8F08798F801301AF8ED
:100F200005201A4223D0B2787378F07843EA02237E
:100F300043EA00402246C8478DF80400C0F3072367
:100F4000C0F307408DF806008DF80530019BADF821
:100F500008301B0C8DF80A300298FFF707FEC0F32B
:100F60000743C0F30722C1B22846FFF76BFF0135E4
:100F7000C9E700BF070E002028210020E815002047
:100F8000207F00082DE9F04FDFF8F0803C4D85B060
:100F9000834698F80000FFF78DFF2B794FF6FF7618
:100FA0000133FF2B28BFFF23B6FBF3F6DFF8D4A0F5
:100FB000DFF8D490ADF80000C0F30727C4B2E0B268
:100FC000874206D8502F8CBF0020012005B0BDE815
:100FD000F08F98F801301AF804201A423CD099F8A2
:100FE0000030DFF8A8C0013B5BB21A0636D53146A7
:100FF0002B79AA780133FF2B28BFFF2303FB0111B4
:101000006B78E87843EA0223C1F30F2143EA0040FA
:10101000D8478DF80400C0F30723C0F307408DF8CC
:1010200006008DF80530019BADF808301B0C8DF8DB
:101030000A300298FFF79AFDC0F30722C0F3074376
:101040008DF80C008DF80D208DF80E30C1B2DBB29A
:101050002046D2B2FFF7F6FE0134B0E71CF80320B9
:10106000824209D103F10C0209EB420251789278D5
:1010700041EA02218E42BBD8013BB6E7070E0020B1
:1010800028210020207F0008BD1E0020CE1E002049
:101090002DE9F04FB54B05461B78B54A83428DB01C
:1010A00024D1B4491378097803F003035B1A18BFFD
:1010B0000123DFF8C4821C4688F80230537998F87F
:1010C00001209A4206D000221146104688F80130CD
:1010D000FFF7D6FE092D0BD86B1E082B0DD8DFE8C5
:1010E00003F0144D6466686A6C7072000123E0E7D7
:1010F000FF2D00F02181002043E0002CFBD00022D6
:1011000011461046FFF7BCFEF5E798F80000FFF720
:10111000D1FE9A4906460322ADF824000BA806F03A
:10112000B9FA0B98FFF722FDDFF854B2C0F307229B
:10113000C0F30743C6F307248DF828008DF8292053
:101140008DF82A30C7B25FFA82FA5FFA83F9F6B2F5
:10115000F3B29C4204D8502C8CBF0020012010E038
:1011600098F801301BF806201A4205D04B4652462B
:1011700039463046FFF766FE0136E9E78148FFF75A
:10118000ABFE7D4B1A7801321A70002840F0E780E0
:1011900002217D4A9B781170002B40F0E080002DE9
:1011A00040F0DD8003231370D9E07848E7E7784802
:1011B000E5E77848E3E77848E1E77848FFF7E2FEBB
:1011C000DFE77748FAE7774B98F800001B78DFF8FD
:1011D000A0915F1E0393FFF76DFE734BC4B203EB48
:1011E0004406FC3327EAE777ADF82000C0F3072B6D
:1011F0000793E3B25B4502D3BBF1500FACE75E4B04
:10120000079A5B78125D1A4230D003225B4909A825
:1012100006F040FAB846002299F803300693614B75
:1012200007EB030A03995FFA88F38B4221D3069BED
:1012300003FB022212128DF82620099BADF82830FC
:101240001B0C8DF82A300A98FFF790FCC0F3072298
:10125000C0F307438DF82C008DF82D208DF82E302B
:10126000C1B2DBB22046D2B2FFF7ECFD0134023648
:10127000BFE71AF8013F96F85A1096F85BC0C81AF3
:101280009AF808100490ACEB010305935B4300FB54
:10129000003080B201282BD8C3B299F8040041492C
:1012A0000130FF2828BFFF2008F10C0C01EB4C0C8B
:1012B0009CF801109CF802C08DF8262041EA0C2110
:1012C00000FB0111C1F30F210998059A00910499BF
:1012D000FFF789FDC0F30742C0F307238DF82620EE
:1012E0008DF824008DF82530D2B208F1010899E775
:1012F000B0F5F75F88BF4FF0FF0C4FF001019EBFC4
:101300004FEA501C0CF1080C5FFA8CFC01EB0C034B
:101310005B1003FB03FE1FFA8EFE704507D2013BF4
:101320005FFA83FC6145F1D90139CBB2B5E7FF2BF8
:10133000B3D00133D9B2F5E71C4B1B68C3F381234B
:10134000022B35D0032B37D0012B4FF0000209D0F0
:1013500011461420FFF794FD02220B4B1A700DB0BA
:10136000BDE8F08F14211046F4E700BF060E002000
:1013700028210020050E0020070E00202921002032
:10138000207F0008210C0008040E00208D0C0008AE
:10139000B50C0008ED0C0008250D0008750D0008BF
:1013A000AF0D0008BD1E0020247E0008E8150020B7
:1013B000002114220846CDE714221146D3E700BFCE
:1013C000044A137883F0010313700022024B1A7051
:1013D000FFF730BD28210020040E0020064A1378B4
:1013E00013F0030304BF05490B700121137861F367
:1013F00001031370704700BF28210020040E002055
:10140000054B1A7892071EBF0021044A11701A7802
:1014100022F003021A70704728210020040E0020D9
:101420000D4A0346107810B4800713D073B1092B0E
:101430000ED803F03F031478084663F38704147052
:101440000022064B1A7010BCFFF7F4BC0123F2E730
:101450000923F0E710BC704728210020040E00206B
:10146000064B01461B78C3F385030133DBB20A2B1D
:1014700034BF18460120FFF7D3BF00BF282100204A
:10148000064B01461B78C3F38503013B13F0FF03B2
:1014900014BF18460920FFF7C3BF00BF2821002052
:1014A00030B4064C2578AD0706D06070A170E270AC
:1014B000184630BCFFF7BEBC30BC70472821002066
:1014C000034903464878CA7808308978FFF7E8BFAF
:1014D00028210020054910B44C780346083CCA78FE
:1014E000A0B2897810BCFFF7DBBF00BF2821002025
:1014F00010B4064C0346A178E2781031FF2928BFCA
:10150000FF216078C9B210BCFFF7CABF28210020B4
:1015100010B4064C0346A178E278103921EAE17153
:101520006078C9B210BCFFF7BBBF00BF2821002004
:1015300010B4064C0346E278A1781032FF2A28BF87
:10154000FF226078D2B210BCFFF7AABF282100208A
:1015500010B4064C0346E278A178103A22EAE2720F
:101560006078D2B210BCFFF79BBF00BF28210020DB
:10157000044A13791033FF2B28BFFF231371FFF7A1
:1015800059BC00BF28210020034A1379103B23EAED
:10159000E3731371FFF74EBC28210020054A012098
:1015A0005379A3F1FF014B424B410349CB5C53718B
:1015B000FFF740BC28210020D87C0008054A012004
:1015C0005379A3F1FF014B424B410349CB5C53716B
:1015D000FFF730BC28210020D87C000830B5094B2B
:1015E0009C78DD78621C02F00302954209D09A7063
:1015F0001A7800F07F001C4440EAC11001322071CB
:101600001A7030BD971F0020054BC1F18041186949
:1016100001F2074101F00F01C84000F001007047DE
:101620000004004070B5072301264FF400444FF03A
:101630000045184A06FA03F10142946115D00621CB
:1016400000BF00BF00BF00BF00BF00BF0139F7D11E
:101650000321956100BF00BF00BF00BF00BF00BFF6
:101660000139F7D1013BE5D270BD032100BF00BFB6
:1016700000BF00BF00BF00BF0139F7D1062195614F
:1016800000BF00BF00BF00BF00BF00BF0139F7D1DE
:10169000E8E700BF000400406FF40042064B1A6305
:1016A0004FF055321A6000225A609A60DA60DA62AE
:1016B0001A625A62704700BF0004004030B5044D02
:1016C00000EB40002C1861702A54A37030BD00BF9D
:1016D000EA14002070B5134605460E460024204645
:1016E000324629460134FFF7E9FF512CF7D170BD8E
:1016F00038B5302383F3118800250E4C2078FFF78E
:1017000091FF6078FFF78EFF0135A078FFF78AFF21
:10171000512D04F10304F1D14FF4E06300BF00BF89
:1017200000BF00BF00BF00BF013BF7D183F31188AA
:1017300038BD00BFEA140020022870B529D8002265
:10174000154B9D1D03EBC2046679360705D515F8C8
:101750003260864201D1204670BD0132032AF1D1A8
:10176000B9B159790C070FD55A7B11070FD55A7D9E
:1017700012070ED4022103EBC1014B79887143F0AB
:10178000080308464B71E7E7C1F3C001F3E7012105
:10179000F1E70020E0E700BFD014002002B11047BD
:1017A00070470000034B1B6813B11B6803B1184757
:1017B00018467047F42000200B4B07B51A88824268
:1017C0000FD01880094B1B685BB11B694BB103221A
:1017D0008DF80500000A8DF806008DF8042001A898
:1017E000984703B000BD00BFCE140020F4200020B5
:1017F0000B4B07B51A88824210D01880094B1B6822
:1018000063B11B6953B104228DF80500000A8DF8FD
:1018100006008DF804200DEB0200984703B000BDD0
:10182000CC140020F420002010B5154B9B78012B20
:1018300015D000224FF0FF33124911F8014FA0429A
:101840001DD0B3F1FF3F01D104B953B20132062AD2
:10185000F3D15A1C13D00C4A134498700FE00B4A72
:1018600092F90020002AE4DAEF2808D8084A02EBAF
:10187000D002917800F0070083400B43937010BDB5
:10188000A810002005140020041400203C21002092
:101890000C14002010B5114B9A78012A0CD00623A5
:1018A00000210F4A12F8014F013B844208BF11701A
:1018B00013F0FF03F6D110E00A4B93F90030002B30
:1018C000EDDAEF2809D8084B03EBD003997800F044
:1018D0000700824021EA02029A7010BDA810002081
:1018E000051400203C2100200C140020014B5878E6
:1018F000704700BFA8100020BFF34F8F0549064B6B
:10190000CA6802F4E0621343CB60BFF34F8F00BF9D
:10191000FDE700BF00ED00E00400FA0530B590F8E7
:10192000472090F8463085B043EA02231A0A032A7A
:101930001BD00DD8012A5FD0022A13D15B23314A74
:10194000314842600360002A08BF104605B030BD30
:1019500090F8483090F84910212A43EA01233CD0FE
:10196000222A41D000231A46EAE7DBB2032BF9D83A
:10197000DFE803F0450205080623244AE0E72A23AE
:10198000234ADDE7234B244D1C781CBB0122214652
:101990001A706846102205F075FE21461F4804ABF8
:1019A00003EB610313F8102C05EB41031409045DEC
:1019B00002F00F029C700024825CDC704B1C023130
:1019C00005EB430320299A70DC70E8D142232B7089
:1019D00003236B702B78104AB2E7022BC2D8104A4F
:1019E00052F823200923ABE7022BBBD80D4A0E493E
:1019F00052F82320CB5CA3E712230C4AA0E7042370
:101A00000B4A9DE7B8780008C4140020AC780008A1
:101A1000807800087E1400207F1400206F78000872
:101A2000347900082879000825790008137900081E
:101A3000B478000810B5064A064C117824784B1C7F
:101A400003F00F039C421EBF034C1370605410BD83
:101A5000F71E0020F61E0020E61E002090F84A2007
:101A600090F84B00084942EA0022022A0B7807D17D
:101A7000012B01D0062B05D14A78044B5A707047D0
:101A8000024A5370704700BF7C140020A810002049
:101A900070B590F84410044601F07F03212B40F00C
:101AA0009D8011F0800F90F8453053D0022B35D037
:101AB000032B25D0012B4DD190F84830022B01D9B2
:101AC000002070BD90F846100829F9D8594AD25C18
:101AD000022AF5D8A820584B00FB0233D3F8A430D3
:101AE000002BEDD0554D5E6818682A46B04705F1C9
:101AF0000803A363AB6C0022E36322640120E0E7E8
:101B000090F8482090F8493052EA032266D14C49B7
:101B10004C4B8978836319700123EDE790F84830C6
:101B2000022BCDD890F846100829C9D8414AD25C7A
:101B3000022AC5D8A820404B00FB0233D3F8A430BA
:101B4000002BBDD05A69186890473F4B1870A363AB
:101B50000123D0E70A2B23D00B2B10D0092B3DD12A
:101B600094F8483094F8492043EA022323F0020312
:101B7000002B33D1354B364AA3630223BCE794F8DC
:101B8000483094F8492053EA022306D194F84630AD
:101B90002B4A003B18BF012393700023A363AAE7DD
:101BA000274B94F847201A7094F84830022B87D8B6
:101BB00094F84610082983D81E48C05C02283FF6D6
:101BC0007FAFA8251C4B05FB0033D3F8A430002BB6
:101BD0003FF476AF1D691868A847DEE701F09F0162
:101BE000812918D194F84530062B14D194F8492056
:101BF000616894F848304D6843EA0223204694F81F
:101C0000472094F84610A84700283FF459AF43688E
:101C1000A36303686FE70325074ED6F89C3023B90A
:101C2000013D06F1A806F8D14AE72046984700286A
:101C3000F6D063E76C780008280E00202C140020F2
:101C4000A810002079140020781400207C140020B3
:101C50005D1A00087047302383F3118802694369D5
:101C60009A4210D1C36883B10123D0F8882090F83C
:101C70008C1012898B4013420CBF012000200023DE
:101C800083F3118870470020F9E71846F7E7000052
:101C9000036843B19100196003490B78002A18BF0B
:101CA00043F001030B707047F01F0020006810B173
:101CB0000068C0F38700704738B503680BB900208F
:101CC00038BD302383F31188036800211C685B68EA
:101CD00081F31188002CF2D04FF47A7C074A084D2A
:101CE000D069084AC01AE0FB0C5100232846FEF7D1
:101CF0007DFA84428CBF00200120E1E7F81F00201C
:101D00009F860100A08601004B1E072B0BD850F8C0
:101D1000213043B19100196003490B78002A18BFA4
:101D200043F001030B707047F01F0020082906D80C
:101D300050F8210020B10068C0F3870070470020F0
:101D400070470000082938B501D9002038BD50F887
:101D50002130002BF9D0302383F3118850F8213043
:101D600000211C685B6881F31188002CEDD04FF4D2
:101D70007A7C084A084DD069084AC01AE0FB0C5129
:101D800000232846FEF732FA84428CBF002001204F
:101D9000DCE700BFF81F00209F860100A08601003D
:101DA000034610B51B68984203D09C688A68944229
:101DB000F8D25A680B604A601160596010BD00008B
:101DC000302383F311880D4B5B6813F4006312D04A
:101DD000EFF309834FF08072203BDA6183F30988C7
:101DE000074A1168D2688968926891428CBF054A97
:101DF000054A9A61704783F31188704700ED00E04F
:101E0000F81F0020E3010008E601000803691960DB
:101E1000C268013AC260C269134482690361934295
:101E200024BF436A036100238362036B03B1184735
:101E30007047000070B50124468904FA01F5354366
:101E4000458100EB8100C56801F00F01A86982603F
:101E5000002203604260C26023B16C8A013B2344CC
:101E6000B3FBF4F4054B0482997321B11A7D02F09F
:101E7000FE021A7570BD40225A74FBE70040014013
:101E800010B40346006F0278042A12D1012293F89D
:101E9000741044898A4022420BD11A695C69A242BB
:101EA00001D1DC682CB910BCDB690432043BFFF7BC
:101EB000C1BF10BC7047406BFFF7E2BFF0B5012413
:101EC000002605898C402C43048100EB810411F02D
:101ED0000F0108BF4027E46865696E60EE6008BFC7
:101EE000114E2B60AA6008BFB173248A08BF7774B3
:101EF000A34228BF23460D4C2B6104EB8104D51867
:101F0000954205D1084A917331B101235374F0BD54
:101F100012F8016B2670F3E7517CC168098A8B4285
:101F200034BF0A230223F1E7004001402040014072
:101F300010B4436BD3F888000278042A11D101222F
:101F400093F88C1004898A4022420AD15A691C698C
:101F5000944201D1DB6823B910BC52F8043BFFF76F
:101F6000ADBF10BC7047000005480178052906D1B7
:101F700090F85030037043681B6803B118477047EE
:101F8000FC1E002000216022074B10B599735A7483
:101F900099735A74436804461B680BB1062198472D
:101FA000062384F8343010BD0040014090F83430EE
:101FB00010B5152B04460CD8012208499A400A4254
:101FC00008D1152B05D1036C03B19847002384F881
:101FD000343010BDBDE81040FFF7D4BF410E1000F3
:101FE00090F8343010B5152B04460CD8012208495E
:101FF0009A400A4208D1092B05D1036C03B19847D6
:10200000002384F8343010BDBDE81040FFF7BABF9C
:10201000410C300010B51C4B9B78012B1ED11B4B83
:1020200093F90030002B19DAFEF786FB184C2022BA
:1020300060701849204605F03BFB20B32022214662
:10204000144805F027FB144B1B68E3B19B68D3B120
:10205000062222702046BDE810401847FEF76CFBB0
:102060000E4C082220700E49204605F021FB50B18D
:10207000082221460A4805F00DFB074B1B6813B1E7
:102080005B68002BE6D110BDA81000203C21002089
:102090000C140020D4200020F42000200414002080
:1020A000F820002038B51C4B1B78D3B19378C3B10E
:1020B00014785578844201D0854212D185424C79FA
:1020C0000CBF012100211144CC7014BF012100215B
:1020D0005018C07828B1022B05D014D9D81E012879
:1020E0000CD9012038BD505C2CB9FFF79DFBFFF7E0
:1020F00091FF0020F6E7FFF7CDFBF8E7033B18BFA1
:1021000001239942F5D0505C14B9FFF78DFBE8E745
:10211000FFF7C0FBE5E700BF8B21002010B50446A8
:1021200000284FD0031FDBB2A02B27D8264B9B786B
:10213000012B0FD00023254A12F8011FA14217D00E
:102140000133062BF8D12046FFF76EFBBDE81040A7
:10215000FFF760BF1E4A92F90020002AEADA1D4A02
:1021600000F0070102EBD00292788B401A42EAD0CD
:102170002046FFF78FFBFFF74DFFE4E700F1200358
:10218000DBB2072B08D80123134A00F007041178AB
:10219000A3400B431370D9E700F15B03DBB2022BC2
:1021A00005D8BDE81040243880B2FFF705BB58348D
:1021B000E4B21A2C06D8094B33F81400BDE81040DD
:1021C000FFF716BB10BD00BFA810002005140020AB
:1021D0003C2100200C14002036210020D87F00086C
:1021E00010B58378012B10D10C88A4F1E003072BE4
:1021F00000D944B909492046FEF768F9E0B2BDE8C4
:102200001040FFF78BBF0649F5E7022B04D1BDE86C
:1022100010404B688878184710BD00BF8122000825
:10222000A922000808B5034648B3021FD2B2A02A6B
:1022300005D8FFF72FFBBDE80840FFF7EBBE00F124
:102240002002D2B2072A07D800F0070301209840E5
:10225000C0B2FEF7A9FAEEE700F15B02D2B2022AA1
:1022600004D8BDE808400020FFF7A6BA5833DBB217
:102270001A2B04D8BDE808400020FFF7B9BA08BD02
:1022800028B1034B1A7810431870FFF7C3BE70478C
:102290003621002008B528B1FEF786FABDE80840CF
:1022A000FFF7B8BE08BD000028B1034B1A781043F1
:1022B0001870FFF7AFBE70473E21002030B1044ACE
:1022C000137823EA00031370FFF7A4BE704700BF22
:1022D0003E2100208318B3F5006F10B40C4605D8DA
:1022E00003490144204610BC05F0D4B910BC704726
:1022F000A8160020002307B501220DF107018DF873
:102300000730FFF7E7FF9DF8070003B000BD042882
:1023100038B517D8052915D80E2A13D81E23520010
:1023200003FB0122B42303FB002404F12900FFF77F
:10233000E1FF054604F12A00FFF7DCFF40EA052033
:1023400080B238BD0020FCE7F8B5144640F23E47A5
:1023500000F2C1355618B44200D1F8BD6FF4707365
:10236000EB18BB4206D82846FFF7C4FF04F8010B60
:102370000135F0E70020F9E713B5044601210068B4
:102380000DF10702FFF7E0FF23689DF80700013316
:10239000236002B010BD800070B500F2AD3481F052
:1023A00001000D4604EB4000FFF7A4FF002D064698
:1023B0000CBF032001202044FFF79CFF40EA0620C9
:1023C00080B270BDCAB2C1F30721052982B006D818
:1023D0000E2A14D8042812D802B0FFF798BFFD299E
:1023E00006D162B904280AD8012102B0FFF7D3BF91
:1023F000FC2904D11AB9042801D81146F5E70020B8
:1024000002B070477FB50424104BADF804001D786E
:102410000F4B1B781D43EDB245FA04F3DB0705D4DF
:10242000013CF9D20026304604B070BDBDF804303E
:10243000E6B2ADF80C3003993046FFF7C3FFFEF764
:10244000A3FA80B20128EBD0EDE700BF3A210020CB
:102450003921002013B502884379ADF80420019892
:1024600073B169B1FFF7CEFF044601460198FEF74C
:10247000C9F82046019902B0BDE81040FFF7A2BF9D
:10248000FEF7DEF80446F4E71FB5ADF80400019846
:10249000FFF7B8FFBDF80430ADF80C300399FFF733
:1024A00091FF05B05DF804EBFEF76EBA08B503794D
:1024B0002BB30088FFF7E8FFC3B2C0F30330062850
:1024C00012D094BF0E30063000F00F00012812D851
:1024D000F02B12D004D8E72B8CBF0020012008BDC0
:1024E000F43B58425841FAE7F12B18BFE72B94BF51
:1024F00001200020F3E70020F1E70120EFE7184674
:10250000EDE738B52520FFF7F5FE05462620FFF755
:10251000F1FE04462720FFF7EDFE262D06D1082CFC
:1025200004D1A0F120035842584138BD0020FCE7F7
:1025300008B52820FFF7DEFE08BD002307B50222FC
:102540000DF10601ADF80630FFF7C4FEBDF8060038
:1025500003B000BD006810B440B1054C8264E4696A
:10256000083040F8044C10BC05F094B810BC70471B
:10257000F81F00200168134631B18A6C03F108008E
:102580009A64083105F086B8704700000B7810B4E3
:10259000082B0BD850F8230040B110BC044B8264C8
:1025A000DB69083040F8043C05F074B810BC704793
:1025B000F81F00200829134609D850F8211031B11E
:1025C0008A6C03F108009A64083105F063B870471B
:1025D00000238268037503691B6899689142FBD2E6
:1025E0005A680360426010605860704708B5302335
:1025F00083F311880A7D0023052A06D8DFE802F05C
:102600000C050503130F8A6913604FF0FF3308466A
:102610008B61FFF7DDFF002383F3118808BD8A6912
:102620009368013393604A680B6813605A60ECE763
:1026300003682BB10022026018469961FFF7C8BFFA
:10264000704700002DE9F04190F8343004463BB16A
:10265000836823F0011383600023C36380F8343060
:10266000A94904F1440304F14C0691F8202003F831
:10267000012BB342F9D163689B68DBB994F844300D
:1026800013F060053ED0002160229F4B99735A746D
:1026900099735A7463681B6813B1062120469847E2
:1026A000A36823F00113A3600023E363062384F8E7
:1026B000343025E0204698470028DFD094F84B308E
:1026C00094F84A2042EA0322E36B934284BF134604
:1026D000E26394F94420002A80F24881002B00F044
:1026E0005381092384F83430302383F31188002187
:1026F0002046E36BA26BFFF7E1FB002383F3118815
:10270000BDE8F08194F8452003F07F0343EA0223FB
:1027100040F20232934200F015811FD8B3F5807F5A
:102720004BD00BD8012B42D0022B00F0CA80002BDB
:10273000A9D10222A663E2632364BFE7B3F5817FD8
:1027400000F0EA80B3F5407F9DD194F84630012B2C
:1027500099D1B4F84C3043F0020337E0B3F5006F81
:1027600051D01CD8B3F5A06F36D0A3F5C063012BB0
:1027700089D894F84920616894F848304E6843EA53
:102780000223204694F8462094F84710B0470028CA
:102790003FF479AF4368A3630368E3631AE0B3F5DA
:1027A000106F35D040F6024293427FF46CAF574B26
:1027B000A3630223E3630023BEE794F84630012BB2
:1027C0007FF461AFB4F84C3023F00203A4F84C302E
:1027D000A563E563256471E7B4F84430B3F5A06FF1
:1027E0000DD194F84630484A84F84E30137063682F
:1027F0001B6813B10121204698470323237000234F
:10280000A363E36398E704F14F03A3630123C4E7E1
:102810002378042B45D1302383F31188A36804F176
:102820000C0603F00113A36004F1180856F8047FA6
:102830006FB1786920B16FF001010C30FFF7F8FE3D
:10284000B86920B16FF001010C30FFF7F1FE464589
:102850003560EBD100212C4B4FF0400CDA79082683
:1028600002F00102DA7180275D7201220D4610200C
:102870009A730132D2B2042A9D7483F811C05E7437
:102880005E745D751F7518751875F1D181F3118827
:1028900084F84F100321636821701B680BB1204638
:1028A000984794F84630002BA9D084F84F30042381
:1028B000237063681B68002BA1D002212046984733
:1028C0009DE794F8483003F00F0213F0800F0E4B91
:1028D0009A7311D042B95A7C50070BD4DB79DB07CD
:1028E0007FF5D1AE0A4B63E7597CCD0602D4DB7984
:1028F0001341F4E7074B5BE7002AECD0197D89060A
:10290000F8D45B7AF4E700BF00400140E9770008A3
:10291000E5770008E777000894F84630002B7FF44D
:10292000B2AE94F8483013F00F023FF468AF13F0E2
:10293000800F184B9A7302D040225A745FE78022AE
:102940001A755CE794F84630002B7FF49CAE94F83F
:10295000483013F00F023FF452AF13F0800F0D4BCD
:102960009A7301D01022E8E72022E9E763B115232A
:1029700084F83430302383F3118800212046E36B40
:10298000A26BFFF757FAB8E64821024A93735174D5
:102990008DE600BF0040014070B50446C5692E6B4E
:1029A000C26A6B6A9A4234BFC36A6B6A002B2FD12A
:1029B000E26A002A39D1EB620223237063681B6844
:1029C0000BB120469847302383F31188002104F18E
:1029D0000800FFF72DFE002383F31188F30716D5B7
:1029E000286A228E666AE36A616AD31A3344121A2D
:1029F000934228BF134699424FF6FF7138BF636A6E
:102A0000E3B9636A1BB9EB6A23F00103EB6270BDA3
:102A1000296EE26A013B013AE262A26A002AC5D04D
:102A20001170A26A0132A262C0E7E26AEB699A42BF
:102A30009EBFE36A03F1FF33EB61CFE7626A013BBC
:102A4000013A6262226A0AB92966D9E712F8010BD3
:102A500028662262D4E70000F8B5204C861C04EBFF
:102A600086035D6801466A69D2E90003834218D390
:102A7000012223898A4023EA02032381AB680BB138
:102A800020469847302383F3118804EB860463685B
:102A9000002158690C30FFF7CBFD002383F3118828
:102AA00017E00F4FB97317693B445360C31ADFD067
:102AB000288A984228BF1846936810613B44936067
:102AC000084A184402EB8102984203D10122044BC8
:102AD0005A74F8BD13F8011B1170F5E7FC1E0020B5
:102AE0000040014020400140F8B5294C851C04EB12
:102AF00085035E68274AB36990730146107DC0075D
:102B000039D59868917392F817C0927D224F42EAA6
:102B10000C2207EB810700EB020C84452CD198684E
:102B2000104498605868104458601868801A1860FB
:102B3000188A013880B21882738A934200D800BB89
:102B4000012263898A4023EA0203638104EB85033F
:102B50005B68DB680BB10E489847302383F311881C
:102B600004EB85046368986941680C30FFF760FDE9
:102B7000002383F31188F8BD97F800E000F801EB1B
:102B8000CBE7044A137D03F0FE031375F3E700BFA0
:102B9000FC1E002000400140204001400368984294
:102BA00007D01A6802605060002218469A61FFF749
:102BB0000FBD7047F8B500EB81039C6905460E46D2
:102BC000002C4ED0302383F31188002322696169E1
:102BD00084F8A0308A4201D1E36803BB05EB860389
:102BE000DB685B691B68D3B1D4F8A43043B18A4277
:102BF00001D1E2684ABB51F8042B9F681868B847B6
:102C0000E368E2690133E360636920461344A26923
:102C10006361934224BF636A6361FFF7BFFF626928
:102C20002369934214D1E36893B105EB8603DB6813
:102C30001A68022A12D15A6912687AB11B8A013BBA
:102C400013400BD105F1440204E000221146D4E701
:102C500052F8043B31462846FFF730F9002383F34E
:102C60001188F8BD01F1090310B550F8234034B3C1
:102C7000302383F3118800EB8100C3689B695B6894
:102C8000BBB194F87420236F204603EB8203DB680A
:102C90009B695A6823691A60E2680132E260E2695E
:102CA0001344A2692361934224BF636A2361FFF73F
:102CB00075FF2046FFF7E4F8002383F3118810BD69
:102CC00038B504466FF001052068844200D138BD54
:102CD000036823605C608561FFF77AFCF4E7026AB1
:102CE000C260426A4261026100228262C262FFF7F0
:102CF000E7BF00004FF4006208B50021044804F06B
:102D0000C1FC40F60803024AC2F8003808BD00BF03
:102D1000A816002010B50C46826801692046FEF70F
:102D20003DFD094AE1781378207923EA0103137005
:102D3000FDF73AFDFFF76EF92046BDE81040082286
:102D4000002104F09FBC00BF3E21002038B54B7924
:102D500005469A070C4613D4104A43F002034B7100
:102D6000CB7811780B4313700D4A237911780B43FC
:102D70001370FFF74FF920466A682969FEF70EFDC8
:102D80000022084B1A806379DB0705D421462846C8
:102D9000BDE83840FFF7BEBF38BD00BF3E21002070
:102DA000362100208C210020084B9B78012B09D173
:102DB000074B93F90030002B04DA1E22002105484E
:102DC00004F060BC062200210348F9E7A8100020A7
:102DD0003C2100200E1400200614002010B5002411
:102DE000074B1C70FFF7E0FF2046FEF7E5FC20468E
:102DF000FEF7FEFC034B1C70BDE81040FFF70AB95C
:102E0000362100203E21002008B58378022B06D908
:102E1000FFF7E4FF024B034A1A60FEF76DFD08BDA1
:102E2000FC6F0020EFBEADDE2DE9F843052900F26E
:102E3000D680DFE811F0A700D4000600A700A700A5
:102E4000D600302383F3118800273E466D4D6E4C2B
:102E5000D5F8883095F88C9003EB890805F1380394
:102E6000C8F80C30E86C18B11422002104F00AFCF8
:102E7000286D18B11422002104F004FCD8F80C20AD
:102E800009F00F01A173136803F00303002972D046
:102E9000022B4AD0032B48D0012B22D153690BB906
:102EA0009369F3B1E020584B4FF0010C9874108AED
:102EB0000CFA01F1C00818744020587408205874A6
:102EC0005874D8790843D871C0205875528AD208EE
:102ED000DA7480221A7510221A751A755A7A1143FB
:102EE000597228460137FFF7FAFE032F2E7205F1BB
:102EF000A805ADD1454C636A204663612361E66055
:102F0000A662E662FFF7DCFE20462672FEF7B8FFF7
:102F100086F311883E4B1B7813B10520FEF78AFD1E
:102F20000220BDE8F843FEF785BD536973B1002365
:102F3000A374138A0120DB082374402363740823DD
:102F400063746374E37988400343E3719369002BEE
:102F5000C7D000202C4B5875528A0120D208DA7451
:102F600080221A7510221A751A755A7A00FA01F120
:102F70000A435A72B5E7002BB3D1E37943F001035A
:102F8000E371AEE70846FEF755FD302383F3118861
:102F9000002501261B4C20462672FFF791FE204695
:102FA000FFF79DFED4F8A43013B1DA681868904793
:102FB0000135032D04F1A804EDD101230025134CA4
:102FC00020462372FFF77CFE636A2046E56063615A
:102FD0002361A562E562FFF773FE85F31188BDE802
:102FE000F883302383F311880023064A137282F892
:102FF000B03082F85831054A137283F311880520E6
:103000008FE700BF280E0020004001402010002064
:10301000F81E002010B50446006840B1826C002103
:10302000083004F02FFB002223681A605A6010BD9C
:1030300070B50026051F00F1200455F8040F38B1C3
:10304000826C0021083004F01DFB2B681E605E605E
:10305000A542F2D170BD00000022082311460148AC
:1030600004F0B4BA0C080040F7B51F464BBA090C7F
:10307000064615468DF80400ADF806308DF80510AB
:10308000FFF7EAFFE8B104210DEB010004F0D0FAEC
:10309000044648B945B1022E0BD0032E0ED1284666
:1030A000B9B204F0CFFA044604F0D6FA204603B0D1
:1030B000F0BD2846B9B204F0BBFAF4E74FF0FF3494
:1030C000F2E74FF0FF34F1E7054BD968087518684F
:1030D000026853601A6001220275D860FDF770B86B
:1030E000F81F002070B5184C4B1CE56886B028D03E
:1030F000164B049503930023059323699A68914224
:103100001CD85E68029101960093C6F800D04FF07B
:10311000FF369A68C3F804D0521A9A60A661FFF786
:10312000D3FF009B3BB19A6802990A449A60019AC6
:1031300013605A60A661A86906B070BD1B68891A41
:10314000DCE7FFF7C1FFF6E7F81F0020ED250008D8
:10315000034BDB68036098610320FFF7B5BF00BF36
:10316000F81F00207047C9434FF05533016302F048
:1031700003015943016042F380014160C2F3C10180
:1031800059438160C2F341115943C160C2F3C12167
:103190004B43C3624FF01133C2F3C3125A4302626E
:1031A0004262704708B5302383F31188012100F093
:1031B0000F039940202220F00F00FFF7D4FF0023D7
:1031C00083F3118808BD0000464A13B5464B52F8F8
:1031D000041C99420CD1002342F8043C83F3148868
:1031E000424B1A6882F3088862B65B689847FEE72C
:1031F0000C20032440F2BE713D4B3E4A9C62D862D3
:10320000C2F8941000219962D9629C62D862802031
:10321000C3F81C0CD3F81C0CC3F81C0C00910191D2
:103220004FF40141C3F8481C4FF6FC71A3F57443F9
:1032300019630F2119600223136501234BF68031B6
:10324000D364936D03F001030193009B013300935A
:10325000019B13B9009B8B42F3D1019B03B9FEE79D
:10326000254B26498024C3F800140021A3F5884388
:1032700099611C62196A0120196220215860196045
:103280001968196019680143196054679067D16F14
:103290000329FCD102229A6001220021DA60144A3B
:1032A0009162D1629A6C42F400429A649A6CDA6C30
:1032B00042F40062DA64DA6C9A6C42F020029A649A
:1032C0009A6C9A6C42F040029A649A6C9A6C42F042
:1032D00080029A649A6C9A6C42F480729A649B6C35
:1032E00002B010BD00700020EFBEADDE00E0FF1F99
:1032F00000000140000401400050014013000003A1
:103300007047FEE7F0B508200026104A51681368A0
:103310000D469468043BAC4210D8E31C5B1ACD1EEA
:1033200023F00303AC4238BF00230B44D168994219
:1033300009D8013802F11002E8D1F0BD53F8047F3A
:1033400045F8047BE7E743F8046BF0E7EC77000807
:103350000C4B10B41868D968026853601A600122D7
:10336000D860002302758A680B750B691B689C681E
:103370009442FBD810BC5A680B604A6011605960D7
:10338000FCF71EBFF81F0020044B1A68DB68926828
:103390009B689A4201D9FFF7DBBF7047F81F0020F6
:1033A00070B5EFF3118525B9EFF30583302282F371
:1033B0001188174B174E1849DC6933680A68E41AFC
:1033C000A242164A0AD9A3F58333E03B1068336062
:1033D000134B04F58334C318E034136016680C6093
:1033E00035B9EFF30583C3F308036BB185F3118897
:1033F0004FF47A7500210B480023E4FB05010A4ACB
:10340000FCF7F4FE304470BDFFF7BEFFEEE700BFEF
:10341000F81F0020B81E0020B41E0020B01E00209F
:1034200088598F029F860100A08601002DE9F8438C
:1034300088461746994600250E4E2A01B35C06EBD6
:1034400005149BB901236070B354FFF7A9FF9DF8E1
:1034500020307F00A3739DF824306060C4F808809A
:10346000277384F80D90E373BDE8F8830135142DBC
:10347000E3D1F9E79021002013B5FF24032223466E
:10348000C821022001940094FFF7D0FF03222346B5
:103490001046C82101940094FFF7C8FF2346032279
:1034A000C8213F2001940094FFF7C0FF2346032268
:1034B000C821042001940094FFF7B8FF02B010BDAA
:1034C000FF2313B504460322C82150200193009323
:1034D000FFF7ACFF84B1002403222346C8214F200C
:1034E00001940094FFF7A2FF23460322C82120463F
:1034F00001940094FFF79AFF02B010BD2DE9F84344
:103500000025074688462E461D4C2378002B30D0D8
:10351000D4F80490FFF744FFA368A0EB09008342AE
:103520001AD8FFF73DFF237B606083B92670666081
:103530006078B8421DD340451BD2E37BA27B617B00
:1035400083F0FF0382F0FF0281F0FF010FE0013BF7
:10355000DBB22373002BE9D0237BDB07E8D560784F
:10356000874206D8804504D9E37BA27B617BFDF7C7
:1035700069FC0135142D04F11004C6D1BDE8F883AF
:10358000902100202DE9F04F002401264FF0300853
:1035900089B0DFF89092A44F05940694079459F8E7
:1035A000041B4B1C40F0CD800134E4B276000F2C9C
:1035B000B6B2F4D10C229D4805A904F079F805466D
:1035C00020B10C22994805A904F064F80027DFF81F
:1035D0006082984E98F800403770002C00F01D81F2
:1035E000FFF7DEFE944A13681060C01A59D07F2896
:1035F00028BF7F203A46BB46BA4601909DF804306A
:1036000096F800C003938D4B88F800708C4EDFF85D
:103610001CE2DFF830821F700297002102EB0109E3
:1036200018F809305F0821D00198874200F3DE8046
:1036300023F0FE0308F8093013F0010340F0DE80A8
:1036400001233788BEF800908B4003EA090927EA76
:10365000030349EA03035F40BFB257EA0C0714BFF4
:103660004FF0010C4FF0000CA346338001310F29BD
:10367000D4D10F325A2A06F102060EF1020ECCD135
:10368000029B13B101226D4B1A70BBF1000F02D0E7
:10369000684B83F800C0BAF1000F02D00122644BDE
:1036A0001A7045B9654B1B78002B47D01CB9FFF742
:1036B00077FE614B18600022604B92461A704FF003
:1036C00001091346DFF864E15D4D5E4E00203EF8CF
:1036D000028B35F8027B88EA070702EB000C16F82C
:1036E0000C1009FA00F427424FEA510B00F08880D1
:1036F000BBF1000F12D118EA040F14BF01235B467F
:1037000043F00A0306F80C3013F0010300F0838045
:103710009A4635F8021C4C4025F8024C01300F281F
:10372000DBD10F325A2AD1D1BAF1000F02D00121D8
:10373000404A117013B101223D4B1A7009B0BDE827
:10374000F08F88F31188012221F00F0001F00F01A2
:1037500002FA01F529462D04FFF705FD85610023D6
:1037600083F3118800BF00BF00BF00BF00BF00BFD0
:1037700000BF00BF00BF00BF00BF00BF00BF00BF51
:1037800000BF00BF00BF00BF00BF00BF00BF00BF41
:1037900000BF00BF6FEA060C2B4D05A855F8041BAF
:1037A00030F8022BB1F1FF3F1DD021F00F0EDEF8F3
:1037B00010E001F00F012EFA01F1C90713D43243D2
:1037C0000133DBB2062B20F8022CE7D159F8040CA8
:1037D000431C01D0FFF7E6FC7A687B689B1AB3F5BF
:1037E000346FFAD3E0E602EA0C02E9E70398A24656
:1037F0003F1A67F3470308F8093037E7029335E7C4
:10380000BBF1000F8AD011F0010487D164F34701A6
:1038100006F80C1082E7012380E7002D3FF442AF49
:1038200045E700BF847F0008001000E0C6200020AC
:10383000B8200020B9200020B4200020B2200020B1
:10384000BA20002058200020C07F000838B5FFF7BC
:10385000A7FD00F57A75FFF7A3FD854214D9FFF7A0
:10386000FBFBA0B1052003F0C1FE03F0D1FE04462E
:1038700003F0F2FE002C04DB14F00104EBD120462F
:1038800038BD231DE7D0FAE76FF00104F7E74FF0EA
:10389000FF34F4E710B5FFF7D9FF044608B1002064
:1038A00010BDFFF7D9FB28B94FF0FF30B0FA80F018
:1038B0004009F5E7062003F099FE03F0CDFE23460C
:1038C00022462146D820FFF7CFFB0028E7D1FFF79B
:1038D000BDFFEBE710B5FDF72FF90446FFF7DAFF60
:1038E000FFF708FA012C03D1BDE81040FDF730B90D
:1038F00010BD2DE9F04180460C46D600FFF7A6FF2B
:10390000054648B132460021204603F0BBFEB5FA19
:1039100085F04009BDE8F081334622464146032048
:10392000FFF7A2FB05460028ECD121462644D1E949
:103930000023D243DB4341F8082BB14241F8043C59
:10394000F5D1E4E72DE9F04F064614464FF00009A3
:10395000C3B00091202C254628BF2025009B4FEAAC
:10396000C50A524603EBC90102A803F093FE0022E8
:1039700002ABD3E90001C043C943013243F8080B4D
:10398000954243F8041CF4D15746B0460DF1080B9C
:10399000FFF75CFF78BBFFF75FFB60B35FFA88F36C
:1039A000C3F580730620BB4294BF0193019703F0D7
:1039B0001DFE03F051FE5A4641460220019BFFF7CF
:1039C00053FBC0B9019BFF1A9B449844E0D1FFF719
:1039D0003DFF80B9FFF740FB074660B1042003F0CC
:1039E00005FE03F039FE641B5644A944B2D13846A3
:1039F00043B0BDE8F08F0027F9E700002DE9F34759
:103A0000FFF748FF002859D0FDF796F82C490546E6
:103A10004FF480720020FFF795FF294C002843D116
:103A20000146012D01D1FDF793F840F60803C4F8D3
:103A30000038084602B0BDE8F08717F8013B4FEAAE
:103A40004E195A40A2FB003800FB0E884FEA421A7A
:103A500049EAD26913EB0A0348EB09084FEAC21A94
:103A60009B184FEACE194FEA02264EEB080849EAA6
:103A7000526913EB0A034FEA0E2E48EB09084EEA8F
:103A8000126E9B1948EB0E0EB64413EB0C02013973
:103A9000D3D16946CDE9002E4FF400600122FFF733
:103AA00051FF4000C1B2BCE740F6010127464FF08C
:103AB000000C1220034ADFF810E0E8E70146B8E7FF
:103AC000A816002025232284E49CF2CB044BD3F8D3
:103AD0000038B3F5805F01D3FFF790BF0120704736
:103AE000A81600202DE9F04F8318B3F5006F0446A7
:103AF0000E46154685B050D8DFF8A4A000EB0A07A3
:103B00003946304603F0D4FD002846D02A463146D7
:103B1000384603F0BFFDFDF70FF84FF0000883466D
:103B20004FF000094DB9FFF7D1FFBBF1010F34D1C0
:103B300005B0BDE8F04FFDF70BB8052D2F4628BFA7
:103B40000527C4F3024343EAC703CDE900893A4697
:103B500031468DF800300DF10300230A8DF8013055
:103B60008DF8024003F096FDDDE90023DAF8000845
:103B7000CDE9022302A90122FFF7E4FE0028D4D0F8
:103B8000DAF800380833CAF80038FFF79FFF012839
:103B9000CBD1ED1B3C443E44C4E705B0BDE8F08FFB
:103BA000A816002037B5042200240DEB02010546BB
:103BB0000194FEF78FFB019B33B1042228460DEBE5
:103BC00002010194FFF78EFF03B030BDF8B50D463A
:103BD00006461446D31D23F0070300AFADEB030DDB
:103BE00069462846FEF776FB22466946304603F0D2
:103BF0005FFD20B1224631462846FFF773FFBD46E0
:103C0000F8BD0000082208B517210348FFF7DEFFC2
:103C10000022024B1A7008BD28210020BC1E002083
:103C200010B5084C05232046032200F8013B064945
:103C300003F030FD4FF67F73A380BDE81040FFF71F
:103C4000E1BF00BF28210020D0760008F0B585B084
:103C500010220021684603F015FD442440F23F4540
:103C600040F2C137102D2E4628BF10263946324665
:103C70006846FFF7ABFF013C3744A5EB0605F1D1E1
:103C800005B0F0BD37B50C460546FEF733FBA04244
:103C900007D0012228460DF107018DF80740FFF7F4
:103CA00021FF03B030BD042838B51D4616D80529BC
:103CB00014D80E2A12D81E23520003FB0122B4236B
:103CC00003FB0024290A04F12900FFF7DBFFE9B216
:103CD00004F12A00BDE83840FFF7D4BF38BD0428FE
:103CE00070B516461D4614D899B9800000F2AD345F
:103CF00082F0010004EB4000190AFFF7C3FF002E19
:103D00000CBF03200120E9B22044BDE87040FFF75A
:103D1000B9BF70BD2DE9F74F0024194EDFF864A03C
:103D2000D14600255FFA84F80FE0FAB240463BF82E
:103D3000023B01370191FFF7B6FF0F2F0199F4D134
:103D40000135062D09F11E0903D0CB460027E9B243
:103D5000EBE73388012200214046FFF7C0FF002235
:103D60007388114640460134FFF7B9FF052C06F170
:103D700004060AF1B40AD3D103B0BDE8F08F00BF46
:103D8000C47C00084079000808B5FF212520FFF712
:103D900079FFFF212620FFF775FFFF212720FFF77E
:103DA00071FF00212820FFF76DFFFFF7B3FFFFF73A
:103DB0004DFF26212520FFF765FF08212620FFF76C
:103DC00061FFBDE8084020212720FFF75BBF37B522
:103DD0000C460546FEF7B1FBA04207D0022228465A
:103DE0000DF10601ADF80640FFF77CFE03B030BDD3
:103DF000094A08B55378C3F3800181420BD060F3C0
:103E00008203537004201188FFF7E1FFBDE80840EA
:103E10000220FCF779BC08BD3C21002008B5FFF763
:103E200059FD4FF6E3610020FFF7D1FF002102208A
:103E3000FFF728FF01210C4B03201970FFF722FF29
:103E40004FF4A0510420FFF7C2FFFFF7E9FEFFF790
:103E50009BFF0F20FFF7A6FE1320FFF7A3FEBDE890
:103E60000840FFF7CFBE00BF3921002008B5837896
:103E7000022B05D9FFF7D2FFFEF7B0FFFDF73CFD9F
:103E800008BD00002DE9F043974C8BB0D4F80080BA
:103E9000FFF786FA8146A0EB0806FFF781FA0021BA
:103EA0002060924C074694F800C00846654608F525
:103EB0007F43FF33A3EB090ECBB29C450FD800B173
:103EC00025708B4DDFF82C822C7898F80060032C3D
:103ED00031D8DFE814F0190033006D01730101F1EE
:103EE0000C0204EB4202537892F80280013143EA5B
:103EF00008239E4523BF9B1953701B0A012034BF22
:103F000005F1FF359370D7E700227B4B77491A7094
:103F10007A4B29227A481F6003F0BCFB794B1B784F
:103F20002BB9794B1B7813F0030418BF9C080123AD
:103F300088F800402B700BB0BDE8F0833046FDF7E9
:103F4000A7F8002EF7D06C4BDFF8C0811878013845
:103F5000C0B2FCF7AFFF98F80060ADF80400C4B23F
:103F6000C0F307253046FCF7E8FA694B1B785BB1D4
:103F700010BB29462046FFF7C1FA294620460BB060
:103F8000BDE8F043FCF760BFB0B95F4B5B79082B2D
:103F900003D12646F3B29D4206D8294620460BB0EF
:103FA000BDE8F043FFF7AABA002330461A46194687
:103FB000FCF748FF0136EDE7B6BB98F80030002B60
:103FC00049D198F80030002B00F0AD805A0740F13D
:103FD000AA80452C00F2E580452D40F29F80002309
:103FE000FF211A464520FCF72DFF2C2C00F2F9800A
:103FF0000023A522FF212C20FCF724FF302D40F2C6
:104000009280FF22002311463020FCF71BFF4A2D2F
:1040100000F2BE80412D40F286800023FF211A4627
:104020004120FCF70FFF7EE0B30703D4770701D4EC
:10403000F006C2D526460BE0B44207D8B54205D9F2
:10404000002330461A461946FCF7FCFE0136F6B24C
:10405000B542F1D2B1E79907B3D50D222D4902A897
:1040600003F018FB002602AF17F8010B844206D8B4
:10407000854204D9802300211A46FCF7E3FE01366D
:10408000F6B20D2EF0D10F22234906A803F002FB51
:10409000002606AF17F8010B844206D8854204D9E2
:1040A0000022FF231146FCF7CDFE0136F6B20F2E9B
:1040B000F0D1402C85D8402D0FD90023FF211A467E
:1040C0004020FCF7BFFE372C3FF67BAF0023FF21DB
:1040D0001A463720FCF7B6FE73E7372C3FF671AF70
:1040E000372D7FF66EAFF1E7E0150020501F00205E
:1040F000040E0020E4150020070E0020E815002023
:10410000BD1E0020F91E0020282100203A21002099
:104110008A210020D3760008E17600082C2C5CD898
:104120002C2D3FF665AF98F80030002B3FF421AFFF
:10413000DB067FF51EAF1C2C07D81C2D05D90023EC
:10414000FF211A461C20FCF77DFE1022274906A8F5
:1041500003F0A0FA002606AF17F8010B844206D838
:10416000854204D90023FF221946FCF76BFE013675
:10417000F6B2102EF0D1142C3FF6FBAE142D7FF6C4
:10418000F8AEFF2300227A211420FCF75BFEF0E654
:10419000FF2300227A214A20FCF754FE412CC2D88A
:1041A0003BE74A2CBFD84A2DF2D8412CBBD831E787
:1041B00030460BB0BDE8F043FCF764BE0C4B1B78F7
:1041C0000BB1FFF71FFD0B4B1C68FFF7E9F8001B55
:1041D0000F287FF6B0AE0023ACE6302C7FF60EAF92
:1041E000E3E7302C7FF60DAFDDE700BFF176000886
:1041F000BC1E0020E81500202DE9F74F30230746AC
:104200009146009183F31188A824504D04FB00547B
:10421000D4F888301B78042B4FF0000304D083F3CC
:10422000118803B0BDE8F08F94F8A02042F2107816
:10423000002A18BF4FF0000883F31188302383F35E
:1042400011884FF0000A009EDFF804B1A26A3AB963
:10425000E26852B32269111DA162E1690A44E26277
:10426000A06AE26AA9EB0A01121A8A4228BF0A462A
:10427000402A44D93146402203F00CFAA16A403664
:1042800040310AF1400AE26AA1628A4204D8E16937
:1042900020460439FDF7BAFD002282F31188D1458A
:1042A0001CD9302282F31188D0E7227A82B9B8F182
:1042B000000F0DD0DBF80C20616814605160042001
:1042C0000A6042F210716260FEF70CFF0028BFDA4C
:1042D0004FF0000B8BF31188D1451AD8302383F3AC
:1042E0001188A82303FB0755A96A31B12B6904394A
:1042F000C91A02D02046FDF789FD00238FE7314619
:10430000019203F0C7F9019AA16A1644114492443C
:10431000B9E7302282F31188A82606FB075696F8E3
:10432000A0202046BAF1000F08BF42F0010286F833
:10433000A020FEF7C5FC2046FEF7D1FC86F808B0A9
:10434000FFF722F88BF3118878E700BF280E0020D2
:10435000F81F0020014608220120FFF74DBF01464B
:1043600020220020FFF748BF014603220020FFF76C
:1043700043BF20290A4603D101460220FFF73CBF74
:1043800070470000302383F31188034BDB6898618A
:104390000F20FEF799BE00BFF81F002008B50146A8
:1043A000302383F311880820FEF79CFE002383F35B
:1043B000118808BD38B5392814BF0A255025044690
:1043C000FDF7ACFE40F2E7300021DFF820C000230B
:1043D000E5FB0C014FF47A72FBF708FFFFF7DEFFF5
:1043E0002046BDE83840FDF71DBF00BFA086010094
:1043F0002DE9F0411F460C461646244B68B1197052
:10440000FEF7CEFF224B04F0070418800120A040E5
:10441000C0B2BDE8F041FDF733BF1D788D422DD10C
:104420001B4BB3F80080FEF7BBFFA0EB080080B287
:10443000C72823D806F12004B542E4B210D005F015
:104440000700012505FA00F0C0B2FDF723FF072C95
:1044500006D806F0070305FA03F0C0B2FDF710FF17
:104460003846FFF7A7FF072C0DD8012006F00706F6
:10447000B040C0B2BDE8F041FDF70CBF012004F030
:104480000704A040F5E7BDE8F08100BF342100201B
:10449000E81400202DE9F04F0379054689B0002B80
:1044A00001F07F800121FDF7D5FF6B790646A3B1AE
:1044B000A14B1C888CB1A04210D0E0B202289CBF56
:1044C00014229E4B4FF000018CBF002402FB0034ED
:1044D000FDF732F9014600283BD1344629462046F3
:1044E000974AFDF7DFFD002800F08D802946204621
:1044F000944AFDF7D7FD002800F08580A4F5F04729
:10450000A7F12B03212B00F2E881DFE813F09E00D6
:10451000E601E601E601E601E601E601E601E60163
:10452000E601E601E601E601E601E601E601E60153
:10453000E601E601E601E601E601E601330090004E
:104540009700ED0025014E0173019801BF01A600FF
:10455000C7004379068043F0040343712046FEF709
:10456000F5FB0022784B012128461A70FDF772FFF7
:104570000446B3E76B79002B45D0744C6379FF2B6D
:104580001ED10823637100240020FCF753FCC821CE
:1045900080230322502001940094FEF747FF8023DC
:1045A0000322C8214F2001940094FEF73FFF80238F
:1045B0000322C821204601940094FEF737FF22E031
:1045C000A278E37861788DF812308DF810108DF8AC
:1045D00011200498FCF7CAFAC0F30721C0F3074280
:1045E0008DF814008DF815108DF81620C0B2D2B2D7
:1045F000C9B2FCF745FCFF2300206371FCF71AFCED
:104600000120FEF75DFF524B1B785E0700F0C98763
:104610006B79002B00F0C5874E4B5B785D0740F14E
:10462000C087022009B0BDE8F04FFCF76DB86B7988
:10463000002BE8D00020FCF713FFE4E76B79002B98
:10464000E1D00020FCF71CFFDDE76B79002BDAD00E
:1046500000210120FCF7E4FED2E76B79002BD2D0D9
:104660003A4B1B79EE2B15D90024FEF705FF80236A
:104670000422C8213D2001940094FEF7D7FE3C207F
:1046800023460222C82101940094FEF7CFFE204663
:10469000FEF716FF0020FCF76BFFB4E76B79002BE9
:1046A000B1D02A4E3379102B1AD80024FEF7E4FE3D
:1046B00023460222C8213D2001940094FEF7B6FE55
:1046C00080230422C8213C2001940094FEF7AEFE12
:1046D0002046FEF7F5FE102320463371FCF7AAFBB7
:1046E0000020FCF751FF8EE76B79002B8BD0174B26
:1046F0005B78F62B17D9002480230422C8212820B8
:1047000001940094FEF792FE292023460222C8213C
:1047100001940094FEF78AFE2046FEF7D1FE0020A9
:10472000FCF7CEFE6FE7FF2301229621282001939C
:104730000093FEF77BFEF2E78C210020B8100020EA
:10474000B2100020AD1000203E21002028210020C2
:104750003B2100203C2100206B79002B3FF453AF1C
:10476000B54B5B78082B17D8002402222346C821BA
:10477000282001940094FEF759FE2920802304226A
:10478000C82101940094FEF751FE2046FEF798FEE2
:104790000020FCF79FFE36E7FF2301229621282008
:1047A00001930093FEF742FEF2E76B79DBB1A24B77
:1047B0009B78EE2B13D9002480230422C8213B20B0
:1047C00001940094FEF732FE3A2023460222C821CB
:1047D00001940094FEF72AFE2046FEF771FE0020A9
:1047E000FCF786FE0FE7FF23012296213B20019371
:1047F0000093E2E66B79DBB18F4B9B78102B13D8DB
:10480000002402222346C8213B2001940094FEF795
:104810000DFE3A2080230422C82101940094FEF763
:1048200005FE2046FEF74CFE0020FCF771FEEAE68E
:10483000FF23012296213A2001930093BDE66B7974
:10484000EBB17D4BDB78EE2B15D9002480230422BD
:10485000C821422001940094FEF7E8FD234602227D
:10486000C821432001940094FEF7E0FD2046FEF7A6
:1048700027FEFEF701FE0020FCF75AFEC3E6FF23E9
:104880000122962142200193009396E66B79EBB1C9
:10489000694BDB78102B15D8002402222346C8214F
:1048A000422001940094FEF7C1FD80230422C82118
:1048B000432001940094FEF7B9FD2046FEF700FE68
:1048C000FEF7DAFD0020FCF743FE9CE6FF23012201
:1048D00096214320019300936FE647F213039C4215
:1048E00000F08480A4F5FC43A3F1400292B2032AB5
:1048F00000F2D880413B6A79022B00F2BD80DFE8EC
:1049000003F0C2C80200002A3FF47DAE4B4E4C4B70
:1049100031784C4C4C4A4D4F51B3002112781970EC
:104920002378387862F3041331702370FCF778FD34
:104930000024FF262346022296212F200196009470
:10494000FEF774FD2346022296213420CDE900466D
:10495000FEF76CFD2346022296213320CDE9004666
:10496000FEF764FD234602229621CDE9004631E0A0
:1049700001201870304B30701B78C3F385033B70F7
:104980002378C3F3001743F0100317702370FCF76C
:1049900047FD23781A061FD50024FF230322C821D0
:1049A0002F2001940094FEF741FDFF230322C8212C
:1049B000342001940094FEF739FDFF230322C8211F
:1049C000332001940094FEF731FDFF230322C82118
:1049D000019400943520F0E5FEF700FA237843F0C7
:1049E000800323703378002BD6D1A1E76B79002B9D
:1049F0003FF409AEFEF7F2F9124A137883F080040F
:104A0000E40964F3C713137024B30C22104905A8FA
:104A100002F040FE0024FF2705AE01970097013405
:104A2000FF230322C82116F8010BE4B2FEF7FEFCB7
:104A30000C2CF2D1E7E500BF282100208A210020BC
:104A40008B2100203C21002030210020AC100020D0
:104A5000027700082746884B05AE0593019700971B
:104A60000134FF230322962116F8010BE4B2FEF76E
:104A7000DDFC042CF2D1C6E5002A3FF4C4AD0122CE
:104A80007E4B1A70BFE5002A3FF4BDAD00227B4B80
:104A9000F7E7002A3FF4B7AD784A137883F00103B3
:104AA0001370B0E56E79002E00F0F880A4F5EE43A7
:104AB0009BB27F2B00F2F280E4B20F2C3FF6A3AD45
:104AC000012140F23E4005AAFDF73EFC9DF814602E
:104AD000002E7FF498AD40F23F47BCB90596684F71
:104AE000684EDFF8A48105A8FDF746FC00283FF4D6
:104AF0008AAD01285DD105A8FDF73EFC431E0446A2
:104B0000032B19D8DFE803F0131F252BBE423FF417
:104B10007AAD0121304605AAFDF716FC9DF8143048
:104B20000BB10136F2E7013CE4B20136D5E705A846
:104B3000FDF722FCFFF73EFC4FF47A70FFF72EFCE6
:104B4000002CD0D15FE505A8FDF716FCFDF7E6FACD
:104B5000F2E705A8FDF710FCFDF764FBECE705A8FC
:104B6000FDF70AFC4FF0000904464FF00A0BDFF88E
:104B70001CA11AF8041011F0040110D1B9F1000FB2
:104B800015D040F2E730DFF808C14FF47A72002305
:104B9000C9FB0C01FBF72AFBFFF700FCCCE705A8DB
:104BA000FDF7EAFB303C0BFB09490446E1E7012035
:104BB000F2E7C0F3C7023749BB5C345C18F80290D7
:104BC00000F0070011F802A0034149FA00F94AFA7F
:104BD00000FA13F0010B09F001090AF0010A0AD0EA
:104BE0002D4A137843F002031370FDF713FA4FF4C4
:104BF0007A70FFF7D3FBB9F1000F0AD0264A137879
:104C000043F040031370FDF705FA4FF47A70FFF795
:104C1000C5FB2046FDF782FA4FF47A70FFF7BEFB22
:104C20002046FDF7FFFA4FF47A70FFF7B7FBB9F1B2
:104C3000000F08D04020FBF7B7FDFDF7EBF94FF46C
:104C40007A70FFF7ABFBBBF1000F08D00220FBF737
:104C5000ABFDFDF7DFF94FF47A70FFF79FFBBAF178
:104C6000000F3FF440AF2C20FFF7A4FB4FF47A7005
:104C7000FFF794FB37E700BF464438398B2100200B
:104C80001E8000082E8000080E800008B3800008F7
:104C9000A08601000E80000836210020A4F5AE4356
:104CA000FF2B00F28C80E0B2022882463FF6ABACCC
:104CB0003146FCF741FD804600283FF4A4AC43791F
:104CC000DFF8B09266F300034371002E60D0FEF768
:104CD00067FBA94BA94A188098F802301278013373
:104CE00088F80230A64B40461B78134388F80330FF
:104CF000A44B1B7888F80430142303FB0AF309EB58
:104D0000030159F803200969FCF748FD98F80530BC
:104D100013F0020F0CBF224600229B4B1A806A79C7
:104D2000002A00F030840021984BA4F5E046197069
:104D3000B3B2222B00F20F840420FDF7FEFB944C4B
:104D4000013E2080212E63D8DFE816F0A1000C017F
:104D5000A90073007700AD007B00B100BD008700A3
:104D600004018B00C1008F00C500EB009300C90057
:104D7000F3009900CF00D7007F00B5008300B90091
:104D80009D00D300E200FD0002016E00A500240199
:104D9000142303FB0A99D9F80C20D9F81010FCF75A
:104DA000FDFC98F805309B07B9D541464846FDF70C
:104DB000B1FF754B1A88A242B1D11E80AFE7A4F5AE
:104DC000F843183B062BAAD8DFE803F00F13040BB7
:104DD000171B1F00E122262311463046FFF708FB70
:104DE00011E42723E522E521F7E72623E122E0214C
:104DF000F3E72723E522E421EFE72623E122E2215E
:104E0000EBE72723E522E621E7E728230122EAE76B
:104E1000237843F00103237004202188FEF7D7FF95
:104E2000FDF7DCFFFFF7EFBB637843F00803637027
:104E3000F2E7237843F00203EDE7237843F004031D
:104E4000E9E7237843F00803E5E7637843F00103DB
:104E5000EDE7637843F00203E9E7237843F01003BA
:104E6000D9E7237843F02003D5E7237843F04003C4
:104E7000D1E7FDF7B3FF237843F08003CBE7237836
:104E800043F00C03C7E7637843F00303CFE72378CD
:104E900023F00103BFE7637823F00803C7E7237813
:104EA00023F00203B7E7237823F00403B3E7237862
:104EB00023F00803AFE7637823F00103B7E76378D3
:104EC00023F00203B3E7237823F01003A3E723784A
:104ED00023F020039FE7237823F040039BE7FDF7AF
:104EE0007DFF237823F0800395E7237823F00C03DC
:104EF00091E7637823F0030399E72378C3F38002F3
:104F000082F00102D2B262F3820362F3C30382E74A
:104F10006378DA4302F0010262F3000362F34103B3
:104F200085E72378C3F3801282F0010262F38613CF
:104F300071E7FDF753FF2378C3F3C01282F001023B
:104F400062F3C71367E701210E20FEF79BFE63E7BC
:104F50000021F9E72378C3F3001282F0010262F323
:104F6000041358E72378C3F3000282F0010262F3CE
:104F7000000350E7B8100020322100203621002025
:104F80003E210020372100208C21002034210020E8
:104F90003C2100206378C3F3C00282F0010262F377
:104FA000C30344E71B78203F03F022030A2F5CD899
:104FB000DFE807F0171C38203D244227472A4B0022
:104FC000A04B403F1B7803F022030E2F4DD8DFE8A3
:104FD00007F01F26080D29112E153318381B3C41E8
:104FE00046000120FCF7ECF9FFF70DBBE3B101200F
:104FF000FFF728BBEBB10120FFF7CBBBF3B10120DA
:1050000013E403B301205EE40BB30120FFF769BB97
:10501000FCF7E4F90120FBF70DFFFFF7F4BAFCF70A
:10502000EFF9F7E7002BE2D00120FFF704BB002BDC
:10503000E1D00120FFF774BB002BE0D00120FFF787
:10504000CFBB002BDED0012016E4002BDDD00120E9
:10505000FFF721BB2BB1FCF7B1FAFFF7D4BA002B55
:10506000F9D0FCF79BFAFFF7CEBA47F677439C429C
:1050700016D047F678439C421CD0A4F5A543603B6C
:105080009BB21F2B21D88ABB04F01F0301249C4034
:105090000320E1B2FEF7F6FD6B4B1C70FFF7B3BACD
:1050A00001207AB1FBF762FA03220221FBF7E6FA4C
:1050B000FFF7A9BA02202AB1FBF758FA032202210E
:1050C0000120F3E7FBF75CFAF8E7AAB347F65B4386
:1050D0009C4225D047F65C439C4215D047F65A4384
:1050E0009C421BD047F601439C4222D047F6034323
:1050F0009C4217D0B4F5F84F1ED1FDF76FFE534B0D
:10510000534A1A60FCF7F8FB524B587880F00400C1
:10511000C0F38000FEF76CFEFFF775BA0120F9E7D7
:105120000020F7E7FEF7D6FB4FF6FF710020FEF7F1
:105130004EFEFDF753FEE5E72B88ADF810300498DE
:10514000002A55D0FDF75EF9044601460498FBF7A6
:1051500059FABDF810302046ADF814300599FDF726
:1051600031F9FBF711FCDFF8F09095F8068099F81B
:105170000070044617F007076E79C8F3031825D0AE
:1051800037461EB3C4F3072303F0F002402A0ED0C3
:10519000C1B201F12002D2B2072A2DD903F0E003F7
:1051A000202B04D1012927D9B8F1000F26D0294B93
:1051B0005F7817F0040709D00220FBF7A5FA99F8E9
:1051C000003013F0070F0CBF01270027C4F303338F
:1051D0000B2B7DD8DFE813F0140014005C005C009A
:1051E000D2007C007C007C00E9003B014D014D01B8
:1051F000FBF726FA0446ACE70027E7E74746E5E772
:10520000C4F30328C4F307224FEA08130F2A88BF08
:105210009846E4B226B3B8F1000F0CD004F1200395
:10522000DBB2072B00D954B9064A137848EA0303C6
:105230001370FCF7EFFE2046FCF770FF48E0074ACA
:10524000F3E700BF3621002039210020FC6F002049
:10525000EFBEADDE3C2100203B2100203E2100209E
:105260002046FCF7DFFFB8F1000F31D004F1200336
:10527000DBB2072B00D91CB94046FBF795FA04E0D6
:10528000A34A137823EA08031370FCF7C3FE1FE058
:10529000C4F30320C4F3072303F0F0030201E4B2D4
:1052A000202B18BF10463CB1012C4DD0002E56D0FB
:1052B000B8F1000F26D0BEE7964B5B785C071DD493
:1052C00026B128B1944A13780343DDE70028D4D1EE
:1052D000002F00F0AA8099F8000010F0010340F0C0
:1052E000A4806B71C008FBF741F92846FFF7D2F89C
:1052F00099F80000C008FBF743F996E086B1B8F1D1
:10530000000F02D1FCF7BCFFE2E7B8F1010FDFD1DB
:10531000824A137830EA0301DAD003431370D7E7E7
:10532000B8F1000FD4D10390FCF7B4FF7B4A039887
:10533000137818421CBF83431370794A13781842BC
:10534000C6D023EA0003E9E71EB1B8F1050FBFD8C4
:10535000D8E7B8F1040FBBD8FCF79CFFB8E7B8F169
:10536000000FF9D0392C0CBF4FF4FA504FF47A707B
:10537000FFF714F82046FCF755FFA9E714F4406F37
:10538000C4F3812307D0012BA2D166B1C4F3090075
:10539000FCF72EFA9CE726B1C4F30900FCF70CFADF
:1053A00096E73046FAE73046F2E714F4407F1DD125
:1053B000BEBB0F21C4F342129200D2B29140C94346
:1053C00004F00F03C9B2934014F0100218BF0A464C
:1053D000C4F381245349022C33D0032C35D0012C43
:1053E0002AD013430A7813400B701AE0C4F3012249
:1053F000AEB1D10715D50F21C4F342129200D2B23B
:105400009140C94304F00F03C9B2934014F0100255
:10541000C4F3812418BF0A464349022CDCE7012A61
:10542000E9D8FCF7BFF9FBF795F80021284609B049
:10543000BDE8F04FFDF70EB8087803431A430A7031
:10544000EFE713430A785340CEE71343CCE7E7B2C4
:10545000C4F3032436B12046FBF788F83846FCF73E
:105460000FFFDEE73846FCF715FF2046FBF788F80C
:10547000D7E7E7B2A7F1F003042B40D8DFE803F049
:1054800003250F1621003EB1B8F1040FC9D8C4F3AB
:105490000420FBF77FF8C4E7B8F1050FF6E7C4F383
:1054A0000420002EE2D1FBF761F8BAE71E4A36B1BC
:1054B0000123C4F3042403FA04F41470B1E7167052
:1054C000AFE7144B5B785A0704D4C4F30420002ED2
:1054D000CCD0E8E74EB15B07C4F30420E3D5C300AA
:1054E00043F0030389F80030DDE70120FBF70CF9F6
:1054F000B8F1010F95D90220FBF706F991E7C6B183
:10550000B8F1000F12D03846FCF708FE89E700BF5B
:105510003E2100203C2100203621002037210020A0
:1055200038210020392100203A210020C4F3042032
:10553000B9E7B8F1000F0BD0392F0CBF4FF4FA5078
:105540004FF47A70FEF72AFF3846FCF76BFE68E7E7
:10555000C4F304208AE747F616439C42124B7FF4BB
:1055600021AD1B7803F0AA03002B14BF01220022F7
:105570000E4B0CBF292035201A70FCF755F9FCF7AB
:1055800049FDFFF740B847F616439C427FF418AD3B
:10559000064B1B78002B0CBF29203520FCF77AF92D
:1055A000EDE709B0BDE8F08F36210020352100205D
:1055B0001C49F8B58B790F2B0AD84B7943B11A4B9C
:1055C0001A4A1B7815784E780F78194CAB4200D1E7
:1055D000F8BD04EBC300027902B34278B2421DD198
:1055E00014F83320BA4219D14279BAB94288B1F8D5
:1055F00002C0A2EB0C0292B2C72A0FD801228B790B
:1056000062F307138B71837962F307138371054883
:10561000FEF740FFBDE8F840FBF766B8013303F042
:105620000703D3E782210020402100203F210020F2
:10563000422100202DE9F04F054685B08A4C0146F5
:105640000622684602F026F894F804A06F7995F8CF
:105650000490BAF1000F1AD1B9F1000F15D0002F44
:1056600000F0FE802846FCF721FF002800F0F880BB
:1056700008222946204602F00DF8B9F1010F02D1A7
:105680002088FCF701FFFFF793FF012444E0B5F801
:1056900002B063886679ABEB030395F800809BB298
:1056A000002E00F0AE80C72B00F28880B9F1000F09
:1056B000EBD0A37962780F2B697850D891420FD143
:1056C000227842450CD1002F44D10122204662F3BA
:1056D0000713A371FEF7DEFEA379AB7100241BE074
:1056E000002F37D13A464046FAF7DCFF4046FAF73A
:1056F000D9FF04460028F1D10098FCF7C5FEC0F39D
:105700000332032AC3B20BD8012A13D910F4706FE5
:1057100015D0AA790F2A12D8204605B0BDE8F08F1F
:10572000063202F00F02012A0ED92846FEF7B2FE19
:105730003446F1E710F4706F01D0002BECD0203329
:10574000DBB2072BE8D9F0E7EF2BE5D90F33DBB25B
:10575000022BF7E7A37943F00103A371BEE791425F
:105760000DD1227842450AD14FB92846AB71FEF7D8
:1057700091FE08222946204601F08CFF85E7284645
:10578000FCF794FE00286BD0002F69D0A3791F2B63
:105790000ED9228802A8ADF808200022ADF80AB080
:1057A0008DF80CA08DF80D208DF80E30FEF772FEEE
:1057B000082229462C4801F06DFF64E7A3790F2BDE
:1057C00008D82046FEF766FE08220021204601F098
:1057D00059FF83E7B9F1000F3FF457AF61786A785A
:1057E0009142CCD122784245C9D1002FC7D1284659
:1057F000AB71FEF74FFE08223946204601F042FF0A
:1058000043E7C72BE0D8B9F1000F3FF43EAF3FB3F9
:1058100062786B789A421AD12378434517D1A379DD
:10582000DA0710D40F2B0ED9AB7103F0F003F02B75
:1058300006D0AB79C3F30312013262F30713AB71E5
:105840002846FEF727FE08222946074894E72846FF
:10585000FCF72CFE0028ABD1A37943F00103A37120
:105860002846FEF717FE10E782210020F0B589B028
:10587000CDE900019DF8055000220DB12C490A70B8
:105880009DF80460DDE90001ADF80E2002905EB1E4
:10589000012102A88DF80C608DF80D50FCF7DAFD9F
:1058A000012102A8FCF7D6FD8DF80C608DF80D5093
:1058B000DDE90201CDE9040104A8FFF7BBFE1D4E9E
:1058C00007461D4CB8B9DDE90401CDE906019DF894
:1058D00014103378227871B15D1C05F007059542EC
:1058E00010D01648082206A900EBC30001F0D2FE32
:1058F0003570FAF7F9FE114D2078337883420BD1D9
:1059000009B0F0BDFDF76AFA082239460C48377035
:10591000277001F0B7FEEEE705EBC000FFF78AFE47
:105920000028EDD02378013303F007032370E3E769
:105930003E2100203F210020402100204221002064
:105940008221002073B5FDF72BFD0A4D84B22B8810
:10595000A3420DD00026ADF80060FDF721FDADF8A3
:105960000460ADF80200DDE90001FFF77FFF2C8045
:1059700002B070BDD220002000232DE9804895B0F0
:1059800001935C4B9A68022A01BF1A685A4A526F07
:105990005A689B6900231E46584A0133102B166033
:1059A000566002F10802F8D10127554B554D03F11D
:1059B0000C021A61DA60544A5E61DA611F705E603F
:1059C0009E60524B2F7003F10C021A61DA60504A4C
:1059D0005E61DA611F7040F2BF325E609E604FF020
:1059E000E023EE61AE622E62EE626E622E636E6046
:1059F000AE605A6107229E611A618022454946487D
:105A000083F8232D08604548454C4860454903F517
:105A100050634FF0300CA66221638CF3118862B69C
:105A2000D868414920F4E0600004000C0143D960CB
:105A3000D3F8FC103D4841F08071C3F8FC100168B8
:105A40004FF00009394301602021D97783F822C043
:105A500004F11003C4E904334FF0FF33E661A3619E
:105A6000E3693348984604F13403E36000F1C4036A
:105A7000C0F8F4302F4BC0F8C860C0F8C4302E4BCB
:105A8000C0F8F070C0F8E4300223C4E90889A0F837
:105A9000FC30E263A265C4E90044C4E91466A66070
:105AA000E662E6656464A4F84870C0F8F840C0E9AE
:105AB0004267C0F80461E830FCF78AFD86F311887C
:105AC0001E4B1F4ADF701F4BDFF87CA01A60FDF7EA
:105AD00011F901F0FDFC4FF4807248461A49FDF7B8
