:020000040800F2
:1000000000040020B9010008BB010008BB01000882
:10001000BB010008BB010008BB010008BB010008D0
:10002000BB010008BB010008BB010008ED6D000822
:10003000BB010008BB010008BB010008F172000809
:10004000BB010008BB010008BB010008BB010008A0
:10005000BB010008BB01000851710008797100085C
:10006000A1710008C9710008F1710008BB01000806
:10007000BB010008BB0100089D730008BB0100081C
:1000800019720008BB010008BB010008BB01000891
:10009000BB010008BB010008BB010008BB01000850
:1000A000BB010008BB0100087573000889730008D4
:1000B000BB010008BB010008BB010008BB01000830
:1000C000BB0100087D720008BB010008BB010008ED
:1000D000BB010008BB010008BB010008BB01000810
:1000E00072B6264880F30888254880F30988254899
:1000F00025490860022080F31488BFF36F8F02F057
:1001000029FF02F059FF4FF0553020491B4A914218
:100110003CBF41F8040BFAE71D49194A91423CBF24
:1001200041F8040BFAE71B491B4A1C4B9A423EBF9D
:1001300051F8040B42F8040BF8E700201849194A5B
:1001400091423CBF41F8040BFAE702F0D3FF02F002
:10015000CFFF154C154DAC4203DA54F8041B884709
:10016000F9E705F0F7FB124C124DAC4203DA54F8F4
:10017000041B8847F9E702F0BCBF00000004002020
:10018000000C00200000000808ED00E00000002046
:1001900000040020A4830008000C002000110020AF
:1001A0000011002044230020E0000008E0000008C7
:1001B000E0000008E000000892E700F000F8FEE729
:1001C0002DE9F04FC1F80CD0C3689D46BDE8F08F13
:1001D000002383F311882846A047002004F03EFA4C
:1001E000FEE702F0ADFF00DFFEE7000053B94AB9B9
:1001F000002908BF00281CBF4FF0FF314FF0FF302F
:1002000000F062B9ADF1080C6DE904CE00F006F81B
:10021000DDF804E0DDE9022304B070472DE9F04782
:100220008C46154604461E46089F002B40F0CB80A6
:100230008A4248D9B2FA82F149B1C1F120030CFADD
:1002400001FC20FA03F38D4043EA0C0C8C404FEA8A
:10025000154EBCFBFEF8A8B20EFB18CC08FB00F94B
:10026000230C43EA0C43994529D9EB1808F1FF32D6
:1002700004D2994502D9A8F102022B44A3EB090349
:10028000B3FBFEFC0EFB1C330CFB00F0A4B244EAF3
:100290000344A04215D92C190CF1FF3304D2A0421B
:1002A00002D9ACF102032C44241A43EA02401FB1E4
:1002B0000023CC403C607B603146BDE8F08742467D
:1002C000DCE76346F0E7002A73D0B2FA82F3DBB3CF
:1002D0001E4602FA06F5C6F1200321FA03F24FEAA0
:1002E000154EB14020FA03F30B43B2FBFEF100FAC6
:1002F00006F40EFB112CA8B201FB00F81A0C42EA1E
:100300000C42904557D9AA1801F1FF3C04D2904500
:1003100002D9A1F1020C2A44A2EB0802B2FBFEF1C1
:100320000EFB112248439BB243EA0243984244D950
:10033000EB1801F1FF3203D2984201D98A1E2B44F7
:100340001B1A42EA0C4201E08B1A01224FEA154EB9
:10035000B3FBFEFCA8B20EFB1C330CFB00F8210C17
:1003600041EA034398452AD9EB180CF1FF3104D236
:10037000984502D9ACF102012B44A3EB0803B3FB6F
:10038000FEFC0EFB1C330CFB00F0A4B244EA034459
:10039000A04216D92C190CF1FF3304D2A04202D985
:1003A000ACF102032C44241A43EA014031461646BC
:1003B0007DE71F268DE78C46AEE70A46C0E761461B
:1003C000DBE76346EFE78B4206D917B900263046D4
:1003D00072E7C7E90001F9E7B3FA83F686B98B4201
:1003E00001D3824207D8841A61EB030301209C46A3
:1003F0001FB9002660E73046FAE7C7E9004CF8E786
:10040000C6F1200CB34022FA0CF41C434FEA144905
:1004100021FA0CF3B3FBF9F820FA0CF5B1402943AB
:100420001FFA84FE00FA06F509FB183008FB0EFAE5
:100430000B0C43EA00439A4502FA06F240D9E3184E
:1004400008F1FF3004D29A4502D9A8F102002344F2
:10045000A3EB0A03B3FBF9F809FB183308FB0EFE04
:1004600089B241EA03418E452CD9611808F1FF3366
:1004700004D28E4502D9A8F10203214443EA004088
:10048000A0FB0298A1EB0E014145CE46434602D3A4
:1004900006D14D4504D2B9EB020E68EB04030138D6
:1004A000002FA6D0B5EB0E0261EB030101FA0CFCA4
:1004B00022FA06F34CEA0303F140C7E9003198E75A
:1004C0004046C5E74346D9E7704700BF032807B554
:1004D00013D10023ADF804308DF8063000209DF8CC
:1004E000043063F307009DF8053063F30F209DF897
:1004F000063063F3174003B000BD044900EB400031
:100500000144032201A807F0B7F9E7E78E8200084B
:10051000A0F58073B3F5F85F30B42ED210F4805F8D
:1005200000F40075C0F3002300F4806400F4006060
:1005300014D01B0143F02002002D18BF134643F0D6
:100540004002D2B2002C18BF134663F07F02D2B231
:10055000002818BF134630BC1846084743F0020273
:10056000D2B2002D18BF134643F00402D2B2002CC1
:1005700018BF134643F00802E9E70023EBE7000049
:1005800010F0020F0CBF10224FF48012014B9A6141
:10059000704700BF000800400123034A83401178E0
:1005A0000B431370704700BF442100200123034A0E
:1005B0008340107820EA0300107070474421002027
:1005C0000123034A834011784B401370704700BFEA
:1005D0004421002001F00703C90801EB410130B5B7
:1005E00001250A4400219D40013A12F8014F20FAEA
:1005F00001F343F3000363402B4001315C400329C6
:100600001470F2D130BD002210B500F00704C0080C
:1006100000EB4000014410468B5CE34003F0010313
:10062000934001321843032AC0B2F5D110BD000037
:100630000246C0F30723052B084682B0D1B209D881
:100640000E290DD8C3EB03131944064A89B202B030
:10065000FFF7C0BF0433DBB2012B01D8024AF6E733
:1006600002B070471321002010210020C0F307239F
:10067000052B82B0C0B209D80E280DD8C3EB0313E6
:100680001844074980B202B0FFF7BDBF0433DBB2A4
:10069000012B01D80349F6E7002002B0704700BFE4
:1006A000132100201021002030B50124074D04FA49
:1006B00001F12B7804FA00F00843C1B218409440CD
:1006C00081420CBF2343A3432B7030BD4421002043
:1006D000F0B50D4B0D4C1B7826780D4CB34201D173
:1006E0000020F0BD04EBC3056F788F4206D114F8EB
:1006F0003370874202D16D79954203D1013303F003
:100700000703EBE70120ECE7482100204721002008
:100710004A210020054B064A1B7812789A4200D1E4
:100720007047013303F00703F8E700BF48210020BA
:100730004721002010B509490B7823EA000010F08A
:100740000704087009D1984207D0054B5B785B0716
:1007500003D5C008FFF72AFF0C7010BD452100200B
:100760009C21002070B5144B144D1878144B1B7845
:1007700018432B78C0B293B11843124B9B78012BCE
:1007800004D1114B93F90030002B09DB06220F4BEB
:1007900000211A449A4206D109B100232B7070BD82
:1007A0001E220B4BF4E74C1C13F8016BE4B2002E35
:1007B00018BF2146EEE700BF402100204121002064
:1007C00046210020A81000209C2100200E140020AB
:1007D00016140020024A137823EA000313707047AE
:1007E00040210020E7284FD8DF2807D8312864D0DF
:1007F0000ED8292857D02A2866D07047A0F1E003E8
:10080000072B41D8DFE803F01540232831403C4155
:10081000392804D0822802D035283FD07047324B87
:100820001A7892071FD15B7813F0080F18BF2920A0
:1008300070472D4A1378D9074DD4527812F0010F22
:1008400022D013F0100F14BF0020E3207047264B76
:100850001B7813F0040FF3E7234A137859073CD4AD
:100860005278D207EDD5E02070471F4B5A78910798
:100870000AD51B7813F0100F14BF0020E720704733
:10088000194B1B781A07F5D47047174A13781907C4
:1008900025D452789107EDD5E4207047124B1B7890
:1008A00013F0200FC2E7104B1A78920619D45B7828
:1008B00013F0080F18BF392070470B4B1B7813F04B
:1008C000400F18BF2A207047074B1B7813F0400FCA
:1008D00018BF3120704739207047E2207047E6206A
:1008E00070473520D0E700BF9C21002030B5304D47
:1008F0002B785A0711D500F0140100F018020C1FD4
:100900006142A2F1080C6141DCF1000242EB0C02F1
:1009100080F00C04914218BF2046190713D500F04F
:10092000140400F01801A4F1140CA1F11802DCF178
:10093000000444EB0C045142514180F00C02D2B24D
:100940008C4218BF10466D78E90713D500F01104EA
:1009500000F0180104F1FF3CA1F10802DCF10004F1
:1009600044EB0C045142514180F00902D2B28C4256
:1009700018BF1046AA0711D500F0110400F01801A5
:10098000A4F111025442A1F118055441694280F0CA
:1009900009026941D2B28C4218BF1046DB0605D568
:1009A00000F0E70310F0080F18BF184630BD00BF75
:1009B0009C21002038B5FFF715FFB0F5A44F044681
:1009C0003FD2B0F5A04F80F0A680DF2816D8CC2803
:1009D00000F28680A7280AD8A42874D8012804D059
:1009E000031F9BB2A12B28BF0024204638BDA0F1D5
:1009F000A8039BB21A2B6BD90024F6E7B0F5804F01
:100A000016D2B0F5005F80F09980E728EDD9A0F507
:100A100080739BB2B3F5F85FEED2C0F30720FFF707
:100A200065FF0546E0B2FFF7DDFE40EA0524DCE79E
:100A3000C0B2FFF7D7FE04F47064204340F42044B2
:100A4000D3E7B0F5A54F21D245F25F23984251D8A4
:100A500045F23F2398420ED845F21F23984242D8D0
:100A6000012300F00304A340C0F3850243EA4213CC
:100A700043F40D44B9E7012300F00304A340C0F39D
:100A8000820243EA421343F40C44AEE745F2BF232B
:100A900098420AD845F29F23984200F01F0034D8AC
:100AA0004AF2F40343EA00249FE7A0F5A543403B44
:100AB0009BB21F2BA0D8040204F4F85444F4204441
:100AC00044F0F00491E7A0F1240444F480448CE75E
:100AD000204B5834E4B233F8144044F4884484E79B
:100AE00040F4A04481E74AF2F10300F01F0443EA16
:100AF00004247AE7012300F00304A340C0F3820238
:100B000043EA421343F40A446FE7FFF7EFFE04029F
:100B100044F4005469E700F01F00FFF7E7FE03B25A
:100B20001A0102F0F00210F0100F18BF1346C4F3C0
:100B3000431443EA042343F4104456E7C0F304206B
:100B4000FFF7D4FE0546E0B2FFF74CFE40EA05246D
:100B5000DEE700BFB8810008002070470020704722
:100B600030BFFDE7044B93F804281AB9012083F83D
:100B70000408704702207047B0160020054B93F818
:100B8000042822B10022012083F8042870470220A3
:100B9000704700BFB016002030B52B4A85B0C0F3B7
:100BA000074310F47F4FD25C0190C0F3072547D074
:100BB0000620FF239DF80440591B6043B0FBF3F06F
:100BC0006FF05403434303EB440303EB4303DBB2F3
:100BD00003FB05F4C3F1FF036B4324121B12C4F1A2
:100BE000FF04C3F1FF03514354435343091224123A
:100BF0001B12062820D8DFE800F0040613161A1F7F
:100C0000040014461A46134622460020D2B262F36C
:100C10000700DBB263F30F2061F3174005B030BD6E
:100C20000C461946EFE723460C461146EAE7104604
:100C30001C460A460146E6E7234614460A46F0E704
:100C400011461346E1E700BFC87E00081FB55308F0
:100C5000D209184C1ABF83F0FF0303F00F0203F010
:100C60000F02C3F30113019004EB4301497818BF4D
:100C700001324A4314F81330C0F3074003EB221348
:100C80005BB2002BB8BF5B425B00DBB200FB0333FF
:100C900000201B128DF80630019BDAB262F30700C8
:100CA000C3F3072262F30F20C3F3074363F3174034
:100CB00004B010BDC07E000884B0019000208DF803
:100CC0000420019BDAB262F30700C3F3072262F348
:100CD0000F20C3F3074363F3174004B070470000CD
:100CE00084B0019000200B4B03EB410393F85A3082
:100CF0009B1A8DF80430019BDAB262F30700C3F34C
:100D0000072262F30F20C3F3074363F3174004B0D5
:100D1000704700BF0880000884B0019000200B4B92
:100D200003EB410393F85B309B1A8DF80430019B71
:100D3000DAB262F30700C3F3072262F30F20C3F3B2
:100D4000074363F3174004B0704700BF08800008F2
:100D50001FB5124C2C3104EB4104E3780190A3F150
:100D60002001C3F120035BB249B231EA210128BF5F
:100D70001946A3789B1A0B44034400208DF80430D5
:100D8000019BDAB262F30700C3F3072262F30F207C
:100D9000C3F3074363F3174004B010BD0880000895
:100DA000FF2928BFFF21C94384B00190C9B2C0F315
:100DB000074000FB0111002009128DF80610019B6D
:100DC000DAB262F30700C3F3072262F30F20C3F322
:100DD000074363F3174004B07047FF2928BFFF2182
:100DE000C943C9B284B001EB8111019000EB11201D
:100DF0008DF804000020019BDAB262F30700C3F310
:100E0000072262F30F20C3F3074363F3174004B0D4
:100E1000704784B0BDF81020C0F30741D31A9BB2CD
:100E2000FF2B28BFFF23DBB283F0FF021144FF2911
:100E300028BFFF210190034400208DF804308DF875
:100E40000610019BDAB262F30700C3F3072262F3D4
:100E50000F20C3F3074363F3174004B0704700004B
:100E6000024B1A7810431870704700BFC41E002050
:100E700000F0DCBA2DE9F0478046894614469DF81B
:100E800020609DF824709DF828A0D51814F8010B57
:100E9000404506D3484504D253463A463146FFF70B
:100EA000E7FFAC42F2D1BDE8F0872DE9F04780467C
:100EB000894614469DF820609DF824709DF828A06E
:100EC000D51814F8010B404506D3484504D25346C3
:100ED0003A463146FFF7CCFFAC42F2D1BDE8F0878D
:100EE0002DE9F3410F46FF21D5B2C2F30726C2F325
:100EF00007440F4A8046D278554356435443B5FBC6
:100F0000F1F5B6FBF1F6B4FBF1F4EDB2F6B2E4B2F2
:100F10005FFA88F39F4202D802B0BDE8F0814046F4
:100F2000234632462946FFF7A3FF08F10108EFE701
:100F3000A821002000F086BA03010020DBB203F1F3
:100F4000100263F30700D3B2502B28BF502382B0A6
:100F500063F30F2002B070472DE9FF47DFF894805C
:100F6000814698F80000FFF7E7FF234E234B3479C2
:100F70001B88A40802345C43DFF884A0C0F3072771
:100F8000C4F30724C5B2E9B28F4206D84F2F8CBFF5
:100F90000020012004B0BDE8F08798F801301AF86D
:100FA00005201A4223D0B2787378F07843EA0223FE
:100FB00043EA00402246C8478DF80400C0F30723E7
:100FC000C0F307408DF806008DF80530019BADF8A1
:100FD00008301B0C8DF80A300298FFF7DDFDC0F3D6
:100FE0000743C0F30722C1B22846FFF741FF01358E
:100FF000C9E700BF070E0020A8210020EC15002043
:10100000028100082DE9F04FDFF8F0803C4D85B0FB
:10101000834698F80000FFF78FFF2B794FF6FF7695
:101020000133FF2B28BFFF23B6FBF3F6DFF8D4A074
:10103000DFF8D490ADF80000C0F30727C4B2E0B2E7
:10104000874206D84F2F8CBF0020012005B0BDE895
:10105000F08F98F801301AF804201A423CD099F821
:101060000030DFF8A8C0013B5BB21A0636D5314626
:101070002B79AA780133FF2B28BFFF2303FB011133
:101080006B78E87843EA0223C1F30F2143EA00407A
:10109000D8478DF80400C0F30723C0F307408DF84C
:1010A00006008DF80530019BADF808301B0C8DF85B
:1010B0000A300298FFF770FDC0F30722C0F3074320
:1010C0008DF80C008DF80D208DF80E30C1B2DBB21A
:1010D0002046D2B2FFF7CCFE0134B0E71CF8032063
:1010E000824209D103F10C0209EB42025178927855
:1010F00041EA02218E42BBD8013BB6E7070E002031
:10110000A821002002810008C51E0020D61E002054
:10111000044A137883F0010313700022024B1A7003
:10112000FFF79EBEA8210020060E0020064A137875
:1011300013F0030304BF05490B700121137861F319
:1011400001031370704700BFA8210020060E002085
:10115000054B1A7892071EBF0021044A11701A78B5
:1011600022F003021A707047A8210020060E00200A
:101170000D4A0346107810B4800713D073B1092BC1
:101180000ED803F03F031478084663F38704147005
:101190000022064B1A7010BCFFF762BE0123F2E773
:1011A0000923F0E710BC7047A8210020060E00209C
:1011B00007B50322019001A9094806F05DFBFFF77E
:1011C000B5FF084B1B7813F0FC0F06D00021084632
:1011D00003B05DF804EBFFF7CBBF03B000BD00BF69
:1011E000BE100020A82100200121054B1878C0F373
:1011F00085000130C0B20A2828BF0846FFF7B8BFF3
:10120000A8210020054B01211878C0F38500013882
:1012100010F0FF0008BF0920FFF7AABFA821002097
:1012200030B4064C2578AD0706D06070A170E2702E
:10123000184630BCFFF714BE30BC7047A821002010
:10124000034901234878CA7808308978FFF7E8BF56
:10125000A8210020044901234878CA7808388978F1
:1012600080B2FFF7DDBF00BFA821002005480123A1
:101270008178C2781031FF2928BFFF214078C9B298
:10128000FFF7CEBFA8210020054801238178C2784E
:10129000103921EAE1714078C9B2FFF7C1BF00BF40
:1012A000A821002005480123C27881781032FF2A46
:1012B00028BFFF224078D2B2FFF7B2BFA82100209A
:1012C00005480123C2788178103A22EAE272407818
:1012D000D2B2FFF7A5BF00BFA8210020044A012019
:1012E00013791033FF2B28BFFF231371FFF7B8BD0D
:1012F000A8210020044A01201379103B23EAE3735C
:101300001371FFF7ADBD00BFA8210020054A0120E1
:101310005379A3F1FF014B424B410349CB5C53711D
:10132000FFF79EBDA8210020A47E0008054A0120E9
:101330005379A3F1FF014B424B410349CB5C5371FD
:10134000FFF78EBDA8210020A47E000830B5094B10
:101350009C78DD78621C02F00302954209D09A70F5
:101360001A7800F07F001C4440EAC110013220715D
:101370001A7030BD9F1F0020054BC1F180411869D4
:1013800001F2074101F00F01C84000F00100704771
:101390000004004070B5072301264FF400444FF0CD
:1013A0000045184A06FA03F10142946115D006215E
:1013B00000BF00BF00BF00BF00BF00BF0139F7D1B1
:1013C0000321956100BF00BF00BF00BF00BF00BF89
:1013D0000139F7D1013BE5D270BD032100BF00BF49
:1013E00000BF00BF00BF00BF0139F7D106219561E2
:1013F00000BF00BF00BF00BF00BF00BF0139F7D171
:10140000E8E700BF000400406FF40042064B1A6397
:101410004FF055321A6000225A609A60DA60DA6240
:101420001A625A62704700BF0004004030B5044D94
:1014300000EB40002C1861702A54A37030BD00BF2F
:10144000F214002070B5134605460E4600242046CF
:10145000324629460134FFF7E9FF502CF7D170BD21
:1014600038B5302383F3118800250E4C2078FFF720
:1014700091FF6078FFF78EFF0135A078FFF78AFFB4
:10148000502D04F10304F1D14FF4E06300BF00BF1D
:1014900000BF00BF00BF00BF013BF7D183F311883D
:1014A00038BD00BFF2140020022870B529D80022F0
:1014B000154B9D1D03EBC2046679360705D515F85B
:1014C0003260864201D1204670BD0132032AF1D13B
:1014D000B9B159790C070FD55A7B11070FD55A7D31
:1014E00012070ED4022103EBC1014B79887143F03E
:1014F000080308464B71E7E7C1F3C001F3E7012198
:10150000F1E70020E0E700BFD814002002B1104747
:1015100070470000034B1B6813B11B6803B11847E9
:1015200018467047042100200B4B07B51A888242E9
:101530000FD01880094B1B685BB11B694BB10322AC
:101540008DF80500000A8DF806008DF8042001A82A
:10155000984703B000BD00BFD6140020042100202E
:101560000B4B07B51A88824210D01880094B1B68B4
:1015700063B11B6953B104228DF80500000A8DF890
:1015800006008DF804200DEB0200984703B000BD63
:10159000D41400200421002010B5154B9B78012B9A
:1015A00015D000224FF0FF33124911F8014FA0422D
:1015B0001DD0B3F1FF3F01D104B953B20132062A65
:1015C000F3D15A1C13D00C4A134498700FE00B4A05
:1015D00092F90020002AE4DAEF2808D8084A02EB42
:1015E000D002917800F0070083400B43937010BD48
:1015F000A81000200D1400200C1400209C210020B5
:101600001414002010B5114B9A78012A0CD006232F
:1016100000210F4A12F8014F013B844208BF1170AC
:1016200013F0FF03F6D110E00A4B93F90030002BC2
:10163000EDDAEF2809D8084B03EBD003997800F0D6
:101640000700824021EA02029A7010BDA810002013
:101650000D1400209C21002014140020014B587808
:10166000704700BFA8100020BFF34F8F0549064BFD
:10167000CA6802F4E0621343CB60BFF34F8F00BF30
:10168000FDE700BF00ED00E00400FA0530B590F87A
:10169000472090F8463085B043EA02231A0A032A0D
:1016A0001BD00DD8012A5FD0022A13D15B23314A07
:1016B000314842600360002A08BF104605B030BDC3
:1016C00090F8483090F84910212A43EA01233CD091
:1016D000222A41D000231A46EAE7DBB2032BF9D8CD
:1016E000DFE803F0450205080623244AE0E7222349
:1016F000234ADDE7234B244D1C781CBB01222146E5
:101700001A706846102206F0AFF821461F4804AB55
:1017100003EB610313F8102C05EB41031409045D7E
:1017200002F00F029C700024825CDC704B1C0231C2
:1017300005EB430320299A70DC70E8D142232B701B
:1017400003236B702B78104AB2E7022BC2D8104AE1
:1017500052F823200923ABE7022BBBD80D4A0E49D0
:1017600052F82320CB5CA3E712230C4AA0E7042302
:101770000B4A9DE7847A0008CC140020787A000890
:10178000547A00088614002087140020437A000849
:10179000007B0008F47A0008F17A0008DF7A00087C
:1017A000807A000810B5064A064C117824784B1C44
:1017B00003F00F039C421EBF034C1370605410BD16
:1017C000FF1E0020FE1E0020EE1E002090F84A2082
:1017D00090F84B00084942EA0022022A0B7807D110
:1017E000012B01D0062B05D14A78044B5A70704763
:1017F000024A5370704700BF84140020A8100020D4
:1018000070B590F84410044601F07F03212B40F09E
:101810009D8011F0800F90F8453053D0022B35D0C9
:10182000032B25D0012B4DD190F84830022B01D944
:10183000002070BD90F846100829F9D8594AD25CAA
:10184000022AF5D8A820584B00FB0233D3F8A43065
:10185000002BEDD0554D5E6818682A46B04705F15B
:101860000803A363AB6C0022E36322640120E0E77A
:1018700090F8482090F8493052EA032266D14C494A
:101880004C4B8978836319700123EDE790F8483059
:10189000022BCDD890F846100829C9D8414AD25C0D
:1018A000022AC5D8A820404B00FB0233D3F8A4304D
:1018B000002BBDD05A69186890473F4B1870A3633E
:1018C0000123D0E70A2B23D00B2B10D0092B3DD1BD
:1018D00094F8483094F8492043EA022323F00203A5
:1018E000002B33D1354B364AA3630223BCE794F86F
:1018F000483094F8492053EA022306D194F8463040
:101900002B4A003B18BF012393700023A363AAE76F
:10191000274B94F847201A7094F84830022B87D848
:1019200094F84610082983D81E48C05C02283FF668
:101930007FAFA8251C4B05FB0033D3F8A430002B48
:101940003FF476AF1D691868A847DEE701F09F01F4
:10195000812918D194F84530062B14D194F84920E8
:10196000616894F848304D6843EA0223204694F8B1
:10197000472094F84610A84700283FF459AF436821
:10198000A36303686FE70325074ED6F89C3023B99D
:10199000013D06F1A806F8D14AE7204698470028FD
:1019A000F6D063E7407A0008280E002034140020A7
:1019B000A81000208114002080140020841400202E
:1019C000CD1700087047302383F3118802694369FB
:1019D0009A4210D1C36883B10123D0F8882090F8CF
:1019E0008C1012898B4013420CBF01200020002371
:1019F00083F3118870470020F9E71846F7E70000E5
:101A0000036843B19100196003490B78002A18BF9D
:101A100043F001030B707047F81F0020006810B1FD
:101A20000068C0F38700704738B503680BB9002021
:101A300038BD302383F31188036800211C685B687C
:101A400081F31188002CF2D04FF47A7C074A084DBC
:101A5000D069084AC01AE0FB0C5100232846FEF763
:101A6000C5FB84428CBF00200120E1E7002000205C
:101A70009F860100A08601004B1E072B0BD850F853
:101A8000213043B19100196003490B78002A18BF37
:101A900043F001030B707047F81F0020082906D897
:101AA00050F8210020B10068C0F387007047002083
:101AB00070470000082938B501D9002038BD50F81A
:101AC0002130002BF9D0302383F3118850F82130D6
:101AD00000211C685B6881F31188002CEDD04FF465
:101AE0007A7C084A084DD069084AC01AE0FB0C51BC
:101AF00000232846FEF77AFB84428CBF0020012099
:101B0000DCE700BF002000209F860100A0860100C6
:101B1000034610B51B68984203D09C688A689442BB
:101B2000F8D25A680B604A601160596010BD00001D
:101B3000302383F311880D4B5B6813F4006312D0DC
:101B4000EFF309834FF08072203BDA6183F3098859
:101B5000074A1168D2688968926891428CBF054A29
:101B6000054A9A61704783F31188704700ED00E0E1
:101B700000200020E3010008E60100080369196065
:101B8000C268013AC260C269134482690361934228
:101B900024BF436A036100238362036B03B11847C8
:101BA0007047000070B50124468904FA01F53543F9
:101BB000458100EB8100C56801F00F01A8698260D2
:101BC000002203604260C26023B16C8A013B23445F
:101BD000B3FBF4F4054B0482997321B11A7D02F032
:101BE000FE021A7570BD40225A74FBE700400140A6
:101BF00010B40346006F0278042A12D1012293F830
:101C0000741044898A4022420BD11A695C69A2424D
:101C100001D1DC682CB910BCDB690432043BFFF74E
:101C2000C1BF10BC7047406BFFF7E2BFF0B50124A5
:101C3000002605898C402C43048100EB810411F0BF
:101C40000F0108BF4027E46865696E60EE6008BF59
:101C5000114E2B60AA6008BFB173248A08BF777445
:101C6000A34228BF23460D4C2B6104EB8104D518F9
:101C7000954205D1084A917331B101235374F0BDE7
:101C800012F8016B2670F3E7517CC168098A8B4218
:101C900034BF0A230223F1E7004001402040014005
:101CA00010B4436BD3F888000278042A11D10122C2
:101CB00093F88C1004898A4022420AD15A691C691F
:101CC000944201D1DB6823B910BC52F8043BFFF702
:101CD000ADBF10BC7047000005480178052906D14A
:101CE00090F85030037043681B6803B11847704781
:101CF000041F002000216022074B10B599735A740D
:101D000099735A74436804461B680BB106219847BF
:101D1000062384F8343010BD0040014090F8343080
:101D200010B5152B04460CD8012208499A400A42E6
:101D300008D1152B05D1036C03B19847002384F813
:101D4000343010BDBDE81040FFF7D4BF410E100085
:101D500090F8343010B5152B04460CD801220849F0
:101D60009A400A4208D1092B05D1036C03B1984768
:101D7000002384F8343010BDBDE81040FFF7BABF2F
:101D8000410C300010B51C4B9B78012B1ED11B4B16
:101D900093F90030002B19DAFEF7E4FC184C2022EE
:101DA00060701849204605F075FD20B320222146B9
:101DB000144805F061FD144B1B68E3B19B68D3B177
:101DC000062222702046BDE810401847FEF7CAFCE4
:101DD0000E4C082220700E49204605F05BFD50B1E4
:101DE000082221460A4805F047FD074B1B6813B13E
:101DF0005B68002BE6D110BDA81000209C210020BC
:101E000014140020E4200020042100200C140020E1
:101E10000821002038B51C4B1B78D3B19378C3B18F
:101E200014785578844201D0854212D185424C798C
:101E30000CBF012100211144CC7014BF01210021ED
:101E40005018C07828B1022B05D014D9D81E01280B
:101E50000CD9012038BD505C2CB9FFF79DFBFFF772
:101E600091FF0020F6E7FFF7CDFBF8E7033B18BF33
:101E700001239942F5D0505C14B9FFF78DFBE8E7D8
:101E8000FFF7C0FBE5E700BFB021002010B5044616
:101E900000284FD0031FDBB2A02B27D8264B9B78FE
:101EA000012B0FD00023254A12F8011FA14217D0A1
:101EB0000133062BF8D12046FFF76EFBBDE810403A
:101EC000FFF760BF1E4A92F90020002AEADA1D4A95
:101ED00000F0070102EBD00292788B401A42EAD060
:101EE0002046FFF78FFBFFF74DFFE4E700F12003EB
:101EF000DBB2072B08D80123134A00F0070411783E
:101F0000A3400B431370D9E700F15B03DBB2022B54
:101F100005D8BDE81040243880B2FFF705BB58341F
:101F2000E4B21A2C06D8094B33F81400BDE810406F
:101F3000FFF716BB10BD00BFA81000200D14002035
:101F40009C2100201414002040210020B8810008AA
:101F500010B58378012B10D10C88A4F1E003072B76
:101F600000D944B909492046FEF7D2FAE0B2BDE8EB
:101F70001040FFF78BBF0649F5E7022B04D1BDE8FF
:101F800010404B688878184710BD00BFF11F00084B
:101F90001920000808B5034648B3021FD2B2A02A90
:101FA00005D8FFF72FFBBDE80840FFF7EBBE00F1B7
:101FB0002002D2B2072A07D800F007030120984078
:101FC000C0B2FEF707FCEEE700F15B02D2B2022AD4
:101FD00004D8BDE808400020FFF7A6BA5833DBB2AA
:101FE0001A2B04D8BDE808400020FFF7B9BA08BD95
:101FF00028B1034B1A7810431870FFF7C3BE70471F
:102000004021002008B528B1FEF7E4FBBDE80840F8
:10201000FFF7B8BE08BD000028B1034B1A78104383
:102020001870FFF7AFBE70474621002030B1044A58
:10203000137823EA00031370FFF7A4BE704700BFB4
:10204000462100208318B3F5006F10B40C4605D864
:1020500003490144204610BC05F00EBC10BC70477B
:10206000B0160020002307B501220DF107018DF8FD
:102070000730FFF7E7FF9DF8070003B000BD042815
:1020800038B517D8052915D80E2A13D81E235200A3
:1020900003FB0122B42303FB002404F12900FFF712
:1020A000E1FF054604F12A00FFF7DCFF40EA0520C6
:1020B00080B238BD0020FCE7F8B5144640F23E4738
:1020C00000F2C1355618B44200D1F8BD6FF47073F8
:1020D000EB18BB4206D82846FFF7C4FF04F8010BF3
:1020E0000135F0E70020F9E713B504460121006847
:1020F0000DF10702FFF7E0FF23689DF807000133A9
:10210000236002B010BD800070B500F2AD3481F0E4
:1021100001000D4604EB4000FFF7A4FF002D06462A
:102120000CBF032001202044FFF79CFF40EA06205B
:1021300080B270BDCAB2C1F30721052982B006D8AA
:102140000E2A14D8042812D802B0FFF798BFFD2930
:1021500006D162B904280AD8012102B0FFF7D3BF23
:10216000FC2904D11AB9042801D81146F5E700204A
:1021700002B070477FB50424104BADF804001D7801
:102180000F4B1B781D43EDB245FA04F3DB0705D472
:10219000013CF9D20026304604B070BDBDF80430D1
:1021A000E6B2ADF80C3003993046FFF7C3FFFEF7F7
:1021B00001FC80B20128EBD0EDE700BF44210020F4
:1021C0004321002013B502884379ADF8042001981B
:1021D00073B169B1FFF7CEFF044601460198FEF7DF
:1021E00027FA2046019902B0BDE81040FFF7A2BFD0
:1021F000FEF73CFA0446F4E71FB5ADF80400019879
:10220000FFF7B8FFBDF80430ADF80C300399FFF7C5
:1022100091FF05B05DF804EBFEF7CCBB08B5037980
:102220002BB30088FFF7E8FFC3B2C0F303300628E2
:1022300012D094BF0E30063000F00F00012812D8E3
:10224000F02B12D004D8E72B8CBF0020012008BD52
:10225000F43B58425841FAE7F12B18BFE72B94BFE3
:1022600001200020F3E70020F1E70120EFE7184606
:10227000EDE738B52520FFF7F5FE05462620FFF7E8
:10228000F1FE04462720FFF7EDFE262D06D1082C8F
:1022900004D1A0F120035842584138BD0020FCE78A
:1022A00008B52820FFF7DEFE08BD002307B502228F
:1022B0000DF10601ADF80630FFF7C4FEBDF80600CB
:1022C00003B000BD006810B440B1054C8264E469FD
:1022D000083040F8044C10BC05F0CEBA10BC704772
:1022E000002000200168134631B18A6C03F1080018
:1022F0009A64083105F0C0BA704700000B7810B43A
:10230000082B0BD850F8230040B110BC044B82645A
:10231000DB69083040F8043C05F0AEBA10BC7047E9
:10232000002000200829134609D850F8211031B1A7
:102330008A6C03F108009A64083105F09DBA704771
:1023400000238268037503691B6899689142FBD278
:102350005A680360426010605860704708B53023C7
:1023600083F311880A7D0023052A06D8DFE802F0EE
:102370000C050503130F8A6913604FF0FF330846FD
:102380008B61FFF7DDFF002383F3118808BD8A69A5
:102390009368013393604A680B6813605A60ECE7F6
:1023A00003682BB10022026018469961FFF7C8BF8D
:1023B000704700002DE9F04190F8343004463BB1FD
:1023C000836823F0011383600023C36380F83430F3
:1023D000A94904F1440304F14C0691F8202003F8C4
:1023E000012BB342F9D163689B68DBB994F84430A0
:1023F00013F060053ED0002160229F4B99735A7400
:1024000099735A7463681B6813B106212046984774
:10241000A36823F00113A3600023E363062384F879
:10242000343025E0204698470028DFD094F84B3020
:1024300094F84A2042EA0322E36B934284BF134696
:10244000E26394F94420002A80F24881002B00F0D6
:102450005381092384F83430302383F31188002119
:102460002046E36BA26BFFF7E1FB002383F31188A7
:10247000BDE8F08194F8452003F07F0343EA02238E
:1024800040F20232934200F015811FD8B3F5807FED
:102490004BD00BD8012B42D0022B00F0CA80002B6E
:1024A000A9D10222A663E2632364BFE7B3F5817F6B
:1024B00000F0EA80B3F5407F9DD194F84630012BBF
:1024C00099D1B4F84C3043F0020337E0B3F5006F14
:1024D00051D01CD8B3F5A06F36D0A3F5C063012B43
:1024E00089D894F84920616894F848304E6843EAE6
:1024F0000223204694F8462094F84710B04700285D
:102500003FF479AF4368A3630368E3631AE0B3F56C
:10251000106F35D040F6024293427FF46CAF574BB8
:10252000A3630223E3630023BEE794F84630012B44
:102530007FF461AFB4F84C3023F00203A4F84C30C0
:10254000A563E563256471E7B4F84430B3F5A06F83
:102550000DD194F84630484A84F84E3013706368C1
:102560001B6813B1012120469847032323700023E1
:10257000A363E36398E704F14F03A3630123C4E774
:102580002378042B45D1302383F31188A36804F109
:102590000C0603F00113A36004F1180856F8047F39
:1025A0006FB1786920B16FF001010C30FFF7F8FED0
:1025B000B86920B16FF001010C30FFF7F1FE46451C
:1025C0003560EBD100212C4B4FF0400CDA79082616
:1025D00002F00102DA7180275D7201220D4610209F
:1025E0009A730132D2B2042A9D7483F811C05E74CA
:1025F0005E745D751F7518751875F1D181F31188BA
:1026000084F84F100321636821701B680BB12046CA
:10261000984794F84630002BA9D084F84F30042313
:10262000237063681B68002BA1D0022120469847C5
:102630009DE794F8483003F00F0213F0800F0E4B23
:102640009A7311D042B95A7C50070BD4DB79DB075F
:102650007FF5D1AE0A4B63E7597CCD0602D4DB7916
:102660001341F4E7074B5BE7002AECD0197D89069C
:10267000F8D45B7AF4E700BF00400140BD79000860
:10268000B9790008BB79000894F84630002B7FF434
:10269000B2AE94F8483013F00F023FF468AF13F075
:1026A000800F184B9A7302D040225A745FE7802241
:1026B0001A755CE794F84630002B7FF49CAE94F8D2
:1026C000483013F00F023FF452AF13F0800F0D4B60
:1026D0009A7301D01022E8E72022E9E763B11523BD
:1026E00084F83430302383F3118800212046E36BD3
:1026F000A26BFFF757FAB8E64821024A9373517468
:102700008DE600BF0040014070B50446C5692E6BE0
:10271000C26A6B6A9A4234BFC36A6B6A002B2FD1BC
:10272000E26A002A39D1EB620223237063681B68D6
:102730000BB120469847302383F31188002104F120
:102740000800FFF72DFE002383F31188F30716D549
:10275000286A228E666AE36A616AD31A3344121ABF
:10276000934228BF134699424FF6FF7138BF636A00
:10277000E3B9636A1BB9EB6A23F00103EB6270BD36
:10278000296EE26A013B013AE262A26A002AC5D0E0
:102790001170A26A0132A262C0E7E26AEB699A4252
:1027A0009EBFE36A03F1FF33EB61CFE7626A013B4F
:1027B000013A6262226A0AB92966D9E712F8010B66
:1027C00028662262D4E70000F8B5204C861C04EB92
:1027D00086035D6801466A69D2E90003834218D323
:1027E000012223898A4023EA02032381AB680BB1CB
:1027F00020469847302383F3118804EB86046368EE
:10280000002158690C30FFF7CBFD002383F31188BA
:1028100017E00F4FB97317693B445360C31ADFD0F9
:10282000288A984228BF1846936810613B449360F9
:10283000084A184402EB8102984203D10122044B5A
:102840005A74F8BD13F8011B1170F5E7041F00203E
:102850000040014020400140F8B5294C851C04EBA4
:1028600085035E68274AB36990730146107DC007EF
:1028700039D59868917392F817C0927D224F42EA39
:102880000C2207EB810700EB020C84452CD19868E1
:10289000104498605868104458601868801A18608E
:1028A000188A013880B21882738A934200D800BB1C
:1028B000012263898A4023EA0203638104EB8503D2
:1028C0005B68DB680BB10E489847302383F31188AF
:1028D00004EB85046368986941680C30FFF760FD7C
:1028E000002383F31188F8BD97F800E000F801EBAE
:1028F000CBE7044A137D03F0FE031375F3E700BF33
:10290000041F00200040014020400140036898421D
:1029100007D01A6802605060002218469A61FFF7DB
:102920000FBD7047F8B500EB81039C6905460E4664
:10293000002C4ED0302383F3118800232269616973
:1029400084F8A0308A4201D1E36803BB05EB86031B
:10295000DB685B691B68D3B1D4F8A43043B18A4209
:1029600001D1E2684ABB51F8042B9F681868B84748
:10297000E368E2690133E360636920461344A269B6
:102980006361934224BF636A6361FFF7BFFF6269BB
:102990002369934214D1E36893B105EB8603DB68A6
:1029A0001A68022A12D15A6912687AB11B8A013B4D
:1029B00013400BD105F1440204E000221146D4E794
:1029C00052F8043B31462846FFF730F9002383F3E1
:1029D0001188F8BD01F1090310B550F8234034B354
:1029E000302383F3118800EB8100C3689B695B6827
:1029F000BBB194F87420236F204603EB8203DB689D
:102A00009B695A6823691A60E2680132E260E269F0
:102A10001344A2692361934224BF636A2361FFF7D1
:102A200075FF2046FFF7E4F8002383F3118810BDFB
:102A300038B504466FF001052068844200D138BDE6
:102A4000036823605C608561FFF77AFCF4E7026A43
:102A5000C260426A4261026100228262C262FFF782
:102A6000E7BF00004FF4006208B50021044804F0FD
:102A7000FBFE40F60803024AC2F8003808BD00BF5A
:102A8000B016002010B50C46826801692046FEF79A
:102A90003DFD094AE1781378207923EA0103137098
:102AA000FDF798FEFFF76EF92046BDE810400822BA
:102AB000002104F0D9BE00BF4621002038B54B7973
:102AC00005469A070C4613D4104A43F002034B7193
:102AD000CB7811780B4313700D4A237911780B438F
:102AE0001370FFF74FF920466A682969FEF70EFD5B
:102AF0000022084B1A806379DB0705D4214628465B
:102B0000BDE83840FFF7BEBF38BD00BF46210020FA
:102B100040210020B2210020084B9B78012B09D1D5
:102B2000074B93F90030002B04DA1E2200210548E0
:102B300004F09ABE062200210348F9E7A8100020FD
:102B40009C210020161400200E14002010B5002433
:102B5000074B1C70FFF7E0FF2046FEF7E5FC204620
:102B6000FEF7FEFC034B1C70BDE81040FFF70AB9EE
:102B7000402100204621002008B58378022B06D989
:102B8000FFF7E4FF024B034A1A60FEF76DFD08BD34
:102B9000FC6F0020EFBEADDE10B5184B1B78032B89
:102BA00023D1174B1B7803BB164B1B7883F0010313
:102BB000154A03F001011078884215D01170134CAA
:102BC0001349144A9BB101230B702378C3F30011FE
:102BD00043F010032370DB09117005D1FFF7B6FF36
:102BE000237843F08003237010BD0023E0E71278C0
:102BF0000B70237862F30413F5E700BFA1210020D6
:102C0000A02100209F2100209E2100209C21002047
:102C1000B02100209A2100202DE9F843052900F277
:102C2000D680DFE811F0A700D4000600A700A700B7
:102C3000D600302383F3118800273E466D4D6E4C3D
:102C4000D5F8883095F88C9003EB890805F13803A6
:102C5000C8F80C30E86C18B11422002104F004FE0E
:102C6000286D18B11422002104F0FEFDD8F80C20C4
:102C700009F00F01A173136803F00303002972D058
:102C8000022B4AD0032B48D0012B22D153690BB918
:102C90009369F3B1E020584B4FF0010C9874108AFF
:102CA0000CFA01F1C00818744020587408205874B8
:102CB0005874D8790843D871C0205875528AD20800
:102CC000DA7480221A7510221A751A755A7A11430D
:102CD000597228460137FFF7BAFE032F2E7205F10D
:102CE000A805ADD1454C636A204663612361E66067
:102CF000A662E662FFF79CFE20462672FEF778FF8A
:102D000086F311883E4B1B7813B10520FEF74AFD70
:102D10000220BDE8F843FEF745BD536973B10023B7
:102D2000A374138A0120DB082374402363740823EF
:102D300063746374E37988400343E3719369002B00
:102D4000C7D000202C4B5875528A0120D208DA7463
:102D500080221A7510221A751A755A7A00FA01F132
:102D60000A435A72B5E7002BB3D1E37943F001036C
:102D7000E371AEE70846FEF715FD302383F31188B3
:102D8000002501261B4C20462672FFF751FE2046E7
:102D9000FFF75DFED4F8A43013B1DA6818689047E5
:102DA0000135032D04F1A804EDD101230025134CB6
:102DB00020462372FFF73CFE636A2046E5606361AC
:102DC0002361A562E562FFF733FE85F31188BDE854
:102DD000F883302383F311880023064A137282F8A4
:102DE000B03082F85831054A137283F311880520F8
:102DF0008FE700BF280E0020004001402010002077
:102E0000001F002010B50446006840B1826C00210C
:102E1000083004F029FD002223681A605A6010BDB2
:102E200070B50026051F00F1200455F8040F38B1D5
:102E3000826C0021083004F017FD2B681E605E6074
:102E4000A542F2D170BD00000022082311460148BE
:102E500004F0AEBC0C080040F7B51F464BBA090C95
:102E6000064615468DF80400ADF806308DF80510BD
:102E7000FFF7EAFFE8B104210DEB010004F0CAFC02
:102E8000044648B945B1022E0BD0032E0ED1284678
:102E9000B9B204F0C9FC044604F0D0FC204603B0EB
:102EA000F0BD2846B9B204F0B5FCF4E74FF0FF34AA
:102EB000F2E74FF0FF34F1E7054BD9680875186861
:102EC000026853601A6001220275D860FDF778B974
:102ED0000020002070B5184C4B1CE56886B028D047
:102EE000164B049503930023059323699A68914236
:102EF0001CD85E68029101960093C6F800D04FF08E
:102F0000FF369A68C3F804D0521A9A60A661FFF798
:102F1000D3FF009B3BB19A6802990A449A60019AD8
:102F200013605A60A661A86906B070BD1B68891A53
:102F3000DCE7FFF7C1FFF6E7002000205D23000873
:102F4000034BDB68036098610320FFF7B5BF00BF48
:102F5000002000207047C9434FF05533016302F051
:102F600003015943016042F380014160C2F3C10192
:102F700059438160C2F341115943C160C2F3C12179
:102F80004B43C3624FF01133C2F3C3125A43026280
:102F90004262704708B5302383F31188012100F0A5
:102FA0000F039940202220F00F00FFF7D4FF0023E9
:102FB00083F3118808BD0000464A13B5464B52F80A
:102FC000041C99420CD1002342F8043C83F314887A
:102FD000424B1A6882F3088862B65B689847FEE73E
:102FE0000C20032440F2BE713D4B3E4A9C62D862E5
:102FF000C2F8941000219962D9629C62D862802044
:10300000C3F81C0CD3F81C0CC3F81C0C00910191E4
:103010004FF40141C3F8481C4FF6FC71A3F574430B
:1030200019630F2119600223136501234BF68031C8
:10303000D364936D03F001030193009B013300936C
:10304000019B13B9009B8B42F3D1019B03B9FEE7AF
:10305000254B26498024C3F800140021A3F588439A
:1030600099611C62196A0120196220215860196057
:103070001968196019680143196054679067D16F26
:103080000329FCD102229A6001220021DA60144A4D
:103090009162D1629A6C42F400429A649A6CDA6C42
:1030A00042F40062DA64DA6C9A6C42F020029A64AC
:1030B0009A6C9A6C42F040029A649A6C9A6C42F054
:1030C00080029A649A6C9A6C42F480729A649B6C47
:1030D00002B010BD00700020EFBEADDE00E0FF1FAB
:1030E00000000140000401400050014013000003B3
:1030F0007047FEE7F0B508200026104A51681368B3
:103100000D469468043BAC4210D8E31C5B1ACD1EFC
:1031100023F00303AC4238BF00230B44D16899422B
:1031200009D8013802F11002E8D1F0BD53F8047F4C
:1031300045F8047BE7E743F8046BF0E7C079000843
:103140000C4B10B41868D968026853601A600122E9
:10315000D860002302758A680B750B691B689C6830
:103160009442FBD810BC5A680B604A6011605960E9
:10317000FDF726B800200020044B1A68DB6892682F
:103180009B689A4201D9FFF7DBBF704700200020FF
:1031900070B5EFF3118525B9EFF30583302282F383
:1031A0001188174B174E1849DC6933680A68E41A0E
:1031B000A242164A0AD9A3F58333E03B1068336074
:1031C000134B04F58334C318E034136016680C60A5
:1031D00035B9EFF30583C3F308036BB185F31188A9
:1031E0004FF47A7500210B480023E4FB05010A4ADD
:1031F000FCF7FCFF304470BDFFF7BEFFEEE700BFF9
:1032000000200020C01E0020BC1E0020B81E002090
:1032100088598F029F860100A08601002DE9F047A2
:10322000884691469A4600250E4E2F01F35D06EB27
:10323000051493B901236070F355FFF7A9FF062326
:1032400023739DF820306060C4F8088084F80D90E6
:1032500084F80EA0E373BDE8F0870135142DE4D1A6
:10326000F9E700BFB42100202DE9F04F002401262A
:103270004FF0300889B0DFF89092A44F059406947F
:10328000079459F8041B4B1C40F0CD800134E4B284
:1032900076000F2CB6B2F4D10C229D4805A904F09B
:1032A000F9FA054620B10C22994805A904F0E4FA80
:1032B0000027DFF86082984E98F800403770002CA5
:1032C00000F01D81FFF764FF944A13681060C01A74
:1032D00059D07F2828BF7F203A46BB46BA46019086
:1032E0009DF8043096F800C003938D4B88F8007069
:1032F0008C4EDFF81CE2DFF830821F70029700214D
:1033000002EB010918F809305F0821D001988742C3
:1033100000F3DE8023F0FE0308F8093013F0010308
:1033200040F0DE8001233788BEF800908B4003EA2E
:10333000090927EA030349EA03035F40BFB257EADA
:103340000C0714BF4FF0010C4FF0000CA346338064
:1033500001310F29D4D10F325A2A06F102060EF19B
:10336000020ECCD1029B13B101226D4B1A70BBF13E
:10337000000F02D0684B83F800C0BAF1000F02D0F2
:103380000122644B1A7045B9654B1B78002B47D05E
:103390001CB9FFF7FDFE614B18600022604B92469E
:1033A0001A704FF001091346DFF864E15D4D5E4E7F
:1033B00000203EF8028B35F8027B88EA070702EB13
:1033C000000C16F80C1009FA00F427424FEA510BD2
:1033D00000F08880BBF1000F12D118EA040F14BF6F
:1033E00001235B4643F00A0306F80C3013F0010397
:1033F00000F083809A4635F8021C4C4025F8024CB8
:1034000001300F28DBD10F325A2AD1D1BAF1000F87
:1034100002D00121404A117013B101223D4B1A70B4
:1034200009B0BDE8F08F88F31188012221F00F0068
:1034300001F00F0102FA01F529462D04FFF78BFD7B
:103440008561002383F3118800BF00BF00BF00BF68
:1034500000BF00BF00BF00BF00BF00BF00BF00BF74
:1034600000BF00BF00BF00BF00BF00BF00BF00BF64
:1034700000BF00BF00BF00BF6FEA060C2B4D05A8C0
:1034800055F8041B30F8022BB1F1FF3F1DD021F09D
:103490000F0EDEF810E001F00F012EFA01F1C9075E
:1034A00013D432430133DBB2062B20F8022CE7D1D0
:1034B00059F8040C431C01D0FFF76CFD7A687B6857
:1034C0009B1AB3F5346FFAD3E0E602EA0C02E9E79F
:1034D0000398A2463F1A67F3470308F8093037E715
:1034E000029335E7BBF1000F8AD011F0010487D1B8
:1034F00064F3470106F80C1082E7012380E7002DF2
:103500003FF442AF45E700BF64810008001000E0CF
:10351000D6200020C8200020C9200020C420002080
:10352000C1200020CA20002067200020A0810008C0
:1035300038B5FFF72DFE00F57A75FFF729FE8542B5
:1035400014D9FFF781FCA0B1052004F041F904F083
:1035500051F9044604F072F9002C04DB14F0010464
:10356000EBD1204638BD231DE7D0FAE76FF0010408
:10357000F7E74FF0FF34F4E710B5FFF7D9FF044643
:1035800008B1002010BDFFF75FFC28B94FF0FF30F5
:10359000B0FA80F04009F5E7062004F019F904F0CC
:1035A0004DF9234622462146D820FFF755FC002836
:1035B000E7D1FFF7BDFFEBE710B5FDF7D3FA0446FF
:1035C000FFF7DAFFFFF74EFA012C03D1BDE81040F8
:1035D000FDF7D4BA10BD2DE9F04180460C46D60067
:1035E000FFF7A6FF054648B132460021204604F009
:1035F0003BF9B5FA85F04009BDE8F0813346224633
:1036000041460320FFF728FC05460028ECD121465F
:103610002644D1E90023D243DB4341F8082BB142D1
:1036200041F8043CF5D1E4E72DE9F04F0646144695
:103630004FF00009C3B00091202C254628BF20255B
:10364000009B4FEAC50A524603EBC90102A804F0E9
:1036500013F9002202ABD3E90001C043C943013290
:1036600043F8080B954243F8041CF4D15746B04682
:103670000DF1080BFFF75CFF78BBFFF7E5FB60B3CC
:103680005FFA88F3C3F580730620BB4294BF0193B1
:10369000019704F09DF804F0D1F85A464146022003
:1036A000019BFFF7D9FBC0B9019BFF1A9B449844CB
:1036B000E0D1FFF73DFF80B9FFF7C6FB074660B1D9
:1036C000042004F085F804F0B9F8641B5644A944BA
:1036D000B2D1384643B0BDE8F08F0027F9E70000CB
:1036E0002DE9F347FFF748FF002859D0FDF73AFAD4
:1036F0002C4905464FF480720020FFF795FF294CB6
:10370000002843D10146012D01D1FDF737FA40F6DB
:103710000803C4F80038084602B0BDE8F08717F87F
:10372000013B4FEA4E195A40A2FB003800FB0E88BD
:103730004FEA421A49EAD26913EB0A0348EB090837
:103740004FEAC21A9B184FEACE194FEA02264EEBF7
:10375000080849EA526913EB0A034FEA0E2E48EBB8
:1037600009084EEA126E9B1948EB0E0EB64413EB95
:103770000C020139D3D16946CDE9002E4FF4006027
:103780000122FFF751FF4000C1B2BCE740F6010142
:1037900027464FF0000C1220034ADFF810E0E8E75C
:1037A0000146B8E7B016002025232284E49CF2CB22
:1037B000044BD3F80038B3F5805F01D3FFF790BF17
:1037C00001207047B01600202DE9F04F8318B3F5A3
:1037D000006F04460E46154685B050D8DFF8A4A009
:1037E00000EB0A073946304604F054F8002846D06A
:1037F0002A463146384604F03FF8FDF7B3F94FF05A
:10380000000883464FF000094DB9FFF7D1FFBBF127
:10381000010F34D105B0BDE8F04FFDF7AFB9052D6C
:103820002F4628BF0527C4F3024343EAC703CDE967
:1038300000893A4631468DF800300DF10300230A25
:103840008DF801308DF8024004F016F8DDE9002310
:10385000DAF80008CDE9022302A90122FFF7E4FE0D
:103860000028D4D0DAF800380833CAF80038FFF757
:103870009FFF0128CBD1ED1B3C443E44C4E705B07B
:10388000BDE8F08FB0160020F8B50D460646144688
:10389000D31D23F0070300AFADEB030D69462846A7
:1038A000FEF7D0FB22466946304603F0F3FF20B115
:1038B000224631462846FFF787FFBD46F8BD000087
:1038C000082208B517210348FFF7DEFF0022024B4C
:1038D0001A7008BDA8210020C41E002010B5084C95
:1038E00005232046032200F8013B064903F0C4FFEC
:1038F0004FF67F73A380BDE81040FFF7E1BF00BF24
:10390000A8210020B4780008F0B585B0102200216D
:10391000684603F0A9FF442440F23F4540F2C13716
:10392000102D2E4628BF1026394632466846FFF72E
:10393000ABFF013C3744A5EB0605F1D105B0F0BD66
:1039400037B50C460546FEF78DFBA04207D0012295
:1039500028460DF107018DF80740FFF735FF03B04A
:1039600030BD042838B51D4616D8052914D80E2AAE
:1039700012D81E23520003FB0122B42303FB0024B0
:10398000290A04F12900FFF7DBFFE9B204F12A005C
:10399000BDE83840FFF7D4BF38BD042870B51646DF
:1039A0001D4614D899B9800000F2AD3482F00100B0
:1039B00004EB4000190AFFF7C3FF002E0CBF0320E1
:1039C0000120E9B22044BDE87040FFF7B9BF70BDE7
:1039D0002DE9F74F0024194EDFF864A0D1460025E9
:1039E0005FFA84F80FE0FAB240463BF8023B013739
:1039F0000191FFF7B6FF0F2F0199F4D10135062D84
:103A000009F11E0903D0CB460027E9B2EBE7338862
:103A1000012200214046FFF7C0FF002273881146B3
:103A200040460134FFF7B9FF052C06F104060AF100
:103A3000B40AD3D103B0BDE8F08F00BF907E000878
:103A40000C7B000808B5FF212520FFF779FFFF2137
:103A50002620FFF775FFFF212720FFF771FF0021C8
:103A60002820FFF76DFFFFF7B3FFFFF74DFF26217B
:103A70002520FFF765FF08212620FFF761FFBDE83D
:103A8000084020212720FFF75BBF37B50C460546CD
:103A9000FEF70BFCA04207D0022228460DF10601DA
:103AA000ADF80640FFF790FE03B030BD094A08B5F7
:103AB0005378C3F3800181420BD060F382035370CB
:103AC00004201188FFF7E1FFBDE808400220FCF761
:103AD00031BE08BD9C21002037B5042200230C46CE
:103AE0000DEB020101930546FEF7ACFA019B9C42E7
:103AF00006D0042228460DEB02010194FFF764FE74
:103B000003B030BD70B50446214D0322214922483F
:103B10002E7803F0B1FE032C18BF204B21464FF046
:103B2000130018BF1C702C70FFF7D6FF2046FCF75F
:103B3000CDFC1B4BC0F307221870032EC0F30740C7
:103B40005A70987021D0032C40F6B83308BF4FF458
:103B5000FA73144A13800122134B1A700023134A7C
:103B60001370134A1370FFF713FB0B4A114B517874
:103B700018601378907843EA012343EA0040FDF788
:103B800017FBBDE87040FFF707B84FF4FA73E0E7A2
:103B9000A1210020BE100020BB1000209921002090
:103BA000B8100020B61000209F210020A021002086
:103BB000982100209421002008B5FFF7FDFC4FF666
:103BC000E3610020FFF761FF00210220FFF7B8FE4C
:103BD00001210D4B03201970FFF7B2FE4FF4A051E5
:103BE0000420FFF752FFFFF779FEFFF72BFF0021BC
:103BF0000F20FFF771FF00211320FFF76DFFBDE8D5
:103C00000840FFF75DBE00BF4321002008B5837860
:103C1000022B05D9FFF7D0FFFEF798FFFDF724FD33
:103C200008BD00002DE9F04FA14C97B0D4F80080FA
:103C3000FFF7AEFA8146A0EB0805FFF7A9FA0021CD
:103C400020609C4C0F4694F800C008F57F43664600
:103C5000FF33A3EB090ECBB29C4510D807B12670F9
:103C6000954C964E237835781A460593032A00F230
:103C7000B680DFE812F019002D00FD03090401F100
:103C80000C0204EB4202537892F80280013143EABD
:103C900008239E4523BF5B1953701B0A012734BFBD
:103CA00006F1FF369370D6E70022854B81491A70E2
:103CB000844B29221860844803F0DEFD834B1B7877
:103CC00013F0030218BF9A0801233270237086E0B4
:103CD0007F4B7E4E1B78AB4220D17E4A33781278E0
:103CE00003F003039B1A18BF0123754F98467A7897
:103CF000BB7073799A4205D00022114610467B7042
:103D0000FDF718F9092D0BD86B1E082B0DD8DFE82D
:103D100003F01550696B6D6F717577000123E4E74F
:103D2000FF2D00F05581002046E0B8F1000FFAD0D9
:103D3000002211461046FDF7FDF8F4E73878FDF74C
:103D4000FBF8654980460322ADF8440012A803F051
:103D500093FD1298FCF720FFDFF880B1C0F3072A2B
:103D6000C0F30743C8F307248DF841A08DF8423013
:103D70008DF840005FFA80F95FFA8AFADBB25FFAE9
:103D800088F85FFA88F2944204D84F2C8CBF002048
:103D9000012011E07A781BF80810114206D0524633
:103DA000494640460593FDF763F8059B08F1010875
:103DB000E7E74B48FDF7D0F8414B1A7801321A700B
:103DC000002840F0548102213B4A9B781170002B5F
:103DD00040F04D81002D40F00D810323137017B08A
:103DE000BDE8F08F3F48E5E73F48E3E73F48E1E7BC
:103DF0003F48DFE73F48FDF705F9DDE73E48FAE7D2
:103E0000314B38781B78DFF8C4900693013B23EAE6
:103E1000E3730793FDF790F8C0F307230893374B3C
:103E2000C4B203EB4407FA33ADF83C000B93089A95
:103E3000E3B29A4201D84F2AA8E7214B0B9A5B784C
:103E4000125D1A4231D00322234910A803F014FD59
:103E5000002199F80330DDF81C801B4A0A9308EB17
:103E6000020A069A5FFA88F39A4249D80A9B03FB32
:103E7000011109128DF84210109BADF848301B0C4F
:103E80008DF84A301298FCF787FEC0F30722C0F382
:103E900007438DF844008DF845208DF84630C1B2B7
:103EA000DBB22046D2B2FCF7E3FF01340237BEE7B3
:103EB000E4150020581F0020060E0020E815002001
:103EC000070E0020EC150020C51E0020A8210020B0
:103ED000050E0020040E0020A92100200281000808
:103EE0004D0C0008B90C0008E10C0008190D000881
:103EF000510D0008A10D0008DB0D00080880000826
:103F00001AF8013F97F85A209AF80800A2EB030C20
:103F100097F85B20CDF824C0131A1A465B430CFBBC
:103F20000C3C1FFA8CFCBCF1010F2ED85FFA8CF30D
:103F300099F804C06C480CF1010CBCF1FF0F28BFCC
:103F40004FF0FF0C08F10C0E00EB4E0E9EF8010036
:103F50009EF802E08DF8421040EA0E200CFB0000B3
:103F6000C0F30F20099900901098FCF752FFC0F39E
:103F70000741C0F307238DF842108DF840008DF8FB
:103F80004130C9B208F101086BE7BCF5F75F8EBF9D
:103F90004FF0FF0E4FEA5C1E0EF1080E059898BF19
:103FA0005FFA8EFE00EB0E035B1003FB03FB1FFAB0
:103FB0008BFBDC4507D2013B5FFA83FE7045F1D9EC
:103FC0000138C3B2B4E7FF2BB2D00133D8B2F5E762
:103FD000464B1B68C3F38123022B41D0032B43D0F4
:103FE000012B4FF0000238D011461420FCF7A2FF3D
:103FF000022323704FF000083D4BC14618783D4F17
:104000000138C0B2FCF798FFADF83400C5B2C0F378
:1040100007243B78002B40D0D7F804A0FFF7B8F86E
:10402000BB68A0EB0A0083422AD8FFF7B1F83B7BBC
:10403000786003BB87F80090C7F8049078788542D1
:104040002BD8844229D9FB7BBA7B797B83F0FF0391
:1040500082F0FF0281F0FF011DE014211046C5E748
:10406000002114220846C1E714221146F6E7002D6C
:104070003FF4B5AEBEE7013BDBB23B73002BD9D0BA
:104080003B7BD807DAD57878854206D8844204D9B4
:10409000FB7BBA7B797BFCF7EBFE08F10108B8F1FA
:1040A000140F07F11007B4D1134B1B78002B40F00D
:1040B0008F80124B1B783BB1114B12491B7803EBDD
:1040C0004303CA18CB5C04E00F4B1B7803B30F4AC1
:1040D00013785178927843EA01232846214643EA2F
:1040E0000242FCF7FDFE73E0C51E0020EC15002027
:1040F000070E0020B4210020982100209F210020DD
:10410000A12100208E820008A0210020BE100020E6
:10411000A84B1B78032B40F000812F46FBB29C423A
:1041200000F29F804FF066094FF0FF08F3780027F8
:1041300009FB03F2B2FBF8F2D2B2019256225343CA
:10414000B3FBF8F3DBB2214628469B4A0297009363
:104150000C23FCF7AAFEF378214609FB03F2B2FB1D
:10416000F8F2D2B2029244225343B3FBF8F3DBB22B
:104170002846924A019700930623FCF796FE3C22BC
:10418000F37821465343B3FBF8F3DBB228468C4A5D
:104190000293019300970423FCF787FE4C22F378E7
:1041A00021465A43B2FBF8F2D2B20292362253436E
:1041B000B3FBF8F3DBB20193009704232846814A4E
:1041C000FCF773FE3E46804F3B78F2B2934250D8E4
:1041D0007E4F3B78002B00F0B680990740F1B3800A
:1041E0004FF080094FF000080D22794912A803F022
:1041F00043FB0D232146284612AACDF80890CDF89E
:104200000490CDF80080FCF735FEFF2640F23F33E6
:1042100021462846ADF838300EAA022302960196B0
:104220000096FCF727FE40F202432146ADF83C30F1
:1042300028460223CDE9008902960FAAFCF71AFE50
:10424000372D6CD8372C07D94346424631463720A4
:10425000FCF70EFE402C66D8152D74D8152C72D99B
:104260006BE0002338461A461946FCF701FE013779
:1042700054E702F10C0107EB41014B78897843EADE
:104280000123952B30D83A44507C00224A4991F8BA
:1042900000C084452AD00132D2B20C2A01F10101BA
:1042A000F5D10022454991F800C084451ED0013265
:1042B000D2B2062A01F10101F5D10022404991F85C
:1042C00000C0844512D00132D2B2042A01F10101AA
:1042D000F5D13C4991F800C0844507D0013A12F06D
:1042E000FF0201F10101F5D101366DE78542FBD8EE
:1042F0008442F9D99622C3EB0323B3FBF2F3DB43E9
:10430000344ADBB2D2785343FF22B3FBF2F3DBB281
:104310001A461946FCF7ACFDE6E72F49CFE6402DDB
:104320003DD8402C0FD90023FF211A464020FCF72E
:104330009FFD4F2C37D8152D05D800234022FF2193
:104340001520FCF795FD3B78002B4BD05A0749D53B
:10435000452D00F28680452C40D90023FF211A46C6
:104360004520FCF785FD2C2D00F2A1800023A5221D
:10437000FF212C20FCF77CFD302C33D9FF220023B9
:1043800011463020FCF774FD4A2C61D8412C29D904
:104390000023FF211A464120FCF76AFD22E04F2D41
:1043A000D1D84F2CCFD9FF2300227A214F20FCF700
:1043B0005FFDC0E7A1210020B47E0008AE7E0008AA
:1043C000AA7E0008A67E0008C51E00204421002009
:1043D000B7780008A82100208E8200082C2D62D812
:1043E0002C2CC3D83B78002B3FF4F9ACDB067FF5CF
:1043F000F6AC1C2D07D81C2C05D90023FF211A462A
:104400001C20FCF735FD10222B4912A803F034FACA
:10441000002612AF17F8010B854206D8844204D952
:104420000023FF221946FCF723FD0136F6B2102EB9
:10443000F0D1142D3FF6D3AC142C7FF6D0ACFF2373
:1044400000227A21142017B0BDE8F04FFCF710BD10
:10445000FF2300227A214A20FCF70AFD412DC1D812
:1044600096E74A2DBED84A2CF2D8412DBAD88DE70E
:10447000124B134A1D70134B1B78C3F301031370C7
:10448000FCF7EEFF032321E40F4B1B780BB1FFF782
:1044900017FA0E4B1D68FEF77BFE401B0F287FF6B8
:1044A0009EAC002312E4302D7FF666AFDDE7302DA1
:1044B0007FF664AFD7E700BFC5780008050E00207F
:1044C000040E0020A8210020C41E0020EC150020AE
:1044D0002DE9F74F302307469146009183F3118869
:1044E000A824504D04FB0054D4F888301B78042BCA
:1044F0004FF0000304D083F3118803B0BDE8F08FC0
:1045000094F8A02042F21078002A18BF4FF000085B
:1045100083F31188302383F311884FF0000A009E43
:10452000DFF804B1A26A3AB9E26852B32269111DF8
:10453000A162E1690A44E262A06AE26AA9EB0A01A7
:10454000121A8A4228BF0A46402A44D931464022DC
:1045500003F092F9A16A403640310AF1400AE26A5A
:10456000A1628A4204D8E16920460439FDF706FBBE
:10457000002282F31188D1451CD9302282F31188A0
:10458000D0E7227A82B9B8F1000F0DD0DBF80C2009
:1045900061681460516004200A6042F21071626028
:1045A000FEF798FC0028BFDA4FF0000B8BF3118860
:1045B000D1451AD8302383F31188A82303FB07556C
:1045C000A96A31B12B690439C91A02D02046FDF716
:1045D000D5FA00238FE73146019203F04DF9019A95
:1045E000A16A164411449244B9E7302282F311883B
:1045F000A82606FB075696F8A0202046BAF1000F21
:1046000008BF42F0010286F8A020FEF711FA20460A
:10461000FEF71DFA86F808B0FEF7AEFD8BF31188A1
:1046200078E700BF280E0020002000200146082265
:104630000120FFF74DBF014620220020FFF748BFB1
:10464000014603220020FFF743BF20290A4603D179
:1046500001460220FFF73CBF70470000302383F380
:104660001188034BDB6898610F20FEF725BC00BF63
:104670000020002008B50146302383F3118808206C
:10468000FEF728FC002383F3118808BD38B53928CC
:1046900014BF0A2550250446FDF7F8FB40F2E73029
:1046A0000021DFF820C00023E5FB0C014FF47A72F3
:1046B000FBF79CFDFFF7DEFF2046BDE83840FDF725
:1046C00069BC00BFA08601002DE9F0411F460C46E1
:1046D0001646244B68B11970FEF75AFD224B04F0C0
:1046E000070418800120A040C0B2BDE8F041FDF7EA
:1046F0007FBC1D788D422DD11B4BB3F80080FEF797
:1047000047FDA0EB080080B2C72823D806F120049B
:10471000B542E4B210D005F00700012505FA00F01B
:10472000C0B2FDF76FFC072C06D806F0070305FAA8
:1047300003F0C0B2FDF75CFC3846FFF7A7FF072C7B
:104740000DD8012006F00706B040C0B2BDE8F04128
:10475000FDF758BC012004F00704A040F5E7BDE8D0
:10476000F08100BF3E210020F01400202DE9F04F21
:104770000379064689B0002B00F0FA860121FDF787
:1047800021FD73790546A3B1AA4B1C888CB1A042C8
:1047900010D0E0B202289CBF1422A74B4FF00001BA
:1047A0008CBF002402FB0034FCF77EFE014600288B
:1047B0005DD12C4673790BB3FEF7EAFC9F4B186072
:1047C0009F4B1A78D2B100221A70FCF7AFFC9D4BB8
:1047D0001878FBF77BFE9C49C0F30722C0F3074320
:1047E00008704A70C0B2D2B28B7040EA0220DBB2CD
:1047F00040EA0340FCF7DCFCFEF7CEF947F64363E2
:104800009C4211D0914F3B78002B00F0AD86990768
:104810004FEA630240F18E867378032B40F08A865C
:104820003378052B40F08686737963B1854B1B780E
:10483000032B12BF0320864B1878FFF763F9FEF7AE
:10484000A7FC7E4B1860834B1B785F0700F09086B7
:104850007379002B00F08C867F4B5B785D0740F10D
:104860008786022009B0BDE8F04FFBF763BF4379AC
:10487000058043F0040343712046FEF71FF9002230
:10488000764B012130461A70FDF79CFC044691E7F7
:1048900031462046724AFDF7BDFA0028D3D0314692
:1048A0002046704AFDF7B6FA0028CCD047F62B0315
:1048B0009C421CD1737943B301210846FCF758FC94
:1048C000FF2300241A460093C8214F20FEF7A6FCC0
:1048D00023462246C8214E200094FEF79FFC234623
:1048E0002246C82120460094FEF798FCABE747F625
:1048F00041639C4200F089803CD847F213039C42FC
:1049000046D047F640639C4277D07579002D00F081
:104910006081A4F5EE439BB27F2B00F25A81E4B292
:104920000F2C90D8012140F23E4005AAFDF7C4FBB0
:104930009DF81450002D86D140F23F47002C6BD1DA
:104940000595494F494DDFF8288105A8FDF7CCFBB7
:1049500000283FF478AF012840F0D98005A8FDF782
:10496000C3FB431E0446032B00F29380DFE803F0F1
:104970008C999FA547F642639C42C6D17379002B60
:104980003FF461AF3B4A137883F0010313705AE799
:104990007379002B3FF457AFFEF7D8F82E4A1378FF
:1049A00083F08007FF0967F3C7131370A7B10C22C8
:1049B000314905A802F060FF0024FF2705ADFF2361
:1049C000009701341A46C82115F8010BE4B2FEF72E
:1049D00025FC0C2CF3D136E70425284B05AC0593B8
:1049E00000970023FF22962114F8010B013DFEF7EA
:1049F00015FC15F0FF05F3D125E77379002B3FF483
:104A000022AF01221B4B1A701DE77379002B3FF474
:104A10001AAF0022174BF6E7BD423FF414AF012155
:104A2000284605AAFDF748FB9DF8143043B301352D
:104A3000F2E700BFB2210020C4100020382100207E
:104A400098210020A1210020BE1000204421002038
:104A500099210020452100209C2100204621002092
:104A6000B1100020AC100020FE8100080E8200086A
:104A7000EE810008B0210020D6780008464438397D
:104A8000013CE4B2013559E705A8FDF72DFBFFF71E
:104A9000FDFD4FF47A70FFF7EDFD002C7FF455AF6C
:104AA000D1E605A8FDF720FBFDF7F0F9F1E705A831
:104AB000FDF71AFBFDF76EFAEBE705A8FDF714FB0F
:104AC0004FF0000904464FF00A0BDFF8DCA21AF899
:104AD000041011F0040110D1B9F1000F15D040F20B
:104AE000E730DFF8C8C24FF47A720023C9FB0C012B
:104AF000FBF77CFBFFF7BEFDCBE705A8FDF7F4FA5B
:104B0000303C0BFB09490446E1E70120F2E7C0F322
:104B1000C702A749BB5C2C5C18F8029000F00700A4
:104B200011F802A0034149FA00F94AFA00FA13F019
:104B3000010B09F001090AF0010A0AD09D4A137815
:104B400043F002031370FDF71DF94FF47A70FFF77D
:104B500091FDB9F1000F0AD0964A137843F0400353
:104B60001370FDF70FF94FF47A70FFF783FD2046BD
:104B7000FDF78CF94FF47A70FFF77CFD2046FDF7C6
:104B800009FA4FF47A70FFF775FDB9F1000F08D0FC
:104B90004020FBF71FFEFDF7F5F84FF47A70FFF7A2
:104BA00069FDBBF1000F08D00220FBF713FEFDF7F3
:104BB000E9F84FF47A70FFF75DFDBAF1000F3FF4AA
:104BC000C4AE2C20FFF762FD4FF47A70FFF752FD60
:104BD000BBE6A4F5AE43FF2B00F28C80E0B20228C6
:104BE00082463FF630AE2946FCF75EFC8046002840
:104BF0003FF429AE4379DFF8C09165F300034371B8
:104C0000002D60D0FEF7C4FA6C4B6A4A188098F801
:104C100002301278013388F80230694B40461B7825
:104C2000134388F80330674B1B7888F8043014234B
:104C300003FB0AF309EB030159F803200969FCF7A8
:104C400065FC98F8053013F0020F0CBF22460022D5
:104C50005D4B1A807279002A00F05E8400215B4B64
:104C6000A4F5E0451970ABB2222B00F23D8404207C
:104C7000FDF71BFB564C013D2080212D63D8DFE85A
:104C800015F0B7002201BF0072007600C3007A0061
:104C9000C700D30086001A018A00D7008E00DB000F
:104CA0000101A900DF000901AF00E500ED007E0071
:104CB000CB008200CF00B300E900F8001301180117
:104CC0006D00BB002A01142303FB0A99D9F80C20BC
:104CD000D9F81010FCF71AFC98F805309B07B9D5E5
:104CE00041464846FDF7CEFE374B1A88A242B1D165
:104CF0001D80AFE7A4F5F843183B062BAAD8DFE8E0
:104D000003F00F13040B171B1F00E122262311468B
:104D10002846FFF7D9FC96E52723E522E521F7E7AA
:104D20002623E122E021F3E72723E522E421EFE730
:104D30002623E122E221EBE72723E522E621E7E72C
:104D400028230122EAE7237843F00103237004209B
:104D50002188FEF79AFEFDF7F9FE74E5637843F0CB
:104D600008036370F3E7237843F00203EEE7237848
:104D700043F00403EAE7237843F00803E6E76378A7
:104D800043F00103EDE7637843F00203E9E723789A
:104D900043F01003DAE7237843F02003D6E72378C3
:104DA00043F04003D2E700BF9B820008A0860100C9
:104DB000EE81000840210020C41000203C2100208A
:104DC0004621002041210020B22100203E21002068
:104DD0009C210020FDF7BAFE237843F08003B5E75D
:104DE000237843F00C03B1E7637843F00303B8E79B
:104DF000237823F00103A9E7637823F00803B0E7E1
:104E0000237823F00203A1E7237823F004039DE72E
:104E1000237823F0080399E7637823F00103A0E7E0
:104E2000637823F002039CE7237823F010038DE7D7
:104E3000237823F0200389E7237823F0400385E7D4
:104E4000FDF784FE237823F080037FE7237823F0A7
:104E50000C037BE7637823F0030382E72378C3F333
:104E6000800282F00102D2B262F3820362F3C303D2
:104E70006CE76378DA4302F0010262F3000362F345
:104E800041036EE72378C3F3801282F0010262F3DC
:104E900086135BE7FDF75AFE2378C3F3C01282F056
:104EA000010262F3C71351E701210E20FEF748FD0E
:104EB0004DE70021F9E72378C3F3001282F00102E5
:104EC00062F3041342E72378C3F3000282F0010285
:104ED00062F300033AE76378C3F3C00282F0010291
:104EE00062F3C3033DE71B78A4F5F041A1F1200074
:104EF00003F022030A282CD8DFE800F00E1259171D
:104F00005E1C632168266D0047F677439C4274D18E
:104F10000120FBF74BFB94E00120FCF7F9F892E449
:104F2000002B46D0FCF76EF98DE4002B46D0FCF741
:104F300091F988E4002B46D0FCF7A6F983E4002B16
:104F400046D0FCF7BDF97EE4002B46D0FCF7D2F941
:104F500079E440390E294CD801A050F821F000BF67
:104F60009D4F0008A94F0008194F0008214F000865
:104F7000AF4F00082B4F0008B94F0008354F00080D
:104F8000C34F00083F4F0008CD4F0008494F0008AD
:104F9000D74F0008E14F0008E94F0008FCF7C6F8BA
:104FA0000120FBF75DFF4EE4FCF7D2F8F8E7002B99
:104FB000B8D0FCF719F946E4002BB8D0FCF740F95B
:104FC00041E4002BB8D0FCF751F93CE4002BB8D0F9
:104FD000FCF768F937E4002BB8D0FCF77FF932E42E
:104FE00023B1FCF7A3F92EE4002BFAD0FCF78EF9DD
:104FF00029E447F677439C4215D047F678439C4214
:1050000019D0A4F5A543603B9BB21F2B1DD86ABBEA
:1050100004F01F0301249C400320E1B2FEF790FC42
:10502000A74B1C700FE40120FBF7B6FA0322022104
:10503000FBF73AFB07E40220002A3FF46AAFFBF7D4
:10504000ABFA032202210120F2E7AAB347F65B4341
:105050009C4225D047F65C439C4215D047F65A4304
:105060009C421BD047F601439C4222D047F60343A3
:105070009C4217D0B4F5F84F1ED1FDF767FD914B58
:10508000914A1A60FCF7F0FA904B587880F00400CF
:10509000C0F38000FEF70AFDFFF7D5BB0120F9E75A
:1050A0000020F7E7FEF788FA4FF6FF710020FEF7C1
:1050B000ECFCFDF74BFDE5E73388ADF810300498C4
:1050C000002A58D0FDF756F8044601460498FBF72D
:1050D000AFFABDF810302046ADF814300599FDF751
:1050E00029F8FBF767FCDFF8E8A196F806909AF834
:1050F0000080044618F007087579C9F3031928D011
:10510000A84635B3C4F3072303F0F002402A0ED0BB
:10511000C1B201F12002D2B2072A30D903F0E00374
:10512000202B04D101292AD9B9F1000F2AD0674BCD
:1051300093F8018018F004080BD00220FBF7FAFA6C
:105140009AF8003013F0070F0CBF4FF001084FF032
:105150000008C4F303330B2B6AD8DFE813F0150003
:10516000150049004900D200690069006900E900A2
:105170004E0160016001FBF779FA0446A9E74FF0A0
:105180000008E6E7C846E4E7C4F30327C4F30722B0
:105190003B010F2A88BF1F46E4B295B15FB104F10D
:1051A0002003DBB2072B00D94CB94A4A13783B43A2
:1051B0001370FCF7E7FD2046FCF768FE38E0464A2E
:1051C000F4E72046FCF7E6FE002F31D004F120037F
:1051D000DBB2072B00D91CB93846FBF7FBFA04E019
:1051E0003D4A137823EA07031370FCF7CBFD1FE059
:1051F000C4F30320C4F3072303F0F0030201E4B275
:10520000202B18BF10463CB1012C4ED0002D69D088
:10521000B9F1000F27D0CEE72C4B5B785C071ED48A
:1052200025B128B12B4A13780343DDE70028D4D1F8
:10523000B8F1000F00F0A5809AF8000010F001030B
:1052400040F09F807371C008FBF7A6F93046FFF766
:105250008DFA9AF80000C008FBF7A8F991E085B133
:10526000B9F1000F02D1FCF7C3FEE1E7B9F1010F7C
:10527000DED11A4A137830EA0301D9D00343137000
:10528000D6E7B9F1000FD3D10390FCF7BBFE134A68
:105290000398137818421CBF83431370104A137885
:1052A0001842C5D023EA0003E9E71DB1B9F1050FA3
:1052B000BED8D8E7B9F1040FBAD8FCF7A3FEB7E718
:1052C00043210020FC6F0020EFBEADDE9C210020BA
:1052D00045210020402100204621002041210020BE
:1052E00042210020B9F1000FE7D0392C0CBF4FF458
:1052F000FA504FF47A70FFF7BDF92046FCF74AFEEA
:1053000096E714F4406FC4F3812307D0012B8FD1AB
:1053100065B1C4F30900FCF723F989E725B1C4F3AB
:105320000900FCF701F983E72846FAE72846F2E787
:1053300014F4407F32D105BB0F21C4F34212920016
:10534000D2B29140C94304F00F03C9B2934014F0A4
:105350001002C4F3812418BF0A46022C864917D0D4
:10536000032C19D0012C04D013430A7813400B707E
:1053700003E0087803431A430A70FCF7CBF8FBF705
:10538000FFF80021304609B0BDE8F04FFCF71ABF26
:1053900013430A785340EAE71343E8E7C4F30122D2
:1053A000EDB1D107E9D50F21C4F342129200D2B278
:1053B0009140C94304F00F039340C9B214F01002A6
:1053C000C4F3812418BF0A46022C10D0032C12D03B
:1053D000012C07D013433A7813403B70CDE7012AE4
:1053E000E1D8CAE739780B431A433A70C5E713434B
:1053F0003A785340F1E71343EFE7E7B2C4F30324ED
:1054000035B12046FBF7C8F83846FCF7F1FDB4E7A4
:105410003846FCF7F7FD2046FBF7C8F8ADE75FFA22
:1054200084F8A8F1F003042B40D8DFE803F003244C
:105430000F1620003DB1B9F1040F9ED8C4F304202B
:10544000FBF7BEF899E7B9F1050FF6E7C4F30420BE
:10545000002DE1D1FBF7A0F88FE735B10123C4F3AC
:10546000042403FA04F43C7087E73D7085E7434B5E
:105470005B785A0704D4C4F30420002DCCD0E9E7AC
:105480004DB15B07C4F30420E4D5C30043F003032C
:105490008AF80030DEE70120FBF74CF9B9F1010F83
:1054A0007FF66BAF0220FBF745F966E74DB1B9F126
:1054B000000F03D04046FCF7E9FC5EE7C4F304208C
:1054C000C8E7B9F1000F0CD0B8F1390F0CBF4FF499
:1054D000FA504FF47A70FFF7CDF84046FCF75AFDCA
:1054E0004BE7C4F3042097E747F616439C42244B4E
:1054F0007FF4F9AC1B7803F0AA03002B14BF012240
:105500000022204B0CBF292035201A70FCF744F8EC
:10551000FCF738FCFFF797B947F616439C427FF437
:10552000F3AC184B1B78002B0CBF29203520FCF75F
:1055300069F8EDE747F644639C420AD0D2077FF54D
:10554000A7A97378022B7FF4A3A933780D2B7FF4DE
:105550009FA97379002B3FF476A90B4B1878013083
:1055600000F00300FFF769B947F644639C42EEE799
:1055700009B0BDE8F08F00BF432100209C2100202E
:10558000402100203F210020A12100201C49F8B526
:105590008B790F2B0AD84B7943B11A4B1A4A1B78D7
:1055A00015784E780F78194CAB4200D1F8BD04EB5A
:1055B000C300027902B34278B2421DD114F83320FD
:1055C000BA4219D14279BAB94288B1F802C0A2EB05
:1055D0000C0292B2C72A0FD801228B7962F307130B
:1055E0008B71837962F3071383710548FFF7BEF867
:1055F000BDE8F840FBF78EB8013303F00703D3E7AB
:105600008A21002048210020472100204A21002033
:105610002DE9F04F054685B08A4C014606226846C2
:1056200002F02AF994F804A06F7995F80490BAF181
:10563000000F1AD1B9F1000F15D0002F00F0FE8035
:105640002846FCF7EBFD002800F0F88008222946E8
:10565000204602F011F9B9F1010F02D12088FCF7C0
:10566000CBFDFFF793FF012444E0B5F802B0638857
:105670006679ABEB030395F800809BB2002E00F037
:10568000AE80C72B00F28880B9F1000FEBD0A37970
:1056900062780F2B697850D891420FD12278424519
:1056A0000CD1002F44D10122204662F30713A371CD
:1056B000FFF75CF8A379AB7100241BE0002F37D112
:1056C0003A464046FBF704F84046FBF701F804462B
:1056D0000028F1D10098FCF78FFDC0F30332032AB4
:1056E000C3B20BD8012A13D910F4706F15D0AA7960
:1056F0000F2A12D8204605B0BDE8F08F063202F01E
:105700000F02012A0ED92846FFF730F83446F1E798
:1057100010F4706F01D0002BECD02033DBB2072BDC
:10572000E8D9F0E7EF2BE5D90F33DBB2022BF7E72F
:10573000A37943F00103A371BEE791420DD1227812
:1057400042450AD14FB92846AB71FFF70FF808223E
:105750002946204602F090F885E72846FCF75EFDD2
:1057600000286BD0002F69D0A3791F2B0ED9228877
:1057700002A8ADF808200022ADF80AB08DF80CA000
:105780008DF80D208DF80E30FEF7F0FF0822294627
:105790002C4802F071F864E7A3790F2B08D8204653
:1057A000FEF7E4FF08220021204602F05DF883E7BF
:1057B000B9F1000F3FF457AF61786A789142CCD1CC
:1057C00022784245C9D1002FC7D12846AB71FEF7D8
:1057D000CDFF08223946204602F046F843E7C72BA2
:1057E000E0D8B9F1000F3FF43EAF3FB362786B7879
:1057F0009A421AD12378434517D1A379DA0710D4F6
:105800000F2B0ED9AB7103F0F003F02B06D0AB7960
:10581000C3F30312013262F30713AB712846FEF79C
:10582000A5FF08222946074894E72846FCF7F6FC1E
:105830000028ABD1A37943F00103A3712846FEF7FA
:1058400095FF10E78A210020F0B589B0CDE900016D
:105850009DF8055000220DB12C490A709DF8046096
:10586000DDE90001ADF80E2002905EB1012102A831
:105870008DF80C608DF80D50FCF7A4FC012102A8F6
:10588000FCF7A0FC8DF80C608DF80D50DDE90201ED
:10589000CDE9040104A8FFF7BBFE1D4E07461D4CD1
:1058A000B8B9DDE90401CDE906019DF8141033789B
:1058B000227871B15D1C05F00705954210D016489D
:1058C000082206A900EBC30001F0D6FF3570FAF7F5
:1058D00021FF114D2078337883420BD109B0F0BD00
:1058E000FDF734F9082239460C483770277001F06B
:1058F000BBFFEEE705EBC000FFF78AFE0028EDD006
:105900002378013303F007032370E3E746210020E7
:1059100047210020482100204A2100208A21002020
:1059200073B5FDF735FC0A4D84B22B88A3420DD028
:105930000026ADF80060FDF72BFCADF80460ADF873
:105940000200DDE90001FFF77FFF2C8002B070BD8F
:10595000E220002000232DE9804895B001935C4BA4
:105960009A68022A01BF1A685A4A526F5A689B699C
:1059700000231E46584A0133102B1660566002F170
:105980000802F8D10127554B554D03F10C021A615D
:10599000DA60544A5E61DA611F705E609E60524B4D
:1059A0002F7003F10C021A61DA60504A5E61DA610D
:1059B0001F7040F2BF325E609E604FF0E023EE61E8
:1059C000AE622E62EE626E622E636E60AE605A61EF
:1059D00007229E611A6180224549464883F8232D9B
:1059E00008604548454C4860454903F550634FF011
:1059F000300CA66221638CF3118862B6D8684149E5
:105A000020F4E0600004000C0143D960D3F8FC10DE
:105A10003D4841F08071C3F8FC1001684FF0000967
:105A2000394301602021D97783F822C004F11003A3
:105A3000C4E904334FF0FF33E661A361E3693348FF
:105A4000984604F13403E36000F1C403C0F8F43075
:105A50002F4BC0F8C860C0F8C4302E4BC0F8F070AF
:105A6000C0F8E4300223C4E90889A0F8FC30E263FE
:105A7000A265C4E90044C4E91466A660E662E6656E
:105A80006464A4F84870C0F8F840C0E94267C0F800
:105A90000461E830FCF754FC86F311881E4B1F4A62
:105AA000DF701F4BDFF87CA01A60FCF7DBFF01F012
:105AB00001FE4FF4807248461A49FDF78CFD00281C
:105AC00040F0B782FCF7CEFFFCF7CCFF84E000BFCC
:105AD000000C014000040140F015002010230020BC
